:100000000C943D010C948B1C0C94641C0C943D1CB2
:100010000C94161C0C9465010C9465010C94EF1B58
:100020000C9465010C9465010C94EF1D0C94611EF9
:100030000C9465010C9465010C9465010C946501A8
:100040000C9465010C9465010C9465010C94650198
:100050000C9465010C9465010C9465010C94491B8A
:100060000C9465010C94BD1D0C94C61C0C94650188
:100070000C9465010C9465010C9465010C94650168
:100080000C94AE130C9465010C9465010C946501FD
:100090000C9465010C9465010C9465010C94650148
:1000A0000C9465010C9465010C946501631A661A41
:1000B000551A591A5D1A871A871A871A6A1A6E1AF8
:1000C000721A781A7C1A871A821A6364696E6F70C2
:1000D000737578585B00070605040100080A0B0CCD
:1000E0000D0973746172740A006F6B0A004B25640A
:1000F00000572564006F6B0A00522564006F6B0A7D
:1001000000452564006F6B0A00432564006F6B0A8D
:10011000004625642025640025646F6B0A00256471
:100120006F6B0A0025646F6B0A006F6B0A00532522
:10013000640025646F6B0A00502564005825640034
:100140006F6B0A00552564006F6B0A004D25640033
:100150006F6B0A004C2564006F6B0A005425640025
:100160006F6B0A006F6B0A0000000000230026007E
:1001700029002C002F0004040404040304050202D7
:100180000202040302020202060606060606040430
:1001900002020204040408020110408040102040C2
:1001A000804080080204018040201002011080106D
:1001B000204040200000000200090F00000304015D
:1001C000000C000000000000000000000000000023
:1001D0000000080B000202020100090400000102F5
:1001E000020000052400100105240101010424027D
:1001F00006052406000107058103100040090401DB
:1002000000020A0000000705020240000007058303
:10021000024000000403090412010002EF02014041
:10022000992C0400000101020301507275736120D2
:1002300052657365617263682028707275736133EB
:10024000642E636F6D29004F726967696E616C205F
:100250005072757361206933204D4B33204D756C9E
:100260007469204D6174657269616C20322E302092
:100270007570677261646500901911241FBECFEF1D
:10028000DAE0DEBFCDBF11E0A0E0B1E0E8E1F1E5EA
:1002900002C005900D92A435B107D9F722E0A4E57C
:1002A000B1E001C01D92A63CB207E1F711E0CDE339
:1002B000D1E004C02197FE010E94A027CC33D107D2
:1002C000C9F70E947C0A0C948A280C9400000F93B2
:1002D0001F939CE59CBD1DBC813039F020F082301D
:1002E00029F42F9803C0469801C05F986EBD0DB4E5
:1002F00007FEFDCF9EB51EBC0DB407FEFDCF9EB51B
:100300001EBC0DB407FEFDCF9EB51EBC0DB407FE8E
:10031000FDCF9EB51EBC0DB407FEFDCF9EB581304E
:1003200039F020F0823029F42F9A03C0469A01C098
:100330005F9A9CE59CBD1DBC813039F020F0823075
:1003400029F42F9803C0469801C05F981EBC0DB4D5
:1003500007FEFDCF9EB51EBC0DB407FEFDCF0EB54A
:1003600010E020E030E0322F212F102F00271EBC9C
:100370000DB407FEFDCF6EB5062B322F212F102FA7
:1003800000271EBC0DB407FEFDCF6EB5062B322F25
:10039000212F102F00271EBC0DB407FEFDCF6EB518
:1003A000062B813039F020F0823029F42F9A03C0D7
:1003B000469A01C05F9A4115510529F0FA01008360
:1003C000118322833383892F1F910F910895CF9238
:1003D000DF92EF92FF929CE59CBD1DBC813039F00D
:1003E00020F0823029F42F9803C0469801C05F980E
:1003F0006EBD0DB407FEFDCF9EB5C52EDD24EE24E7
:10040000FF24CEBC0DB407FEFDCF9EB56A01EE24DD
:10041000FF24CEBC0DB407FEFDCF9EB5C32ED42E57
:10042000E52EFF24CEBC0DB407FEFDCF9EB52EBD3C
:100430000DB407FEFDCF9EB5813039F020F082303B
:1004400029F42F9A03C0469A01C05F9AFF90EF905B
:10045000DF90CF9008959C0188E03695279521156F
:10046000310511F08150C9F708951F93CF93DF93A1
:10047000182FD42FC22F262F2F70822F90E0A0E0AC
:10048000B0E0B82FAA27992788279C01AD01C03278
:1004900088F4236D436050616CEE812F0E94E70168
:1004A000DF718D2F90E0A0E0B0E0AC01BD016F6086
:1004B0008C2F13C0236D416050616CEE812F0E9420
:1004C000E701D695DF718D2F90E0A0E0B0E0AC01A0
:1004D000BD016F608C2F86958F7190E0D82FCC274F
:1004E000CE01DD0FAA0BBB0B9A01AB01282B392BD8
:1004F0004A2B5B2B60E9812F0E94E70180E0DF91AE
:10050000CF911F91089585EC91E00C94C418682F49
:1005100085EC91E00E94131980E090E0089582E656
:1005200092E00C94EB12682F82E692E00E94031294
:1005300080E090E008952E98000020E130E040E057
:1005400050E8BA0168237923672B11F02D9A01C076
:100550002D98479A000047980000569547952150DE
:10056000310979F72E9A000090936C0180936B010A
:100570000895E8EDF0E0E49120917B00E3FB88270B
:1005800080F990E035E0880F991F3A95E1F7922FB6
:100590009F7D892B80937B00E770E064E0937C0073
:1005A00080917A00806480937A0080917A0086FD41
:1005B000FCCF809178002091790090E0922B8233DB
:1005C000910564F09C01215531092331310540F03A
:1005D000815A9109439730F080E0089581E00895B1
:1005E00082E0089584E00895CF930E94B902C82F55
:1005F000882321F00E94B9028111FCCF8C2FCF916A
:1006000008951F93CF93DF938EE293E00E9411270A
:100610008F5FC82FD0E0DC2FCC278FE293E00E94C1
:100620001127182F80E393E00E94112791E01F3FCC
:1006300011F4882329F0811710F4910F01C0980F4D
:100640009E01290F311DC901DF91CF911F9108959E
:10065000FC018081813039F020F0823031F010824D
:10066000089581E003C082E001C083E080830895A3
:10067000CF93DF938BE090E00E941127D82F8CE07E
:1006800090E00E941127C82FD81759F08DE090E014
:100690000E941127D81721F0C81719F0CFEF01C019
:1006A000CD2F8C2FDF91CF9108950F931F93CF9370
:1006B000DF930E943803813011F128F0823019F065
:1006C0008330B1F51CC0C0E0D0E0082F10E0CE01AF
:1006D0000E960E94112790E034E0959587953A9503
:1006E000E1F70817190719F0CE01019723C02196E9
:1006F000C03283E0D80759F78FE193E01BC0CFE108
:10070000D3E0082F10E0CE010E960E94112790E052
:1007100024E0959587952A95E1F70817190719F0B0
:10072000CE01019607C0219770F780E090E002C0EB
:100730008FEF9FEFDF91CF911F910F910895CF938E
:10074000C82F682F8BE090E00E941F276C2F8CE051
:1007500090E00E941F276C2F8DE090E00E941F27E1
:100760000E94380391E08C1390E0892FCF91089577
:10077000CF93DF938091A3019091A401853018F06D
:1007800084EC92E21EC09927880F991F01960E945F
:100790001927EC01CF3F8FEFD80761F480E090E09C
:1007A0000E941127893C30F42AE0829FE001112445
:1007B000C452D14ECE01845F9A418D38934200F7E6
:1007C000CE01DF91CF910895CF93DF93C0E0D0E0C9
:1007D0006FEFCE010E941F272196CF3F83E0D807FD
:1007E000B9F76FEF8FEF93E0DF91CF910C941F2754
:1007F000CF92DF92FF920F931F93CF93DF9300D09E
:1008000000D0CDB7DEB700E010E0F12CCC24C394CB
:10081000D12CAE014F5F5F4F61E0802F0E946701D6
:1008200089819A81AB81BC8187709927AA27BB27D0
:10083000892B8A2B8B2B39F0C601002E01C0880F23
:100840000A94EAF7F80E0F5F1F4F0330110509F7FE
:100850008F2D0F900F900F900F90DF91CF911F91E0
:100860000F91FF90DF90CF9008951F93CF93DF9368
:10087000C82FD62F142F813031F028F0823041F468
:1008800080E190E002C082E090E00E942B0201C073
:1008900080E1212F4D2F682F8C2F0E943502D82FF9
:1008A00081112DC020E030E0A90161E98C2F0E9468
:1008B000E701C33030F4EC2FF0E0E15EFE4F208121
:1008C00001C024E0822F220F990BAA0BBB0BAC01B5
:1008D000332722276DEE8C2F0E94E70122EC31E0B6
:1008E00040E050E064E98C2F0E94E70120E831E30A
:1008F00040E050E060E88C2F0E94E70101C0DFEF8C
:100900008D2FDF91CF911F9108951F93CF93DF9388
:10091000C82FD62F142F813031F028F0823041F4C7
:1009200080E190E002C082E090E00E942B0201C0D2
:1009300080E1212F4D2F682F8C2F0E943502D82F58
:1009400081112FC020E030E0A90161E98C2F0E94C5
:10095000E70120E030E044E050E06DEE8C2F0E9493
:10096000E70120E030E0A90164E98C2F0E94E70153
:1009700024E030E040E050E060E88C2F0E94E70186
:1009800022ED36E046E050E060EF8C2F0E94E70158
:1009900028EC30E040E050E063E98C2F0E94E70152
:1009A00001C0DFEF8D2FDF91CF911F910895CF937D
:1009B000DF93CDB7DEB72F970FB6F894DEBF0FBE2B
:1009C000CDBF3EE13D8793E29E872FE22F879A8736
:1009D0009B872DE22C8721E02F834AE0488746E160
:1009E00049872C8357E05D834E8329839A833B8319
:1009F0006130E1F098F0623061F5282F30E0FE01BF
:100A0000E20FF31F428564812F960FB6F894DEBF84
:100A10000FBECDBFDF91CF910C948504282F30E01D
:100A2000FE01E20FF31FDF01418107C0282F30E0F4
:100A3000FE01E20FF31FDF01458517966C912F969B
:100A40000FB6F894DEBF0FBECDBFDF91CF910C94EF
:100A5000350480E02F960FB6F894DEBF0FBECDBFF1
:100A6000DF91CF9108951F93CF93DF93182F3E9A74
:100A7000579A279A469A5F9A2F9A549A249A569A86
:100A80005C982C985E98682F80E00E94D70421E043
:100A900030E0811102C020E030E0CC27DD27C21B0E
:100AA000D30B612F81E00E94D704811102C020E0A6
:100AB00001C02EEFC20F612F82E00E94D704811186
:100AC0008CEF8C0FDF91CF911F9108958091A3013E
:100AD0009091A40124E030E0281B390B220F331F32
:100AE00081E090E002C0880F991F2A95E2F70E94EA
:100AF0000E160E94B902857031F164EF71E080E05A
:100B000090E00E94031B0E94B902813019F08430EA
:100B100051F013C08091A3019091A40185309105FB
:100B200064F4019608C08091A3019091A401181665
:100B300019061CF401970E94701764EF71E080E0C1
:100B400090E00E94031B8091A3019091A40105975E
:100B5000A1F482E090E00E940E1662E370E080E073
:100B600090E00E94031B81E090E00E940E1662E379
:100B700070E080E090E00C94031B08958FEF93E009
:100B80000E940E166CE271E080E090E00E94031B70
:100B900080E090E00E940E166CE271E080E090E050
:100BA0000C94031B0F931F93CF93DF930E94BE05FA
:100BB0000E94BE050E94BE050E9401038F3F2FEFD9
:100BC0009207B1F0EC0121966C2F61500C2F01704F
:100BD00010E0C801815D9C4F0E941F276D2F61505E
:100BE0008EE293E0DF91CF911F910F910C941F271C
:100BF000DF91CF911F910F910895CF93DF9380E004
:100C000090E00E940E1660E273E080E090E00E94A7
:100C1000031BC4E0D0E08091A3019091A4019E0148
:100C2000281B390B220F331F81E090E002C0880F90
:100C3000991F2A95E2F70E940E1664E670E080E0A4
:100C400090E00E94031B8091A3019091A401C81B16
:100C5000D90BCC0FDD1F82E090E002C0880F991FF6
:100C6000CA95E2F70E940E1664E670E080E090E01C
:100C70000E94031B60E273E080E090E0DF91CF917F
:100C80000C94031B80E090E00E940E1660E273E07B
:100C900080E090E00E94031B8091A3019091A40149
:100CA00024E030E0281B390B220F331F82E090E054
:100CB00002C0880F991F2A95E2F70E940E1660E283
:100CC00073E080E090E00C94031B8AEA92E00E94BB
:100CD0000E166CE271E080E090E00E94031B80E061
:100CE00090E00E940E166CE271E080E090E00C94BF
:100CF000031BCF93DF93880F991FC1E0D0E002C0A0
:100D0000CC0FDD1F8A95E2F7CE010E940E1668E235
:100D100070E080E090E00E94031B80E090E00E9481
:100D20000E1664E170E080E090E00E94031BCE01AB
:100D30000E940E1668E270E080E090E00E94031BC3
:100D400080E090E00E940E166AE070E080E090E0A3
:100D5000DF91CF910C94031B0E94E21581600C94EB
:100D6000F7150E94E2158E7F0C94F715CF93DF9351
:100D7000EC0197FF07C0D195C195D1090E94E215FA
:100D80008D7F03C00E94E21582600E94F715CE019C
:100D9000DF91CF910895CF93DF93EC0197FF07C0C8
:100DA000D195C195D1090E94E2158B7F03C00E94A5
:100DB000E21584600E94F715CE01DF91CF9108956E
:100DC0004F925F926F927F928F929F92AF92BF925B
:100DD000CF92DF92EF92FF920F931F93CF93DF9307
:100DE000EB010E94CB064C01CE010E94B606EC013D
:100DF000892BC9F0B401092C000C880B990B0E94B7
:100E00005E266B017C01BE010D2E000C880B990B38
:100E10000E945E269B01AC01C701B6010E94132807
:100E20002B013C0106C0412C512C80E8682E8FE339
:100E3000782E5E018AEFA81AB10804EC19E0C12CE3
:100E4000D12C7601209709F45EC020E030E040E824
:100E50005FE3C701B6010E94852887FD04C018140E
:100E600019040CF45E9A1C161D060CF45C9A000022
:100E700020E030E040E85FE3C701B6010E9485282A
:100E800087FD07C01814190424F45E9881E0881ABD
:100E900091081C161D0614F45C982197000020E0B0
:100EA00030E040E85FE3C701B6010E94852887FD76
:100EB0000AC020E030E040E85FE3C701B6010E94CD
:100EC000A6276B017C01A3019201C701B6010E9414
:100ED000A7276B017C01C8010E94D719053883E060
:100EE000180754F0AC16BD0614F40A501109043C5E
:100EF00089E018070CF0A6CFCA3FD1050CF0A2CFAD
:100F0000065F1F4F9FCF8114910479F020E030E0FD
:100F100040E85FE3C701B6010E94852887FDA7CF9F
:100F2000181419040CF49ECFA2CFDF91CF911F911A
:100F30000F91FF90EF90DF90CF90BF90AF909F9078
:100F40008F907F906F905F904F900895AF92BF9277
:100F5000CF92DF92EF92FF920F931F93CF93DF9385
:100F600000D000D0CDB7DEB780E00E94330560E04E
:100F700070E086EF9FEF0E94E21962E370E080E08C
:100F800090E00E94031BEE24E394F12CC12CD12CA1
:100F900000E010E06BE8A62EBB24B39460E070E0A4
:100FA00081E090E00E94E219C5010197F1F71982F2
:100FB0001A821B821C82AE014F5F5F4F6FE680E09A
:100FC0000E9467010F5F1F4F89EEE81683E0F80665
:100FD00061F0053611057CF480EDE81687E0F8062F
:100FE00001F18FEFE81AF80AD9CF8FEFC81AD80AA3
:100FF00005361105B4F381E090E09601220F331F0E
:1010000002C0880F991F2A95E2F70E940E16093C2C
:10101000110514F380E090E00E940E1600E010E04D
:10102000DBCF60E070E08EE79FEF0E94E2198091D5
:1010300006010E94330564EF71E080E090E00E94B9
:10104000031B60E070E087E29FEF0E94E00681E012
:10105000809356010F900F900F900F90DF91CF91DA
:101060001F910F91FF90EF90DF90CF90BF90AF90C6
:1010700008956F927F928F929F92AF92BF92CF927C
:10108000DF92EF92FF920F931F93CF93DF9300D0E5
:1010900000D0CDB7DEB70E94A6070E943D1A019787
:1010A00001F50E94B9028130C1F30E943D1A0197F7
:1010B00019F40E946506F5CF85E591E00E940E16B1
:1010C0006CE271E080E090E00E94031B80E090E021
:1010D0000E940E166CE271E080E090E00E94031B1B
:1010E000E0CF80E00E94330502E81FEF42E0C42E0B
:1010F000D12C612C712C88248394912CB80180E030
:1011000090E00E94E21962E370E080E090E00E94CB
:10111000031BAA24A394B12CE12CF12C61E070E014
:1011200080E090E00E94E21919821A821B821C82E0
:10113000AE014F5F5F4F6FE681E00E9467018981DA
:101140009A81937021E1E216F10410F00597A8F15D
:101150003FEF631A730A88EBE8168BE0F80671F428
:101160002FEFC21AD20A35E6631671045CF42FEF32
:10117000E21AF20A3FEFA31AB30AD0CF85E6681647
:101180007104B4F0C601880F991F940102C0220FA8
:10119000331F8A95E2F7C9010E940E1639EC6316D7
:1011A000710434F080E090E00E940E16612C712CE6
:1011B00080EAA8168FE0B806D1F60E5E1F4F09F040
:1011C0009DCF6CE871EF80E090E00E94E219809181
:1011D00006010E94330564EF71E080E090E00E9418
:1011E000031B85E591E00E940E1680E090E00E94CE
:1011F0000E168091A3019091A40124E030E0281BF9
:10120000390B220F331F81E090E002C0880F991F35
:101210002A95E2F70E940E160F900F900F900F90F4
:10122000DF91CF911F910F91FF90EF90DF90CF90C2
:10123000BF90AF909F908F907F906F9008952C9A61
:1012400000002C9800000895DF92EF92FF920F9318
:101250001F93CF93DF930E94B8038C01045B1B4F55
:101260007C0128ECE21AF1080E94AC06D12CC0EDFA
:10127000D7E010161106C4F50E941F09015011098C
:10128000083785E0180734F4C03727E1D20734F473
:10129000239604C0083087E018072CF4C43C29E0EA
:1012A000D2070CF422960E151F059CF4093883E131
:1012B00018077CF0C73222E0D20714F0219704C04F
:1012C000CB3481E0D8072CF080910601813009F4FD
:1012D0002197CE010E94D7190E943D1A892B09F44B
:1012E000D39423E62D1528F6DF91CF911F910F910E
:1012F000FF90EF90DF90089580916B0190916C01C9
:101300008A620E949B026AE070E080E090E00E94A6
:10131000031B80916B0190916C01857D0E949B0263
:10132000809106010E9433050E94A60720916D015D
:1013300060E070E08DE99EEFAC01249FC001259F25
:10134000900D11240E94E00680910001882361F035
:1013500080915601882341F060E070E089ED90E0D3
:101360000E94E006109256010895CF93C3E00E94B8
:10137000F803882351F0C15019F40E94BE05FDCF37
:101380000E94D2050E947C09F2CFCF91089510925D
:10139000000180915601811109C060E070E087E290
:1013A0009FEF0E94E00681E0809356010C94B509FE
:1013B00081E08093000180915601882341F060E034
:1013C00070E089ED90E00E94E006109256010C94C6
:1013D000B50910926D011092540180916B019091AA
:1013E0006C018A620E949B026AE070E080E090E0FB
:1013F0000E94031B80916B0190916C01857D0E947E
:101400009B02809106010E9433050E943908809159
:101410000001882361F080915601882341F060E04B
:1014200070E089ED90E00E94E00610925601089568
:101430009F92AF92BF92CF92DF92EF92FF920F9363
:101440001F93CF93DF93982EA62E80915501811183
:1014500009C00E9439081092540110926D0181E078
:101460008093550183E0B82ECA2CD12C99EBE92E3C
:1014700092E0F92E092D10E0C3E6D1E080915401ED
:101480009601281B31092E9DB0012F9D700D3E9DA8
:10149000700D112420916D0130E0C901801B910B6A
:1014A0009C012C9FC0012D9F900D3C9F900D1124FD
:1014B0000E94E00690926D01A09254010E94F803F0
:1014C000882359F0BA94B11003C00E94BE05FDCF25
:1014D0000E94D2050E94E909D1CFDF91CF911F91DF
:1014E0000F91FF90EF90DF90CF90BF90AF909F90C3
:1014F0000895682F0C94180ACF93DF9300D000D082
:1015000000D0CDB7DEB7789484B5826084BD84B551
:10151000816084BD85B5826085BD85B5816085BDEE
:1015200080916E00816080936E00109281008091A6
:10153000810082608093810080918100816080932E
:101540008100809180008160809380008091910073
:1015500082608093910080919100816080939100DE
:10156000809190008160809390008091C1008460A0
:101570008093C1008091C10082608093C1008091FE
:10158000C10081608093C1008091C300816080931D
:10159000C3008091C00082608093C0008091C2002F
:1015A00081608093C20080917A00846080937A0089
:1015B00080917A00826080937A0080917A008160C5
:1015C00080937A0080917A00806880937A001092EC
:1015D000C4011092BD021092BE028091D7008160BA
:1015E0008093D70080EA8093D80089B5806189BD57
:1015F00089B5826089BD09B400FEFDCF61E070E06D
:1016000080E090E00E94031B8091D8008F7C806175
:101610008093D8008091E000807F8093E0008091EB
:10162000E1008E7E8093E1008DE08093E200559A88
:10163000209AEEEFFFE7859194918B3F9C4D19F432
:1016400081E08093BC028FEF93E00E9411278F3FCF
:1016500011F00E94E4033F9A269A259A47982E9803
:101660002D9810926C0110926B0180E090E00E9426
:101670009B0280916B0190916C010E949B0280E023
:1016800090E00E9479068FEF9FEF90936F02809316
:101690006E02FEE6EF2EF1E0FF2E83E992E09093DA
:1016A0007701809376018FE892E09093790180939F
:1016B000780193E09093710110927B0110927A016E
:1016C000E091D501F091D60182E08083E091D101D3
:1016D000F091D2011082E091D301F091D40180E128
:1016E00080831092DD01E091D901F091DA018EE062
:1016F0008083E091D701F091D8018081806180835F
:10170000E091D701F091D801808188608083E091D9
:10171000D701F091D801808180688083E091D70162
:10172000F091D80180818F7D808307E511E027E863
:1017300032E03093600120935F0123E832E0309380
:1017400062012093610190935A01109264011092FA
:10175000630181E090E00E947906F092C102E0927C
:10176000C002F092C302E092C20282EE90E09F9328
:101770008F931F930F930E94CF2084B1817F84B9F0
:1017800084B1866084B982E090E00E94790683E0AB
:1017900090E00E94790610926A011092690180918E
:1017A0007A00876080937A0080917C0080648093C7
:1017B0007C0080917A00806880937A0080E2809338
:1017C0007E0010927D001092680110926701809156
:1017D00069010F900F900F900F9080FD04C0109240
:1017E00066011092650184E090E00E947906809184
:1017F0006B0190916C01857D0E949B0280E090E0DE
:101800000E940E160E94B902823031F481E090E00D
:101810009093A6018093A50180E00E9433050E9469
:10182000F8030E94550397FD1CC0803233E09307F4
:10183000C4F40E960E941127182F082F0F70053040
:1018400080F40E943803843060F4212F30E0E4E01B
:1018500035952795EA95E1F790E02817390709F4BF
:1018600046C50E943D1A019719F481E08093A201B8
:101870008E010D5F1F4F5DE7E52E51E0F52E6BE603
:10188000862E67E1962E7BEB672E72E1772E809194
:101890009D0190919E018097F4F487E591E00E946C
:1018A000912097FD1EC08D30910519F08A30910569
:1018B00011F480E090E020919D0130919E01A901FA
:1018C0004F5F5F4F50939E0140939D01F901E35894
:1018D000FE4F808306C010929E0110929D018FEFF3
:1018E0009FEF1C821B821A82198220919D013091E8
:1018F0009E01121613060CF030C3892B09F02DC37C
:1019000010929E0110929D011F930F93ACE5B1E0E0
:10191000BF93AF93FF92EF920E94EA200F900F9037
:101920000F900F900F900F90181619060CF05FC0D3
:10193000CB80DC8035E0C316D10408F00EC382E012
:1019400090E09093A6018093A5014091A30150914E
:10195000A40124E030E0241B350B220F331F02C00A
:10196000880F991F2A95E2F70E940E16D092A401C3
:10197000C092A3018091A20181110E942216809140
:10198000A3010E94790A8091A3019091A40124E00F
:1019900030E0281B390B220F331F82E090E002C099
:1019A000880F991F2A95E2F70E940E168091A201D6
:1019B000811103C081E00E940F1480E090E00E943A
:1019C0000E168091A3019091A40124E030E0281B21
:1019D000390B220F331F81E090E002C0880F991F5E
:1019E0002A95E2F70E940E1688E591E0AAC21F939D
:1019F0000F93A4E5B1E0BF93AF93FF92EF920E94E3
:101A0000EA200F900F900F900F900F900F901816E4
:101A10001906CCF48B819C818530910508F09DC21C
:101A20002091A201222339F083E090E09093A60157
:101A30008093A50105C00E94701780E00E94B51731
:101A400080E591E07EC21F930F938CE491E09F9319
:101A50008F93FF92EF920E94EA200F900F900F90C9
:101A60000F900F900F90181619069CF48B819C8193
:101A7000009729F0019709F070C282E001C081E06F
:101A800080930601809106010E94330588E491E06D
:101A900058C21F930F9384E491E09F938F93FF921A
:101AA000EF920E94EA200F900F900F900F900F90EE
:101AB0000F90181619062CF40E94221680E491E06B
:101AC000A3C11F930F938CE391E09F938F93FF9299
:101AD000EF920E94EA200F900F900F900F900F90BE
:101AE0000F901816190684F48B819C81892B09F0BC
:101AF00034C298E088E10FB6F894A895809360000E
:101B00000FBE9093600029C21F930F9388E391E06A
:101B10009F938F93FF92EF920E94EA200F900F9075
:101B20000F900F900F900F901816190664F48B8188
:101B30009C81892B09F011C20E943D1A9F938F93BB
:101B400082E391E022C01F930F938EE291E09F9376
:101B50008F93FF92EF920E94EA200F900F900F90C8
:101B60000F900F900F901816190694F58B819C8199
:101B7000009719F48AE291E0E4C181309105A1F463
:101B80001F928AE68F9384E291E09F938F9387E57B
:101B900091E09F938F930E94CF200F900F900F9012
:101BA0000F900F900F90D9C18230910539F481E0E8
:101BB0008F9384E78F938EE191E0E7CF039709F04D
:101BC000CCC10E9401039F938F9388E191E0DDCF08
:101BD00041E050E04C0F5D1F5F934F931F930F93B5
:101BE00081E191E09F938F93FF92EF920E94EA2010
:101BF0000FB6F894DEBF0FBECDBF181619069CF4C1
:101C00008B819C818530910508F0A7C129813A819B
:101C10002330310508F0A1C1FC01EF5FFE4F2083A6
:101C20008DE091E08EC11F930F9389E091E09F9327
:101C30008F93FF92EF920E94EA200F900F900F90E7
:101C40000F900F900F90181619060CF046C08B815C
:101C50009C81892B09F081C10E94D8090E94B1069C
:101C60006091060180E00E94D704B2E0CB2EB3E081
:101C7000DB2E88E29AE0A0E0B0E00E94D7190E9433
:101C8000DE1A1B012C0187E591E00E94912081342E
:101C9000910521F481E080937C0116C00E941F0908
:101CA0000E94DE1AB8E22B0EBAE03B1E411C511C0A
:101CB000A2019101261B370B480B590BDA01C90110
:101CC00031E0C31AD108C9F6809106010E94991A21
:101CD0000E94C70985E091E034C11F930F9381E012
:101CE00091E09F938F93FF92EF920E94EA200F90D2
:101CF0000F900F900F900F900F90181619060CF080
:101D000049C0CB80DC8045E0C416D10408F025C171
:101D1000D092A401C092A30153E0C516D1041CF4D3
:101D2000A4E0BA2E01C0B12C8091A20181110E94C1
:101D300022166091060180E00E94D7046B2D8C2D45
:101D40000E94180A0E94D8090E94B106F2EECF2E16
:101D5000F4E0DF2E0E941F09C4010197F1F781E032
:101D6000C81AD108B9F70E94C709809106010E94DC
:101D7000991A8DEF90E09F938F9387E591E09F9361
:101D80008F930E94CF2082E090E09093A6018093F1
:101D9000A501DFC01F930F9389EF90E09F938F936E
:101DA000FF92EF920E94EA200F900F900F900F90F9
:101DB0000F900F9018161906A4F58B819C81892B22
:101DC00009F0CBC06091060180E00E94D7040E9418
:101DD000D8090E94AC06E2EECE2EE4E0DE2E0E9490
:101DE0001F09C4010197F1F791E0C91AD108B9F7A9
:101DF0000E94C7098091A3010E94790A809106017F
:101E00000E94991A85EF90E09F938F9387E591E068
:101E10009F938F930E94CF201092A6011092A5014C
:101E200098C01F930F9381EF90E09F938F93FF9241
:101E3000EF920E94EA200F900F900F900F900F905A
:101E40000F901816190664F48B819C81892B09F078
:101E500084C084E090E09093A6018093A5017DC0AA
:101E60001F930F938DEE90E09F938F93FF92EF92CD
:101E70000E94EA200F900F900F900F900F900F90FC
:101E8000181619060CF069C0CB80DC80A5E0CA16D4
:101E9000D10408F062C0D092A401C092A301809145
:101EA000A20181110E9422166C2D8C2D0E94180A0D
:101EB00081E00E94B517811102C00E9457186091FD
:101EC000060180E00E94D70461E06C0D8C2D0E9419
:101ED000180A0E94D8090E94B1067EE5A72EBB24ED
:101EE000B3940E941F09C4010197F1F7B1E0AB1A46
:101EF000B108B9F760E08C2D0E94180A0E94AC0668
:101F00006BE4A62EB12C0E941F09C4010197F1F7C2
:101F100021E0A21AB108B9F765E08C2D0E94180AD9
:101F200060E08C2D0E94180A6C2D8C2D0E94180ADE
:101F300081E00E94B517811102C00E94571889EEF6
:101F400090E09F938F9387E591E09F938F930E94FA
:101F5000CF200F900F900F900F908091A50190913E
:101F6000A6018330910509F469C134F4009709F49E
:101F70006FC1019749F0B8C18430910509F479C166
:101F8000059709F48CC1B0C180910801882301F143
:101F900080E090E00E940E1668EC70E080E090E037
:101FA0000E94031B8AEA92E00E940E1660EB74E026
:101FB00080E090E00E94031B80E090E00E940E16FB
:101FC00068E572E080E090E00E94031B1092080137
:101FD0008091A101882309F4C2C00E9466050E9475
:101FE000B902823009F080C1C090A301D090A40151
:101FF00024E030E02C193D09220F331F82E090E0ED
:1020000002C0880F991F2A95E2F70E940E1664EF0E
:1020100071E080E090E00E94031B0E94B9028230D0
:1020200009F062C18C2D0E94790AC090A301D09062
:10203000A40135E0C316D1040CF08CC08091A2013C
:10204000811152C1CD820E94B8035C0180E00E94E0
:102050000F144EE161E080E00E9435040E943D1BB8
:102060001B012C0120E02E830E94B9022E818130B9
:1020700019F0843099F026C0222351F12E830E945A
:102080003D1BDC01CB0182199309A409B5092E81FE
:10209000893E9340A105B105D8F430C0222309F44C
:1020A00037C12E830E943D1BDC01CB0182199309AD
:1020B000A409B5092E81893E9340A105B10508F018
:1020C00027C11CC00E943D1B1B012C0120E016C033
:1020D000C5018E5F9A418D38934278F40E94AC0618
:1020E0008AE0F3013197F1F78E830E941F098E81F8
:1020F0008150B9F75AE0A51AB10821E080E091E0DB
:102100002E830E940E166AE070E080E090E00E944C
:10211000031B80E092E00E940E166AE070E080E00F
:1021200090E00E94031B88E090E00E940E1662E39C
:1021300070E080E090E00E94031B0E94B9022E81B3
:10214000823009F090CF0E9422165D81553008F44C
:10215000F6C0CAC080E090E00E947017F9C080E02D
:1021600091E00E940E1661E070E080E090E00E9435
:10217000031B80E092E00E940E1661E070E080E0B8
:1021800090E00E94031BC0909F01D090A001960197
:10219000220F331F82E090E002C0880F991F2A951A
:1021A000E2F70E940E1661E070E080E090E00E948D
:1021B000031B0E94B902823069F0843061F18130E2
:1021C00009F092C01C141D040CF08EC081E0C81AE6
:1021D000D10829C092E0C916D10499F044F4CA94F8
:1021E000CD2809F081C081E08093A1017DC023E06A
:1021F000C216D10469F034E0C316D10409F4A8C0B2
:1022000073C08091070181116FC00E94E403A0C0D8
:102210001092070169C044E0C416D1040CF064C0F8
:102220005FEFC51AD50AD092A001C0929F0160E26B
:1022300073E080E090E00E94031B56C00E943D1AAC
:10224000019719F40E9465064FC01092A201B5C013
:102250000E9466050E94B902823009F045C0C09014
:10226000A301D090A40185E0C816D1040CF4AAC043
:102270003BC00E9442060E94F402813049F0823045
:1022800099F50E94CE15882379F185E090E015C07C
:102290001092A6011092A50184E691E019C00E9457
:1022A000FD050E94F402813069F08230E9F40E9459
:1022B000CE15811119C084E090E09093A60180931F
:1022C000A50112C01092A6011092A50180E691E02E
:1022D0009F938F9387E591E09F938F930E94CF20E8
:1022E0000F900F900F900F900E948619D0CA0E94F5
:1022F000A60760E070E08DE99EEFDC010A9FC00157
:102300000B9F900D11240E94E00600936D01A9CA55
:10231000C5018A5E9A418D38934208F0EECE0E9444
:10232000B1068AE0F3013197F1F78E830E941F090D
:102330008E818150B9F74AE0A40EB11CDECEC601F1
:102340009927880F991FB50101960E943127CCCF9C
:1023500080E090E00E940E1660E971E080E090E07D
:102360000E94031B8AEA92E00E940E1660E971E067
:1023700080E090E00E94031B80E090E00E940E1637
:1023800060E971E080E090E00E94031B80E090E053
:102390000E940E168091A3019091A40124E030E0E8
:1023A000281B390B220F331F81E090E002C0880FF9
:1023B000991F2A95E2F70E940E161092A60110921C
:1023C000A50192CF24E030E02C193D09220F331FE4
:1023D00082E090E002C0880F991F2A95E2F70E94E0
:1023E0000E1664EF71E080E090E00E94031B0E94F3
:1023F000B902823009F078CF8C2D0E94790A80E0F2
:102400000E94B51771CFCF93DF931F92CDB7DEB780
:102410006983DC01ED91FC910280F381E02D41E0C4
:1024200050E0BE016F5F7F4F09950F90DF91CF9114
:10243000089583E08093E9008091F200882319F0E9
:102440008AE38093E8000895FC018485958597FDD3
:102450000BC09FB7F89482E08093E9008091F2006E
:102460009FBF90E0019608959FB7F89482E0809313
:10247000E9008091F2009FBF90E008958F929F92B3
:10248000AF92BF92CF92DF92EF92FF920F931F9382
:10249000CF93DF935C016B017A0180911E01882349
:1024A00009F45BC08091C401882309F456C080916F
:1024B000BE0280FF05C08091E00082608093E00052
:1024C000E70110E00AEF83E0882E9AE3992E209727
:1024D000D9F10E94CD1A81110AC0015009F43DC002
:1024E00061E070E080E090E00E94031BF0CF282FB5
:1024F00030E0C217D3070CF48C2F4FB7F8948092BA
:10250000E9009091E80095FF1DC0282F30E0C21B24
:10251000D30BF601982F915020F081918093F10018
:10252000FACFC20ED31E112319F09092E80009C011
:102530008091E80085FD06C09092E80011E02097A8
:1025400009F010E04FBFC3CF1111C3CF5D9884E6EF
:102550008093BF021E141F0444F081E090E0F50157
:102560009383828380E090E001C0C701DF91CF9127
:102570001F910F91FF90EF90DF90CF90BF90AF90A1
:102580009F908F9008950E94CD1A90E008950F9328
:102590001F93CF93DF931F92CDB7DEB78C01FC0161
:1025A0008485958597FF0EC0CE0101960E94A31ADF
:1025B000019719F4298130E002C02FEF3FEFF801B5
:1025C00035872487F801848595850F90DF91CF9119
:1025D0001F910F910895CF93DF931F92CDB7DEB770
:1025E000FC018485958597FD05C02FEF3FEF35876A
:1025F00024870BC0CE0101960E94A31A019719F4FB
:10260000898190E002C08FEF9FEF0F90DF91CF9113
:1026100008958F929F92AF92BF92CF92DF92EF92E6
:10262000FF920F931F93CF93DF937C01EB016C011B
:1026300082E0C80ED11C4701E5E08E0E911C00E03F
:1026400010E0F60141916F0150E060E070E02AE097
:10265000CE010E94931B5C01E881F9810190F08119
:10266000E02D6EE2CE0109958A0D9B1D080F191F02
:10267000C814D90431F7F701458150E060E070E0FB
:102680002AE0CE010E94931B800F911FDF91CF9112
:102690001F910F91FF90EF90DF90CF90BF90AF9080
:1026A0009F908F900895EF92FF920F931F93CF9377
:1026B000DF930E94AC060E943D1A019729F00E9408
:1026C0003D1A892B89F519C008EB1BE0C0E0D0E06A
:1026D0009BEDE92E9EE2F92E0E941F09C70101978A
:1026E000F1F70E943D1A892B09F421960150110936
:1026F00031F3C233D10584F3E2CF0E94B10608EB77
:102700001BE0C0E0D0E08BEDE82E8EE2F82E0E94B8
:102710001F09C7010197F1F70E943D1A019709F4BB
:1027200021960150110911F480E011C0C233D10586
:1027300074F30E94AC06C8E5D2E00BED1EE20E94E5
:102740001F09C8010197F1F72197C9F781E0DF91CF
:10275000CF911F910F91FF90EF9008951F920F92CC
:102760000FB60F9211242F933F938F939F93AF93A4
:10277000BF93EF93FF938091AA019091AB01A09139
:10278000AC01B091AD01E091A701F091A801892BB6
:102790008A2B8B2B31F18091A9019081892780832D
:1027A0008091AA019091AB01A091AC01B091AD01D3
:1027B000181619061A061B062CF58091AA0190918D
:1027C000AB01A091AC01B091AD010197A109B10994
:1027D0008093AA019093AB01A093AC01B093AD019B
:1027E00011C0809171008D7F809371009091A9013B
:1027F0008081282F30E0892F90E08095909582236A
:1028000093238083FF91EF91BF91AF919F918F911F
:102810003F912F910F900FBE0F901F9018954F92E0
:102820005F926F927F928F929F92AF92BF92CF9260
:10283000DF92EF92FF920F931F93CF93DF931F923C
:10284000CDB7DEB7D82E8091A301F3E0FF2E8F70B5
:10285000E82E0E943803182F89830E9455031130F7
:10286000A1F028F0123019F01330D9F40EC08C0109
:102870000F5F1F4F003223E01207B0F0CE01019628
:102880000E9428030FE113E00FC08C0101501109D1
:10289000003233E0130740F0CE0101960E94280376
:1028A00001C0198200E010E089810E949F03882303
:1028B000E9F08981CE2C40E1849FC00C1124025F95
:1028C0001F4F6C2DC8010E941F27C8010E941127AD
:1028D000C81661F0CE0101960E94280389810E94EA
:1028E0009F03882319F0FA94F110B3CF0E94D809FE
:1028F0006091060180E00E94D7040E94B1060CEDB1
:1029000015E0EBEEEE2EE5E5FE2E0E941F09C70155
:102910000197F1F70E943D1A892B19F40150110912
:10292000A1F70E943D1A892B09F03BC006E010E098
:10293000E12CF12C6BE6862E67E1962E7BE7672E65
:102940007EE3772E0E943D1A892B41F50E94AC064A
:1029500059ECA52EB12C0E941F09C4010197F1F773
:1029600051E0A51AB108B9F70E94B10644EFA42EB0
:10297000BB24B3940E941F09C3010197F1F70E9481
:102980003D1A019719F48FEFE81AF80A94E6E91650
:10299000F10424F421E0A21AB10861F701501109F1
:1029A00089F60E943D1A892B69F00E94B8035C01E8
:1029B00033E0C32E04E911E14C0130E2831A33E025
:1029C000930A7BC00E94C70910E02BEEA22E25E5DA
:1029D000B22E111103C00E94420602C00E94FD05E2
:1029E0000E94B9028230B1F0843019F0813089F749
:1029F00019C00E94D8090E94B10698ECE92EF12C6A
:102A00000E941F09C5010197F1F741E0E41AF1089E
:102A1000B9F705C00E94D8090E945313182F0E94CD
:102A2000C709D7CF0E94D8090E945313182F0E94BC
:102A3000C709112381F20E94D8090E94B1060CED4A
:102A400015E08BEEE82E85E5F82E0E941F09C701E0
:102A50000197F1F70E943D1A892B09F0A6CF01508A
:102A6000110999F7A2CF0E941F090E94DE1A98014E
:102A7000012E000C440B550B420E531E641E751E96
:102A8000A3019201261B370B480B590BDA01C90130
:102A90003FEFE31AF30AEA14FB04C1F40E94F803BF
:102AA000882309F45FC0CA94CC2009F458C00E945E
:102AB000D2050E947C090E9424090E94B106E12CE3
:102AC000F12C84E991E1A0E0B0E0E5CF0E94D719B4
:102AD0000E94DE1A2B013C0150EAE5165FE0F50684
:102AE00018F509328AE018071CF00450110904C0D7
:102AF000053195E019071CF00250110904C00B388C
:102B000022E012071CF00150110904C00F3531E01A
:102B1000130754F080910601813031F480917C01DB
:102B2000882311F0015011098E149F0430F40832EB
:102B30004AE0140714F4065F1F4F87E591E00E94F6
:102B400091208134910509F08ECF81E080937C0142
:102B5000809106010E94991A0E94C70903C00E9431
:102B6000BE05FDCF809106010E94991AD1100E94E6
:102B7000C70981E08093A2010F90DF91CF911F914F
:102B80000F91FF90EF90DF90CF90BF90AF909F900C
:102B90008F907F906F905F904F900895CF9360914A
:102BA000060180E00E94D7040E94D8090E945313B6
:102BB000C82F0E94C709809106010E94991A8C2F84
:102BC000CF91089520916B0130916C01C9018470FF
:102BD0009927AC0156954795C9018071992796951B
:102BE000879596958795842B2170822B0895282FA1
:102BF0002270922F990F282F2470220F220F292B39
:102C00008170282B022E000C330B80916B01909168
:102C10006C018A7E822B932B0C949B02582F4427A5
:102C200020916B0130916C012F733327242B352BAE
:102C3000882793709695879596958795822B932BE9
:102C40000C949B028F929F92AF92BF92CF92DF9291
:102C5000EF92FF920F931F93CF93DF936091060142
:102C600080E00E94D7040E94D8090E943D1A892B57
:102C700061F0C3E00E9424090E94F803882349F010
:102C80000E943D1A019729F421C10E94531381111A
:102C900005C0C4E6D0E00BE11EE40EC0DF91CF9189
:102CA0001F910F91FF90EF90DF90CF90BF90AF906A
:102CB0009F908F900C94C7090E941F09C80101972B
:102CC000F1F72197C9F70E943D1A0197A9F00E94D8
:102CD0003D1A019709F0D8C00E94C709C0E004E07E
:102CE00010E0AA24A394B12C52E0C52ED12C6BEE97
:102CF000862E65E5962E6FC0C6E0D0E07BE7C72E36
:102D00007EE3D72EEBEDAE2EEEE2BE2E0E943D1AF4
:102D1000019749F064E670E080E090E00E94031BB8
:102D20002197A1F7D4CF0E94B10606E910E00E94D6
:102D30001F09C6010197F1F701501109C1F70E945F
:102D4000AC0600EA1FE0F12C0E941F09C5010197A3
:102D5000F1F70E943D1A892B09F4F39423E62F150D
:102D6000C8F20150110981F7D5CF950102C0220F99
:102D7000331F8A95E2F7C9010E940E1664E670E0DF
:102D800080E090E00E94031B8091A3019091A40138
:102D90009801281B390BC901880F991F960102C0A1
:102DA000220F331F8A95E2F7C9010E940E1664E6CE
:102DB00070E080E090E00E94031B64E670E080E039
:102DC00090E00E94031B0E94B9028230A9F1843076
:102DD00011F18130C9F180E090E00E940E1664E6A6
:102DE00070E080E090E00E94031B8091A30190912D
:102DF000A4019801281B390BC901880F991FC11123
:102E0000B4CF960102C0220F331F8A95E2F7C901A1
:102E10000E940E16D2CF0E94D8090E94AC0698ECF0
:102E2000E92EF12C0E941F09C4010197F1F731E04E
:102E3000E31AF108B9F705C00E94D8090E9453139C
:102E4000C82F0E94C709C7CF0E94D8090E945313F8
:102E5000C82F0E94C709CC2309F4BDCF8091A301DC
:102E60009091A40124E030E0281B390B220F331F7E
:102E700081E090E002C0880F991F2A95E2F70E9436
:102E80000E160E94D8090DC00E94AC06C2ECD1E01B
:102E90000BE11EE40E941F09C8010197F1F7219779
:102EA000C9F70E94C709809106010E94991A1092E1
:102EB000A201DF91CF911F910F91FF90EF90DF90D2
:102EC000CF90BF90AF909F908F900895C15019F40C
:102ED0000E94BE05FDCF0E94D2050E947C09CACE89
:102EE0001F93CF93DF931F92CDB7DEB7682F192FB3
:102EF0008091A3019091A40124E030E0281B390BBC
:102F0000220F331F82E090E002C0880F991F2A959C
:102F1000E2F769830E940E1669816093A301109302
:102F2000A401862F912F8530910514F084E090E064
:102F30000E94180A80E090E00E940E168091A30182
:102F40009091A40124E030E0281B390B220F331F9D
:102F500081E090E002C0880F991F2A95E2F70F9058
:102F6000DF91CF911F910C940E168F929F92AF928A
:102F7000BF92CF92DF92EF92FF920F931F93CF9366
:102F8000DF93E82E0E94D8090E94B10680910601C5
:102F90004FE061E0813099F480E00E94350400E068
:102FA00010E0F12CD0E0C0E024E0A22EB12C32E001
:102FB000832E912C4BE7C42E4EE3D42E1CC080E010
:102FC0000E948504ECCF0C3D85E01807C8F50E94EF
:102FD0001F09CF5FC33390F40E943D1A019709F493
:102FE000F39489E08F1570F1EE2021F1F60131970D
:102FF000F1F70F5F1F4FE110E6CFE9CF8091A301FA
:103000009091A4019501281B390B220F331FC40195
:1030100002C0880F991F2A95E2F70E940E16C53646
:10302000D8F280E090E00E940E16DC3008F4DF5FFA
:10303000C0E0D2CF0E94B9028823C1F2DB30B0F2E7
:10304000C0E00EC00E94AC06C2E6D2E00BED1EE26C
:103050000E941F09C8010197F1F72197C9F7C1E044
:10306000809106010E94991A0E94C7098091A301CC
:103070009091A40124E030E0281B390B220F331F6C
:1030800081E090E002C0880F991F2A95E2F70E9424
:103090000E168C2FDF91CF911F910F91FF90EF9023
:1030A000DF90CF90BF90AF909F908F900895CF9377
:1030B000C0E00E94F402813079F08230D9F40E949D
:1030C000E9098091A3010E94790A81E00E94B51765
:1030D000882379F3C1E0EDCFC11114C00E94E90942
:1030E0008091A3010E94790A81E00E94B5178111A5
:1030F00009C0DFCFCC2319F00E94FD05DACF0E9472
:103100004206D7CF8091A3010E94790ACF910C94F7
:10311000D809CF92DF92EF92FF920F931F93CF9334
:10312000DF936C017A018B01C0E0D0E0CE15DF05A2
:1031300089F0D8016D918D01D601ED91FC9101903E
:10314000F081E02DC6010995892B11F47E0102C0A2
:103150002196ECCFC701DF91CF911F910F91FF9086
:10316000EF90DF90CF9008950895FC01538D448D2A
:10317000252F30E0842F90E0821B930B541710F022
:10318000CF96089501970895FC01918D828D98172F
:1031900061F0828DDF01A80FB11D5D968C91928D3B
:1031A0009F5F9F73928F90E008958FEF9FEF089538
:1031B000FC01918D828D981731F0828DE80FF11D01
:1031C000858D90E008958FEF9FEF0895FC01918D1C
:1031D000228D892F90E0805C9F4F821B91098F7315
:1031E00099270895FC01848DDF01A80FB11DA35A12
:1031F000BF4F2C91848D90E001968F739927848F17
:10320000A689B7892C93A089B1898C9180648C930D
:10321000938D848D981306C00288F389E02D8081F8
:103220008F7D80830895EF92FF920F931F93CF932A
:10323000DF93EC0181E0888F9B8D8C8D981305C006
:10324000E889F989808185FD24C0F62E0B8D10E078
:103250000F5F1F4F0F731127E02E8C8DE8120CC0EB
:103260000FB607FCFACFE889F989808185FFF5CF91
:10327000CE010E94F218F1CF8B8DFE01E80FF11DF7
:10328000E35AFF4FF0820B8FEA89FB8980818062CD
:1032900007C0EE89FF896083E889F98980818064AD
:1032A000808381E090E0DF91CF911F910F91FF909B
:1032B000EF900895CF93DF93EC01888D8823C9F0B8
:1032C000EA89FB89808185FD05C0A889B9898C912F
:1032D00086FD0FC00FB607FCF5CF808185FFF2CFCA
:1032E000A889B9898C9185FFEDCFCE010E94F21893
:1032F000E7CFDF91CF91089585EC91E00E94E61829
:1033000021E0892B09F420E0822F089580E090E0ED
:10331000892B29F00E947C1981110C9400000895DA
:10332000E5ECF1E01382128288EE93E0A0E0B0E0D9
:1033300084839583A683B78326E231E0318320839B
:103340002DEC30E0358724872CEC30E0378726875A
:1033500028EC30E0318B208B29EC30E0338B228B52
:103360002AEC30E0358B248B2EEC30E0378B268B2B
:10337000118E128E138E148EE2E6F2E01382128208
:1033800084839583A683B78388E391E091838083C8
:103390008FEF9FEF95878487E2EBF2E08AE491E07C
:1033A0009183808312821382148215820895823061
:1033B000910538F0880F991F880F991F059701977D
:1033C000F1F708959F92AF92BF92CF92DF92EF9262
:1033D000FF920F931F93CF93DF938B010E94CB0635
:1033E000EC01C8010E94B6068C010E94B10682E37E
:1033F000E82EF12C9BE9C92E9FE0D92E2BE7A22EB7
:103400002CE0B22E3AE0932E1C161D060CF45E9AA8
:10341000101611060CF45C9A00001C161D062CF404
:103420005E982197C6010197F1F71016110634F442
:103430005C9801501109C5010197F1F700001E14B5
:103440001F0454F49E9CC0019F9C900D11240E9467
:10345000D71981E0E81AF10801151105A9F620979E
:1034600099F6DF91CF911F910F91FF90EF90DF9030
:10347000CF90BF90AF909F900895E7ECF1E044911A
:10348000E8EAF1E09491E9E8F1E08491882309F415
:103490004DC04423E1F150E0FA013197EF30F105DE
:1034A000B0F5EA5AFF4F0C94A027209180002F77A7
:1034B00007C0209180002F7D03C020918000277FCE
:1034C0002093800024C024B52F7702C024B52F7D1F
:1034D00024BD1DC0209190002F7707C0209190003F
:1034E0002F7D03C020919000277F209390000FC074
:1034F0002091C0002F7703C02091C0002F7D209322
:10350000C00005C02091C200277F2093C200E82F91
:10351000F0E0EE0FFF1FE859FE4FA591B491EC913A
:10352000E92381E090E021F480E0089580E090E0DC
:10353000089540E060E0823019F480E00C94850446
:1035400080E00C943504FC018091C401811103C01A
:103550008FEF9FEF08959FB7F89482E08093E90082
:103560002091F20030E01216130614F421E030E04E
:103570002115310559F0289884E68093C301809184
:10358000F10080838091F200882319F09FBFC90168
:1035900008958BE68093E800F9CF2FB7F89483E085
:1035A0008093E9009091E800892F807295FF04C014
:1035B0009091F20080E4891B2FBF08953FB7F894E3
:1035C0008091BF019091C001A091C101B091C20151
:1035D00026B5A89B05C02F3F19F00196A11DB11D6E
:1035E0003FBFBA2FA92F982F8827820F911DA11DA9
:1035F000B11DBC01CD0142E0660F771F881F991FE6
:103600004A95D1F708958F929F92AF92BF92CF9231
:10361000DF92EF92FF926B017C010E94DE1A4B0158
:103620005C01C114D104E104F104F1F00E94DE1A3E
:10363000DC01CB0188199909AA09BB09883E93408E
:10364000A105B10570F321E0C21AD108E108F10823
:1036500088EE880E83E0981EA11CB11CC114D10411
:10366000E104F10419F7DDCFFF90EF90DF90CF90E8
:10367000BF90AF909F908F9008952FB7F89460916E
:10368000BB017091BC018091BD019091BE012FBF23
:1036900008951F920F920FB60F9211242F933F930C
:1036A0008F939F93AF93BF938091BB019091BC0187
:1036B000A091BD01B091BE013091BA0123E0230F6A
:1036C0002D3720F40196A11DB11D05C026E8230F5A
:1036D0000296A11DB11D2093BA018093BB01909366
:1036E000BC01A093BD01B093BE018091BF01909138
:1036F000C001A091C101B091C2010196A11DB11DEF
:103700008093BF019093C001A093C101B093C20107
:10371000BF91AF919F918F913F912F910F900FBECD
:103720000F901F9018954F925F926F927F92EF9239
:10373000FF920F931F93CF93DF93CDB7DEB7A1977F
:103740000FB6F894DEBF0FBECDBF7C01FA01CB01EE
:1037500019A2223008F42AE08E010F5D1F4F422E7D
:10376000512C612C712CBF01A30192010E947E2774
:10377000F901CA01015011096A3014F4605D01C0F9
:10378000695CD8016C93232B242B252B61F7011541
:10379000110591F0F80101900020E9F73197AF0190
:1037A000401B510BD701ED91FC910280F381E02D7C
:1037B000B801C701099502C080E090E0A1960FB65C
:1037C000F894DEBF0FBECDBFDF91CF911F910F9157
:1037D000FF90EF907F906F905F904F9008951F92B1
:1037E0000F920FB60F9211242F933F934F935F9335
:1037F0006F937F938F939F93AF93BF93EF93FF93B9
:10380000E0911101F09112010995FF91EF91BF91A3
:10381000AF919F918F917F916F915F914F913F9168
:103820002F910F900FBE0F901F9018951F920F921F
:103830000FB60F9211242F933F934F935F936F9383
:103840007F938F939F93AF93BF93EF93FF93E091F9
:103850000F01F09110010995FF91EF91BF91AF9188
:103860009F918F917F916F915F914F913F912F9198
:103870000F900FBE0F901F9018951F920F920FB6CA
:103880000F9211242F933F934F935F936F937F93E6
:103890008F939F93AF93BF93EF93FF93E0910D01AD
:1038A000F0910E010995FF91EF91BF91AF919F911A
:1038B0008F917F916F915F914F913F912F910F90D9
:1038C0000FBE0F901F9018951F920F920FB60F9278
:1038D00011242F933F934F935F936F937F938F9315
:1038E0009F93AF93BF93EF93FF93E0910B01F09100
:1038F0000C010995FF91EF91BF91AF919F918F912D
:103900007F916F915F914F913F912F910F900FBEDB
:103910000F901F9018951F920F920FB60F921124BF
:103920002F933F934F935F936F937F938F939F93C7
:10393000AF93BF93EF93FF93E0910901F0910A01D8
:103940000995FF91EF91BF91AF919F918F917F91D9
:103950006F915F914F913F912F910F900FBE0F90FC
:103960001F9018958091B20181110DC082E0809363
:10397000AE0184E08093AF011092B1011092B001CA
:1039800081E08093B2018EEA91E008951F920F9238
:103990000FB60F9211242F933F934F935F936F9322
:1039A0007F938F939F93AF93BF93EF93FF9385EC98
:1039B00091E00E94F218FF91EF91BF91AF919F911A
:1039C0008F917F916F915F914F913F912F910F90C8
:1039D0000FBE0F901F9018954091BA025091BB02F4
:1039E0002091B8023091B90242175307B4F4909174
:1039F000E8009570E1F39091E80092FD19C0809382
:103A0000F1008091BA029091BB0201968F739927C1
:103A1000892B19F48EEF8093E8008091BA0290917F
:103A2000BB0201969093BB028093BA0281E0089595
:103A300080E00895CF92DF92EF92FF920F931F9351
:103A4000CF93DF931F92CDB7DEB7182F062FE42E4A
:103A5000862F880F8E5F99830E94EC1C83E00E9462
:103A6000EC1CF12EC12E9981D92E8C2D8F19801727
:103A700098F4F601E7FE02C0849101C080810E94A3
:103A8000EC1C182F80E00E94EC1C8123FFEFCF1A62
:103A9000DF0A8111EACF01C081E00F90DF91CF9161
:103AA0001F910F91FF90EF90DF90CF900895DF92DC
:103AB000EF92FF920F931F93CF93DF93D82E8A013B
:103AC0007B01E40EF51EEB01CE15DF0571F0D7FE8C
:103AD00003C0FE01849101C088810E94EC1C2196E4
:103AE0008111F2CF8FEF9FEF01C0C801DF91CF911D
:103AF0001F910F91FF90EF90DF900895615030F08B
:103B00002091F100FC0120830196F8CF289884E6EB
:103B10008093C30108950F931F93CF93DF931F9258
:103B2000CDB7DEB782E0898342E450E062ED71E018
:103B300080E80E94571D0E94B21CDC0112960D9174
:103B40001C9113970115110569F0D801ED91FC91B5
:103B50000280F381E02DBE016F5F7F4FC8010995A0
:103B600097FF07C089810F90DF91CF911F910F912F
:103B70000895F80100851185E5CF1F920F920FB6C9
:103B80000F9211242F938F939F93EF93FF93E091C4
:103B9000D501F091D6018081E091DB01F091DC014B
:103BA00082FD12C090818091DE018F5F8F73209122
:103BB000DF01821751F0E091DE01F0E0EB53FE4FA0
:103BC000958F8093DE0101C08081FF91EF919F91DD
:103BD0008F912F910F900FBE0F901F9018951F92ED
:103BE0000F920FB60F9211248F939F938091E10053
:103BF0009091E100937F9093E10083FF0FC01092BA
:103C0000E90091E09093EB001092EC0092E3909326
:103C1000ED001092C40198E09093F00082FF20C064
:103C200093E09093E9009091F200992319F09AE3C0
:103C30009093E8009091BF02992339F09091BF02D0
:103C400091509093BF02992389F19091C3019923D8
:103C500039F09091C30191509093C301992341F1A0
:103C600084FF10C08091E2008E7E81608093E2002C
:103C70008091E1008F7E8093E1008091BE028E7E74
:103C8000806111C080FF16C08091E2008E7E80614D
:103C90008093E2008091E1008E7E8093E10080912C
:103CA000BE028E7E81608093BE0204C05D9ACDCF3D
:103CB000289AD6CF9F918F910F900FBE0F901F9093
:103CC00018951F920F920FB60F921124CF92DF9288
:103CD000EF92FF920F931F932F933F934F935F9316
:103CE0006F937F938F939F93AF93BF93EF93FF93C4
:103CF000CF93DF93CDB7DEB76C97DEBFCDBF109209
:103D0000E9008091E80083FFEDC168E0CE014596AF
:103D10000E947E1D82EF8093E8008D8987FF05C099
:103D20009091E80090FFFCCF03C09EEF9093E800D5
:103D3000982F907609F0C6C09E892F89188D911111
:103D40000CC0803829F48091BD028093F10002C03C
:103D50001092F1001092F10048C1422F50E0512B17
:103D6000913051F4811141C14130510509F03DC1FB
:103D70008091BD028D7F0BC0933061F4811135C1FC
:103D80004130510509F031C18091BD0282608093BC
:103D9000BD022BC1953041F48091E80080FFFCCF3B
:103DA00020682093E30021C1963009F05FC0EB8CBE
:103DB000FC8C1092E9001092BB021092BA021230F1
:103DC00091F51092B9021092B8020E948B1D99E0F1
:103DD000BE016F5F7F4FDB01E92F1D92EA95E9F786
:103DE00099831A8391E09E8390EA98879AEF998746
:103DF0002091BA023091BB02275F3F4F3C832B8357
:103E00008D831092E9001092BB021092BA02F092D8
:103E1000B902E092B80249E050E080E00E94571DEC
:103E20000E948B1DE2C0F092B902E092B8020E949B
:103E3000B21CDC011296ED90FC901397E114F10492
:103E400009F4C0C0D701ED91FC910480F581E02D0B
:103E5000BE016B5E7F4FC7010995009719F00CF00A
:103E6000C4C0C7C0F701E084F184E8CF973009F4FB
:103E7000C0C0983021F481E08093F100B6C0993041
:103E800009F0B3C0837009F0B4C0EDE4F1E081E063
:103E900021E036E39081992361F08093E90020933B
:103EA000EB0091919093EC003093ED008F5F8730A1
:103EB00089F78EE78093EA001092EA008F89809359
:103EC000C40193C08B8D9C8D1092E9001092BB02AF
:103ED0001092BA029093B9028093B802898D811131
:103EE00056C08E899D89913A59F4813209F081C07A
:103EF00047E050E067E171E080E00E94571D75C027
:103F0000913209F076C0833289F4888D90E0982F41
:103F100088272F89822BA0E0B0E080931301909333
:103F20001401A0931501B09316015FC0803269F4AB
:103F30008091E80082FFFCCF67E087E191E00E947A
:103F40007E1D8BEF8093E80006C0823209F04DC0E1
:103F50008F8980931E018091BC02882319F0EEEFB7
:103F6000FAE002C0E0E0F8E08091170190911801BA
:103F7000A0911901B0911A01803B9440A105B105AF
:103F800009F07BC080911E0180FF93C076C00E9423
:103F9000B21CDC0112960D911C91139701151105AD
:103FA00041F1D801ED91FC910190F081E02DBE012D
:103FB0006B5E7F4FC8010995811117C0F80100851C
:103FC0001185ECCF113009F44EC0133091F48F8974
:103FD000882309F445C0823081F440E860E387E437
:103FE00092E00E941A1D882321F08EEF8093E80052
:103FF00079C081E28093EB0075C0813029F440E8FC
:104000006CE18AE292E0EDCF833099F70E94B21C16
:10401000DC011296ED90FC9013978E010F5F1F4FFD
:104020006801E114F10479F0D701ED91FC9106806B
:10403000F781E02DB801C7010995080F111DF7019F
:10404000E084F184EECFD8011C92F60101900020AB
:10405000E9F73197BF016C197D0940E0C601C1CF76
:1040600064E172E002C068E172E06115710509F275
:10407000FB01449150E080E840CF0FB6F894A8953A
:1040800080916000886180936000109260000FBE94
:10409000A895EE3F2AE0F20739F08091FE0A909150
:1040A000FF0A91838083A1CF1092FF0A1092FE0A2B
:1040B0009CCFEE3F8AE0F80731F0808191819093A8
:1040C000FF0A8093FE0A87E797E7918380839BE04E
:1040D00088E10FB6F894A895809360000FBE909386
:1040E000600083CF6C960FB6F894DEBF0FBECDBFD5
:1040F000DF91CF91FF91EF91BF91AF919F918F9100
:104100007F916F915F914F913F912F911F910F91EF
:10411000FF90EF90DF90CF900F900FBE0F901F9009
:104120001895CF93DF93EC012B8120FF33C026FF3E
:104130000AC02F7B2B838E819F8101969F838E8364
:104140008A8190E029C022FF0FC0E881F981808137
:10415000082E000C990B009719F420622B831AC0CB
:104160003196F983E8830EC0EA85FB85099597FFB0
:1041700009C02B81019611F080E201C080E1822B01
:104180008B8308C02E813F812F5F3F4F3F832E835B
:10419000992702C08FEF9FEFDF91CF910895A0E0A4
:1041A000B0E0E5EDF0E20C9455270F811885F80199
:1041B000838188608383AE01455F5F4F69857A851F
:1041C000C8010E940321F8012381277F2383E4E0B3
:1041D0000C947127AEE0B0E0E0EFF0E20C945727CA
:1041E0008DE08C838B899C899A838983AE01495E9B
:1041F0005F4F6D897E89CE0101960E9455242E96CF
:10420000E2E00C947327ACE0B0E0E9E0F1E20C945A
:1042100047277C016B018A01FC011782168283818A
:1042200081FFBDC1CE0101964C01F7019381F601DA
:1042300093FD859193FF81916F01882309F4ABC1B0
:10424000853239F493FD859193FF81916F01853219
:1042500029F4B70190E00E94AD25E7CF512C312C15
:1042600020E02032A0F48B3269F030F4803259F033
:10427000833269F420612CC08D3239F0803339F4F7
:10428000216026C02260246023C0286021C027FD51
:1042900027C030ED380F3A3078F426FF06C0FAE038
:1042A0005F9E300D1124532E13C08AE0389E300DCE
:1042B0001124332E20620CC08E3221F426FD6BC1F6
:1042C000206406C08C3611F4206802C0883641F4A0
:1042D000F60193FD859193FF81916F018111C1CF0B
:1042E000982F9F7D9554933028F40C5F1F4FFFE368
:1042F000F9830DC0833631F0833771F0833509F0CF
:104300005BC022C0F801808189830E5F1F4F442467
:104310004394512C540115C03801F2E06F0E711C0A
:10432000F801A080B18026FF03C0652D70E002C0B7
:104330006FEF7FEFC5012C870E94A2252C0183011E
:104340002C852F77222E17C03801F2E06F0E711CDA
:10435000F801A080B18026FF03C0652D70E002C087
:104360006FEF7FEFC5012C870E9497252C012C85CC
:104370002068222E830123FC1BC0832D90E0481669
:104380005906B0F4B70180E290E00E94AD253A945E
:10439000F4CFF50127FC859127FE81915F01B701DC
:1043A00090E00E94AD2531103A94F1E04F1A510887
:1043B0004114510471F7E5C0843611F0893639F59E
:1043C000F80127FF07C060817181828193810C5FB2
:1043D0001F4F08C060817181072E000C880B990B5C
:1043E0000E5F1F4F2F76722E97FF09C09095809514
:1043F000709561957F4F8F4F9F4F2068722E2AE0F6
:1044000030E0A4010E94FE25A82EA81844C08537DC
:1044100029F42F7EB22E2AE030E025C0F22FF97F5A
:10442000BF2E8F36C1F018F4883579F0B4C08037CC
:1044300019F0883721F0AFC02F2F2061B22EB4FEC3
:104440000DC08B2D8460B82E09C024FF0AC09F2F99
:104450009660B92E06C028E030E005C020E130E0CB
:1044600002C020E132E0F801B7FE07C0608171812F
:10447000828193810C5F1F4F06C06081718180E053
:1044800090E00E5F1F4FA4010E94FE25A82EA818E1
:10449000FB2DFF777F2E76FE0BC0372D3E7FA514B8
:1044A00050F474FE0AC072FC08C0372D3E7E05C071
:1044B000BA2C372D03C0BA2C01C0B52C34FF0DC067
:1044C000FE01EA0DF11D8081803311F4397E09C0AF
:1044D00032FF06C0B394B39404C0832F867809F0EA
:1044E000B39433FD13C030FF06C05A2CB31418F434
:1044F000530C5B18B32CB31468F4B70180E290E05E
:104500003C870E94AD25B3943C85F5CFB31410F4DD
:104510003B1801C0312C34FF12C0B70180E390E09A
:104520003C870E94AD253C8532FF17C031FD03C09A
:1045300088E790E002C088E590E0B7010CC0832FC7
:10454000867859F031FF02C08BE201C080E237FD6E
:104550008DE2B70190E00E94AD25A51438F4B701B3
:1045600080E390E00E94AD255A94F7CFAA94F4011D
:10457000EA0DF11D8081B70190E00E94AD25A110E8
:10458000F5CF332009F451CEB70180E290E00E94CC
:10459000AD253A94F6CFF7018681978102C08FEF5F
:1045A0009FEF2C96E2E10C94632720FD09C0FC01EB
:1045B00023FD05C022FF02C07383628351834083C1
:1045C000089544FD10C046FD10C0DB01FC01AA0F98
:1045D000BB1FEE1FFF1F1094D1F76A0F7B1F8E1FAA
:1045E0009F1F31E003C033E001C034E0660F771F46
:1045F000881F991F3150D1F7620F711D811D911DC8
:1046000008950F931F93CF93DF938C01C8010E94ED
:104610009120EC0197FD08C00E948325892BB1F7FA
:10462000B801CE010E94E525CE01DF91CF911F9107
:104630000F910895A1E0B0E0E0E2F3E20C944D2781
:104640008C01C62E7A0129830E949120AC01552746
:1046500029814B32510521F04D32510569F4206812
:10466000CA94C11002C080E076C0C80129830E94AC
:104670009120298197FDF7CF322F3D7FD32E322F06
:10468000307349F5803339F5BB24BA94BC0C09F476
:104690004EC0C80129830E949120298197FD47C0FF
:1046A000382F3F7D383569F48D2D8264D82ECA9419
:1046B000CA94CC20E1F1C8010E94912097FF0BC061
:1046C00036C026FF04C02D2D2260D22E03C03D2D02
:1046D0003261D32ECB2C812C912C540120ED280F4C
:1046E000283080F0D4FE04C0B8010E94E5251CC02B
:1046F0002A3040F0D6FEF8CF2F7D3FEE320F363015
:1047000098F727504D2DC501B4010E94E1224B01BD
:104710005C018D2D8260D82ECA94CC2059F0C8013E
:104720000E94912097FFDACFD1FC04C09CCF812C4E
:10473000912C5401D7FE08C0B094A094909480941A
:10474000811C911CA11CB11C2D2DB501A401C70118
:104750000E94D52281E02196ECE00C946927A1E229
:10476000B0E0E5EBF3E20C944B275C017A01CE015B
:1047700001966C0180E2F60111928A95E9F7F50144
:10478000838040E050E0912C712C70E0A1E0B0E01B
:10479000F90183FC859183FE81918F01982F9F0100
:1047A000811103C080E090E07CC08E3519F4411582
:1047B000510549F1E72FF0E0E417F5073CF48D359A
:1047C00059F18D3219F4772001F103C0711001C045
:1047D000982E892F8695869586958601080F111D3E
:1047E000892F87703D0101C0660C8A95EAF7F801B0
:1047F000808186298083991559F0991510F49F5F5F
:10480000E8CF9150E6CF71E004C07724739401C0E3
:10481000712C4F5F5F4FBCCF772019F08E81806283
:104820008E83711103C09924939416C0F6019E01E2
:104830002F5D3F4F808180958193E217F307D1F779
:10484000F2CFE114F10429F0F7018083C70101964A
:104850007C016150912CF9F0C50169A30E9491205F
:1048600069A197FD16C0282F269526952695F60155
:10487000E20FF11D208130E0AC014770552702C0E6
:10488000359527954A95E2F720FDDBCFB5010E94CB
:10489000E525911087CFE114F10411F0F7011082A2
:1048A000C801A196EEE00C9467274F925F927F9229
:1048B0008F929F92AF92BF92CF92DF92EF92FF9230
:1048C0000F931F93CF93DF931F92CDB7DEB76C0189
:1048D0002B015A01FC0117821682712CF601F3801C
:1048E000F201F3FC8591F3FE8191382F2F0188238B
:1048F00009F4F3C090E039830E9483253981892B24
:1049000021F0C6010E940123E9CF353241F4F201C2
:10491000F3FC3591F3FE31912F01353269F4C60174
:1049200039830E949120398197FDD5C03817B1F2A3
:10493000B6010E94E525D1C03A3239F4F3FC359135
:10494000F3FE31912F0151E001C050E0420110E02F
:1049500020ED230F2A3090F45260612F70E080E048
:1049600090E040E259830E94E122162FF401F3FC0B
:104970003591F3FE31914F015981EACF052F232F55
:10498000240151FF03C0111102C0A7C01FEF383628
:1049900019F03C3659F011C0F401F3FC2591F3FEF7
:1049A00021912F01283649F4052F08600460F20197
:1049B000F3FC2591F3FE21912F01222309F48DC0F0
:1049C000622F70E08AEC90E029830E948C25298177
:1049D000892B09F482C000FD07C0F501E080F18059
:1049E000C50102965C0102C0E12CF12C2E3651F477
:1049F000F6014681578160E070E0202FC7010E94D8
:104A0000D5226CCF233691F401FF11E0C6010E943C
:104A1000912097FD60C0E114F10429F0F701808333
:104A2000C70101967C01115089F751C02B3559F40B
:104A30009201A701612FC6010E94AF232C01892B8F
:104A400009F045C03FC0C60129830E940123298186
:104A500097FD41C02F3659F128F4243631F129361B
:104A600049F127C0233769F02537F9F022C0E11456
:104A7000F10429F0F7018082C70101967C011150F1
:104A800071F0C6010E9491204C0197FD08C00E9460
:104A90008325892B61F3B601C4010E94E525E11449
:104AA000F104A9F0F701108212C0006203C0006196
:104AB00001C00064202FA701612FC6010E941A23A4
:104AC000811105C0F6018381807329F406C000FDC1
:104AD00005CF739403CF772019F0872D90E002C0A3
:104AE0008FEF9FEF0F90DF91CF911F910F91FF906C
:104AF000EF90DF90CF90BF90AF909F908F907F907E
:104B00005F904F90089591110C94BD26803219F05A
:104B100089508550C8F70895FC010590061621F0CC
:104B20000020D9F7C00108953197CF010895FC0105
:104B30000590615070400110D8F7809590958E0FC8
:104B40009F1F0895FC016150704001900110D8F73B
:104B5000809590958E0F9F1F08950F931F93CF936D
:104B6000DF93FB01238121FD03C08FEF9FEF28C05E
:104B700022FF16C046815781248135814217530791
:104B800044F4A081B1819D012F5F3F4F3183208389
:104B90008C93268137812F5F3F4F3783268310C048
:104BA000EB01092F182F0084F185E02D0995892B41
:104BB000E1F68E819F8101969F838E83812F902FB6
:104BC000DF91CF911F910F910895FB01238120FF69
:104BD00012C026FD10C08F3F3FEF930761F0828324
:104BE0002F7D20642383268137812150310937832B
:104BF0002683992708958FEF9FEF0895FA01AA273A
:104C0000283051F1203181F1E8946F936E7F6E5F0F
:104C10007F4F8F4F9F4FAF4FB1E03ED0B4E03CD0BD
:104C2000670F781F891F9A1FA11D680F791F8A1FA0
:104C3000911DA11D6A0F711D811D911DA11D20D007
:104C400009F468943F912AE0269F11243019305DC1
:104C50003193DEF6CF010895462F4770405D4193B2
:104C6000B3E00FD0C9F7F6CF462F4F70405D4A33FF
:104C700018F0495D31FD4052419302D0A9F7EACFC7
:104C8000B4E0A6959795879577956795BA95C9F7F6
:104C900000976105710508959B01AC010A2E0694E9
:104CA0005795479537952795BA95C9F7620F731FA2
:104CB000841F951FA01D0895E89409C097FB3EF43A
:104CC00090958095709561957F4F8F4F9F4F992359
:104CD000A9F0F92F96E9BB279395F69587957795D7
:104CE0006795B795F111F8CFFAF4BB0F11F460FF97
:104CF0001BC06F5F7F4F8F4F9F4F16C0882311F0EF
:104D000096E911C0772321F09EE8872F762F05C002
:104D1000662371F096E8862F70E060E02AF09A959D
:104D2000660F771F881FDAF7880F9695879597F992
:104D30000895990F0008550FAA0BE0E8FEEF16162C
:104D40001706E807F907C0F012161306E407F5077F
:104D500098F0621B730B840B950B39F40A2661F0F3
:104D6000232B242B252B21F408950A2609F4A14096
:104D7000A6958FEF811D811D089599278827089595
:104D800097F99F6780E870E060E008959FEF80ECFE
:104D9000089500240A9416161706180609060895A1
:104DA00000240A9412161306140605060895092E07
:104DB0000394000C11F4882352F0BB0F40F4BF2B76
:104DC00011F460FF04C06F5F7F4F8F4F9F4F0895B6
:104DD00057FD9058440F551F59F05F3F71F04795AC
:104DE000880F97FB991F61F09F3F79F08795089591
:104DF000121613061406551FF2CF4695F1DF08C0B0
:104E0000161617061806991FF1CF869571056105CC
:104E100008940895E894BB2766277727CB0197F974
:104E20000895F999FECF92BD81BDF89A992780B572
:104E30000895A8E1B0E042E050E00C943927262F15
:104E4000F999FECF92BD81BDF89A019700B4021680
:104E500039F01FBA20BD0FB6F894FA9AF99A0FBE2E
:104E600008950196272F0E9420270C941F27DC010C
:104E7000CB01FC01F999FECF06C0F2BDE1BDF89A65
:104E8000319600B40D9241505040B8F708952F92DA
:104E90003F924F925F926F927F928F929F92AF92CA
:104EA000BF92CF92DF92EF92FF920F931F93CF9317
:104EB000DF93CDB7DEB7CA1BDB0B0FB6F894DEBFAE
:104EC0000FBECDBF09942A88398848885F846E84D4
:104ED0007D848C849B84AA84B984C884DF80EE801E
:104EE000FD800C811B81AA81B981CE0FD11D0FB627
:104EF000F894DEBF0FBECDBFED010895A1E21A2EDA
:104F0000AA1BBB1BFD010DC0AA1FBB1FEE1FFF1F6D
:104F1000A217B307E407F50720F0A21BB30BE40BBD
:104F2000F50B661F771F881F991F1A9469F7609504
:104F30007095809590959B01AC01BD01CF010895BE
:104F4000EE0FFF1F0590F491E02D09945058BB27F8
:104F5000AA270E94BE270C94D7260E94C92638F0A3
:104F60000E94D02620F039F49F3F19F426F40C94C7
:104F7000C6260EF4E095E7FB0C94C026E92F0E94AC
:104F8000E82658F3BA17620773078407950720F0DD
:104F900079F4A6F50C940A270EF4E0950B2EBA2F9F
:104FA000A02D0B01B90190010C01CA01A00111242F
:104FB000FF27591B99F0593F50F4503E68F11A16DB
:104FC000F040A22F232F342F4427585FF3CF46956C
:104FD00037952795A795F0405395C9F77EF41F168E
:104FE000BA0B620B730B840BBAF09150A1F0FF0F58
:104FF000BB1F661F771F881FC2F70EC0BA0F621F44
:10500000731F841F48F4879577956795B795F79533
:105010009E3F08F0B0CF9395880F08F09927EE0FC8
:105020009795879508950E9427280C94D7260E946B
:10503000D02658F00E94C92640F029F45F3F29F09D
:105040000C94C02651110C940B270C94C6260E9478
:10505000E82668F39923B1F3552391F3951B550B7B
:10506000BB27AA2762177307840738F09F5F5F4F3B
:10507000220F331F441FAA1FA9F335D00E2E3AF07A
:10508000E0E832D091505040E695001CCAF72BD092
:10509000FE2F29D0660F771F881FBB1F26173707E3
:1050A0004807AB07B0E809F0BB0B802DBF01FF2715
:1050B00093585F4F3AF09E3F510578F00C94C0260C
:1050C0000C940B275F3FE4F3983ED4F386957795D5
:1050D0006795B795F7959F5FC9F7880F911D9695CE
:1050E000879597F90895E1E0660F771F881FBB1F2A
:1050F000621773078407BA0720F0621B730B840BD7
:10510000BA0BEE1F88F7E09508950E94992608F4DF
:085110008FEF0895F894FFCF22
:1051180001FFFFFFFFFF010101B418B418B418B470
:1051280018B418FFFFFFFF00E100000000000005B1
:1051380006010000000013198918B5185A19E61855
:10514800C418D8180000000003123E12C312191226
:105158002412EB12C71200000000091300C180815D
:045168000000000043
:00000001FF
