:020000023000CC
:10E000000D9472F00D949BF00D949BF00D949BF089
:10E010000D949BF00D949BF00D949BF00D949BF050
:10E020000D949BF00D949BF00D949BF00D949BF040
:10E030000D949BF00D949BF00D949BF00D949BF030
:10E040000D949BF00D949BF00D949BF00D949BF020
:10E050000D949BF00D949BF00D949BF00D949BF010
:10E060000D949BF00D949BF00D949BF00D949BF000
:10E070000D949BF00D949BF00D949BF00D949BF0F0
:10E080000D949BF00D949BF00D949BF00D949BF0E0
:10E090000D949BF00D949BF00D949BF00D949BF0D0
:10E0A0000D949BF00D949BF00D949BF00D949BF0C0
:10E0B0000D949BF00D949BF00D949BF00D949BF0B0
:10E0C0000D949BF00D949BF00D949BF00D949BF0A0
:10E0D0000D949BF00D949BF00D949BF00D949BF090
:10E0E0000D949BF011241FBECFEFD1E2DEBFCDBF58
:10E0F00001E00CBF12E0A0E0B2E0E4E2F1EF03E0E7
:10E100000BBF02C007900D92A836B107D9F712E0F5
:10E11000A8E6B2E001C01D92A837B107E1F70F945D
:10E12000FEF00D9490F801E20EBF0FEE0DBF11242A
:10E130001FBE0D94FEF00D9400F020E030E040EDA5
:10E1400057E005C0FA013197F1F72F5F3F4F2817CD
:10E150003907C0F308952091760230917702211596
:10E16000310561F48093C6008091C00086FFFCCF2A
:10E170008091C00080648093C000089522303105F2
:10E1800059F48093D6008091D00086FFFCCF809117
:10E19000D00080648093D0000895E0ECF0E08081AE
:10E1A0008260808320E12093C40098E19093C100B5
:10E1B000E0EDF0E08081826080832093D400909332
:10E1C000D1000895019719F480E885B9089515B82C
:10E1D000089581B1806F81B982B1806F82B96D9AE3
:10E1E00075989D9AA598E1E0F1E08081886280832E
:10E1F000E2E0F1E080818862808308952F923F926F
:10E200004F925F926F927F928F929F92AF92BF9246
:10E21000CF92DF92EF92FF920F931F93DF93CF93F2
:10E22000CDB7DEB7C053D1400FB6F894DEBF0FBEF6
:10E23000CDBF94B7F894A89514BE80916000886112
:10E240008093600010926000789493FFC0C080912A
:10E25000FC1F9091FD1FA091FE1FB091FF1F8A5AD5
:10E260009545AA4AB54509F0D6C52091F41F3091CD
:10E27000F51F4091F61F5091F71F79018A01F3E0D5
:10E280008F2E9924939475E061E199C08091FB1FD2
:10E2900080FF09C0F70100935B0080925700E8956A
:10E2A00007B600FCFDCFA12CE1E0BE2EC12CD12C85
:10E2B000AE0CBF1CC01ED11E8091FB1F81FD4DC046
:10E2C00065C08091FB1F82FF0DC08091F01F90916F
:10E2D000F11FA091F21FB091F31FABBFFC0187911A
:10E2E00096910BC08091F01F9091F11FA091F21FA9
:10E2F000B091F31FFC01808191810C01F9014093E1
:10E300005B0090925700E89511242E5F3F4F4F4FCE
:10E310005F4F8091F01F9091F11FA091F21FB0917B
:10E32000F31F0296A11DB11D8093F01F9093F11F62
:10E33000A093F21FB093F31F8091F81F9091F91FE3
:10E340008330910530F002979093F91F8093F81F66
:10E3500004C01092F91F1092F81F8091F81F90913D
:10E36000F91F892B31F02A153B054C055D0508F492
:10E37000A8CFF70100935B0070935700E89507B6AC
:10E3800000FCFDCF60935700E89517C020503F4F29
:10E390004F4F5F4F8091F81F9091F91FF1E081304E
:10E3A0009F0738F0805091409093F91F8093F81F99
:10E3B00004C01092F91F1092F81F86017501809118
:10E3C000F81F9091F91F892B09F060CF24C5109296
:10E3D000770210927602279A2F9A8091C00082606D
:10E3E0008093C00080E18093C40088E18093C100E5
:10E3F00000000F94E9F080E885B90F94CDF00F94F8
:10E40000A9F70F94A1F780E00F94A5F781E40F948A
:10E41000A5F780E092E00F948DF787E10F94A5F7C0
:10E4200082E192E00F948DF785E60F94A5F781E2E3
:10E4300092E00F948DF715B8A0907602B090770215
:10E44000EE24FF24870134E0832E912CCC24DD249C
:10E4500024C0C4010197F1F70894E11CF11C011DCF
:10E46000111D21E2E2162EE4F20620E0020720E070
:10E47000120718F021E0C22ED12CC801B70127ECF9
:10E480003BE140E050E00F944CF8611571058105C7
:10E49000910519F485B1805885B98091C00087FD38
:10E4A00007C08091D00087FD03C0C114D10489F258
:10E4B0008091D00087FF03C092E0A92EB12C960175
:10E4C0002F5F3F4FB0927702A09276022130310544
:10E4D00009F094C422243324CC24CC5DDE4F18826E
:10E4E000C452D140882499245401CB5DDE4F188258
:10E4F00019821A821B82C552D140CE5DDE4F19822D
:10E500001882C252D1404424552400E010E0ABBE32
:10E51000F40187919691C15DDE4F99838883CF5234
:10E52000D14064C420E030E02130310551F120E0D9
:10E5300030E040E050E0109721F48091C00087FD6A
:10E5400020C0A230B10521F48091D00087FD1CC00D
:10E550002F5F3F4F4F4F5F4F2130E2E13E07EAE729
:10E560004E07E0E05E0738F3C15DDE4F2881398158
:10E57000CF52D1402F5F3F4FD1F2EE27FF270994B2
:10E58000D6CF2091C60002C02091D600933011F161
:10E59000943028F4913089F09230B8F407C0953067
:10E5A00041F19530F0F09630D1F535C02B3109F0BE
:10E5B000B9CF91E08BE1C82EB5CFC226CC5DDE4F3E
:10E5C0002883C452D14092E0ADCF722F60E0C226C2
:10E5D00093E0A8CF822F90E0682B792BC22694E09D
:10E5E000A1CF2E3009F025C4C22695E02224332481
:10E5F00099CFE5E0F0E0EC0FFD1FE20DF31D208365
:10E600000894211C311CC2262616370609F08ACF31
:10E61000B10196E087CF2C1509F00BC403C09730E9
:10E6200009F080CF012B81F40F94A1F784E10F94BE
:10E63000A5F785E292E00F948DF78DE20F94A5F790
:10E6400089E392E00F948DF78091680290916902BE
:10E65000A0916A02B0916B020097A105B10599F5EE
:10E66000CE5DDE4FA881B981C252D1401196CE5DF8
:10E67000DE4FB983A883C252D1401B9720F1089482
:10E68000411C511CB6E04B16510410F04424552493
:10E690008BE50F94A5F78DE492E00F948DF7E4E0FD
:10E6A0004E16510418F4842D845A02C082E684194F
:10E6B0000F94A5F78AE20F947BF7CE5DDE4F1982A7
:10E6C0001882C252D1408091680290916902A09153
:10E6D0006A02B0916B020097A105B10509F461C00F
:10E6E0008091740290917502009709F45AC00197C5
:10E6F00039F488E50F94A5F784E592E00F948DF73F
:10E700008091740290917502029739F487E50F9415
:10E71000A5F78BE592E00F948DF760916C027091F4
:10E720006D0280916E0290916F0224E630E040E02D
:10E7300050E00F941AF820916802309169024091DC
:10E740006A0250916B020F944CF880916302909191
:10E750006402A0916502B091660289839A83AB83BB
:10E76000BC83FE0133961216130674F4C9016AE0E5
:10E7700070E00F9439F8805D8083C9016AE070E031
:10E780000F9439F89B0102C080E280833197EC1727
:10E79000FD0749F7CE0101960F948DF785E20F949E
:10E7A0007BF76D81643109F432C26531F0F4663073
:10E7B00009F4E7C0673048F4623091F1633009F43E
:10E7C00077C0613009F0C5C25CC0613109F481C015
:10E7D000623120F4603109F0BCC222C0623109F418
:10E7E000C5C0633109F0B5C205C1693109F4ACC0D7
:10E7F0006A3150F4663109F40AC2663108F4FAC08D
:10E80000683109F0A6C27FC06B3109F469C06B3171
:10E8100008F471C06D3131F0613709F09AC2DDC082
:10E82000DD2459C09985903359F48B85882311F4E0
:10E830009EE11CC0813011F091E018C098E916C02B
:10E84000892F807591F0903539F489E0E0E0F0E0AF
:10E850008093570094910AC0983539F4E3E0F0E0D2
:10E8600089E080935700949101C090E01E821F823E
:10E870008985888719869A871B86F7E0EF2EF12C09
:10E880006DC21E8288E08F8381E4888786E5898750
:10E8900082E58A8789E48B8783E58C8780E58D878D
:10E8A0008FE58E8782E38F87EBE0EE2EF12C56C248
:10E8B0008E81813941F0823941F0803911F48FE045
:10E8C00005C080E003C082E001C08AE01E828F8321
:10E8D00049C0DD24D3941E8272E0E72EF12C3FC2A2
:10E8E0008985882311F48EE128C0813011F081E000
:10E8F00024C088E922C01E82E1E0F0E089E0809334
:10E90000570084911BC08F81803589F488858830B9
:10E9100039F4E2E0F0E089E08093570084910DC083
:10E9200089E0E0E0F0E080935700849106C0E3E0E6
:10E93000F0E089E08093570084911E828F831886CF
:10E9400064E0E62EF12C0AC28985836C99E0E1E04F
:10E95000F0E0082E90935700E89507B600FCFDCF35
:10E960001E821F8253E0E52EF12CF8C180EC8E83CD
:10E97000CB5DDE4F188219821A821B82C552D140AC
:10E98000EAC18E8190E0A0E0B0E0B82EAA249924DC
:10E9900088248F8190E0A0E0B0E0DC0199278827EF
:10E9A000882A992AAA2ABB2A898590E0A0E0B0E0AB
:10E9B000882A992AAA2ABB2A888590E0A0E0B0E09C
:10E9C000BA2FA92F982F8827882A992AAA2ABB2AE2
:10E9D000880C991CAA1CBB1C0BC08E8180936802FA
:10E9E0008F8180936902888580936A0210926B02FE
:10E9F0001E82B1C1FE81C65DDE4FF883CA52D1408E
:10EA0000C75DDE4F1882C952D1408F81C82EDD24E8
:10EA1000C75DDE4F28813981C952D140C22AD32A2D
:10EA2000633109F0C9C08091680290916902A09198
:10EA30006A02B0916B020097A105B10509F443C0C9
:10EA400081149104A104B10491F4C601A0E0B0E0E6
:10EA500080936C0290936D02A0936E02B0936F024C
:10EA600081E090E0909375028093740224C08091BD
:10EA7000700290917102A0917202B0917302881697
:10EA80009906AA06BB06B9F0960140E050E08091D5
:10EA90006C0290916D02A0916E02B0916F02820F94
:10EAA000931FA41FB51F80936C0290936D02A093D7
:10EAB0006E02B0936F028092700290927102A092E7
:10EAC0007202B0927302CB5DDE4F88819981AA8178
:10EAD000BB81C552D1408030E0EE9E07E3E0AE0737
:10EAE000E0E0BE07F0F423E0FC01A0935B0020937C
:10EAF0005700E89507B600FCFDCFCB5DDE4F88815F
:10EB00009981AA81BB81C552D14080509F4FAF4FA0
:10EB1000BF4FCB5DDE4F88839983AA83BB83C552E9
:10EB2000D14090E0891690EE990693E0A90690E016
:10EB3000B90618F0B501A40166C0B501A401DE0153
:10EB40001F968C9111962C9111971296C45DDE4FF1
:10EB50002883CC52D140C55DDE4F1882CB52D140C4
:10EB600090E0C55DDE4FE881F981CB52D1408E2B1C
:10EB70009F2B21E00C01FA0160935B00209357006A
:10EB8000E89511244E5F5F4F6F4F7F4F8EEF9FEFE1
:10EB9000C80ED91EC114D104A1F695E0F401A092CB
:10EBA0005B0090935700E89507B600FCFDCF81E12C
:10EBB00080935700E89527C0D501C401B695A79565
:10EBC000979587957C018601AFE06A2E712C6C0EBB
:10EBD0007D1E0BC0D3016D913D01C7010F9482F8DA
:10EBE0000894E11CF11C015010400115110591F72A
:10EBF000A60160E070E0440F551F661F771F480DA7
:10EC0000591D6A1D7B1D1E824A015B01A4C0BE8185
:10EC1000C25DDE4FB883CE52D140C35DDE4F188255
:10EC2000CD52D1408F81C82EDD24C35DDE4FE881F7
:10EC3000F981CD52D140CE2ADF2A1E828D818431C6
:10EC400009F052C08091680290916902A0916A0215
:10EC5000B0916B020097A105B10561F18114910497
:10EC6000A104B10481F4809174029091750201971E
:10EC700051F482E090E09093750280937402C60193
:10EC8000A0E0B0E00FC0960140E050E080916C023F
:10EC900090916D02A0916E02B0916F02820F931F4E
:10ECA000A41FB51F80936C0290936D02A0936E0217
:10ECB000B0936F029601BE01695F7F4FABBEF40156
:10ECC00087919691DB018C9311969C936E5F7F4F99
:10ECD00082E090E0A0E0B0E0880E991EAA1EBB1E64
:10ECE0002250304059F72DC0A5019401BE01695F43
:10ECF0007F4F0894C108D108760100E010E0089425
:10ED0000C11CD11C0894E11CF11C011D111DE80C53
:10ED1000F91C0A1D1B1D21BDBB27A52F942F832F76
:10ED200082BD2F5F3F4F4F4F5F4FF89A80B5DB0199
:10ED30008D93BD012E153F054007510761F749012D
:10ED40005A0133E0E32EF12CEC0CFD1CFB01108288
:10ED500005C080EC8E8322E0E22EF12CDD248BE1D5
:10ED60000F94ABF0CC5DDE4F8881C452D1400F943C
:10ED7000ABF08F2D0F94ABF08E2D0F94ABF08EE097
:10ED80000F94ABF095E1C92ECC5DDE4FF881C452F3
:10ED9000D140CF26CE24CF2485E0682E712C6C0E76
:10EDA0007D1E0AC0D3011D913D01812F0F94ABF050
:10EDB000C1260894E108F108E114F10499F78C2DBB
:10EDC0000F94ABF085B1805885B9DD20B9F4CC5DE6
:10EDD000DE4FB881C452D140BF5FCC5DDE4FB883F7
:10EDE000C452D14001E010E020E030E0A091760272
:10EDF000B091770290E060E070E096CB27982F9872
:10EE000080E090E020ED37E0F9013197F1F70196CD
:10EE100084369105C9F700008091C0008D7F8093F2
:10EE2000C00081E180935700E895EE27FF27099401
:10EE3000FFCF90E077CB282F662311F05D9A01C0B9
:10EE40005D9827FF02C0A39A01C0A398922F26FFC6
:10EE500004C080910201806803C0809102018F7715
:10EE60008093020195FF02C0A49A01C0A49894FF68
:10EE700002C08D9A01C08D9800C08F9A82E08A9559
:10EE8000F1F700C08F9893FF02C0A39A01C0A39826
:10EE900092FF04C080910201806803C0809102014A
:10EEA0008F778093020191FF02C0A49A01C0A498B9
:10EEB00090FF02C08D9A01C08D9800C08F9A92E099
:10EEC0009A95F1F700C08F98A39A8091020180680B
:10EED00080930201A49A8D9A662341F4243030F481
:10EEE0008FE999E10197F1F700C003C095ED9A957C
:10EEF000F1F70000089561E00F941BF70895CF9398
:10EF0000DF93EC0102C00F947BF7FE012196849100
:10EF10008823C9F7DF91CF910895CF93DF93EC0158
:10EF200002C00F947BF789918823D9F7DF91CF91A5
:10EF3000089560E00F941BF7089582E00F9499F70D
:10EF4000089581E00F9499F7089580580F9499F7E8
:10EF50000895879A559A9B9AE1E0F1E08081806854
:10EF600080839C9A859A8F985D98A39AE2E0F1E05D
:10EF7000808180688083A49A8D9A8FE59AEE0197AC
:10EF8000F1F700C00000A39880818F77808300C0D4
:10EF90008F9A92E09A95F1F700C08F988FE090E4F5
:10EFA0000197F1F700C000008F9A92E09A95F1F76F
:10EFB00000C08F988FE891E00197F1F700C0000042
:10EFC0008F9A92E09A95F1F700C08F9885ED8A9517
:10EFD000F1F700008D9800C08F9A92E09A95F1F7B2
:10EFE00000C08F9885ED8A95F1F700008D9800C0DC
:10EFF0008F9A92E09A95F1F700C08F9882E08A95F7
:10F00000F1F700C0A39A00C08F9A92E09A95F1F7A9
:10F0100000C08F9885ED8A95F1F7000088E00F9485
:10F0200099F70F94A1F786E00F9499F78CE00F946D
:10F0300099F70895629FD001739FF001829FE00DC0
:10F04000F11D649FE00DF11D929FF00D839FF00D67
:10F05000749FF00D659FF00D9927729FB00DE11D13
:10F06000F91F639FB00DE11DF91FBD01CF011124F0
:10F07000089597FB092E07260AD077FD04D02ED0DD
:10F0800006D000201AF4709561957F4F0895F6F729
:10F09000909581959F4F0895A1E21A2EAA1BBB1B44
:10F0A000FD010DC0AA1FBB1FEE1FFF1FA217B30754
:10F0B000E407F50720F0A21BB30BE40BF50B661F6A
:10F0C000771F881F991F1A9469F76095709580952E
:10F0D00090959B01AC01BD01CF010895AA1BBB1BFC
:10F0E00051E107C0AA1FBB1FA617B70710F0A61B48
:10F0F000B70B881F991F5A95A9F780959095BC0169
:10F10000CD010895262FF999FECF1FBA92BD81BD7A
:10F1100020BD0FB6F894FA9AF99A0FBE0196089599
:04F12000F894FFCF91
:10F124004F726967696E616C2050727573612069F2
:10F134003300507275736120526573656172636840
:10F14400002E2E2E0020446F206E6F74206469738D
:10F15400636F6E6E6563742100205570677261641D
:10F16400696E67206669726D77617265007C202024
:10F1740020207C0077726974652000766572696668
:08F1840079200020202000008A
:040000033000E000E9
:00000001FF
