:107000005FC0000080C000007EC000007CC00000A7
:107010007AC0000078C0000076C0000074C0000094
:1070200072C0000070C00000C0C400006CC000004E
:107030006AC0000068C0000066C0000064C00000B4
:1070400062C00000CDC000005EC000005CC0000057
:107050005AC0000058C0000056C0000054C00000D4
:1070600052C0000050C000004EC000004CC00000E4
:107070004AC0000048C0000046C0000044C00000F4
:1070800042C0000040C000003EC000003CC0000004
:107090003AC0000038C0000036C0000034C0000014
:1070A00032C0000030C000002EC00000443E5D3EF3
:1070B000043F5D3E043F953EB73E043FD73EE93E68
:1070C00011241FBECFEFDAE0DEBFCDBF8091FE0AF4
:1070D0009091FF0A90935D0280935C0212E0A0E021
:1070E000B1E0EAEAFEE702C005900D92A032B107D6
:1070F000D9F722E0A0E2B2E001C01D92AC35B207A0
:10710000E1F718D3C4C67CCF84E08093E900809176
:10711000E80085FD0DC08091E8008B778093E80042
:107120008091E80082FDF3CF8EB38111F9CF02C0C8
:107130008091F100089593E09093E9009091E80028
:1071400095FF03C08093F10008959091E8009E7729
:107150009093E8009091E80090FDF4CF9EB39111D8
:10716000F9CF0895F89481E085BF15BE0C94000016
:10717000089520912602309127022F5F3F4F3093D0
:10718000270220932602832F37FF02C08EEF831B36
:10719000880F821710F45D9808955D9A089584B75A
:1071A000877F84BF90E880E00FB6F89490936100E9
:1071B000809361000FBE81E085BF82E085BF559A54
:1071C000E1E6F0E0908310825D98109289009AEFDA
:1071D0009093880080936F0083E080938100CDC3FB
:1071E0001F920F920FB60F9211242F938F939F939C
:1071F000EF93FF931092850010928400E0E0F0E09E
:1072000085919491019649F08091200290912102FC
:1072100001969093210280932002FF91EF919F911C
:107220008F912F910F900FBE0F901F90189542E0F5
:1072300061EC82E037D342E161E883E033D342E19D
:1072400060E884E02FC380915402982F9F77913299
:1072500039F590915502903291F0913209F5813AC9
:10726000F9F48091E800877F8093E80067E070E0A0
:1072700082E091E04BD48091E8008B770FC081329F
:1072800079F48091E800877F8093E80067E070E000
:1072900082E091E098D48091E8008E778093E800B6
:1072A00008954F925F926F927F92AF92BF92CF926A
:1072B000DF92EF92FF920F931F93CF93DF9384E0BF
:1072C0008093E9008091E80082FF25C21DDFC82F6E
:1072D000853481F48CE49DE1909321028093200217
:1072E00007B600FCFDCFF999FECF81E180935700EE
:1072F000E89503C0843521F407DF8DE01CDFE2C18F
:107300008C34D9F38035C9F3843721F484E413DF56
:1073100080E0F4CF813611F489E5F0CF813491F427
:10732000F3DEC82FF1DE90E0880F991F2C2F30E09C
:10733000322F2227330F822B932B092E000CAA0BFE
:10734000BB0B94C1803711F483E5D8CF833549F462
:10735000C7E1D2E01C2F195F8991EDDE1C13FCCF31
:10736000B1C1863521F481E3E6DE80E3C7CF833700
:1073700031F487E8E0DE85E9DEDE8EE1BFCF8536D9
:10738000F1F4E0E0F0E083E095E007B600FCFDCF2B
:10739000F999FECF80935700E89507B600FCFDCF22
:1073A000F999FECF90935700E89507B600FCFDCF02
:1073B000E058FF4FE11540E7F40739F79ECF8237D9
:1073C00019F4E1E0F0E00EC0863419F4E0E0F0E0FA
:1073D00009C08E3419F4E3E0F0E004C0813539F4DB
:1073E000E2E0F0E089E080935700849187CF823615
:1073F00031F489E5A0DE80E09EDE80E87FCF823434
:1074000019F0873609F016C110922102109220025D
:107410007BDE082F79DED82F77DE182F8BEB810FDC
:10742000823010F08FE36ACF2D2F30E0302B109296
:107430006F00C73609F048C007B600FCFDCFF999C8
:10744000FECF81E180935700E895E90100E0BB247D
:10745000B394209709F4EAC0C0902202D09023028E
:10746000E0902402F09025021634B9F4E02FF0E009
:10747000EC29FD2984915FDE002369F052E0C50EFE
:10748000D11CE11CF11CC0922202D0922302E09296
:107490002402F09225020B2515C0D701C601B6952E
:1074A000A79597958795DDD446DE82E0C80ED11C5E
:1074B000E11CF11CC0922202D0922302E09224022D
:1074C000F09225022197C5CFC0902202D0902302CE
:1074D000E0902402F0902502163421F5D701C60170
:1074E0008F779927AA27BB27C114E0E7DE06E104BE
:1074F000F104C0F4892B8A2B8B2BA1F48FB7F8945D
:1075000007B600FCFDCFF999FECF93E0F60190930A
:107510005700E89507B600FCFDCF91E19093570026
:10752000E8958FBFE901B12C00E0AA24A39420972D
:1075300009F454C0163469F5002339F107B600FC8C
:10754000FDCFF999FECF4090220250902302609027
:10755000240270902502D8DD2B2D30E0A901582B94
:10756000F2010A01A0925700E8951124B301A2018B
:107570004E5F5F4F6F4F7F4F409322025093230225
:10758000609324027093250202C0BEDDB82E0A2546
:1075900023C0BADD682F8091220290912302A0912E
:1075A0002402B0912502B695A7959795879561D449
:1075B0004091220250912302609124027091250291
:1075C0004E5F5F4F6F4F7F4F4093220250932302D5
:1075D00060932402709325022197A9CF163421F5D8
:1075E000D701C6018F779927AA27BB27C114F0E7D7
:1075F000DF06E104F104C0F4892B8A2B8B2BA1F464
:107600008FB7F89407B600FCFDCFF999FECF95E04F
:10761000F60190935700E89507B600FCFDCF91E185
:1076200090935700E8958FBF8DE085DD82E08093D1
:107630006F0048C0843419F567DD682F80912202FD
:1076400090912302A0912402B0912502B695A795AE
:10765000979587950ED48091220290912302A09154
:107660002402B09125020296A11DB11D8093220231
:1076700090932302A0932402B09325023ECE843639
:10768000F1F4C0902202D0902302E0902402F09006
:107690002502D701C601B695A79597958795E1D3A1
:1076A0004ADDF2E0CF0ED11CE11CF11CC092220297
:1076B000D0922302E0922402F092250203C08B3183
:1076C00009F0B0CE83E08093E9009091E8008091CA
:1076D000E8008E778093E80095FD11C08091E80066
:1076E00080FD04C08EB38111F9CF15C08091E800F0
:1076F0008E778093E80003C08EB3882361F0809179
:10770000E80080FFF9CF84E08093E9008091E800F1
:107710008B778093E800DF91CF911F910F91FF90BD
:10772000EF90DF90CF90BF90AF907F906F905F9081
:107730004F9008951092FF0A1092FE0A84B714BE6B
:107740000FB6F894A89590916000986190936000AE
:10775000109260000FBE81FD1DC080FF07C0E0E0F9
:10776000F0E0259134912F3F3F4F99F483FF12C0F1
:1077700020915C0230915D028091000190910101A5
:107780002817390739F0E0E0F0E0859194910196EF
:1077900009F0E8DC04DD78941092210210922002B6
:1077A00080DD48D3809120029091210281349F4155
:1077B00010F4DFDCF5CF8091E00081608093E00081
:1077C0009BE088E10FB6F894A895809360000FBE07
:1077D00090936000FFCFCF93292F30E02230310506
:1077E00061F02330310571F02130310509F051C0CD
:1077F00082E190E025E032E050C08EE390E027EC9B
:1078000031E04BC0882309F435C0813009F437C01A
:10781000823009F439C0833009F03BC09AE290937A
:10782000280280932902AAE2B2E090E0C1E22FB7D9
:10783000F894E92FE695F0E03E968C2F87BF84916F
:107840002FBF90FF82958F70682F70E08A3018F0FC
:1078500027E330E002C020E330E0260F371F2D93EE
:107860003D939F5F943119F78091280290E028E2C0
:1078700032E013C084E090E023EC31E00EC08CE7EE
:1078800090E025E431E009C08AE390E029E031E0AE
:1078900004C080E090E020E030E0FA0131832083F2
:1078A000CF9108958093E900EBEEF0E08081816054
:1078B0008083EDEEF0E010826093EC0040838091D5
:1078C000EE00881F8827881F08958091540287FF43
:1078D0000FC08091E80082FD04C08EB38111F9CF02
:1078E00010C08091E8008B770AC08EB3882349F0DE
:1078F0008091E80080FFF9CF8091E8008E77809337
:10790000E80008950F931F93CF93DF9341D048D0A1
:10791000C8EDD0E088818F778883888180688883EC
:1079200088818F7D888319BC1EBA1092520200EEA6
:1079300010E0F80180818B7F80838881816088835B
:1079400042E060E080E0AEDFE1EEF0E080818E7F3B
:107950008083E2EEF0E080818160808380818860B6
:107960008083F80180818E7F808388818061888315
:10797000DF91CF911F910F910895E7EDF0E08081A5
:10798000816080838AE482BF81E080935302BACF12
:10799000E8EDF0E080818E7F80831092E200089510
:1079A0001092DA001092E10008951F920F920FB624
:1079B0000F9211242F933F934F935F936F937F9375
:1079C0008F939F93AF93BF93EF93FF938091DA00D0
:1079D00080FF1BC08091D80080FF17C08091DA0023
:1079E0008E7F8093DA008091D90080FF0BC080E108
:1079F00089BD82E189BD09B400FEFDCF81E08EBB67
:107A000018D203C019BC1EBA14D28091E10080FFC5
:107A100017C08091E20080FF13C08091E2008E7F4A
:107A20008093E2008091E20080618093E200809187
:107A3000D80080628093D80019BC85E08EBBF9D154
:107A40008091E10084FF2CC08091E20084FF28C077
:107A500080E189BD82E189BD09B400FEFDCF80913E
:107A6000D8008F7D8093D8008091E1008F7E809335
:107A7000E1008091E2008F7E8093E2008091E2003D
:107A800081608093E20080915202811106C0809152
:107A9000E30087FD02C081E001C084E08EBBC9D154
:107AA0008091E10083FF21C08091E20083FF1DC02F
:107AB0008091E100877F8093E10082E08EBB10928D
:107AC00052028091E1008E7F8093E1008091E2007C
:107AD0008E7F8093E2008091E20080618093E200DB
:107AE00042E060E080E0DEDEA4D1FF91EF91BF9143
:107AF000AF919F918F917F916F915F914F913F9146
:107B00002F910F900FBE0F901F90189520915A0241
:107B100030915B022617370748F06115710539F47B
:107B20002091E8002E772093E80001C0B90140E0E1
:107B300061157105A1F12EB3222309F440C025304F
:107B400009F43FC02091E80023FD37C02091E800F0
:107B500022FD2DC02091E80020FFEACF4091F300E4
:107B60002091F20030E0342BFC01CF01611571054A
:107B700059F02830310540F481918093F100615033
:107B800071092F5F3F4FF1CF41E02830310509F0F7
:107B900040E02091E8002E772093E800C9CF411102
:107BA000CACF05C08EB3882351F0853051F0809143
:107BB000E80082FFF7CF80E0089581E0089582E039
:107BC000089583E008956115710529F42091E80076
:107BD0002B772093E800FC016115710531F18EB31C
:107BE000882359F1853059F18091E80083FD23C045
:107BF0008091E80082FFF0CF2091F3008091F200A5
:107C000090E0922B892B31F08091F10081936150AB
:107C1000710991F78091E8008B778093E800DCCFC1
:107C20008EB3882351F0853051F08091E80080FFB9
:107C3000F7CF80E0089581E0089582E0089583E021
:107C400008950F931F93CF93DF9300D0CDB7DEB786
:107C5000E4E5F2E088E08E0F9091F10091938E13AD
:107C6000FBCFF1DA8091E80083FFCEC0809154020F
:107C700090915502492F50E04A30510508F0C4C098
:107C8000FA01EA5AF74CE7C0823809F0BDC080918A
:107C9000580287708093E9008091EB001092E90010
:107CA0009091E800977F9093E80085FB882780F902
:107CB0008093F1001092F10085C0282F2D7F09F0EC
:107CC000A3C0823009F0A0C080915602811127C064
:107CD00080915802877009F497C08093E900209141
:107CE000EB0020FF1CC0933021F48091EB008062F8
:107CF00014C09091EB0090619093EB0021E030E094
:107D0000A90102C0440F551F8A95E2F74093EA008B
:107D10001092EA008091EB0088608093EB00109253
:107D2000E9008091E800877F50C081116DC01091FB
:107D300056021F770FB7F8948091E800877F8093F1
:107D4000E800C3DD8091E80080FFFCCF8091E30074
:107D50008078812B8093E30080688093E300111189
:107D600002C082E001C083E08EBB0FBF4DC08058CF
:107D7000823008F049C0AE014F5F5F4F60915802FA
:107D8000809156029091570226DDBC01892B09F49F
:107D90003BC09091E800977F9093E80089819A8199
:107DA000B5DE8091E8008B778093E8002DC08038A5
:107DB00059F58091E800877F8093E8008091520216
:107DC0008093F1008091E8008E778093E8007DDD5C
:107DD0001BC0811119C0909156029230A8F4809175
:107DE000E800877F8093E800909352026EDD8091D7
:107DF0005202811106C08091E30087FD02C081E03C
:107E000001C084E08EBB13DA8091E80083FF0AC0D2
:107E10008091EB0080628093EB008091E800877F87
:107E20008093E8000F900F90DF91CF911F910F91F9
:107E300008950895CF938EB3882359F0C091E90037
:107E4000C7701092E9008091E80083FDFADEC093CC
:107E5000E900CF910895EE0FFF1F0590F491E02DFA
:107E60000994F999FECF92BD81BDF89A992780B502
:107E70000895262FF999FECF1FBA92BD81BD20BD6E
:107E80000FB6F894FA9AF99A0FBE01960895F894ED
:027E9000FFCF22
:107E920008950895089508950895089508950895F8
:087EA200089508950895089564
:107EAA007777000000000000083A0350007200755E
:107EBA0000730061002000520065007300650061D4
:107ECA0000720063006800200028007000720075CC
:107EDA000073006100330064002E0063006F006DC0
:107EEA0000290000007C034F0072006900670069E6
:107EFA00006E0061006C0020005000720075007373
:107F0A0000610020006900330020004D004B00335F
:107F1A000020004D0075006C007400690020004DBF
:107F2A00006100740065007200690061006C002045
:107F3A000032002E003000200075007000670072C9
:107F4A00006100640065002000280062006F006F75
:107F5A000074006C006F0061006400650072002903
:107F6A000000000403090409023E000201008032F5
:107F7A000904000001020201000524001001042482
:107F8A0002040524060001070582030800FF09040C
:107F9A000100020A0000000705040210000107059B
:107FAA0083021000011201100102000008992C033B
:107FBA00000100020103014341544552494E410068
:107FE00058CF58CF58CF58CF58CF58CF58CF58CF59
:087FF00058CF58CF58CF58CFED
:087FF8000070000000DFFBDC5B
:040000030000700089
:00000001FF
