:100000000C9430420C9461420C9461420C94614215
:100010000C9461420C9461420C9461420C946142D4
:100020000C9461420C9461420C9461420C946142C4
:100030000C9461420D9462970C9461420C9461425D
:100040000C9461420D946F160C9461420C946142C1
:100050000C9461420C9461420D94C9300D946990E6
:100060000C9461420C9410A40C9461420C94614273
:100070000C9461420C9461420C9461420C94614274
:100080000C9461420C9461420C9461420C94614264
:100090000C9461420C9461420C9461420C94244390
:1000A0000C9461420C9461420C9461420C94614244
:1000B0000C9461420C9461420C9461420C94614234
:1000C0000C9461420C9461420C9461420C94614224
:1000D0000C9461420C9461420C9461420C94614214
:1000E0000C9461428E0188016001500110014C01A5
:1000F00072012C0184013E01A20146013C01320142
:1001000086014201560190011A01AA014E019A018D
:1001100034019C014A01180158015E0178016E0109
:10012000620144018A014A011201AC0124018201E9
:10013000200192012E015C011C01A00154016A0101
:1001400036012A01A8015A019E011C016401940193
:100150003001084AD73B3BCE016E84BCBFFDC12FA6
:100160003D6C74319ABD56833DDA3D00C77F11BEA8
:10017000D9E4BB4C3E916BAAAABE000000803F05AB
:10018000A84CCDB2D44EB93836A9020C50B99186DC
:1001900088083CA6AAAA2ABE000000803F07634246
:1001A00036B79BD8A71A39685618AEBAAB558C1D0E
:1001B0003CB7CC5763BD6DEDFD753EF6177231BF90
:1001C000000000803F08000000BE922449123EABB0
:1001D000AAAA2ABECDCCCC4C3E00000080BEABAA61
:1001E000AAAA3E00000000BF000000803F000000FF
:1001F0000000084178D3BB4387D1133D190E3CC39F
:10020000BD4282AD2B3E68EC8276BED98FE1A93E1D
:100210004C80EFFFBE01C4FF7F3F000000000000E4
:100220000D9468310D9410920D94F46C0D94417FEF
:100230000D94BF910D943A5E0D948A920D940150E5
:100240000D9453920D944F740D9424920D94AF5BC2
:100250000D94685B0D9469920D9494310D944692BF
:100260000D9485920D94BE5D0D94AB910D946592A5
:100270000D94CF670D94ED100D94A15D0D949A31FE
:100280000D946F5B0D940C5E0D94FC910D94875D45
:100290000D940E860D942E920D9476310D949C91B2
:1002A0000D944E310D94FD370D945B920D94165EB6
:1002B0000D94C7910D9473920D944C920D94CF911F
:1002C0000D9440310D94ED910D947D920D94253552
:1002D0000D945B570D9461920D94BB3F0D94E39187
:1002E0000D942F930D9490310D94A34B0D94E13CFC
:1002F0000D94D9910D940E5D0D946F4E0D9487362B
:100300000D94CC750D9450920D9496310D94DD5D45
:100310000D9424310D9406920D94C8710D941631EC
:100320000D94205E0D9442920D9481920D94765B13
:100330000D9494390D94A1910D94B5910D947792EB
:100340000D9457920D94A2310D94BD690D948F595F
:100350000D946F920D9497910D941A920D94F959F2
:100360004D383420582059205A2045004D32340051
:100370004D3233202573006175746F25692E670037
:100380000A002F000A002E0044656C6574696F6EC8
:10039000206661696C65642C2046696C653A2000B2
:1003A00046696C652064656C657465643A002E006E
:1003B0002E002E002E004E6F772066726573682027
:1003C00066696C653A20004E6F7720646F696E67CE
:1003D0002066696C653A20002220706F730022202D
:1003E000706172656E743A2200535542524F5554F3
:1003F000494E452043414C4C207461726765743A04
:100400002200747279696E6720746F2063616C6C6E
:10041000207375622D67636F64652066696C657310
:10042000207769746820746F6F206D616E79206C1D
:100430006576656C732E204D4158206C6576656C31
:100440002069733A0048617264636F646564204494
:10045000656661756C742053657474696E6773208A
:100460004C6F616465640053746F726564207365DA
:100470007474696E677320726574726965766564F9
:100480000046696C616D656E742073657474696E85
:1004900067733A2044697361626C656400202020B0
:1004A0004D32303020440046696C616D656E7420B9
:1004B00073657474696E67733A002020204D323082
:1004C000392053004175746F2D52657472616374E5
:1004D0003A20533D3020746F2064697361626C650B
:1004E0002C203120746F20696E746572707265748F
:1004F00020657874727564652D6F6E6C79206D6FF0
:100500007665732061732072657472616374732001
:100510006F72207265636F7665726965730020463D
:10052000002020204D3230382053005265636F7612
:1005300065723A20533D4578747261206C656E6730
:10054000746820286D6D2920463A537065656420D3
:10055000286D6D2F6D2900205A0020460020202094
:100560004D323037205300526574726163743A2003
:10057000533D4C656E67746820286D6D2920463A9E
:10058000537065656420286D6D2F6D29205A3A20BF
:100590005A4C69667420286D6D290020440020495A
:1005A000002020204D333034205000504944206832
:1005B0006561746265642073657474696E67733A0B
:1005C000002044002049002020204D3330312050AD
:1005D000005049442073657474696E67733A002053
:1005E0005A0020590020204D323036205800486FE4
:1005F0006D65206F666673657420286D6D293A00FD
:10060000204500205A002059002058002042002098
:10061000540020204D323035205300416476616E05
:10062000636564207661726961626C65733A205318
:100630003D4D696E20666565647261746520286D44
:100640006D2F73292C20543D4D696E207472617694
:10065000656C20666565647261746520286D6D2F18
:1006600073292C20423D6D696E696D756D2073652F
:10067000676D656E742074696D6520286D73292C13
:1006800020583D6D6178696D756D205859206A65F7
:10069000726B20286D6D2F73292C20205A3D6D61BF
:1006A00078696D756D205A206A65726B20286D6DB2
:1006B0002F73292C2020453D6D6178696D756D2063
:1006C00045206A65726B20286D6D2F7329002054B8
:1006D0000020204D323034205300416363656C6547
:1006E000726174696F6E3A20533D616363656C6536
:1006F000726174696F6E2C20543D7265747261630F
:100700007420616363656C65726174696F6E00204B
:100710004500205A0020590020204D323031205809
:10072000004D6178696D756D20416363656C65721C
:100730006174696F6E20286D6D2F7332293A002025
:100740004500205A0020590020204D3230332058D7
:10075000004D6178696D756D2066656564726174C0
:10076000657320286D6D2F73293A00204500205AAB
:100770000020590020204D393220580053746570F4
:10078000732070657220756E69743A0053657474D5
:10079000696E67732053746F72656400507275736D
:1007A00061206933204D4B31206265726569742E7A
:1007B000005072757361206933204D4B3120676F93
:1007C000746F7761005072757361206933204D4BEF
:1007D0003120707265702E0050727573612069331C
:1007E000204D4B312070726F6E74612E0050727507
:1007F0007361206933204D4B31206F6B005072754F
:100800007361206933204D4B312072656164792E0C
:10081000007A5F6D696E3A20007A5F6D61783A20E8
:10082000005A204F666673657400795F6D696E3A91
:100830002000795F6D61783A20004A610054616B55
:1008400000536900536900416E6F00596573007869
:100850005F6D696E3A2000785F6D61783A20002004
:100860005761746368646F672052657365740049EB
:100870006E666F726D6174696F6E00496E666F723D
:100880006D61636A65004D6F6E69746F72697A613C
:10089000720053636865726D61746120696E666F82
:1008A00000496E666F726D61636500496E666F2008
:1008B00073637265656E0057617274656E20617551
:1008C000662041626B7565686C756E6720766F6E29
:1008D0002048656174657220756E64204265642EDF
:1008E000004F637A656B6977616E6965206E612080
:1008F000777963686C6F647A656E69652064797373
:100900007A79206920706F646B6C61646B692E006A
:100910004573706572616E646F20656E66726961A1
:100920006D69656E746F206465206C612063616D14
:100930006120792064656C206578747275736F72BC
:100940002E00496E206174746573612064656C20AB
:100950007261666672656464616D656E746F206451
:10096000656C6C612074657374696E6120652064C8
:10097000656C2070696174746F0043656B616E69AA
:10098000206E61207A63686C61646E75746920748E
:100990007279736B79206120706F646C6F7A6B79F8
:1009A0002E0057616974696E6720666F72206E6FE2
:1009B0007A7A6C6520616E642062656420636F6F73
:1009C0006C696E6700576172746520617566207589
:1009D0007365722E2E2E004573706572616E646FA2
:1009E000206F7264656E657300417474656E646532
:1009F0006E646F207574656E74650057616974204C
:100A0000666F7220757365722E2E2E004265696DB9
:100A100020447275636B2062656E75747A7465002C
:100A2000557A7974652070727A79206472756B7565
:100A300000557361646F20656E20696D7072657317
:100A4000696F6E005573617469206E656C6C61200E
:100A50007374616D706100506F757A69746520629E
:100A60006568656D207469736B75005573656420E6
:100A7000647572696E67207072696E740046696C85
:100A8000616D656E7420656E746C6164656E00578F
:100A9000796A61632066696C616D656E7400536F7D
:100AA0006C7461722066696C616D656E746F005361
:100AB0006361726963612066696C616D656E746FF4
:100AC0000056796A6D6F75742066696C616D656E2C
:100AD0007400556E6C6F61642066696C616D656E43
:100AE000740046696C616D656E742061757377651D
:100AF0007266656E005779737577616D2066696CF3
:100B0000616D656E7400536F6C74616E646F206606
:100B1000696C616D656E746F0052696C6173632EF0
:100B20002066696C616D656E746F005679736F75C0
:100B300076616D2066696C616D656E7400556E6CD2
:100B40006F6164696E672066696C616D656E7400C3
:100B5000556E6B6E6F776E20636F6D6D616E643A6C
:100B60002022004665696E65696E7374656C6C75EC
:100B70006E67004E617374726F696300416A7573CA
:100B8000746172005265676F6C61004C61646974D6
:100B90000054756E65005344204B61727465205B90
:100BA000466C6173684169725D006B6172746120AB
:100BB00053445B466C73684169725D005344206323
:100BC000617264205B466C73684169725D005344D6
:100BD000204B61727465205B6E6F726D616C5D009D
:100BE0006B61727461205344205B6E6F726D616C37
:100BF0005D0053442063617264205B6E6F726D61AF
:100C00006C5D0054656D702E204B616C6962726979
:100C10006572756E67206665727469672E204B6C0D
:100C200069636B656E20756D2077656974657220E8
:100C30007A7520676568656E2E00436965706C6E15
:100C400061206B616C69627261636A61207A616BB9
:100C50006F6E637A6F6E612E204B6F6E74796E7556
:100C6000756A2070727A796369736B69656D004388
:100C7000616C69627261636F6E2074656D7065721C
:100C80006174757261207465726D696E6164612E44
:100C90002050726573696F6E61722070617261209D
:100CA000636F6E74696E7561722E00546172617447
:100CB0007572612074656D70657261747572612002
:100CC0007465726D696E6174612E20466172652073
:100CD000636C69636B2070657220636F6E74696EFC
:100CE000756172652E005465706C6F746E69206B4F
:100CF000616C69627261636520646F6B6F6E6365BE
:100D00006E612E20506F6B726163756A746520731B
:100D10007469736B656D20746C616369746B612EAB
:100D20000054656D70657261747572652063616CE5
:100D30006962726174696F6E2069732066696E6999
:100D4000736865642E20436C69636B20746F206345
:100D50006F6E74696E75652E0054656D70204B6101
:100D60006C69622E20202020202020202000436952
:100D700065706C2E206B616C2E202020202020209E
:100D800020200043616C2E2074656D702E20202081
:100D9000202020202020200043616C2E2074656DCF
:100DA000702E20202020202020202020005465703C
:100DB0006C2E206B616C2E202020202020202020F3
:100DC000200054656D702E2063616C2E2020202041
:100DD0002020202020200054656D7065726174759C
:100DE000720054656D70657261747572610054654E
:100DF0006D70657261747572610054656D706572B5
:100E00006174757261005465706C6F746100546533
:100E10006D706572617475726500506F6D6F6300FF
:100E2000536F706F72746500506F64706F72610001
:100E3000537570706F727400447275636B206162D9
:100E40006272656368656E005A6174727A796D6169
:100E500063206472756B00446574656E6572206909
:100E60006D70726573696F6E004172726573746143
:100E7000207374616D7061005A6173746176697476
:100E8000207469736B0053746F70207072696E7494
:100E900000474553544F5050542E2000504152416A
:100EA00044410041525245535441544F2E00535433
:100EB0004F505045442E2000537465707261746524
:100EC00020746F6F20686967683A2000546F7461FE
:100ED0006C6520447275636B7A6569743A00437A75
:100EE00061732063616C6B6F77697479203A005489
:100EF00069656D706F20746F74616C203A00546581
:100F00006D706F207374616D706120746F743A003E
:100F100043656C6B6F767920636173203A00546F80
:100F200074616C207072696E742074696D65203A0A
:100F300000476573616D7466696C616D656E743AC6
:100F40000046696C616D656E74206C61637A6E69D0
:100F500065203A0046696C616D656E746F20746F30
:100F600074616C3A0046696C616D656E746F2074D3
:100F70006F743A0046696C616D656E742063656CD0
:100F80006B656D203A00546F74616C2066696C610A
:100F90006D656E74203A00447275636B7A6569748E
:100FA0003A202000437A6173206472756B75203A91
:100FB0002020005469656D706F20646520696D7034
:100FC0002E3A0054656D706F206469207374616DF2
:100FD00070613A00436173207469736B75203A2025
:100FE00020005072696E742074696D653A2020008B
:100FF00046696C616D656E74766572627261756367
:10100000683A0046696C616D656E74203A20200074
:1010100046696C616D656E746F203A2020004669E8
:101020006C616D656E746F20757361746F3A004604
:10103000696C616D656E74203A20200046696C61B0
:101040006D656E7420757365643A20200053746179
:1010500074697374696B656E20005374617479737D
:1010600074796B61202000457374616469737469DD
:1010700063612020005374617469737469636865E7
:101080000053746174697374696B61202000537438
:1010900061746973746963732020004572726F72A2
:1010A000202D20737461746963206D656D6F727992
:1010B00020686173206265656E206F766572777255
:1010C000697474656E00476573636877696E6469F7
:1010D000676B65697400507265646B6F736300566B
:1010E000656C6F63696461640056656C6F636974F5
:1010F0006100527963686C6F737400537065656446
:101100000020536F66747761726520526573657451
:10111000004D6F646520202020205B6C656973653D
:101120005D004D6F64202020202020205B636963D8
:1011300068795D004D6F646F2020205B73696C657A
:101140006E63696F5D004D6F646F205B73696C65E2
:101150006E7A696F736F5D004D6F642020202020D0
:1011600020205B74696368795D004D6F64652020A1
:101170002020205B73696C656E745D004D6F646543
:10118000205B486F6865204C656973745D004D6F26
:1011900064205B7720777964616A6E6F73635D00AA
:1011A0004D6F646F205B72656E642E706C656E6F40
:1011B0005D004D6F64652020202020205B666F72EB
:1011C00074655D004D6F6420205B7679732E207608
:1011D000796B6F6E5D004D6F6465205B6869676851
:1011E00020706F7765725D00456E64736368616C33
:1011F00074657220537461742E00506F6B617A2095
:101200006B72616E636F776B6900456E73656E61BB
:1012100020746F70652066696E616C005374617430
:101220006F2066696E65636F7273610053746176D7
:10123000206B6F6E632E207370696E2E0053686F83
:101240007720656E642073746F70730054656D70E1
:101250002E2065696E7365747A656E0055737461CE
:101260007769632074656D7065726174757265006D
:1012700045737461626C656365722074656D702E70
:101280003A00496D706F7374612074656D7065729A
:101290006174757261004E61737461767465207457
:1012A00065706C6F74753A005365742074656D7069
:1012B000657261747572653A0045696E7374656C28
:1012C0006C756E67656E00557374617769656E69DC
:1012D0006100436F6E66696775726163696F6E0066
:1012E000496D706F7374617A696F6E69004E6173D6
:1012F000746176656E690053657474696E67730016
:101300005665726472616874756E676665686C654F
:101310007200426C616420706F6C61637A656E6903
:1013200061004572726F7220646520636F6E65782C
:10133000696F6E004572726F7265206361626C61E5
:101340006767696F004368796261207A61706F6ACC
:10135000656E6900576972696E67206572726F7297
:101360000053656C62737474657374207374617276
:101370007420004175746F746573742073616C69B7
:101380006461004176766961206175746F7465737C
:10139000740053656C662074657374207374617295
:1013A00074202000426974746520707275656665EA
:1013B0003A00536B6F6E74726F6C756A203A00431B
:1013C0006F6E74726F6C61203A005665726966695F
:1013D000636172653A005A6B6F6E74726F6C756AF6
:1013E0007465203A00506C656173652063686563BD
:1013F0006B203A0053656C62737474657374204F8C
:101400004B004175746F74657374204F4B005365C6
:101410006C662074657374204F4B004E696368746A
:1014200020616E67657363686C6F7373656E004EE1
:10143000696520706F646C61637A6F6E6F20202025
:10144000004E6F2068617920636F6E6578696F6EFA
:101450002020004E6F6E20636F6E6E6573736F0099
:101460004E657A61706F6A656E6F20202020004E95
:101470006F7420636F6E6E65637465640053696C8E
:101480006E696B004D6F746F7265004D6F746F7293
:101490000043616C656E742E2F5465726D697374B0
:1014A0006F720052697363616C642E2F5465726DA4
:1014B0006973742E004865617465722F5468657293
:1014C0006D6973746F72004472656874004B726565
:1014D0006369207369650056656E74696C61646F39
:1014E000722067697261004769726100546F6369B5
:1014F000207365005370696E6E696E670044726593
:101500006874206E69636874004E656B7265636908
:10151000207369650056656E74696C61646F722032
:101520006E6F2067697261004E6F6E20736920676D
:10153000697261004E65746F6369207365004E6F58
:1015400074207370696E6E696E67004C75656674A1
:1015500065727465737400546573742077656E7476
:10156000796C61746F726100546573742064656C8A
:101570002076656E74696C61646F720050726F766C
:10158000612064656C2076656E74696C61746F723D
:1015900000546573742076656E74696C61746F7243
:1015A000750046616E20746573740053656C6273D8
:1015B0007474657374206D6973736C756E672E0037
:1015C00053656C6674657374206E69657564616ECD
:1015D00079004175746F746573742066616C6C6119
:1015E000646F004175746F746573742066616C6C10
:1015F00069746F0053656C66746573742073656CF1
:1016000068616C20200053656C6674657374206695
:1016100061696C65642020004C696E6B6572204CBA
:101620007565667465723F004C6577792077656EE5
:1016300074206E61206479737A653F0056656E741C
:101640002E20656E206C6120697A673F0056656EBA
:10165000742053582073756C6C277567656C6C6FBC
:101660003F004C6576792076656E74206E6120743B
:1016700072797363653F004C65667420686F7465AA
:101680006E642066616E3F0053656C6274657374AE
:10169000204665686C657221004175746F746573CE
:1016A00074206572726F7221004175746F74657376
:1016B00074206E6567617469766F0053656C66743B
:1016C000657374206572726F72202100456E6465C7
:1016D000206E6963687420676574726F662E0054AB
:1016E0006F70652066696E2E206E6F20746F632E9A
:1016F0000046696E65632E2066756F726920706F93
:10170000722E00456E6473746F70206E6F74206863
:10171000697400456E64736368616C74657200542B
:101720006F7065732066696E616C0046696E6563F3
:101730006F7273612028322900456E6473746F7074
:101740007300546F70652066696E616C0046696E47
:1017500065636F72736100456E6473746F700056D9
:101760006F726465726572204C7565667465723F50
:101770000050727A6F646E692077656E742E2064F3
:1017800072756B753F0056656E742E20616C206615
:1017900072656E74653F0056656E742064692073CF
:1017A00074616D706120616E742E3F0050726564CB
:1017B0006E69207469736B6F76792076656E743FFD
:1017C0000046726F6E74207072696E742066616E6E
:1017D0003F00507275656665205A204163687365E5
:1017E00020202020004B6F6E74726F6C61205A2095
:1017F00061786973202000436F6E74726F6C20648F
:10180000656C20656A65205A005665726966696371
:10181000612061737365205A004B6F6E74726F6C38
:1018200061205A2061786973202000436865636BEA
:10183000696E67205A2061786973202000507275A4
:10184000656665205920416368736520202020006B
:101850004B6F6E74726F6C612059206178697320D0
:101860002000436F6E74726F6C2064656C20656A33
:1018700065205900566572696669636120617373FA
:10188000652059004B6F6E74726F6C612059206136
:10189000786973202000436865636B696E6720591F
:1018A0002061786973202000507275656665205844
:1018B00020416368736520202020004B6F6E747296
:1018C0006F6C6120582061786973202000436F6E2F
:1018D00074726F6C2064656C20656A6520580056D0
:1018E0006572696669636120617373652058004B96
:1018F0006F6E74726F6C612058206178697320205C
:1019000000436865636B696E67205820617869736E
:1019100020200050727565666520486F74656E649E
:10192000004B6F6E74726F6C6120686F74656E64CB
:10193000202000436F6E74726F6C20686F74656E48
:101940006420005665726966696361207567656C1D
:101950006C6F004B6F6E74726F6C6120686F746592
:101960006E64202000436865636B696E6720686F52
:1019700074656E6420200050727565666520456E42
:1019800064736368616C7465722020004B6F6E74C1
:10199000726F6C6120656E6473746F707300436F57
:1019A0006E742E20746F7065732066696E616C00B2
:1019B00056657269666963612066696E65636F72F8
:1019C0007361004B6F6E74726F6C6120656E64732F
:1019D000746F707300436865636B696E6720656E32
:1019E0006473746F7073005072FE2042656420202F
:1019F000202020202020004B6F6E74726F6C6120BD
:101A0000626564202020202000436F6E74726F6C2A
:101A10002064652063616D61005665726966696363
:101A200061206C6574746F004B6F6E74726F6C61C3
:101A300020626564202020202000436865636B6974
:101A40006E6720626564202020202000416C6C6558
:101A500073207269636874696720202020005773BF
:101A60007A7973746B6F204F4B2020202020200048
:101A7000546F646F2062696520004E657373756EE4
:101A8000206572726F726500567365204F4B20207F
:101A900020202020202020202000416C6C20636F1B
:101AA00072726563742020202020200043616D61E4
:101AB0002F43616C656E7461646F72004C65747461
:101AC0006F2F52697363616C642E00426564202F2E
:101AD000204865617465720053656C627374746547
:101AE000737420202020202020004175746F7465BD
:101AF0007374004175746F746573740053656C661C
:101B0000746573742020202020202020200057722C
:101B10006974696E6720746F2066696C653A20008D
:101B2000766F6C756D652E696E6974206661696C7F
:101B30006564002053697A653A2000534420656E3D
:101B4000746665726E7420004B61727461207779DF
:101B50006A657461005461726A65746120726574AB
:101B600069726164610053442072696D6F737361BF
:101B7000004B617274612076796A6D7574610043FF
:101B80006172642072656D6F7665640053442070E5
:101B900072696E74696E67206279746520006F7077
:101BA000656E206661696C65642C2046696C653AD7
:101BB00020006F70656E526F6F74206661696C658E
:101BC000640053442065696E67657365747A7400B8
:101BD0004B6172746120776C6F7A6F6E6100546133
:101BE000726A65746120696E736572746164610004
:101BF000534420696E736572697461004B6172743D
:101C00006120766C6F7A656E610043617264206951
:101C10006E73657274656400534420696E69742044
:101C20006661696C0046696C652073656C656374F8
:101C300065640046696C65206F70656E65643A2066
:101C4000006572726F722077726974696E672074B2
:101C50006F2066696C650053442063617264206F75
:101C60006B0043616E6E6F7420656E7465722073D5
:101C700075626469723A2000447275636B207765FF
:101C800069746572676568656E00577A6E61776919
:101C9000616E6965206472756B75005265616E7561
:101CA00064617220696D70726573696F6E00537440
:101CB000616D706120696E20726970726573610078
:101CC0004F626E6F766F76616E69207469736B75A3
:101CD00000526573756D696E67207072696E74006D
:101CE000447275636B20666F727467657365747A8E
:101CF0007400577A6E6F7769656E696520647275D6
:101D00006B7500526573756D69656E646F20696DE2
:101D100070726573696F6E0052697072656E646986
:101D2000207374616D7061004F626E6F76656E69CD
:101D3000207469736B7500526573756D696E6720E9
:101D40007072696E7400466F72747365747A656E32
:101D5000004B6F6E74796E756F77616300526561C9
:101D60006E7564617220696D707265732E005269C0
:101D70007072656E6469207374616D706100506F7C
:101D80006B7261636F76617400526573756D652067
:101D90007072696E7400526573656E643A200068F3
:101DA0006F77746F2E707275736133642E637A006F
:101DB000686F77746F2E707275736133642E637AF7
:101DC00000686F77746F2E707275736133642E6361
:101DD0006F6D00666F72756D2E707275736133640E
:101DE0002E637A00666F72756D2E70727573613333
:101DF000642E637A00666F72756D2E7072757361F2
:101E000033642E636F6D00707275736133642E637B
:101E10007A00707275736133642E637A0070727524
:101E2000736133642E636F6D00447275636B207051
:101E300061757369657274004472756B207A6174A0
:101E4000727A796D616E7900496D70726573696F30
:101E50006E20656E207061757361005374616D70E2
:101E60006120696E207061757361005469736B2025
:101E7000706F7A6173746176656E005072696E740A
:101E80002070617573656400447275636B206162D4
:101E9000676562726F6368656E004472756B20706F
:101EA000727A657277616E7900496D7072657369D7
:101EB0006F6E2063616E63656C6164610053746171
:101EC0006D70612061626F7274697461005469732E
:101ED0006B20707265727573656E005072696E74F6
:101EE0002061626F72746564005072696E7465720D
:101EF00020646973636F6E6E656374656400756EEC
:101F000064204B6E6F70662064727565636B656EDE
:101F1000004E616369736E696A2070727A796369D1
:101F2000736B0050756C73617220656C206D616E0F
:101F3000646F006520636C696363617265206D6125
:101F40006E6F706F6C61006120737469736B6E6586
:101F5000746520746C616369746B6F00616E6420DA
:101F6000707265737320746865206B6E6F620044D5
:101F70007565736520566F72776165726D656E0069
:101F80004E6167727A656A206479737A65210050C0
:101F9000726563616C656E746172206578747275C8
:101FA000736F72005072657269732E207567656C6D
:101FB0006C6F210050726564656872656A74652093
:101FC000747279736B752100507265686561742055
:101FD000746865206E6F7A7A6C652100566F72772F
:101FE0006165726D656E0047727A616E6965005059
:101FF000726563616C656E746172005072657269BE
:102000007363616C646100507265646568726576C3
:10201000005072656865617400506F776572557025
:102020000042697474652077617274656E00507245
:102030006F737A6520637A656B616300506F7220FD
:102040004661766F722045737065726172004173EC
:1020500070657474610050726F73696D2063656B95
:10206000656A746500506C65617365207761697499
:10207000002020506C616E6E6572427566666572F6
:1020800042797465733A200050494E44412065728C
:10209000776165726D656E0047727A616E69652061
:1020A00050494E44410043616C656E74616E646FCB
:1020B0002050494E44410052697363616C642E2084
:1020C00050494E4441004E6168726976616E6920E4
:1020D00050494E44410050494E4441204865617486
:1020E000696E670054656D706572617475722077F2
:1020F00075726465206E69636874206B616C6962D7
:10210000726965727400436965706C6E61206B6101
:102110006C69627261636A61206E69652062796CC4
:10212000612070727A6570726F7761647A6F6E6128
:10213000004C612074656D70657261747572612008
:1021400064652063616C6962726163696F6E206EA1
:102150006F206861207369646F20616A75737461B0
:1021600064610054617261747572612064656C6CA5
:10217000612074656D7065726174757261206E6F37
:102180006E20616E636F7261206573656775697437
:1021900061005469736B61726E61206E6562796C67
:1021A00061207465706C6F746E65207A6B616C6908
:1021B00062726F76616E610054656D7065726174F4
:1021C0007572652063616C6962726174696F6E20FB
:1021D000686173206E6F74206265656E2072756E23
:1021E0002079657400504944204B616C69622E006F
:1021F0004B616C2E205049440043616C2E205049A5
:102200004420202020202020202020200043616C1A
:102210002E2050494400504944206B616C2E2020F0
:1022200020202020202020202000504944206361CD
:102230006C2E20202020202020202020200050490B
:1022400044204B616C69622E206665727469670078
:102250004B616C2E20504944207A616B6F6E637A1B
:102260006F6E610043616C2E20504944207465728A
:102270006D696E6164610043616C2E205049442099
:10228000636F6D706C65746100504944206B616CC4
:102290002E20756B6F6E63656E610050494420633C
:1022A000616C2E2066696E697368656400504944EC
:1022B000204B616C696272696572756E67004B6173
:1022C0006C69627261636A61205049440043616CC9
:1022D0006962726163696F6E205049440043616CAA
:1022E000696272617A696F6E652050494400504995
:1022F00044206B616C6962726163650050494420DF
:1023000063616C6962726174696F6E0044727563B7
:102310006B20756E74657262726563682E00507210
:102320007A6572776163206472756B0050617573B2
:10233000617220696D70726573696F6E004D6574AE
:10234000746920696E20706175736100506F7A61E5
:10235000737461766974207469736B00506175736E
:1023600065207072696E74004C6567656E206569E2
:102370006E20426C617474205061706965722075C2
:102380006E74657220646965204475657365207795
:1023900061656872656E6420646572204B616C696A
:1023A0006272696572756E6720646572206572730A
:1023B00074656E20342050756E6B74652E205765E1
:1023C0006E6E206469652044756573652064617371
:1023D000205061706965722065696E6B6C656D6D0A
:1023E000742C20447275636B657220736F666F7214
:1023F0007420617573736368616C74656E00556DEC
:1024000069657363206B6172746B652070617069BC
:10241000657275206E6120706F646B6C61646365BA
:1024200020692074727A796D616A20706F6420640B
:1024300079737A6120706F64637A617320706F6D55
:1024400069617275207069657277737A7963682043
:10245000342070756E6B746F772E204A65736C69CB
:10246000206479737A61207A616861637A79206F78
:10247000207061706965722C2077796C61637A20B5
:102480006472756B61726B652E00436F6C6F636174
:102490007220756E6120686F6A61206465207061CA
:1024A00070656C20736F627265206C61207375704B
:1024B0006572666963696520646520696D7072651F
:1024C00073696F6E20647572616E7465206C612033
:1024D00063616C6962726163696F6E206465206C10
:1024E0006F73207072696D65726F73203420707520
:1024F0006E746F732E205369206C6120626F71754A
:10250000696C6C61206D7565766520656C20706105
:1025100070656C2C2061706167617220696D7072EA
:1025200065736F726120696E6D6564696174616D58
:10253000656E74652E00506F72726520756E206630
:102540006F676C696F20736F74746F206C27756789
:10255000656C6C6F20647572616E7465206C6120AF
:1025600063616C696272617A696F6E652064656926
:10257000207072696D6920342070756E74692E2028
:10258000496E206361736F206C277567656C6C6F93
:10259000206D756F766120696C20666F676C696F5E
:1025A00020737065676E6572652070726F6E7461FE
:1025B0006D656E7465206C61207374616D70616E01
:1025C00074652E00556D697374657465206C69734C
:1025D0007420706170697275206E6120706F646C18
:1025E0006F7A6B752061207564727A756A746520E4
:1025F0006A656A20706F6420747279736B6F7520DE
:10260000626568656D206D6572656E6920707276B1
:102610006E696368203420626F64752E20506F6B82
:10262000756420747279736B61207A616368797460
:10263000692070617069722C207679706E6574659E
:10264000207469736B61726E752E00506C616365E6
:102650002061207368656574206F66207061706505
:102660007220756E64657220746865206E6F7A7A68
:102670006C6520647572696E67207468652063619B
:102680006C6962726174696F6E206F662066697230
:102690007374203420706F696E74732E2049662025
:1026A000746865206E6F7A7A6C6520636174636804
:1026B0006573207468652070617065722C20706F7E
:1026C000776572206F666620746865207072696E27
:1026D00074657220696D6D6564696174656C792ECD
:1026E000006F6B004F6666004B65696E6520426542
:1026F000776567756E672E0053696E206D6F76691A
:102700006D69656E746F004E657373756E206D6FC5
:1027100076696D656E746F2E004E6F206D6F7665F5
:102720002E004B65696E65205344204B61727465C1
:10273000004272616B206B61727479205344004EC9
:102740006F20686179207461726A657461205344F6
:10275000004E657373756E61205344005A61646E58
:1027600061205344206B61727461004E6F205344AA
:102770002063617264004475657365004479737AFF
:102780006100426F7175696C6C61005567656C6CB6
:102790006F00547279736B61004E6F7A7A6C6500CA
:1027A00046696C2E206E696368742067656C61648D
:1027B000656E004272616B2066696C616D656E7456
:1027C000750046696C2E206E6F20696E74726F649E
:1027D000756369646F0046696C2E206E6F6E2063AE
:1027E0006172696361746F0046696C616D656E74D6
:1027F000206E657A61766564656E0046696C616D10
:10280000656E74206E6F74206C6F61646564004641
:102810006172626520756E6B6C6172004B6F6C6FDC
:1028200072207A616E6965637A79737A2E00436FDC
:102830006C6F72206E6F20686F6D6F67656E656F6D
:1028400000436F6C6F7265206E6F6E207075726FD3
:10285000004261727661206E656E692063697374EF
:102860006100436F6C6F72206E6F7420636C6561E2
:1028700072004E65696E004E6965004E65004E6FD0
:1028800000426974746520616B7475616C69736969
:102890006572656E2E0050726F737A65207A616B77
:1028A0007475616C697A6F776163004163747561F7
:1028B0006C697A617220706F72206661766F720047
:1028C000507265676120616767696F726E612E0083
:1028D00050726F73696D20616B7475616C697A7584
:1028E0006A74652E00506C6561736520757067723F
:1028F0006164652E004E657565204669726D77616D
:1029000072652056657273696F6E207665726675A2
:1029100065676261723A005779737A6C61206E6FF5
:10292000776120776572736A61206669726D77617D
:1029300072653A004E7565766F206669726D7761D3
:10294000726520646973706F6E69626C653A004EDF
:10295000756F76612076657273696F6E6520646548
:102960006C206669726D7761726520646973706F3F
:102970006E6962696C65005679736C61206E6F7662
:1029800061207665727A65206669726D776172651D
:102990003A004E6577206669726D776172652076C0
:1029A000657273696F6E20617661696C61626C65D6
:1029B0003A00426577656765205A0050727A657300
:1029C000756E6163205A004D6F766572205A004D16
:1029D000756F7669205A00506F73756E6F7574202D
:1029E0005A004D6F7665205A00426577656765200D
:1029F000590050727A6573756E61632059004D6F8E
:102A00007665722059004D756F7669205900506FB8
:102A100073756E6F75742059004D6F76652059007F
:102A200042657765676520580050727A6573756EE8
:102A300061632058004D6F7665722058004D756FA8
:102A40007669205800506F73756E6F75742058004A
:102A50004D6F766520580045787472756972004D27
:102A6000756F7669204573747275736F7265004572
:102A700078747275646572004B616C696272696525
:102A800072656E20766F6E205A2E204472656865DE
:102A90006E205369652064656E204B6E6F706620F2
:102AA00062697320646572206F6265726520416E91
:102AB0007363686C6167206572726569636874200E
:102AC000776972642E204B6C69636B656E20776545
:102AD0006E6E2067616E7A206F62656E2E004B61AC
:102AE0006C69627261636A61205A2E2050727A6545
:102AF0006B7265632067616C6B652C206162792065
:102B000070727A6573756E6163206F73205A2064EA
:102B10006F20676F726E796368206B72616E636F8E
:102B200077656B2E204E616369736E696A2C206233
:102B30007920706F7477696572647A69632E0043D7
:102B4000616C696272616E646F205A2E20476972EF
:102B50006120656C20626F746F6E207061726120FD
:102B6000737562697220656C20636172726F205A9E
:102B700020686173746120676F6C7065207069658F
:102B80007A6173207375706572696F7261732E203C
:102B9000446573707565732068617A20636C69633E
:102BA0002E0043616C696272617A696F6E65205AAA
:102BB0002E2052756F74617265206C61206D616E9C
:102BC0006F706F6C612070657220616C7A617265E4
:102BD00020696C2063617272656C6C6F205A20668C
:102BE000696E6F20616C6C27616C74657A7A612004
:102BF0006D617373696D612E20436C69636B207026
:102C00006572207465726D696E6172652E004B612C
:102C10006C696272616365205A2E204F746163652E
:102C20006E696D20746C616369746B6120706F7381
:102C3000756E7465205A206F737520617A206B7EE3
:102C4000686F726E696D7520646F72617A752E207F
:102C5000506F74767264746520746C616369746B10
:102C6000656D2E0043616C6962726174696E6720E4
:102C70005A2E20526F7461746520746865206B6EE3
:102C80006F6220746F206D6F766520746865205ABE
:102C900020636172726961676520757020746F20AE
:102CA00074686520656E642073746F7070657273EC
:102CB0002E20436C69636B207768656E20646F6EAD
:102CC000652E004B616C696272696572656E207673
:102CD0006F6E2058595A2E2044726568656E2053D5
:102CE00069652064656E204B6E6F70662062697343
:102CF00020646572206F6265726520416E7363683F
:102D00006C616720657272656963687420776972A7
:102D1000642E204B6C69636B656E2077656E6E2048
:102D200067616E7A206F62656E2E004B616C69621E
:102D30007261636A612058595A2E2050727A656B0D
:102D40007265632067616C6B652C2061627920700D
:102D5000727A6573756E6163206F73205A20646F99
:102D600020676F726E796368206B72616E636F7734
:102D7000656B2E204E616369736E696A2C206279DF
:102D800020706F7477696572647A69632E0043619D
:102D90006C696272616E646F2058595A2E204769BF
:102DA000726120656C20626F746F6E207061726159
:102DB00020737562697220656C20636172726F2086
:102DC0005A20686173746120676F6C706520706948
:102DD000657A6173207375706572696F7261732EA5
:102DE00020446573707565732068617A20636C692F
:102DF000632E0043616C696272617A696F6E65204F
:102E000058595A2E2052756F74617265206C61207A
:102E10006D616E6F706F6C612070657220616C7A8D
:102E200061726520696C2063617272656C6C6F20E1
:102E30005A2066696E6F20616C6C27616C74657ACC
:102E40007A61206D617373696D612E20436C6963D3
:102E50006B20706572207465726D696E6172652E8B
:102E6000004B616C6962726163652058595A2E206B
:102E70004F746163656E696D20746C616369746B16
:102E80006120706F73756E7465205A206F737520A2
:102E9000617A206B7E686F726E696D7520646F72E7
:102EA000617A752E20506F74767264746520746C2C
:102EB000616369746B656D2E0043616C6962726158
:102EC00074696E672058595A2E20526F7461746568
:102ED00020746865206B6E6F6220746F206D6F7652
:102EE0006520746865205A20636172726961676544
:102EF00020757020746F2074686520656E6420737F
:102F0000746F70706572732E20436C69636B2077E9
:102F100068656E20646F6E652E004163687362653C
:102F2000776567756E670052756368206F73690017
:102F30004D6F76657220656A6573004D756F7669B1
:102F4000206173736500506F73756E6F7574206FB9
:102F50007375004D6F76652061786973004B616C05
:102F6000696272696572756E67004B616C69627245
:102F700061636A610043616C6962726163696F6E6B
:102F80000043616C696272617A696F6E65004B61C2
:102F90006C6962726163650043616C69627261743D
:102FA000696F6E0020766F6E203900207A2039001C
:102FB000206465203900207375203900207A20397B
:102FC00000206F662039004D657373656E2064655F
:102FD00072205265666572656E7A686F65686520F5
:102FE000646573204B616C69627269657270756E9D
:102FF0006B746573004F6B7265736C616D207779CC
:10300000736F6B6F7363206F646E69657369656E50
:1030100069612070756E6B7475206B616C6962728A
:103020006163796A6E65676F004D65646972206CD3
:103030006120616C747572612064656C2070756EBE
:10304000746F206465206C612063616C69627261D9
:1030500063696F6E004D69737572617265206C27CC
:10306000616C74657A7A6120646920726966657240
:10307000696D656E746F2064656C2070756E746F19
:103080002064692063616C696272617A696F6E6540
:10309000004D6572696D207265666572656E636E5E
:1030A00069207679736B75206B616C6962726163FC
:1030B0006E69686F20626F6475004D65617375722B
:1030C000696E67207265666572656E636520686506
:1030D00069676874206F662063616C6962726174ED
:1030E000696F6E20706F696E740048617570746DE1
:1030F000656E7565004D656E7520676C6F776E65E2
:10310000004D656E75207072696E636970616C0048
:103110004D656E75207072696E636970616C6500D3
:10312000486C61766E69206E616269646B61004D06
:1031300061696E004D32323120496E76616C69648E
:1031400020657874727564657220004D32313820C4
:10315000496E76616C696420657874727564657215
:1031600020004D32303020496E76616C69642065F4
:103170007874727564657220005265706F7274693C
:103180006E6720656E6473746F70207374617475FC
:1031900073004649524D574152455F4E414D453AA5
:1031A0004D61726C696E2056312E302E323B2053A9
:1031B0007072696E7465722F6772626C206D6173D4
:1031C00068757020666F722067656E3620464952BA
:1031D0004D574152455F55524C3A68747470733A7A
:1031E0002F2F6769746875622E636F6D2F7072750B
:1031F000736133642F50727573612D69332D506C78
:1032000075732F2050524F544F434F4C5F564552C9
:1032100053494F4E3A312E30204D414348494E4597
:103220005F545950453A5072757361206933204D8F
:103230004B312045585452554445525F434F554EEB
:10324000543A3120555549443A30303030303030DE
:10325000302D303030302D303030302D3030303077
:103260002D3030303030303030303030300A004D9A
:1032700031303920496E76616C69642065787472EA
:103280007564657220004D31303520496E76616C71
:10329000696420657874727564657220004D313000
:1032A0003420496E76616C69642065787472756447
:1032B000657220004C6F7365205269656D656E7391
:1032C000636865696265004B6F6C6F207061736F36
:1032D000776500506F6C6561207375656C74610073
:1032E00050756C6567676961206C656E7461005527
:1032F000766F6C6E656E612072656D656E69636B6D
:1033000061004C6F6F73652070756C6C6579004659
:10331000696C616D656E74206C6164656E005770D8
:10332000726F7761647A2066696C616D656E740096
:10333000496E74726F64756369722066696C616D41
:103340002E004361726963612066696C616D656E10
:10335000746F005A61766573742066696C616D657F
:103360006E74004C6F61642066696C616D656E748B
:103370000046696C616D656E74206C6561647400F3
:103380005770726F772E2066696C616D656E74750B
:1033900000496E74726F64756369656E646F206650
:1033A000696C616D2E004361726963616E646F20A8
:1033B00066696C616D2E005A61766164656E692084
:1033C00066696C616D656E7475004C6F6164696EE1
:1033D000672066696C616D656E74004C6164652080
:1033E000466172626500437A79737A637A2E206B44
:1033F0006F6C6F72750043616D6269616E646F20FE
:10340000636F6C6F72004361726963616E646F20F9
:10341000636F6C6F72650043697374656E692062D7
:1034200061727679004C6F6164696E6720636F6CBE
:103430006F7200576165686C6520537072616368D4
:1034400065005779626F72206A657A796B61004313
:10345000616D6269616520656C206964696F6D6189
:103460000053656C657A696F6E61206C696E677573
:1034700061005679626572206A617A796B610053E6
:10348000656C656374206C616E6775616765004487
:1034900065757473636800506F6C736B6900457376
:1034A00070616E6F6C004974616C69616E6F00438E
:1034B000657374696E6100456E676C69736800417D
:1034C00042474542524F4348454E2E2000504152FC
:1034D00041444120444520454D455247454E4349CE
:1034E0004100494E2054494C542E004B494C4C4508
:1034F000442E2000496E76616C6964206578747290
:10350000756465720046696C616D656E74206569ED
:103510006E6C6567656E005770726F7761647A20B4
:1035200066696C616D656E7400496E74726F647566
:103530006369722066696C616D656E746F00496EB7
:103540007365726972652066696C616D656E746F12
:1035500000566C6F7A74652066696C616D656E7477
:1035600000496E736572742066696C616D656E7476
:103570000020766F6E203900207A203900206465A3
:10358000203900207375203900207A203900206FFF
:1035900066203900566572626573736572756E6771
:1035A00020426564204B616C696272696572707556
:1035B0006E6B7400506F7072617769616D2070720C
:1035C0006563797A796A6E6F73632070756E6B7458
:1035D00075206B616C6962726163796A6E65676F91
:1035E000004D656A6F72616E646F2063616D61206A
:1035F00070756E746F2064652063616C69627261BE
:1036000063696F6E0050657266657A696F6E2E2011
:10361000696C206C6574746F2070756E746F2064B3
:10362000692063616C696272617A2E005A6C657000
:1036300073756A6920707265736E6F7374206B6145
:103640006C69627261636E69686F20626F64750095
:10365000496D70726F76696E672062656420636180
:103660006C6962726174696F6E20706F696E74004C
:103670004B616C69627269657265205A004B616CBE
:10368000696272756A65205A0043616C6962726191
:103690006E646F205A0043616C696272616E646F80
:1036A000205A004B616C696272756A69205A004346
:1036B000616C6962726174696E67205A004B616C5B
:1036C000696272696572756E67204F4B004B616C61
:1036D00069627261636A61204F4B0043616C696289
:1036E000726163696F6E204F4B0043616C69627257
:1036F000617A696F6E65204F4B004B616C69627235
:10370000616365204F4B0043616C6962726174694B
:103710006F6E20646F6E65004B616C6962726965E3
:1037200072656E205A004B616C696272756A205A2C
:103730000043616C6962726172205A0043616C6976
:10374000627261205A004B616C6962726F766174BB
:10375000205A0043616C696272617465205A0041AD
:103760007566776165726D656E204F4B0047727AA2
:10377000616E6965204F4B2E0043616C656E74610C
:103780006D69656E746F2066696E616C2E0052699A
:103790007363616C642E20636F6D706C65746F0071
:1037A0005A6168726976616E69204F4B2E004865D8
:1037B0006174696E6720646F6E652E00417566776F
:1037C0006165726D656E0047727A616E69652E2E55
:1037D0002E0043616C656E74616E646F2E2E2E0038
:1037E00052697363616C64616D656E746F2E2E2E09
:1037F000005A6168726976616E6900486561746932
:103800006E67002046726565204D656D6F72793A6E
:10381000200044657220447275636B657220777571
:10382000726465206E6F6368206E69636874206BD4
:10383000616C696272696572742E20426974746584
:1038400020666F6C67656E205369652064656D2026
:1038500048616E64627563682C204B6170697465A1
:103860006C2046697273742073746570732C2041E8
:10387000627363686E6974742043616C696272611B
:1038800074696F6E20666C6F772E004472756B6181
:10389000726B61206E6965207A6F7374616C612050
:1038A0006A65737A637A6520736B616C6962726FA3
:1038B00077616E612E2050726F737A65206B696537
:1038C000726F7761632073696520696E73747275B6
:1038D0006B636A612C20726F7A647A69616C205A1A
:1038E00061637A796E616D792C20706F64726F7A82
:1038F000647A69616C2053656C66746573742E001C
:10390000496D707265736F7261206E6F206573749C
:10391000612063616C69627261646120746F6461CB
:103920007669612E20506F72206661766F72207505
:1039300073617220656C206D616E75616C2C206501
:103940006C206361706974756C6F20466972737462
:103950002073746570732C2073656C656363696F85
:103960006E2043616C6962726174696F6E20666C6F
:103970006F772E005374616D70616E746520616E97
:10398000636F7261206E6F6E2063616C6962726139
:1039900074612E205369207072656761206469200C
:1039A0007365677569726520696C206D616E7561FC
:1039B0006C652C2063617069746F6C6F2050524984
:1039C0004D492050415353492C2073657A696F6EDD
:1039D000652064656C6C612063616C696272617AF8
:1039E000696F6E652E005469736B61726E61206E33
:1039F0006562796C61206A65737465207A6B616CAD
:103A00006962726F76616E612E20506F737475708B
:103A1000756A74652070726F73696D20706F646C65
:103A200065206D616E75616C752C206B61706974B9
:103A30006F6C61205A6163696E616D652C206F64E3
:103A400073746176656320506F73747570206B6159
:103A50006C6962726163652E005072696E74657282
:103A600020686173206E6F74206265656E206361EB
:103A70006C69627261746564207965742E20506C83
:103A80006561736520666F6C6C6F77207468652064
:103A90006D616E75616C2C20636861707465722055
:103AA00046697273742073746570732C2073656338
:103AB00074696F6E2043616C6962726174696F6EC4
:103AC00020666C6F772E004475726368666C757340
:103AD000730050727A65706C797700466C756A6F06
:103AE00000466C7573736F00507275746F6B00468F
:103AF0006C6F77004265776567756E6720626565F4
:103B00006E64656E004B6F6E637A656E69652064E6
:103B100072756B75005465726D2E206D6F76696DD0
:103B200069656E746F73004172726573746F20699A
:103B30006E20636F72736F00446F6B6F6E636F768E
:103B4000616E6920706F687962750046696E69738D
:103B500068696E67206D6F76656D656E74730020A1
:103B6000766F6E203400207A203400206465203483
:103B700000207375203400207A203400206F6620E6
:103B8000340053756368656E20426564204B616C38
:103B900069627269657270756E6B7400537A756BC9
:103BA000616D2070756E6B7475206B616C696272EB
:103BB0006163796A6E65676F20706F646B6C6164B6
:103BC0006B690042757363616E646F2063616D6140
:103BD0002070756E746F2064652063616C69627219
:103BE0006163696F6E005269636572636120646529
:103BF0006C206C6574746F2070756E746F206469CE
:103C00002063616C696272617A2E00486C65646140
:103C10006D206B616C69627261636E6920626F64B2
:103C200020706F646C6F7A6B7900536561726368A2
:103C3000696E67206265642063616C696272617499
:103C4000696F6E20706F696E74004974657261638C
:103C50006A6120005265697465726163696F6E20E4
:103C600000526569746572617A696F6E65200049FA
:103C70007465726163652000497465726174696F6F
:103C80006E2000446F6E6520736176696E672066F2
:103C9000696C652E00446F6E65207072696E746980
:103CA0006E672066696C65004973742046617262B4
:103CB00065207265696E3F00437A79206B6F6C6F87
:103CC00072206A65737420637A797374793F004552
:103CD0007320656C206E7565766F20636F6C6F72F4
:103CE000206E697469646F3F00496C20636F6C6F6C
:103CF0007265206527206E697469646F3F004A65AC
:103D00002062617276612063697374613F00497358
:103D100020636F6C6F7220636C6561723F0046694F
:103D20006C616D656E742D5765636873656C0057C3
:103D3000796D69656E69632066696C616D656E7425
:103D40000043616D626961722066696C616D656EC8
:103D5000746F0043616D622E2066696C616D656EE3
:103D6000746F0056796D656E69742066696C616D5B
:103D7000656E74004368616E67652066696C616D8D
:103D8000656E74004C7565667465722D54656D7052
:103D90006F00507265646B6F73632077656E742E6D
:103DA0000056656C6F63696461642056656E742E9D
:103DB0000056656C6F636974612076656E742E00C1
:103DC000527963686C6F73742076656E742E00464A
:103DD000616E20737065656400656E717565696EEE
:103DE00067202200456B73747275646572004578B4
:103DF000747275736F72004573747275736F726548
:103E00000045787472756465720020457874657237
:103E10006E616C205265736574005072696E7465D2
:103E2000722073746F707065642064756520746FA0
:103E3000206572726F72732E2046697820746865EF
:103E4000206572726F7220616E6420757365204DFB
:103E500039393920746F20726573746172742E2041
:103E60002854656D70657261747572652069732080
:103E700072657365742E20536574206974206166C1
:103E80007465722072657374617274696E6729005B
:103E90004E6F204C696E65204E756D62657220779D
:103EA00069746820636865636B73756D2C204C6161
:103EB0007374204C696E653A20004E6F204368652C
:103EC000636B73756D2077697468206C696E65200B
:103ED0006E756D6265722C204C617374204C696E36
:103EE000653A200020746F6F206C6F6E67206578D4
:103EF00074727573696F6E2070726576656E746525
:103F000064004C696E65204E756D62657220697340
:103F1000206E6F74204C617374204C696E65204E66
:103F2000756D6265722B312C204C617374204C6965
:103F30006E653A20005072696E7465722068616C1B
:103F40007465642E206B696C6C28292063616C6C2D
:103F50006564210020636F6C6420657874727573EA
:103F6000696F6E2070726576656E74656400636853
:103F700065636B73756D206D69736D617463682C17
:103F8000204C617374204C696E653A2000464548A8
:103F90004C45523A00424C41443A004552524F522D
:103FA000453A0043485942413A004552524F523A2D
:103FB00000456E642066696C65206C697374006FDF
:103FC00070656E0054524947474552454400656E3E
:103FD0006473746F7073206869743A200045696E69
:103FE000656E204D6F6D656E742062697474652E08
:103FF00000456E2065737065726100536F73706564
:104000006E73696F6E652E2E2E00536C6565702E73
:104010002E2E004D6F746F72656E206175730057A0
:10402000796C61637A79632073696C6E696B69007E
:10403000417061676172206D6F746F7265730044C7
:1040400069736162696C6974206D6F746F72690065
:104050005679706E6F7574206D6F746F727900444D
:10406000697361626C65207374657070657273004A
:10407000446174756D00446174613A00466563681B
:10408000613A004461746100446174756D3A0044A2
:104090006174653A00416B7475656C6C65730054AE
:1040A000796C6B6F20616B7475616C6E6500416338
:1040B0007475616C0041747475616C6500506F7546
:1040C0007A6520616B7475616C6E690043757272FC
:1040D000656E740020436F756E7420583A20005747
:1040E00065636873656C206F6B3F0057796D69611C
:1040F0006E61206F6B3F0043616D626961646F2088
:10410000636F72726563742E3F0043616D62696113
:10411000746F20636F72722E3F0056796D656E6109
:10412000206F6B3F004368616E67656420636F7248
:10413000726563746C793F0041626B7565686C658C
:104140006E00577963686C6F647A696300456E66C8
:104150007269617200526166667265646461005AD8
:1041600063686C6164697400436F6F6C646F776E31
:1041700000426974746520656E746665726E656E62
:104180002053696520756562657273746568656E34
:104190006465732046696C616D656E7420766F6E20
:1041A000206465722044756573652E204B6C6963CD
:1041B0006B656E2077656E6E207361756265722E19
:1041C00000446C61207072617769646C2E206B61B1
:1041D0006C69627261636A692070726F737A6520BC
:1041E0006F637A7973636963206479737A652E20CB
:1041F000506F74772E2067757A696B69656D2E0034
:104200004C696D7069617220626F7175696C6C6167
:1042100020706172612063616C6962726163696FB1
:104220006E2E20436C69636B206375616E646F2032
:104230006163616265732E0050756C697265206CF4
:10424000277567656C6C6F20706572206C612063E8
:10425000616C696272617A696F6E652C20706F693A
:10426000206661726520636C69636B2E0050726F0B
:104270002075737065736E6F75206B616C69627207
:10428000616369206F636973746574652070726F10
:1042900073696D207469736B6F766F7520747279B2
:1042A000736B752E20506F74767264746520746C15
:1042B000616369746B656D2E00506C656173652078
:1042C000636C65616E20746865206E6F7A7A6C65C8
:1042D00020666F722063616C6962726174696F6ECF
:1042E0002E20436C69636B207768656E20646F6E67
:1042F000652E0049737420646572205363686C698D
:104300007474656E2067616E7A206F62656E3F001F
:104310004F626120776F7A6B6920646F6A656368AA
:10432000616C7920646F20676F726E656A207261BC
:104330006D793F00436172726F73205A20697A7100
:104340002E2F6465722E20657374616E2061727207
:10435000696261206D6178696D6F3F00492063611A
:104360007272656C6C69205A2073696E2F64657374
:1043700020736F6E6F20616C74657A7A61206D6155
:10438000783F00446F6A656C79206F6261205A2023
:10439000766F7A696B79206B7E686F726E696D7566
:1043A00020646F72617A753F00417265206C6566AA
:1043B0007420616E64207269676874205A7E63613C
:1043C0007272696167657320616C6C2075703F0063
:1043D000204C61737420557064617465643A2000E8
:1043E000576165686C656E20536965204578747205
:1043F00075646572005779626965727A20656B73BE
:1044000074727564657200456C65676972206578C1
:10441000747275736F723A0053656C657A696F6E6A
:1044200061206573747275736F72653A00567962B4
:10443000657274652065787472756465723A0043BC
:10444000686F6F73652065787472756465723A0081
:104450005765636873656C206572666F6C67722E52
:10446000210057796D69616E61206F6B2100436196
:104470006D62696F20636F72726563746F00436170
:104480006D62696F20726975736369746F21005A78
:104490006D656E612075737065736E612100436890
:1044A000616E676520737563636573732100447281
:1044B00075636B656E20766F6E2053440044727591
:1044C0006B207A205344004D656E75207461726ACA
:1044D000657461205344005374616D7061206461A0
:1044E000205344005469736B207A20534400507267
:1044F000696E742066726F6D205344002042726FA3
:10450000776E206F7574205265736574004265671D
:10451000696E2066696C65206C6973740058595A1D
:104520002D4B616C696272696572756E6720756E7C
:1045300067656E61752E204C696E6B657220766FB3
:10454000726465726572204B616C69627269657232
:1045500070756E6B7420697374207A752077656945
:104560007420766F726E652E004B616C69627261A9
:10457000636A612058595A206E6965646F6B6C617B
:10458000646E612E204C6577792070727A65646E56
:10459000692070756E6B74207A62797420777973F4
:1045A000756E6965747920646F2070727A6F6475B6
:1045B0002E0043616C696272617A696F6E2058598E
:1045C0005A20636F6D70726F6D65746964612E201F
:1045D00050756E746F2064656C616E7465726F20C7
:1045E000697A7175696572646F206E6F20616C63A2
:1045F000616E7A61626C652E0043616C6962726102
:104600007A696F6E652058595A20636F6D70726FAA
:104610006D657373612E2050756E746F20616E74BA
:104620006572696F72652073696E697374726F2049
:104630006E6F6E207261676769756E676962696C1B
:10464000652E004B616C6962726163652058595A2E
:10465000206E65707265736E612E204C65767920D0
:10466000707265646E6920626F64206D6F6320767E
:1046700070726564752E0058595A2063616C6962C6
:10468000726174696F6E20636F6D70726F6D6973A4
:1046900065642E204C6566742066726F6E742063AC
:1046A000616C6962726174696F6E20706F696E749B
:1046B000206E6F7420726561636861626C652E00A4
:1046C00058595A2D4B616C696272696572756E67D3
:1046D00020756E67656E61752E20566F7264657207
:1046E00065204B616C69627269657270756E6B747E
:1046F000652073696E64207A752077656974207609
:104700006F726E652E004B616C6962722E20585973
:104710005A206E6965646F6B6C61646E612E205007
:10472000727A65646E69652070756E6B7479206B42
:10473000616C6962722E205A627974207779732EC7
:1047400020646F2070727A6F64752E0043616C690B
:104750006272617A696F6E2058595A20636F6D706A
:10476000726F6D65746964612E2050756E746F2070
:1047700064656C616E7465726F73206E6F20616C1E
:1047800063616E7A61626C65732E0043616C69626D
:1047900072617A696F6E652058595A20636F6D7027
:1047A000726F6D657373612E2050756E7469206130
:1047B0006E746572696F7269206E6F6E20726167C8
:1047C0006769756E676962696C692E004B616C6917
:1047D00062726163652058595A206E657072657304
:1047E0006E612E20507265646E69206B616C696227
:1047F0007261636E6920626F6479206D6F632076E9
:1048000070726564752E0058595A2063616C696234
:10481000726174696F6E20636F6D70726F6D697312
:1048200065642E2046726F6E742063616C696272DB
:104830006174696F6E20706F696E7473206E6F742F
:1048400020726561636861626C652E0058595A2058
:104850004B616C696272696572756E6720696E2062
:104860004F72646E756E672E20582F592041636811
:1048700073656E2073696E6420657477617320734D
:1048800063686965662E004B616C69627261636A78
:10489000612058595A207072617769646C6F776132
:1048A0002E204F73696520582F59206C656B6B6FF4
:1048B00020736B6F736E652E20446F62726120727D
:1048C0006F626F7461210043616C69627261636938
:1048D0006F6E2058595A20636F7272656374612E2F
:1048E000204C6F7320656A65732058202F20592053
:1048F000657374616E206C69676572616D656E7455
:104900006520696E636C696E61646F732E204275F9
:10491000656E2074726162616A6F210043616C6927
:104920006272617A696F6E2058595A20636F727291
:10493000657474612E204173736920582F59206C5F
:1049400065676765726D656E74652073746F7274E8
:10495000692E2042656E20666174746F21004B6180
:104960006C6962726163652058595A207620706FB5
:104970007261646B752E20582F59206F7379206DEA
:1049800069726E65207A6B6F73656E652E20446F59
:10499000627261207072616365210058595A206308
:1049A000616C6962726174696F6E20616C6C2072F7
:1049B000696768742E20582F5920617865732061CB
:1049C000726520736C696768746C7920736B6577A6
:1049D00065642E20476F6F64206A6F62210058590A
:1049E0005A204B616C696272696572756E672069E5
:1049F0006E204F72646E756E672E20536368696512
:104A000066686569742077697264206175746F6D7A
:104A1000617469736368206B6F727269676965722C
:104A2000742E004B616C69627261636A612058592F
:104A30005A207072617769646C6F77612E20536BB6
:104A40006F73792062656461206175746F6D617444
:104A500079637A6E6965207779726F776E616E65BA
:104A60002070727A79206472756B752E0043616CC8
:104A70006962726163696F6E2058595A20636F7260
:104A800072656374612E204C6120696E636C696E7F
:104A90006163696F6E20736520636F727265676909
:104AA0007261206175746F6D61746963616D656EAB
:104AB00074652E0043616C696272617A696F6E2061
:104AC00058595A20636F7272657474612E204C615C
:104AD00020646973746F7273696F6E652076657296
:104AE000726127206175746F6D61746963616D65B2
:104AF0006E746520636F6D70656E736174612E00F6
:104B00004B616C6962726163652058595A20762046
:104B1000706F7261646B752E205A6B6F73656E696E
:104B20002062756465206175746F6D617469636B73
:104B300079207679726F766E616E6F20707269205F
:104B40007469736B752E0058595A2063616C6962E1
:104B5000726174696F6E20616C6C20726967687431
:104B60002E20536B65772077696C6C20626520631B
:104B70006F72726563746564206175746F6D6174C2
:104B80006963616C6C792E0058595A2D4B616C69C0
:104B90006272696572756E67206665686C676573B9
:104BA00063686C6167656E2E204265642D4B616C95
:104BB00069627269657270756E6B74206E69636884
:104BC0007420676566756E64656E2E004B616C6956
:104BD00062722E2058595A206E69657564616E6143
:104BE0002E204B616C6962726163796A6E79207004
:104BF000756E6B7420706F646B6C61646B69206E92
:104C000069657A6E616C657A696F6E792E004361B1
:104C10006C6962726163696F6E2058595A206661CF
:104C20006C6C6164612E2050756E746F73206465C6
:104C30002063616C6962726163696F6E20656E20CA
:104C40006C612063616D61206E6F20656E636F6EB5
:104C5000747261646F732E0043616C696272617A71
:104C6000696F6E652058595A2066616C6C69746171
:104C70002E20496C2070756E746F2064692063610A
:104C80006C696272617A696F6E652073756C206CF5
:104C90006574746F206E6F6E206527207374617465
:104CA0006F2074726F7661746F2E004B616C696255
:104CB000726163652058595A2073656C68616C6134
:104CC0002E204B616C69627261636E6920626F6451
:104CD00020706F646C6F7A6B79206E656E616C65A5
:104CE0007A656E2E0058595A2063616C6962726150
:104CF00074696F6E206661696C65642E204265641C
:104D00002063616C6962726174696F6E20706F6993
:104D10006E7420776173206E6F7420666F756E6499
:104D20002E0058595A2D4B616C6962726965727513
:104D30006E67206F6B2E20582F592D416368736565
:104D40006E2073696E642073656E6B726563687440
:104D5000207A7565696E616E6465722E20476C7588
:104D600065636B77756E73636821004B616C696274
:104D70007261636A612058595A206F6B2E204F73FD
:104D8000696520582F592073612070726F73746F9A
:104D90007061646C652E2047726174756C61636A22
:104DA00065210043616C6962726163696F6E2058AE
:104DB000595A206F6B2E20456A657320582F592051
:104DC00070657270656E646963756C617265732E6F
:104DD0002046656C696369746163696F6E657321F0
:104DE0000043616C696272617A696F6E652058591F
:104DF0005A204F4B2E20476C6920617373692058ED
:104E00002F5920736F6E6F2070657270656E6469C4
:104E1000636F6C6172692E20436F6D706C696D6594
:104E20006E746921004B616C696272616365205820
:104E3000595A207620706F7261646B752E20582F3E
:104E400059206F7379206A736F75206B6F6C6D6575
:104E50002E2047726174756C756A69210058595A21
:104E60002063616C6962726174696F6E206F6B2E72
:104E700020582F5920617865732061726520706514
:104E80007270656E646963756C61722E20436F6E1B
:104E900067726174756C6174696F6E732100585923
:104EA0005A2D4B616C696272696572756E67206616
:104EB00065686C67657363686C6167656E2E204218
:104EC00069747465207363686175656E20536965E4
:104ED00020696E206461732048616E646275636846
:104EE0002E004B616C69627261636A612058595A85
:104EF000206E6965706F776965647A696F6E612E7F
:104F0000205370726177647A6963207720696E73C9
:104F10007472756B636A692E0043616C69627261B9
:104F200063696F6E2058595A2066616C6C616461C8
:104F30002E20436F6E73756C74617220656C206DEA
:104F4000616E75616C20706F72206661766F722E73
:104F50000043616C696272617A696F6E65205859AD
:104F60005A2066616C6C6974612E205369207072DE
:104F700065676120646920636F6E73756C7461721C
:104F80006520696C206D616E75616C652E004B61EA
:104F90006C6962726163652058595A2073656C6848
:104FA000616C612E204E61686C65646E657465206D
:104FB000646F206D616E75616C752E0058595A20B2
:104FC00063616C6962726174696F6E206661696C9D
:104FD00065642E20506C6561736520636F6E737518
:104FE0006C7420746865206D616E75616C2E00585C
:104FF000595A2D4B616C696272696572756E6720D2
:105000006665686C67657363686C6167656E2E20A2
:105010004C696E6B657220766F7264657265722082
:105020004B616C69627269657270756E6B74206930
:105030007374207A75207765697420766F726E6557
:105040002E004B616C6962722E2058595A206E698D
:10505000657564616E612E204C6577792070727A77
:1050600065646E692070756E6B74207A6279742045
:10507000646F2070727A6F64752E205779726F7723
:105080006E6163206472756B61726B652E004361A3
:105090006C6962726163696F6E2058595A2066614B
:1050A0006C6C61642E2050756E746F2064656C6149
:1050B0006E7465726F20697A7175696572646F20AC
:1050C0006E6F20616C63616E7A61626C652E004365
:1050D000616C696272617A696F6E652058595A20F5
:1050E00066616C6C6974612E2050756E746F2061FE
:1050F0006E746572696F72652073696E697374721C
:105100006F206E6F6E207261676769756E67696286
:10511000696C652E004B616C696272616365205831
:10512000595A2073656C68616C612E204C657679E4
:1051300020707265646E6920626F64206D6F6320F9
:105140007670726564752E2053726F766E656A7420
:1051500065207469736B61726E752E0058595A2000
:1051600063616C6962726174696F6E206661696CFB
:1051700065642E204C6566742066726F6E742063C1
:10518000616C6962726174696F6E20706F696E74B0
:10519000206E6F7420726561636861626C652E00B9
:1051A00058595A2D4B616C696272696572756E67E8
:1051B000206665686C67657363686C6167656E2EF1
:1051C00020566F7264657265204B616C696272690A
:1051D000657270756E6B74652073696E64207A7584
:1051E000207765697420766F726E652E004B616C56
:1051F0006962722E2058595A206E69657564616E15
:10520000612E2050727A65642E2070756E6B7479F1
:10521000206B616C6962722E207A62797420646FEF
:105220002070727A6F64752E205779726F776E6175
:1052300063206472756B61726B652E0043616C69EB
:1052400062726163696F6E2058595A2066616C6C96
:1052500061642E2050756E746F2064656C616E748D
:1052600065726F73206E6F20616C63616E7A61622C
:105270006C65732E0043616C696272617A696F6E4E
:10528000652058595A2066616C6C6974612E2050F3
:10529000756E746920616E746572696F7269206ED3
:1052A0006F6E207261676769756E676962696C69A4
:1052B0002E004B616C6962726163652058595A20F7
:1052C00073656C68616C612E20507265646E692034
:1052D0006B616C69627261636E6920626F647920D0
:1052E0006D6F63207670726564752E2053726F76D1
:1052F0006E656A7465207469736B61726E752E00D9
:1053000058595A2063616C6962726174696F6E20CA
:105310006661696C65642E2046726F6E74206361ED
:105320006C6962726174696F6E20706F696E7473FC
:10533000206E6F7420726561636861626C652E0017
:1053400042656420617566776165726D656E0047C0
:10535000727A616E69652073746F6C696B612E2E51
:105360000043616C656E74616E646F2042617365A9
:105370000052697363616C642E206C6574746F00F5
:105380005A6168726976616E69206265640042657F
:10539000642048656174696E6700426564204F4B04
:1053A0000053746F6C696B204F4B2E004261736524
:1053B000207072657061726164610050696174741B
:1053C0006F20666174746F2E00426564204F4B2E0F
:1053D0000042656420646F6E650052656368747393
:1053E000202020205B756D5D005720707261776F03
:1053F000205B756D5D0044657265636861202020E7
:105400005B756D5D00446573747261202020205BC4
:10541000756D5D0056707261766F205B756D5D0015
:10542000526967687420736964655B756D5D0052CD
:105430007565636B7365747A656E00526573657428
:105440000048696E74656E202020205B756D5D00DC
:10545000446F2074796C7520205B756D5D0041741C
:1054600072617320202020205B756D5D0052657491
:10547000726F20202020205B756D5D00567A61647C
:105480007520205B756D5D005265617220736964E3
:1054900065205B756D5D00426564206C6576656CAA
:1054A000204B6F7272656B74004B6F72656B746129
:1054B00020706F646B6C61646B6900436F72722E55
:1054C000206465206C612063616D6100436F7272BE
:1054D000657A2E206C69762E6C6574746F004B6F44
:1054E00072656B636520706F646C6F7A6B790042D4
:1054F0006564206C6576656C20636F727265637499
:10550000004C696E6B7320202020205B756D5D0060
:1055100057206C65776F20205B756D5D00497A714F
:10552000756965726461205B756D5D0053696E69B4
:105530007374726120205B756D5D00566C65766FCB
:1055400020205B756D5D004C656674207369646531
:10555000205B756D5D00566F726E652020202020E7
:105560005B756D5D00446F2070727A6F6475205BAF
:10557000756D5D004164656C616E746520205B75BE
:105580006D5D0046726F6E7465202020205B756D26
:105590005D00567072656475205B756D5D004672C6
:1055A0006F6E7420736964655B756D5D0053746F15
:1055B0006C696B0042617365004C6574746F0042E6
:1055C0006564004465722041627374616E64207A80
:1055D0007769736368656E206465722053706974BF
:1055E0007A652064657220447565736520756E6404
:1055F000206465722042656420697374206E6F6355
:1056000068206E696368742065696E676573746588
:105610006C6C742E20426974746520666F6C6765CB
:105620006E205369652064656D2048616E64627503
:1056300063682C2046697273742073746570732CD0
:105640002073656374696F6E204669727374206C91
:10565000617965722063616C6962726174696F6EF1
:105660002E004F646C65676C6F7363206479737A86
:1056700079206F6420706F646B6C61646B69206E5D
:105680006965206A65737420736B616C6962726FFF
:1056900077616E612E20506F73746570756A207A21
:1056A000676F646E6965207A20696E737472756BBA
:1056B000636A6120726F7A647A69616C205A6163EF
:1056C0007A796E616D792C20706F64726F7A647A6A
:1056D00069616C204B616C69627261636A61207000
:1056E00069657277737A656A207761727374777906
:1056F0002E0044697374616E63696120656E747213
:1057000065206C612070756E7461206465206C6129
:1057100020626F7175696C6C612079206C612073F7
:10572000757065726669636965206465206C6120C7
:1057300063616D61206E6F2066696A6164612061DA
:10574000756E2E20506F72206661766F72207369BD
:10575000676120656C206D616E75616C2C206361E2
:10576000706974756C6F2046697273742073746508
:1057700070732C2073656363696F6E204669727362
:1057800074206C617965722063616C696272617406
:10579000696F6E2E0044697374616E7A6120747251
:1057A00061206C612070756E74612064656C6C277B
:1057B0007567656C6C6F2065206C61207375706512
:1057C0007266696369652064656C206C6574746FCA
:1057D000206E6F6E20616E636F726120696D706FF5
:1057E0007374612E2053692070726567612064694B
:1057F000207365677569726520696C206D616E75CF
:10580000616C652C2063617069746F6C6F204669F0
:105810007273742073746570732C2073657A696F6A
:105820006E65204669727374206C617965722063BD
:10583000616C6962726174696F6E2E004E656E698B
:10584000207A6B616C6962726F76616E6120767A24
:1058500064616C656E6F737420747279736B7920F8
:105860006F64207469736B6F766520706F646C6F02
:105870007A6B792E20506F73747570756A74652019
:1058800070726F73696D20706F646C65206D616EEE
:1058900075616C752C206B617069746F6C61205A36
:1058A0006163696E616D652C206F647374617665E8
:1058B00063204E6173746176656E69207072766ED6
:1058C00069207672737476792E0044697374616E00
:1058D0006365206265747765656E20746970206FFA
:1058E0006620746865206E6F7A7A6C6520616E64DC
:1058F00020746865206265642073757266616365F3
:1059000020686173206E6F74206265656E20736518
:1059100074207965742E20506C6561736520666F04
:105920006C6C6F7720746865206D616E75616C2C8E
:1059300020636861707465722046697273742073A5
:10594000746570732C2073656374696F6E2046698B
:10595000727374206C617965722063616C69627224
:105960006174696F6E2E005A2065696E7374656C80
:105970006C656E00446F7374726F6A656E69652042
:105980006F7379205A004D6963726F7061736F2075
:10599000456A65205A00436F6D70656E73617A6960
:1059A0006F6E65205A00446F6C6164656E69206F8C
:1059B0007379205A004C6976652061646A75737446
:1059C000205A0041646A757374696E67205A0053E7
:1059D00074617274706F736974696F6E004C6C657A
:1059E00076617220616C206F726967656E00547217
:1059F0006F7661206F726967696E65004175746FBB
:105A000020686F6D6500207C20417574686F723A64
:105A10002000416C6C650057737A7973746B6F006A
:105A2000546F646F73005475747469005673650025
:105A3000416C6C00416374697665204578747275B9
:105A40006465723A2000FD07ED07D807C507B10766
:105A50009C071108190821082A0832084B08470832
:105A6000440841083D083A084F0857085F08AB084A
:105A7000A108920886087B086F08A2097A094209E2
:105A80001009E108B708FB09FB09E909D709FB0977
:105A9000C5096B0A570A440A310A200A0C0AD20ABD
:105AA000C10AAF0A9E0A8F0A7D0A3D0B2B0B190B08
:105AB000060BF50AE20A500B910B8B0B840B7C0B47
:105AC000730B630BBC0BBC0BBC0BBC0BAA0B960B78
:105AD000F20BF20BF20BF20BE00BCE0B210DE60CEE
