:100000000C9431340C9462340C9462340C94623449
:100010000C9462340C9462340C9462340C94623408
:100020000C9462340C9462340C9462340C946234F8
:100030000C94B5680C9462340D945B020C949FFF91
:100040000C9462340D940A0A0C9462340C94623459
:100050000C9462340C9462340C9462340C94AF5857
:100060000C9462340C94C5460C9462340C94623443
:100070000C9462340C948C9C0C9462340C94623416
:100080000D94A9040C9462340C9462340C94623480
:100090000C9481460C9462340C9462340C94623457
:1000A0000C9462340C9462340C9494FB0C9462347F
:1000B0000C9462340C9476FB0C9462340C9462348D
:1000C0000C9462340C9462340C9462340C9436FBBD
:1000D0000C9462340C9462340C9462340C94623448
:1000E0000C946234084AD73B3BCE016E84BCBFFD02
:1000F000C12F3D6C74319ABD56833DDA3D00C77FF8
:1001000011BED9E4BB4C3E916BAAAABE0000008090
:100110003F05A84CCDB2D44EB93836A9020C50B91F
:10012000918688083CA6AAAA2ABE000000803F0744
:10013000634236B79BD8A71A39685618AEBAAB5582
:100140008C1D3CB7CC5763BD6DEDFD753EF6177247
:1001500031BF000000803F08000000BE9224491219
:100160003EABAAAA2ABECDCCCC4C3E00000080BE3D
:10017000ABAAAAAA3E00000000BF000000803F001A
:1001800000000000084178D3BB4387D1133D190E0E
:100190003CC3BD4282AD2B3E68EC8276BED98FE176
:1001A000A93E4C80EFFFBE01C4FF7F3F000000006E
:1001B00000000D944B150C941CB00C94AE9D0C9447
:1001C0007B9D0D94D63C0D94776F0C94DDF50D94CA
:1001D000B1150C945DB00C943DB40C941FB80C9404
:1001E0003BE90C941CA40C94C2EB0C9433A00C942B
:1001F0008FB30C9450A00C9499DC0C944BE80C94A5
:10020000F8B70C948DF00C94CDAF0D948C750C94C4
:10021000BDA00C94599E0D944E150C940FFF0C9498
:10022000FEFF0C94C2AB0C94B0E90C94F1A00D94B9
:10023000706F0C9472DC0C94AAF00D9431160C942F
:100240008FA00C9492F10C94E4AF0D9488750C94EB
:100250009CAB0C949FDC0C949A9D0C94FBA10D9488
:100260001C150C94C7AB0D9404150C94C89D0C94EC
:1002700017A40C94B29D0C9452A60C94F7F90C940C
:1002800037EB0D94F9150C94CE580D947F150C9402
:1002900035B00C9455590D94536F0C94FFA60C94E3
:1002A00020590D94B4150C94819D0C94E7A00C94E6
:1002B0002EB30C946D9E0C94E6B70D9485750C943A
:1002C00008A40C9410AB0D9423750C94A9A10D9463
:1002D000B9150C94F8AF0C9474C10C9406F40C94FA
:1002E000E7DC0C945EA40C94D8E90C9412A40C9452
:1002F00010F20C94E8580C9492FA0D9499490C94CD
:10030000BEE90C94B69D0C94B5BC0C9407AB0C9450
:100310008AFE0C94C2E90C94FAF50C94FEF50C9448
:1003200076A10C9434A60C941CB80C9490AB0C944D
:1003300059F10C9400B00C9496AB0C9441A00C9421
:1003400076A50D94F86E0C943FB00C9421A40C94F7
:10035000E5A40C94F3E60C9449B00C9413B80C94F7
:1003600096D80C94CDFE0C9424EC0C94909D0C9497
:10037000D6B60C944DA30C94BB5C0C9434DC0C945A
:1003800017590D94736F0D94116F0C94A09D0C94DC
:10039000A65A0C94F3580C9426B00C94E5FB0D94DB
:1003A00001160C94BAE90C94279D0D9444150C94F5
:1003B00079BB0C94ECA40C94A5A20C9422B80C94D8
:1003C000EEAF0C94899D0D94EB150D9483060C945F
:1003D00002DC0C94DEA40D949A750C94E1B40C9498
:1003E000D3AA0D9419160D94F2210C948AAB0C9497
:1003F000D5AF0C9493A10C942DBC0C9426A40C9412
:10040000A89D0D9429160C9429F10D9441150C9476
:1004100067A00C94A49D0D9409160C9401590C949A
:100420001CFD0C9412B00C940AAB0C9403580C9461
:10043000C49D0C94789E0C94D0F20C94B6F00C945D
:10044000EAFA0C94ABA80C94DBA20D9421160C9440
:10045000C09D0C9406A10C94729E0C9453B00C9405
:10046000839E0D94EE150C94BC9D0C9458BC0C947A
:1004700061F90C9489A20C940DAB0C941CAB0C94F8
:10048000DAAF0C94FAA40C9493BB0C9413AB0C94B9
:100490008ADC0C94D9F10C943DF40C949EAA0C9433
:1004A0007BA00C940DA40C94BEBF0C9440EA0C9459
:1004B00077FE0C9404AB0C9418AA0C940CEC0C94DE
:1004C00032470C942AA40C9403A40C9477DB0C946C
:1004D00000FF0C9443590C94B3AB0C9452F20C945F
:1004E00035A00C94D7DC0D9495750C94EC570C94B6
:1004F000A8AA0C945CA00D9469750C942EB80C9469
:100500008D9D0C94C1DC0C94A5BB0C945DA50C9442
:1005100000F40D94E8150D94473B0C9422DC0D94E7
:10052000E83C0C94859D0C94FBA00C9467B00C9453
:10053000EDE60C94F3A40C94B6E90C94DDB70D949D
:10054000F1150D9411160C94969D0C94DDA00C944D
:10055000B2E80C9408B00C94C4AB0C94A0A70D9412
:10056000DF3C0C94A3DC0C94A8AB0C94A7D80C949F
:10057000BB9D0C9428FF0C9440F40C942CDC0C9440
:1005800099F00C94B6E80C94D1A00C941DA10C9495
:1005900025B86E616E00696E660000407A10F35AED
:1005A00000A0724E18090010A5D4E80000E87648B3
:1005B000170000E40B54020000CA9A3B000000E15F
:1005C000F505000080969800000040420F000000F2
:1005D000A08601000000102700000000E8030000D2
:1005E00000006400000000000A000000000001009C
:1005F000000000002C76D888DC674F0823DFC1DFBD
:10060000AE59E1B1B796E5E3E453C63AE6519976BF
:1006100096E8E6C28426EB898C9B62ED407C6FFCF9
:10062000EFBC9C9F40F2BAA56FA5F490055A2AF73B
:100630005C936B6CF9676DC11BFCE0E40D47FEF544
:1006400020E6B500D0ED902E0300943577050080AC
:10065000841E080000204E0A000000C80C3333330B
:10066000330F986E12831141EF8D2114893BE655AB
:1006700016CFFEE6DB18D1844B381BF77C1D901D8E
:10068000A4BBE424203284725E228100C9F124ECF0
:10069000A1E53D272200656E717565696E672022B0
:1006A00000446F6E65207072696E74696E672066B3
:1006B000696C65004E6F204C696E65204E756D62E9
:1006C0006572207769746820636865636B73756D04
:1006D0002C204C617374204C696E653A20004E6F7B
:1006E00020436865636B73756D2077697468206C4F
:1006F000696E65206E756D6265722C204C61737435
:10070000204C696E653A2000636865636B73756D94
:10071000206D69736D617463682C204C6173742063
:100720004C696E653A20004C696E65204E756D62AD
:100730006572206973206E6F74204C617374204C55
:10074000696E65204E756D6265722B312C204C618F
:100750007374204C696E653A2000257520627974A7
:100760006573207772697474656E20746F202553E9
:100770002061742061646472657373203078253061
:1007800038780A00442564202D20526561642F5773
:10079000726974652025530A0020436F756E7420BA
:1007A000583A200045303A25642052504D2050528E
:1007B0004E313A25642052504D204530403A25753F
:1007C0002050524E31403A25750A00526573656ECD
:1007D000640025533A20256C640A25530A00646995
:1007E0007361626C656400656E61626C656400458E
:1007F0004550524F4D005352414D00442D31202D54
:1008000020456E646C657373206C6F6F700A0041D5
:1008100063746976652045787472756465723A20F0
:100820003000496E76616C69642065787472756415
:100830006572004D323230205325640053442070DD
:1008400072696E74696E672062797465200025751F
:1008500000556E6B6E6F776E20636F6D6D616E64A9
:100860003A2022004D32303020496E76616C696446
:1008700020657874727564657220007A5F6D6178A6
:100880003A20007A5F6D696E3A2000795F6D696E7B
:100890003A2000545249474745524544006F70651D
:1008A0006E00785F6D696E3A20005265706F7274E9
:1008B000696E6720656E6473746F70207374617401
:1008C0007573004D3131322063616C6C65642E208C
:1008D000456D657267656E63792053746F702E0085
:1008E0002F2F616374696F6E3A75766C6F5F7265F6
:1008F000636F766572795F72656164790053494C04
:10090000454E54004E4F524D414C002553204D4F03
:1009100044453A2050657263656E7420646F6E655D
:100920003A20256868643B207072696E742074698F
:100930006D652072656D61696E696E6720696E20F4
:100940006D696E733A2025643B204368616E67656C
:1009500020696E206D696E733A2025640A0050721A
:10096000696E74657253746174653A2025640A0077
:10097000456E642066696C65206C6973740042651D
:1009800067696E2066696C65206C69737400556ECA
:100990006B6E6F776E20256320636F64653A202548
:1009A000730A000A50494E44412074656D706572A7
:1009B00061747572653A20252E3166205A2073685D
:1009C00069667420286D6D293A20252E3366000A49
:1009D000537465703A2025642F360A000A537465F3
:1009E000703A2025642F362028736B697070656417
:1009F000290A50494E44412074656D7065726174D6
:100A00007572653A202564205A20736869667420DF
:100A1000286D6D293A300A000A5A45524F3A20256E
:100A20002E33660A0073746172742074656D70658C
:100A30007261747572653A20252E31660A0025644C
:100A40002020252E326600255320583A20252E35A9
:100A50006620593A20252E3566205A3A20252E3513
:100A6000660A00536C6565702E2E2E0045303A25BF
:100A7000642052504D0A50524E303A256420525054
:100A80004D0A00312F3900002045535000204E53AD
:100A90005000204F464600204F4E00505630310047
:100AA000205B4D505D2000256920686F75727320B2
:100AB0002569206D696E75746573005258207469DC
:100AC0006D656F7574004D333130004D313132003A
:100AD0004D3131300046756C6C205258204275669D
:100AE0006665720053657474696E67732053746F22
:100AF0007265640053746F72656420736574746901
:100B00006E6773207265747269657665640048610A
:100B10007264636F6465642044656661756C7420FB
:100B200053657474696E6773204C6F61646564000B
:100B3000563200000000C8420000C8420000C8430E
:100B400000000543000048430000484300004041C6
:100B50000000F042E8030000E8030000C8000000C5
:100B60008813000000409C4400409C4400000000AA
:100B700000000000204E0000000020410000204145
:100B8000CDCCCC3E000090400000000000000000F2
:100B900000000000CDCCCC3E3D0A8141FF08433E21
:100BA000B099AB438F42FC42E65A343F4C62B045A9
:100BB000000000000040400000344200000000003F
:100BC00000000000000041000000E03F00002C4356
:100BD00000002C43000040410000F042C003000030
:100BE000C0030000C800000088130000101010109F
:100BF00000409C440000803F0000003F19140000AA
:100C00000020307800203078006572726F723A20D0
:100C100000443233202D20656D657267656E6379FF
:100C20002073657269616C2064756D700043757323
:100C3000746F6D004E796C6F6E5041005361746932
:100C40006E20200054657874757200536D6F6F7458
:100C50006800312E3000312E3500554E4B4E4F5727
:100C60004E004C413130433A204C696E6561722030
:100C7000416476616E6365206D6F64653A20004C57
:100C8000413130433A2041646A757374656420458C
:100C90002D4A65726B3A20003E0FA8AF00480069EC
:100CA000960000DF6025555887680427F2E0005E53
:100CB0003403CC1960F33C0EF88F00DB08029492E9
:100CC000003E1C079A8700E524008528527E060016
:100CD0001BE4007E781270787061F812788F88417A
:100CE000784270787061782570787061F850788FEC
:100CF00088D1F02527078761F025278F88412C0DA3
:100D000027AA50D1BC0707871161BE788F8811418F
:100D1000785270787061F852788F88412012788804
:100D20007063205278887063485278888743031133
:100D300017997064181278F870654412F8F8F04545
:100D4000184278F87065182578F87065185278F8A8
:100D50007065185078F870650C078F872365A20FAF
:100D60008F8F114500120622706900120722274951
:100D70000025062270690025072227490012062255
:100D8000276C026236A2706C40456C44704C036262
:100D90002222706C43888888F04C7812BC88806E60
:100DA0007852BC88806E38127888706F7812788894
:100DB000874F38427888706F38257888706F3A008E
:100DC00079AC786F3D079AAC786F7850788887EF68
:100DD00039497888706F0852BC8880729852F88FB1
:100DE000985220127870F07348127863875320521B
:100DF0007870F0734852786387531007870F247315
:100E000012786387245360699A988BE22304E44440
:100E10003074104E444324747C12888960753C50B1
:100E200088887055782528896075794908896075A2
:100E30003C12887070790C12885222594412F124A5
:100E4000F07A4452F124F07A8C52F0368F5A4420D2
:100E5000F124F07A00401454CDCCCC3D0AD7233C89
:100E600017B7D13877CC2B329595E6241FB14F0AAE
:100E7000000020410000C84200401C4620BCBE4C7F
:100E8000CA1B0E5AAEC59D744E414E494E460000D7
:100E90007A4300005243000052430000000000006B
:100EA00080C09A99193E00000000000080C09A9905
:100EB000193E20503A002042403A0020403A00209B
:100EC0002F002054303A00202F0020423A00202FDB
:100ED00000543A002553457863657373697665203D
:100EE000626564206C6576656C696E6720636F72FD
:100EF00072656374696F6E3A202569206D6963724B
:100F00006F6E730A00536F6D652070726F626C654F
:100F10006D20656E636F756E74657265642C205A02
:100F20002D6C6576656C696E6720656E666F7263A1
:100F30006564202E2E2E004D657368206265642046
:100F40006C6576656C696E67206661696C65642E98
:100F500020506C656173652072756E205A20636144
:100F60006C6962726174696F6E2E004865617469A4
:100F70006E672064697361626C65642062792073B6
:100F800061666574792074696D65722E00472D6302
:100F90006F646520736C6963656420666F7220619D
:100FA00020646966666572656E74206C6576656C32
:100FB0002E20506C656173652072652D736C6963BA
:100FC0006520746865206D6F64656C206167616978
:100FD0006E2E205072696E742063616E63656C6C56
:100FE00065642E00472D636F646520736C696365CB
:100FF0006420666F72206120646966666572656E42
:1010000074206C6576656C2E20436F6E74696E7506
:10101000653F00472D636F646520736C6963656489
:1010200020666F722061206E657765722066697236
:101030006D776172652E20506C65617365207570E7
:101040006461746520746865206669726D77617289
:10105000652E205072696E742063616E63656C6CDE
:1010600065642E00472D636F646520736C6963654A
:101070006420666F722061206E65776572206669F4
:10108000726D776172652E20436F6E74696E75653F
:101090003F00472D636F646520736C69636564204E
:1010A000666F72206120646966666572656E742081
:1010B0007072696E74657220747970652E20506C40
:1010C000656173652072652D736C69636520746852
:1010D00065206D6F64656C20616761696E2E2050BC
:1010E00072696E742063616E63656C6C65642E005A
:1010F000472D636F646520736C6963656420666F58
:1011000072206120646966666572656E7420707213
:10111000696E74657220747970652E20436F6E74E9
:10112000696E75653F005072657373207468652041
:101130006B6E6F6220746F207072656865617420D9
:101140006E6F7A7A6C6520616E6420636F6E74696D
:101150006E75652E00506C656173652070726573E5
:101160007320746865206B6E6F6220746F20756EDB
:101170006C6F61642066696C616D656E7400616E90
:101180006420707265737320746865206B6E6F6283
:1011900000496E736572742066696C616D656E746A
:1011A00000436F6C6F72206E6F7420636F72726594
:1011B00063740046696C616D656E74206E6F742097
:1011C0006C6F61646564004368616E676564206389
:1011D0006F72726563746C79004C6F6164696E67DD
:1011E00020636F6C6F72004368616E676520737572
:1011F00063636573732100506C65617365206F7064
:10120000656E2069646C657220616E642072656D24
:101210006F76652066696C616D656E74206D616EB8
:1012200075616C6C792E005761732066696C616D15
:10123000656E7420756E6C6F616420737563636591
:10124000737366756C3F00506C65617365207570D3
:1012500067726164652E004E6577206669726D77EE
:101260006172652076657273696F6E20617661695F
:101270006C61626C653A0057616974696E672066DB
:101280006F722050494E44412070726F6265206336
:101290006F6F6C696E6700506C6561736520776174
:1012A0006974004E6F206D6F76652E00576169740A
:1012B00020666F7220757365722E2E2E0053746136
:1012C000626C6520616D6269656E742074656D7015
:1012D000657261747572652032312D323643206932
:1012E00073206E6565646564206120726967696456
:1012F000207374616E642069732072657175697200
:1013000065642E00506C656173652072756E20589F
:10131000595A2063616C6962726174696F6E2066EC
:10132000697273742E00426564206C6576656C6921
:101330006E67206661696C65642E2053656E736FFD
:1013400072206469646E27742074726967676572BD
:101350002E20446562726973206F6E206E6F7A7AF8
:101360006C653F2057616974696E6720666F7220F3
:1013700072657365742E00426564206C6576656CD9
:10138000696E67206661696C65642E20546F6F20FA
:101390006D75636820766172696174696F6E20662D
:1013A000726F6D20656570726F6D206D657368007A
:1013B000426564206C6576656C696E67206661695C
:1013C0006C65642E2053656E736F7220747269674A
:1013D000676572656420746F6F20736F6F6E002095
:1013E00020004D6561737572656420706F696E745D
:1013F000733A005A20736561726368206865696793
:1014000068743A20352E3066004E756D20582C5980
:101410003A20372C37004D65736820626564206C74
:101420006576656C696E67206E6F742061637469A0
:1014300076652E0020453A00205A3A0020593A009D
:1014400020453A00205A3A0020593A00583A0020E4
:101450002D3E200053706F6F6C4A6F696E3A20000A
:101460002C2000496E616374697669747920536831
:101470007574646F776E004B494C4C45442E005098
:1014800072696E7465722068616C7465642E206B7D
:10149000696C6C28292063616C6C656421005A209A
:1014A0006C6976652061646A757374206F75742049
:1014B0006F662072616E67652E2053657474696E65
:1014C0006720746F20302E20436C69636B20746F2B
:1014D00020636F6E74696E75652E005A206C697694
:1014E000652061646A757374206F7574206F66205F
:1014F00072616E67652E2053657474696E6720741F
:101500006F20300020453A3020423A00543A0062C1
:101510007573793A2070617573656420666F722007
:10152000696E70757400627573793A2070617573B5
:10153000656420666F7220757365720062757379D9
:101540003A2070726F63657373696E6700736572BA
:1015500069616C2064756D702000496E76616C69FC
:1015600064205420636F64652E004475706C696359
:1015700061746520542D636F64652069676E6F72B6
:1015800065642E00416476616E6365204B3D004BBF
:10159000206F7574206F6620616C6C6F77656420B6
:1015A00072616E676521004D4B322E3553004D4BF5
:1015B000322E35534D4D553253001C4FFC00253310
:1015C000642F2533640025336400200A200A200A92
:1015D000200025534172632053657474696E6773EC
:1015E0003A20503A4D6178206C656E677468286DBA
:1015F0006D2920533A4D696E206C656E67746820C2
:10160000286D6D29204E3A436F7272656374696F5D
:101610006E7320523A4D696E207365676D656E7406
:101620007320463A5365676D656E74732F736563F7
:101630002E0A255320204D3231342050252E32667B
:101640002053252E3266204E2564205225642046E4
:1016500025640A00255346696C616D656E742073BC
:10166000657474696E67733A2044697361626C656E
:10167000640A00255346696C616D656E742073655C
:101680007474696E67733A0A25532020204D3230F6
:10169000302044252E32660A00255352657472614B
:1016A00063743A20533D4C656E67746820286D6DF5
:1016B0002920463A537065656420286D6D2F6D2989
:1016C000205A3A205A4C69667420286D6D290A25E3
:1016D000532020204D3230372053252E32662046AD
:1016E000252E3266205A252E32660A25535265630E
:1016F0006F7665723A20533D4578747261206C654F
:101700006E67746820286D6D2920463A53706565B0
:101710006420286D6D2F6D290A25532020204D321D
:1017200030382053252E32662046252E32660A2573
:10173000534175746F2D526574726163743A20530E
:101740003D3020746F2064697361626C652C2031B8
:1017500020746F20696E746572707265742065788C
:1017600074727564652D6F6E6C79206D6F7665731C
:10177000206173207265747261637473206F7220CC
:101780007265636F7665726965730A255320202040
:101790004D323039205325640A00255350494420E6
:1017A000686561746265642073657474696E6773DB
:1017B0003A0A25532020204D3330342050252E3234
:1017C000662049252E32662044252E32660A0025E1
:1017D000535049442073657474696E67733A0A25DF
:1017E000532020204D3330312050252E32662049A1
:1017F000252E32662044252E32660A002553537466
:101800006570732070657220756E69743A0A25538D
:1018100020204D39322058252E32662059252E326F
:1018200066205A252E32662045252E32660A25531B
:101830004D6178696D756D2066656564726174656A
:101840007320286D6D2F73293A0A255320204D32BD
:1018500030332058252E32662059252E3266205AE4
:10186000252E32662045252E32660A25534D617895
:10187000696D756D20616363656C65726174696F14
:101880006E20286D6D2F7332293A0A255320204D82
:101890003230312058256C752059256C75205A2519
:1018A0006C752045256C750A2553416363656C652D
:1018B000726174696F6E3A20503D7072696E742C5B
:1018C00020523D726574726163742C20543D7472B1
:1018D0006176656C0A255320204D32303420502526
:1018E0002E32662052252E32662054252E32660A6C
:1018F0002553416476616E63656420766172696127
:10190000626C65733A20533D4D696E20666565646F
:101910007261746520286D6D2F73292C20543D4D04
:10192000696E2074726176656C20666565647261AB
:10193000746520286D6D2F73292C20423D6D696ED2
:10194000696D756D207365676D656E742074696D62
:101950006520287573292C20583D6D6178696D7557
:101960006D205859206A65726B20286D6D2F732980
:101970002C20205A3D6D6178696D756D205A206A62
:1019800065726B20286D6D2F73292C2020453D6DCD
:101990006178696D756D2045206A65726B20286DD0
:1019A0006D2F73290A255320204D323035205325C1
:1019B0002E32662054252E32662042256C75205822
:1019C000252E32662059252E3266205A252E326663
:1019D0002045252E32660A2553486F6D65206F66B7
:1019E0006673657420286D6D293A0A255320204DB1
:1019F0003230362058252E32662059252E32662068
:101A00005A252E32660A004361703A25533A2563FF
:101A10000A0050525553415F4D4D553200455854C0
:101A2000454E4445445F4D3230004155544F524578
:101A3000504F52545F504F534954494F4E004155F7
:101A4000544F5245504F52545F46414E53004155FA
:101A5000544F5245504F52545F54454D500000442E
:101A6000656C6574696F6E206661696C65642C20B5
:101A700046696C653A200046696C652064656C6552
:101A80007465643A004E6F74205344207072696E1E
:101A900074696E67005072696E7420736176656454
:101AA000005344207072696E7420706175736564B0
:101AB000002533642F25336400667600746878004F
:101AC00050524E0022283229006E6F2076616C69D8
:101AD0006420636F6D6D616E64007A65726F726908
:101AE0007A656400666163746F72792072657374DD
:101AF0006F72656400696E6465782C2074656D7022
:101B00002C2075737465702C20756D0050494E44FF
:101B1000412063616C207374617475733A200050C6
:101B20003A005761697420666F722050494E4441F3
:101B3000207461726765742074656D70657261747C
:101B40007572653A00204100205000204200204C70
:101B500000205200205A00204E4F5420494E495434
:101B600049414C495A45440053686565742000203A
:101B70005A2056414C5545204F5554204F4620522F
:101B8000414E474500496E76616C69642073686513
:101B900065742049442E20416C6C6F7765643A204F
:101BA000302E2E004155544F004C414E4720534596
:101BB0004C20464F524345440020643A0020693A85
:101BC0000020703A0020643A0020693A0020703A00
:101BD00000256925250A00256925250A00222831C6
:101BE00029002F2F00002045585452554445525F7C
:101BF000434F554E543A3100204D414348494E45DC
:101C00005F545950453A00312E30002062617365AF
:101C100064206F6E204D61726C696E204649524D92
:101C2000574152455F55524C3A68747470733A2F5D
:101C30002F6769746875622E636F6D2F707275738C
:101C40006133642F50727573612D4669726D7761CF
:101C500072652050524F544F434F4C5F564552537C
:101C6000494F4E3A00383038323438303262005FF3
:101C70000038313134002B004649524D574152450E
:101C80005F4E414D453A50727573612D4669726DD4
:101C90007761726520004D3131332053006F6B2026
:101CA0000020636D2E00206D696E20005354415456
:101CB0005320006E2F61003F546F7368696261208A
:101CC000466C6173684169722047657449502066AB
:101CD00061696C65640A00000125301D0CFF243128
:101CE0001C0BFF232F1B0A17FF0406222B1A033697
:101CF0003535382569206D696E2C2025692073657E
:101D00006300496E76616C6964204D20636F646581
:101D10003A2025730A0050494E44412070726F6288
:101D2000652063616C6962726174696F6E2073749F
:101D3000617274004E6F2050494E444120746865B2
:101D4000726D6973746F7200736574006E6F7A7A66
:101D50006C65004D424C004652004C7A004C616E5E
:101D60006700315F37356D6D5F4D4B3235532D5206
:101D7000414D426F3133612D4533445245564F003A
:101D800052657600332E31342E302D444556312B9A
:101D9000383131340046697200534E20696E7661E5
:101DA0006C696400534E005245534554004D4D55E7
:101DB0005245530075766C6F0046414E0046414EC9
:101DC00050494E54535400505255534100252E3122
:101DD0003053200025346400457872656D652073AA
:101DE00070616E206F6620746865205A2076616C81
:101DF000756573210025642F390047312058313033
:101E00002059313830204634303030004731205AA4
:101E10003130204631333030004D313430205330B2
:101E2000004D31303420533000473120452D302EC5
:101E3000303735204632313030004731204634309B
:101E40003030004D323034205331303030004731A3
:101E5000205A3520463732303000473120452D3169
:101E60002E3520463231303000473930004731209E
:101E70005835204534204631303030004731205A23
:101E8000302E322046313030300047312058353541
:101E90002045323520463134303000473120592D2D
:101EA0003220463130303000473120583234302033
:101EB00045323520204632323030004731205A300A
:101EC0002E33204631303030004731205835352010
:101ED00045382046323030300047312058352045D3
:101EE00032392046313830300047312058353520DE
:101EF00045323920463130373300473932204530BA
:101F000000473238004D313039004D313930004D05
:101F100031303700202030002020310046494E4427
:101F2000410050494E44410057697A61726420650E
:101F30006E642073746174653A2025640A005370DE
:101F40006F6F6C4A6F696E004669726D776172657A
:101F500000537570657250494E44410048426564B3
:101F6000206F6E206C6F616400466C61736841691C
:101F700072004572723A484F54454E442046414ED5
:101F8000204552524F52002F2F616374696F6E3A91
:101F9000726573756D6564002F2F616374696F6E70
:101FA0003A726573756D65002F2F616374696F6E8A
:101FB0003A7265616479002F2F616374696F6E3ABC
:101FC0006E6F745F7265616479002F2F616374694D
:101FD0006F6E3A63616E63656C004F4B004C434417
:101FE00020737461747573206368616E6765640043
:101FF000534420636172642072656C65617365642B
:10200000002F2F616374696F6E3A7374617274008C
:102010004D3834004D373032004732382057004DAC
:102020003530300042616420696E7465727275707B
:1020300074005761746368646F672074696D656FBD
:10204000757400537461746963206D656D6F727986
:10205000206861730A6265656E206F7665727772BB
:10206000697474656E004649524D5741524520438C
:1020700052415348210A437261736820726561734B
:102080006F6E3A0A002020506C616E6E6572427568
:102090006666657242797465733A200020467265FF
:1020A00065204D656D6F72793A2000207C20417566
:1020B00074686F723A2000204C617374205570640C
:1020C000617465643A200020536F667477617265AD
:1020D00020526573657400205761746368646F678C
:1020E000205265736574002042726F776E206F75A1
:1020F00074205265736574002045787465726E6152
:102100006C20526573657400506F7765725570006E
:102110006572726F722077726974696E6720746F6E
:102120002066696C6500446F6E6520736176696E28
:10213000672066696C652E006F6B004D6561737575
:1021400072656420736B6577733A20256620256677
:102150000A0046697474696E67206661696C65641B
:10216000203D3E2063616C6962726174696F6E200C
:102170006661696C65642E0A0043616C6962726114
:1021800074696F6E20737563636573732E0A004103
:102190006C6C20342063616C6962726174696F6E6B
:1021A00020706F696E747320666F756E642E0A00FE
:1021B000312F3400312F3400312F39001000C90283
:1021C00010012C014001220170011801B0010E0123
:1021D000F00104015002FA00B002F0003003E60002
:1021E000D003DC009004D2007005C800A006BE0039
:1021F0000008B400B009AA00D00BA000600E960041
:1022000060118C000015820020197800C01D6E003E
:10221000A0226400B0275A00902C500000314600E4
:10222000E0343C0010383200903A2800603C1E0038
:10223000A03D1400803E0A00203F000058595A205B
:1022400063616C6962726174696F6E20616C6C208D
:1022500072696768742E20536B65772077696C6CA0
:1022600020626520636F72726563746564206175B6
:10227000746F6D61746963616C6C792E0058595A82
:102280002063616C6962726174696F6E20616C6C4D
:102290002072696768742E20582F59206178657301
:1022A0002061726520736C696768746C7920736B48
:1022B000657765642E20476F6F64206A6F62210026
:1022C00058595A2063616C6962726174696F6E203B
:1022D0006F6B2E20582F59206178657320617265CD
:1022E0002070657270656E646963756C61722E2012
:1022F000436F6E67726174756C6174696F6E732180
:1023000000526561722073696465205BE46D5D0055
:1023100046726F6E7420736964655BE46D5D005294
:102320006967687420736964655BE46D5D004C6582
:1023300066742073696465205BE46D5D00536574A9
:102340002074656D70657261747572653A004172D2
:1023500065206C65667420616E64207269676874BC
:10236000205A2D63617272696167657320616C6CBC
:102370002075703F0043616C6962726174696E67B9
:102380002058595A2E20526F746174652074686504
:10239000206B6E6F6220746F206D6F76652074689D
:1023A00065205A20636172726961676520757020CB
:1023B000746F2074686520656E642073746F70702C
:1023C0006572732E20436C69636B207768656E209D
:1023D000646F6E652E0043616C6962726174696E30
:1023E00067205A2E20526F746174652074686520CE
:1023F0006B6E6F6220746F206D6F766520746865F8
:10240000205A20636172726961676520757020745B
:102410006F2074686520656E642073746F707065DA
:1024200072732E20436C69636B207768656E20643D
:102430006F6E652E0050494E44412063616C6962A5
:10244000726174696F6E206661696C6564005049E1
:102450004E44412063616C6962726174696F6E20E1
:1024600069732066696E697368656420616E6420B3
:102470006163746976652E2049742063616E206201
:10248000652064697361626C656420696E206D65A6
:102490006E752053657474696E67732D3E50494E96
:1024A00044412063616C2E004578747275646572D6
:1024B000004D6F7665205A004D6F76652059004DAE
:1024C0006F7665205800536865657420252E377334
:1024D0000A5A206F66667365743A20252B312E33B5
:1024E000666D6D0A2563436F6E74696E75650A25A6
:1024F00063526573657400506C65617365206C6F21
:1025000061642066696C616D656E742066697273C2
:10251000742E003E43616E63656C0052756E6E6989
:102520006E672057697A6172642077696C6C2064E9
:10253000656C6574652063757272656E7420636185
:102540006C6962726174696F6E20726573756C7408
:102550007320616E642073746172742066726F6D93
:102560002074686520626567696E6E696E672E20EB
:10257000436F6E74696E75653F0050726568656182
:1025800074696E67206E6F7A7A6C652E20506C6568
:1025900061736520776169742E00506C65617365A5
:1025A00020696E736572742066696C616D656E7406
:1025B00020696E746F207468652065787472756424
:1025C00065722C207468656E207072657373207458
:1025D0006865206B6E6F6220746F206C6F61642081
:1025E00069742E00506C6561736520696E73657245
:1025F000742066696C616D656E7420696E746F20FD
:102600007468652066697273742074756265206FE2
:102610006620746865204D4D552C207468656E20C9
:10262000707265737320746865206B6E6F622074BE
:102630006F206C6F61642069742E0054686520708F
:1026400072696E7465722077696C6C207374617244
:1026500074207072696E74696E672061207A696790
:102660002D7A6167206C696E652E20526F746174DB
:102670006520746865206B6E6F6220756E74696C7E
:1026800020796F7520726561636820746865206FBA
:102690007074696D616C206865696768742E204389
:1026A0006865636B20746865207069637475726512
:1026B0007320696E207468652068616E64626F6F54
:1026C0006B202843616C6962726174696F6E20636C
:1026D000686170746572292E0053656C656374209F
:1026E00074656D7065726174757265207768696371
:1026F00068206D61746368657320796F7572206DF1
:102700006174657269616C2E0053656C6563742039
:10271000612066696C616D656E7420666F722074ED
:102720006865204669727374204C61796572204334
:10273000616C6962726174696F6E20616E6420738E
:10274000656C65637420697420696E207468652007
:102750006F6E2D73637265656E206D656E752E00EC
:102760004E6F7720492077696C6C2063616C6962D9
:10277000726174652064697374616E63652062655B
:10278000747765656E20746970206F662074686563
:10279000206E6F7A7A6C6520616E64206865617462
:1027A00062656420737572666163652E00506C65A6
:1027B00061736520636865636B206F757220686163
:1027C0006E64626F6F6B20616E642066697820743E
:1027D00068652070726F626C656D2E205468656E3E
:1027E00020726573756D65207468652057697A611C
:1027F0007264206279207265626F6F74696E6720FF
:10280000746865207072696E7465722E00416C6C1C
:1028100020697320646F6E652E2048617070792086
:102820007072696E74696E672100596F75206361FB
:102830006E20616C7761797320726573756D6520A8
:102840007468652057697A6172642066726F6D20C2
:1028500043616C6962726174696F6E202D3E20570E
:10286000697A6172642E00496620796F752068610B
:102870007665206164646974696F6E616C2073743D
:1028800065656C207368656574732C2063616C6981
:102890006272617465207468656972207072657314
:1028A00065747320696E2053657474696E67732054
:1028B0002D204857205365747570202D2053746562
:1028C000656C207368656574732E00506C65617368
:1028D0006520636C65616E20686561746265642063
:1028E000616E64207468656E207072657373207405
:1028F0006865206B6E6F622E00446F20796F7520C3
:1029000077616E7420746F20726570656174206CDD
:10291000617374207374657020746F2072656164D4
:102920006A7573742064697374616E63652062658F
:10293000747765656E206E6F7A7A6C6520616E645F
:1029400020686561746265643F0053656C656374FB
:10295000206E6F7A7A6C652070726568656174208C
:1029600074656D70657261747572652077686963EE
:1029700068206D61746368657320796F7572206D6E
:102980006174657269616C2E0049732066696C61BF
:102990006D656E74206C6F616465643F004E6F7787
:1029A00020492077696C6C207072656865617420BD
:1029B0006E6F7A7A6C6520666F7220504C412E00E3
:1029C000492077696C6C2072756E207A2063616C87
:1029D0006962726174696F6E206E6F772E004E6F40
:1029E000772072656D6F76652074686520746573F5
:1029F00074207072696E742066726F6D20737465D6
:102A0000656C2073686565742E00506C6561736534
:102A10002072656D6F7665207368697070696E6786
:102A20002068656C706572732066697273742E001D
:102A3000492077696C6C2072756E2078797A2063F2
:102A4000616C6962726174696F6E206E6F772E209F
:102A500049742077696C6C2074616B6520757020F7
:102A6000746F203234206D696E732E004669727364
:102A7000742C20492077696C6C2072756E20746804
:102A8000652073656C667465737420746F20636869
:102A900065636B206D6F737420636F6D6D6F6E2057
:102AA000617373656D626C792070726F626C656DB5
:102AB000732E0048692C204920616D20796F757252
:102AC000204F726967696E616C2050727573612066
:102AD0006933207072696E7465722E20576F756C41
:102AE0006420796F75206C696B65206D6520746F4B
:102AF00020677569646520796F75207468726F75D9
:102B00006768207468652073657475702070726FD3
:102B1000636573733F0048692C204920616D2079FB
:102B20006F7572204F726967696E616C20507275A3
:102B30007361206933207072696E7465722E20494A
:102B40002077696C6C20677569646520796F7520E2
:102B50007468726F75676820612073686F72742083
:102B600073657475702070726F636573732C206960
:102B70006E20776869636820746865205A2D6178D3
:102B800069732077696C6C2062652063616C69628F
:102B900072617465642E205468656E2C20796F759F
:102BA0002077696C6C20626520726561647920749D
:102BB0006F207072696E742E0050617573650043EA
:102BC0006F6E742E00465320416374696F6E004629
:102BD0002E206175746F6C6F616400462E207275D3
:102BE0006E6F757400437574746572004175746F0F
:102BF00020706F776572004869676820706F77652D
:102C000072004D6F64650046616E20737065656487
:102C1000004265640046616E7320636865636B0003
:102C20004D6F64656C005374726963740057617210
:102C30006E004E6F7A7A6C6500436865636B730053
:102C40004E6F6E6500416C70686162657400546916
:102C50006D6500536F7274004E6F726D616C00533E
:102C6000442063617264004E6F7A7A6C65206368F9
:102C7000616E6765004857205365747570004C6F2E
:102C80006164696E6720546573740044697361629E
:102C90006C65207374657070657273004D6F766536
:102CA00020617869730054656D7065726174757226
:102CB000650050494E44412063616C2E005265739B
:102CC00065742058595A2063616C6962722E0053F2
:102CD000686F7720656E642073746F70730050495D
:102CE000442063616C6962726174696F6E00426551
:102CF00064206C6576656C20636F72726563740026
:102D00004D65736820426564204C6576656C696E1C
:102D1000670043616C696272617465205A004361A7
:102D20006C6962726174652058595A0053656C660B
:102D3000746573740057697A617264004C6F6164E2
:102D400020416C6C00506C656173652070756C6C13
:102D5000206F75742066696C616D656E7420696D95
:102D60006D6564696174656C7900526573657400A2
:102D700052656E616D65004669727374206C61798D
:102D800065722063616C2E0053656C65637400533B
:102D90007465656C20736865657473005375707035
:102DA0006F7274004661696C207374617473204D96
:102DB0004D55004661696C207374617473005374DF
:102DC00061746973746963730043616C69627261F1
:102DD00074696F6E004C6F61642066696C616D652B
:102DE0006E74004175746F4C6F61642066696C612C
:102DF0006D656E7400556E6C6F61642066696C6100
:102E00006D656E74004C6F616420746F206E6F7A14
:102E10007A6C65005072656C6F616420746F204D30
:102E20004D55004E6F7A7A6C6520642E004E6F20EF
:102E300053442063617264005072696E742066723C
:102E40006F6D20534400526573756D652070726913
:102E50006E74005061757365207072696E740053F2
:102E6000657420526561647900536574206E6F74D7
:102E70002052656164790050726568656174005420
:102E8000756E65004C6976652061646A757374209F
:102E90005A0052657072696E7400496E666F2073D5
:102EA000637265656E004173736973740053696C76
:102EB000656E74004F6E6365004C6F756400536FF0
:102EC000756E640046696C2E2073656E736F7200B8
:102ED0004368616E67652066696C616D656E74003C
:102EE000466C6F77005370656564004E2F41004D4E
:102EF00061676E65747320636F6D702E005A2D705C
:102F0000726F6265206E722E004D657368005365A6
:102F10007474696E67730053746F70207072696E99
:102F20007400436865636B696E672066696C650051
:102F300046696C6520696E636F6D706C6574652E93
:102F400020436F6E74696E756520616E7977617963
:102F50003F008452656672657368004D61696E005A
:102F600057616974696E6720666F72206E6F7A7A36
:102F70006C6520616E642062656420636F6F6C69AC
:102F80006E670053656C6674657374204F4B005315
:102F9000656C667465737420737461727400537722
:102FA00061707065640046726F6E742F6C65667434
:102FB0002066616E730041786973004178697320FF
:102FC0006C656E677468004C6F6F73652070756C0C
:102FD0006C657900456E6473746F70206E6F742039
:102FE00068697400456E6473746F70004D6F746F20
:102FF0007200456E6473746F707300576972696E06
:1030000067206572726F72004265642F4865617453
:103010006572004E6F7420636F6E6E6563746564D5
:10302000004865617465722F546865726D697374C8
:103030006F7200506C6561736520636865636B3AFD
:103040000053656C6674657374206572726F7221CB
:103050000046696C616D656E742073656E736F7286
:10306000005072696E742066616E3A00486F746534
:103070006E642066616E3A0043616C6962726174CD
:10308000696E6720686F6D650053656C6674657363
:1030900074206661696C656400416C6C20636F72BA
:1030A0007265637400436865636B696E672073655E
:1030B0006E736F727300436865636B696E67206837
:1030C0006F74656E6400436865636B696E67206248
:1030D000656400436865636B696E67205A20617898
:1030E000697300436865636B696E67205920617876
:1030F000697300436865636B696E67205820617867
:10310000697300436865636B696E6720656E6473FD
:10311000746F707300436172642072656D6F7665C1
:1031200064004261636B004E6F7A7A6C652063685D
:10313000616E6765643F004E6F7A7A6C65206973D3
:1031400020686F7421205761697420666F72206354
:103150006F6F6C646F776E2E005049442063616C12
:103160002E2066696E697368656400504944206367
:10317000616C2E005072696E7420706175736564A5
:10318000005072696E742061626F72746564004EE3
:103190006F7A7A6C65206469616D6574657220640C
:1031A0006966666572732066726F6D20746865204B
:1031B000472D636F64652E20506C656173652063D5
:1031C0006865636B207468652076616C756520693D
:1031D0006E2073657474696E67732E205072696E09
:1031E000742063616E63656C6C65642E004E6F7A4B
:1031F0007A6C65206469616D6574657220646966C6
:10320000666572732066726F6D2074686520472D45
:10321000636F64652E20436F6E74696E75653F0041
:103220005468657265206973207374696C6C2061E1
:10323000206E65656420746F206D616B65205A2077
:1032400063616C6962726174696F6E2E20506C6587
:1032500061736520666F6C6C6F7720746865206D94
:10326000616E75616C2C20636861707465722046B4
:10327000697273742073746570732C207365637442
:10328000696F6E2043616C6962726174696F6E2050
:10329000666C6F772E005072696E7465722068617B
:1032A00073206E6F74206265656E2063616C696265
:1032B0007261746564207965742E20506C65617349
:1032C0006520666F6C6C6F7720746865206D616E29
:1032D00075616C2C20636861707465722046697238
:1032E00073742073746570732C2073656374696FD5
:1032F0006E2043616C6962726174696F6E20666CE6
:103300006F772E0053656C66746573742077696CF3
:103310006C2062652072756E20746F2063616C6929
:103320006272617465206163637572617465207394
:10333000656E736F726C657373207265686F6D690B
:103340006E672E004F6C642073657474696E6773CA
:1033500020666F756E642E2044656661756C7420FE
:103360005049442C20457374657073206574632E36
:103370002077696C6C206265207365742E0057613C
:10338000726E696E673A20626F7468207072696E3F
:10339000746572207479706520616E64206D6F743D
:1033A000686572626F617264207479706520636809
:1033B000616E6765642E005761726E696E673A20B0
:1033C0007072696E746572207479706520636861CB
:1033D0006E6765642E005761726E696E673A206D84
:1033E0006F74686572626F617264207479706520B1
:1033F0006368616E6765642E0054657374696E67F7
:103400002066696C616D656E740053686565740053
:103410004E6F74207370696E6E696E6700537069C9
:103420006E6E696E67004C65667420686F74656EB9
:10343000642066616E3F0046726F6E742070726920
:103440006E742066616E3F0046616E207465737411
:103450000046696C616D656E740053656C656374DC
:103460002066696C616D656E743A0058595A206324
:10347000616C6962726174696F6E206661696C6506
:10348000642E2052696768742066726F6E742063C0
:10349000616C6962726174696F6E20706F696E74BD
:1034A000206E6F7420726561636861626C652E00C6
:1034B00058595A2063616C6962726174696F6E2039
:1034C0006661696C65642E2046726F6E742063615C
:1034D0006C6962726174696F6E20706F696E74736B
:1034E000206E6F7420726561636861626C652E0086
:1034F00058595A2063616C6962726174696F6E20F9
:103500006661696C65642E20506C6561736520632B
:103510006F6E73756C7420746865206D616E756173
:103520006C2E0058595A2063616C6962726174692B
:103530006F6E20636F6D70726F6D697365642E209E
:1035400052696768742066726F6E742063616C697B
:1035500062726174696F6E20706F696E74206E6F35
:103560007420726561636861626C652E0058595AF7
:103570002063616C6962726174696F6E20636F6D44
:1035800070726F6D697365642E2046726F6E742061
:1035900063616C6962726174696F6E20706F696ECD
:1035A0007473206E6F7420726561636861626C650C
:1035B0002E0058595A2063616C6962726174696F98
:1035C0006E206661696C65642E20426564206361CB
:1035D0006C6962726174696F6E20706F696E7420BD
:1035E000776173206E6F7420666F756E642E005065
:1035F0006C6561736520706C6163652073746565CB
:103600006C207368656574206F6E206865617462F4
:1036100065642E0044697374616E6365206265742D
:103620007765656E20746970206F66207468652008
:103630006E6F7A7A6C6520616E64207468652062B2
:103640006564207375726661636520686173206EBE
:103650006F74206265656E20736574207965742EC1
:1036600020506C6561736520666F6C6C6F77207499
:103670006865206D616E75616C2C20636861707483
:1036800065722046697273742073746570732C20A0
:1036900073656374696F6E204669727374206C6120
:1036A0007965722063616C6962726174696F6E2EF4
:1036B00000506C6163652061207368656574206FDC
:1036C0006620706170657220756E64657220746822
:1036D00065206E6F7A7A6C6520647572696E6720FA
:1036E0007468652063616C6962726174696F6E20D1
:1036F0006F66206669727374203420706F696E740F
:10370000732E20496620746865206E6F7A7A6C6526
:1037100020636174636865732074686520706170EC
:1037200065722C20706F776572206F6666207468F2
:1037300065207072696E74657220696D6D6564696B
:103740006174656C792E00506C65617365207265DB
:103750006D6F766520737465656C2073686565743C
:103760002066726F6D20686561746265642E004921
:103770007320737465656C207368656574206F6E63
:1037800020686561746265643F00536561726368B7
:10379000696E67206265642063616C69627261743E
:1037A000696F6E20706F696E74004D65617375721C
:1037B000696E67207265666572656E63652068650F
:1037C00069676874206F662063616C6962726174F6
:1037D000696F6E20706F696E7400506C65617365FF
:1037E00020636C65616E20746865206E6F7A7A6CF8
:1037F0006520666F722063616C6962726174696FC3
:103800006E2E20436C69636B207768656E20646F51
:103810006E652E004175746F20686F6D65002533ED
:10382000750050494E44412063616C696272617455
:10383000696F6E206661696C65642E20436F6E74DB
:10384000696E756520776974682070726573736935
:103850006E6720746865206B6E6F622E0050494E53
:1038600044412063616C6962726174696F6E2064A7
:103870006F6E652E20436F6E74696E756520776973
:103880007468207072657373696E67207468652050
:103890006B6E6F622E005A30005A31005930005959
:1038A0003100583000583100456E642073746F70D9
:1038B00073206469616700473830004D3435004D2E
:1038C0003435205A00473736004D373031205030DC
:1038D0000057697A6172642073746174653A2025B7
:1038E000640A004578706572696D656E74616C007C
:1038F000302E383000302E363000302E343000304C
:103900002E32350044697361626C65206661726DA8
:10391000206D6F6465005265736574204D4D5500D0
:103920004D4D55004D3434004739390044697361B9
:10393000626C65206661726D206D6F64653F00305A
:103940002E383000302E363000302E343000302EFD
:10395000323500473238205859004D203834008520
:103960002E2E002533642F30002533642F30006C59
:1039700063645F73656C66636865636B5F617869D8
:10398000732025642C2025640A00486F74656E64DA
:1039900000426564005A00590058002D2D2D2D2D30
:1039A0002D2D2D2D2D2D2D2D2D2D2D2D2D2D2D0074
:1039B000537570657250494E44413A000F1F291EDD
:1039C000211E191E0C1EFA1D47312058256420594E
:1039D00025642045252D2E3566004731204631309F
:1039E0003830004731205A252D2E33662046373295
:1039F000303000473120583530205931353500FA04
:103A00001E691EC0635A1E4E1E431E3A1E473120B9
:103A10005825642045252D2E336620463130303020
:103A200000E91ED91EC91EBB1EFA1EA81E9B1E8AB7
:103A30001E7C1E6D1E542564004731205A302E34E2
:103A400020463130303000473120592D3320463167
:103A5000303030000F1F0A1F051F011FFA1E4D389E
:103A6000342058590047312058313235205A3230ED
:103A70003020463130303000496E76616C69642008
:103A80005049442063616C2E20726573756C7473A9
:103A90002E204E6F742073746F72656420746F20D3
:103AA000454550524F4D2E004D3330312050252E7C
:103AB00032662049252E32662044252E3266004D7E
:103AC00033303320453020532533750052430044B2
:103AD0004556004245544100414C504841000000C9
:103AE0002100240027002A002D00300033000101AE
:103AF0000000040107010A0100002200250028003F
:103B00002B002E00310034000201000005010801E5
:103B10000B01000020002300260029002C002F00AC
:103B20003200000100000301060109010505050539
:103B3000070508080808020202020A0A0808040425
:103B40000404010101010101010103030303030353
:103B50000303040707070C0C0C0C0C0C0C0C0202E2
:103B6000020206060606060606060B0B0B0B0B0BDF
:103B70000B0B07070A0A0A0A0A0A050505040404CA
:103B80000808010210202008081020401020408062
:103B90000201020108040201010204081020408011
:103BA000804020100804020180040201804020109F
:103BB00008040201080402010102040810204080E8
:103BC00001020408102040801008040880102040E2
:103BD000044080102040048000000A0B02090C0DF4
:103BE0000E080703040100000000000000000000B0
:103BF00000000000000000000000000000000000C5
:103C00000000000012111000000000000000000081
:103C100000000000000000000000000000000000A4
:103C20000000000000000000000000000000332E33
:103C300031342E302D44455631000A204F726967C9
:103C4000696E616C2050727573612069330A20209F
:103C50002050727573612052657365617263680AE2
:103C60002532302E3230530053706F6F6C4A6F69BB
:103C70006E20697320006164635F696E697400205F
:103C80000A200A200A2000416C6C20446174610003
:103C90005365727669636520707265700053686958
:103CA0007070696E6720707265700053746174691A
:103CB0007374696373004C616E6775616765004575
:103CC000524153494E4720616C6C2064617461001D
:103CD000466163746F7279205245534554005052C7
:103CE000555341334446570003000E0000000100C5
:103CF00003000200000004005469727069747A398C
:103D00003300323032342D30372D30392031353ACE
:103D100030343A31340020332E31342E302D4445A6
:103D200056312B383131345F383038323438303214
:103D300062007374617274004D323900252D392E82
:103D400039535B0033332942000058419A998D4121
:103D500033335340200A200A20004D4D55323A009B
:103D60004D6561737572652063656E7465722020A0
:103D70000078797A63616C5F6D6561737572655FF8
:103D8000656E7465720A0078797A63616C5F73702E
:103D90006972616C382063783D25642063793D2524
:103DA00064207A303D256420647A3D256420726168
:103DB000646975733D25642061643D25640A00785B
:103DC000797A63616C5F7365617263685A206E6FA4
:103DD000207369676E616C0A20783D256C642079D8
:103DE0003D256C64207A3D256C640A00204F4E2DE1
:103DF0005349474E414C20617420783D2564207919
:103E00003D2564207A3D25642061643D25640A00D7
:103E100078797A63616C5F7365617263685A207840
:103E20003D256C6420793D256C64207A3D256C64C9
:103E30000A002530327800205B25662025665D204B
:103E40006D6D207061747465726E2063656E74654B
:103E5000720A00205B25662025665D5B25665D2075
:103E60006D6D20646976657267656E63650A000032
:103E700000F000F801FC03FE07FE07FE07FE07FC4A
:103E800003F801F000000000000000F000F801FC61
:103E900003FC03FC03FC03F801F0000000000078C1
:103EA000797A63616C5F6D6561737572655F6C656E
:103EB0006176650A00203C20005741524E494E472A
:103EC0003A2046726F6E7420706F696E74206E6F48
:103ED0007420726561636861626C652E205920638D
:103EE0006F6F7264696E6174653A00000000404152
:103EF0000000804000005C430000804000005C4304
:103F000000004443000040410000444325642F3436
:103F100000497465726174696F6E3A200043616C88
:103F20006962726174696F6E206661696C65642193
:103F300020436865636B2074686520617865732031
:103F4000616E642072756E20616761696E2E005526
:103F50006E6578706563746564206572726F722037
:103F60006F636375727265642E004D363030204683
:103F7000696C616D656E74204368616E67652E20A3
:103F80004C6F61642061206E65772066696C616D9D
:103F9000656E74206F7220656A656374207468654D
:103FA000206F6C64206F6E652E0052656D6F7665B4
:103FB0002074686520656A65637465642066696C51
:103FC000616D656E742066726F6D20746865206621
:103FD000726F6E74206F6620746865204D4D552E8B
:103FE0000046696C616D656E742064657465637408
:103FF000656420756E65787065637465646C792E90
:1040000020456E73757265206E6F2066696C616DF8
:10401000656E74206973206C6F616465642E204343
:104020006865636B207468652073656E736F727367
:1040300020616E6420776972696E672E00496E7424
:1040400065726E616C2072756E74696D6520657243
:10405000726F722E20547279207265736574746960
:104060006E6720746865204D4D55206F7220757005
:10407000646174696E6720746865206669726D7723
:104080006172652E004D4D5520465720766572733E
:10409000696F6E20697320696E636F6D70617469FA
:1040A000626C652077697468207072696E746572DD
:1040B0002046572E55706461746520746F207665B4
:1040C0007273696F6E20332E302E322E004D4D5597
:1040D000204669726D7761726520696E7465726ED3
:1040E000616C206572726F722C20706C65617365F3
:1040F00020726573657420746865204D4D552E00DF
:104100005265717565737465642066696C616D656F
:104110006E7420746F6F6C206973206E6F742061F1
:104120007661696C61626C65206F6E20746869737A
:104130002068617264776172652E20436865636BE5
:104140002074686520472D636F646520666F722058
:10415000746F6F6C20696E646578206F7574206F62
:10416000662072616E6765202854302D5434292EE4
:104170000043616E6E6F7420706572666F726D20A1
:1041800074686520616374696F6E2C2066696C6168
:104190006D656E7420697320616C7265616479204D
:1041A0006C6F616465642E20556E6C6F616420696C
:1041B000742066697273742E004D4D55206E6F74B5
:1041C00020726573706F6E64696E6720636F7272C0
:1041D0006563746C792E20436865636B2074686531
:1041E00020776972696E6720616E6420636F6E6EFE
:1041F0006563746F72732E004D4D55206E6F742081
:10420000726573706F6E64696E672E2043686563B4
:104210006B2074686520776972696E6720616E64CF
:1042200020636F6E6E6563746F72732E004D6F72D4
:10423000652064657461696C73206F6E6C696E656E
:104240002E005468652049646C65722063616E6E4F
:104250006F7420686F6D652070726F7065726C7915
:104260002E20436865636B20666F7220616E7974DF
:1042700068696E6720626C6F636B696E6720697432
:1042800073206D6F76656D656E742E0043616E27C9
:1042900074206D6F76652053656C6563746F722052
:1042A0006F722049646C65722E00546865205365F6
:1042B0006C6563746F722063616E6E6F7420686FDB
:1042C0006D652070726F7065726C792E2043686521
:1042D000636B20666F7220616E797468696E672007
:1042E000626C6F636B696E6720697473206D6F76A3
:1042F000656D656E742E004C6F6164696E67207425
:104300006F206578747275646572206661696C658A
:10431000642E20496E73706563742074686520662E
:10432000696C616D656E742074697020736861706A
:10433000652E20526566696E652074686520736518
:104340006E736F722063616C6962726174696F6E03
:104350002C206966206E65656465642E0053656C6B
:104360006563746F722063616E2774206D6F76656C
:104370002064756520746F2046494E444120646571
:1043800074656374696E6720612066696C616D6530
:104390006E742E204D616B652073757265206E6F93
:1043A0002066696C616D656E7420697320696E208A
:1043B00053656C6563746F7220616E642046494E6C
:1043C000444120776F726B732070726F7065726CEE
:1043D000792E0046696C616D656E742073656E732D
:1043E0006F722074726967676572656420746F6F9D
:1043F000206561726C79207768696C65206C6F61EB
:1044000064696E6720746F20657874727564657274
:104410002E20436865636B2074686572652069733C
:104420006E277420616E797468696E672073747585
:10443000636B20696E205054464520747562652E6A
:1044400020436865636B20746861742073656E73C4
:104450006F722072656164732070726F7065726C28
:10446000792E0050756C6C6579206D6F746F7220B9
:104470007374616C6C65642E20456E737572652073
:104480007468652070756C6C65792063616E206D51
:104490006F766520616E6420636865636B20746865
:1044A0006520776972696E672E0046696C616D657B
:1044B0006E742073656E736F72206469646E277406
:1044C00020737769746368206F6666207768696C0B
:1044D0006520756E6C6F6164696E672066696C61DA
:1044E0006D656E742E20456E737572652066696CFD
:1044F000616D656E742063616E206D6F76652061FD
:104500006E64207468652073656E736F7220776FB8
:10451000726B732E0046696C616D656E74207365F5
:104520006E736F72206469646E2774207472696799
:10453000676572207768696C65206C6F6164696E6D
:1045400067207468652066696C616D656E742E20E5
:10455000456E73757265207468652073656E736F40
:10456000722069732063616C696272617465642092
:10457000616E64207468652066696C616D656E7437
:1045800020726561636865642069742E0046494E37
:104590004441206469646E2774207377697463688A
:1045A000206F6666207768696C6520756E6C6F6138
:1045B00064696E672066696C616D656E742E205447
:1045C000727920756E6C6F6164696E67206D616EC3
:1045D00075616C6C792E20456E7375726520666905
:1045E0006C616D656E742063616E206D6F76652001
:1045F000616E642046494E444120776F726B732E82
:104600000046494E4441206469646E2774207472E8
:104610006967676572207768696C65206C6F616493
:10462000696E67207468652066696C616D656E747B
:104630002E20456E73757265207468652066696CFE
:10464000616D656E742063616E206D6F76652061AB
:104650006E642046494E444120776F726B732E0082
:1046600044697361626C650053746F70004C6F61D4
:104670006400556E6C6F61640052657365744D4DD6
:10468000550052657472790053656E73697469766A
:1046900069747900446F6E6500526573756D696E5B
:1046A00067207072696E740050494E44412048651D
:1046B0006174696E670043616C6962726174696FED
:1046C0006E20646F6E650043616C6962726174692B
:1046D0006E67205A0042656420646F6E6500426513
:1046E000642048656174696E670048656174696E2D
:1046F0006720646F6E652E0048656174696E67009F
:10470000546F74616C004C617374207072696E74C4
:10471000004D4D5520706F776572206661696C732E
:10472000004D4D55206C6F6164206661696C7300AB
:104730004D4D55206661696C73004D6174657269F9
:10474000616C206368616E67657300546F74616C9F
:10475000206661696C757265730046696C2E207203
:10476000756E6F757473004C617374207072696E2E
:1047700074206661696C757265730054656D70654F
:10478000726174757265730053656E736F72206920
:104790006E666F00457874727564657220696E6626
:1047A0006F0058595A2063616C2E206465746169EA
:1047B0006C73005072696E746572204950204164B8
:1047C00064723A00756E6B6E6F776E004D4D5520BA
:1047D000636F6E6E656374656400446174653A006E
:1047E000746F20756E6C6F61642066696C616D65B5
:1047F0006E7400746F206C6F61642066696C616D0B
:10480000656E7400507265737320746865206B6EFA
:104810006F620050726568656174696E6720746FBD
:10482000206375740050726568656174696E6720F5
:10483000746F20656A6563740050726568656174A1
:10484000696E6720746F20756E6C6F6164005072C2
:104850006568656174696E6720746F206C6F616450
:1048600000436F6F6C646F776E00456A6563740018
:1048700046696C616D656E742065787472756469E3
:104880006E672026207769746820636F7272656393
:104890007420636F6C6F723F004175746F6C6F6151
:1048A00064696E672066696C616D656E74206973FA
:1048B000206163746976652C206A75737420707248
:1048C00065737320746865206B6E6F6220616E641F
:1048D00020696E736572742066696C616D656E74B3
:1048E0002E2E2E005072696E742074696D6500461C
:1048F000696C616D656E74207573656400546F74C6
:10490000616C207072696E742074696D6500546FFB
:1049100074616C2066696C616D656E7400507265BF
:104920006865617420746865206E6F7A7A6C6521A1
:10493000004552524F523A005269676874004C6504
:10494000667400592064697374616E6365206672D1
:104950006F6D206D696E0053657665726520736BAF
:10496000657700536C6967687420736B6577004DD9
:104970006561737572656420736B6577005B303BAE
:10498000305D20706F696E74206F666673657400A9
:1049900041646A757374696E67205A004D494E54BC
:1049A000454D5020424544206669786564004D4974
:1049B0004E54454D5020484F54454E44206669782A
:1049C0006564004D4D55323A0025336400180104EA
:1049D00019020A01468D451545AA446344D3435D37
:1049E00043F742AA428C4242428C422D422D422D34
:1049F000422D422D422D422D422D422D422D422D3F
:104A0000422D422D422D422D422D422D422D422D2E
:104A1000422D422D422D42F841B94171410041CD14
:104A20004085403D40E13FAA3F6A3F4F3F010101C1
:104A300001010101027101710132323203030303EA
:104A400003030303030303030303030303030393A6
:104A50009324380393030102560365006600670040
:104A6000680069006A006B006C00730074007D00D0
:104A70007E00C900D300DD00CA00D400DE002D0195
:104A8000370141012E01380142012F013901430153
:104A900030013A01440131013B01450132019101EC
:104AA0009201F501F601F701F801F901FA01FB01A4
:104AB000FC018403880020746F6F206C6F6E672088
:104AC000657874727573696F6E2070726576656E45
:104AD0007465640020636F6C64206578747275730C
:104AE000696F6E2070726576656E746564004D6FD7
:104AF00076652061626F72746564004572723A5027
:104B000052494E542046414E204552524F520025A4
:104B1000632533642F256481005A25362E3266259D
:104B200063005A2020202D2D2D200086253364255A
:104B300025002D2D2D252500253364252500205306
:104B400044002020200020484F002046524D2000E5
:104B500087253375682025632563008725303275E6
:104B60003A2530327525632563002F2F6163746900
:104B70006F6E3A706175736564002F2F616374699D
:104B80006F6E3A70617573650044756D7020746F57
:104B90002073657269616C0068656C702E70727547
:104BA000736133642E636F6D00666F72756D2E7066
:104BB0007275736133642E636F6D0070727573610B
:104BC00033642E636F6D004D3730310025533A0A40
:104BD0002531382E32666D200A25533A0A253130A8
:104BE0006C646820253032646D2025303264730097
:104BF00025533A0A2531382E32666D200A25533A5C
:104C00000A2531306C6464202530326468202530F8
:104C100032646D0025362E32666D6D0025530A25EF
:104C2000530A25533A0A25533A0025332E3266811A
:104C300000252D31342E3134533A0A25530A252DBF
:104C400031342E3134533A25332E3266810A252DE4
:104C500031342E3134533A25332E32668100824668
:104C60009446794672466D466A487F2E684660468D
:104C7000252E3230530A70727573612E696F2F3092
:104C800034256875007B5B4552523A00332E31342F
:104C90002E302D44455631005D5B4657523A005D3B
:104CA0005B54494D3A005D5B464E4D3A005D5B46B4
:104CB000454D3A005D5B5043443A005B5446553ADB
:104CC000005B50524E3A005B50464E3A305D005BFE
:104CD0004449413A005D5B4154423A005D5B4154B6
:104CE000303A005D5B5354423A005B5354303A0013
:104CF0007B5B50524E3A355D007B5B50524E3A30F2
:104D00005D007B5B50524E3A395D007B5B50524EEA
:104D10003A385D007B5B5245533A305D5B46494C07
:104D20003A007B5B5245533A315D5B46494C3A0051
:104D300000002110422063308440A550C660E77017
:104D4000088129914AA16BB18CC1ADD1CEE1EFF1BF
:104D50003112100273325222B5529442F772D66267
:104D6000399318837BB35AA3BDD39CC3FFF3DEE30F
:104D70006224433420040114E664C774A4448554B7
:104D80006AA54BB528850995EEE5CFF5ACC58DD55F
:104D90005336722611163006D776F6669556B44607
:104DA0005BB77AA719973887DFF7FEE79DD7BCC7AF
:104DB000C448E5588668A778400861180228233857
:104DC000CCC9EDD98EE9AFF9488969990AA92BB9FF
:104DD000F55AD44AB77A966A711A500A333A122AA7
:104DE000FDDBDCCBBFFB9EEB799B588B3BBB1AAB4F
:104DF000A66C877CE44CC55C222C033C600C411CF7
:104E0000AEED8FFDECCDCDDD2AAD0BBD688D499D9E
:104E1000977EB66ED55EF44E133E322E511E700E46
:104E20009FFFBEEFDDDFFCCF1BBF3AAF599F788FEE
:104E30008891A981CAB1EBA10CD12DC14EF16FE1CE
:104E40008010A100C230E320045025404670676006
:104E5000B9839893FBA3DAB33DC31CD37FE35EF31E
:104E6000B1029012F322D232354214527762567256
:104E7000EAB5CBA5A89589856EF54FE52CD50DC56E
:104E8000E234C324A01481046674476424540544A6
:104E9000DBA7FAB79987B8975FE77EF71DC73CD7BE
:104EA000D326F2369106B0165766767615463456F6
:104EB0004CD96DC90EF92FE9C899E9898AB9ABA90E
:104EC0004458654806782768C018E1088238A32846
:104ED0007DCB5CDB3FEB1EFBF98BD89BBBAB9ABB5E
:104EE000754A545A376A167AF10AD01AB32A923A96
:104EF0002EFD0FED6CDD4DCDAABD8BADE89DC98DAE
:104F0000267C076C645C454CA23C832CE01CC10CE5
:104F10001FEF3EFF5DCF7CDF9BAFBABFD98FF89FFD
:104F2000176E367E554E745E932EB23ED10EF01E35
:104F30007C3C3E3F2F2A225C0024F4D43050C38EA8
:104F400020C2A24017828B7011127A910D816CD908
:104F50000AA861E108C7586607615143061E4B5D08
:104F600005C145A7041A411104093D98037139315F
:104F7000034036DB0265339102D4305402802E1D8B
:104F800002632CEE01752AC501B028A0011027810B
:104F9000018F2564012B244B01E0223401AC211F39
:104FA000018D200D01801FFC00841EED00971DDF88
:104FB00000B81CD200E61BC600201BBC00641AB25D
:104FC00000B219A8000A19A0006A189900D1179117
:104FD0000040178B00B516840031167E00B315799A
:104FE000003A157300C7146F0058146A00EE136678
:104FF000008813630025135E00C7125B006C125714
:105000000015125400C111510070114F0021114BB5
:1050100000D61049008D104700461044000210428F
:1050200000C00F4000800F3E00420F3C00060F3BC7
:1050300000CB0E3800930E37005C0E3500270E347F
:1050400000F30D3200C10D3100900D3000600D2EC7
:1050500000320D2D00050D2C00D90C2B00AE0C29B3
:1050600000850C29005C0C2700350C27000E0C264F
:1050700000E80B2400C40B2400A00B23007D0B23AD
:10508000005A0B2100390B2100180B2000F80A1FD1
:1050900000D90A1E00BB0A1E009D0A1D00800A1DC1
:1050A00000630A1C00470A1B002C0A1B00110A1A85
:1050B00000F7091A00DD091900C4091900AB091924
:1050C00000920917007B091800630917004C0916A4
:1050D0000036091600200916000A091500F5081502
:1050E00000E0081400CC081400B8081400A4081448
:1050F00000900813007D0812006B08130058081276
:10510000004608120034081100230811001208118B
:105110000001081100F0071000E0071000D0071090
:1051200000C0071000B0070F00A107100091070E84
:105130000083070F0074070F0065070E0057070E66
:105140000049070E003B070D002E070E0020070D3B
:105150000013070D0006070D00F9060C00ED060D03
:1051600000E0060C00D4060C00C8060C00BC060CBF
:1051700000B0060C00A4060B0099060C008D060B6F
:105180000082060B0077060B006C060B0061060A16
:105190000057060B004C060A0042060A0038060AB1
:1051A000002E060A0024060A001A060A0010060944
:1051B0000007060A00FD050900F4050900EB0509D2
:1051C00000E2050900D9050900D0050900C7050955
:1051D00000BE050900B5050800AD050800A50509D4
:1051E000009C050800940508008C0508008405084B
:1051F000007C050800740508006C050700650508BB
:10520000005D050700560508004E05070047050725
:10521000004005080038050700310507002A05078A
:1052200000230507001C050600160507000F0507EB
:10523000000805060002050700FB040600F5040748
:1052400000EE040600E8040600E2040700DB0406A2
:1052500000D5040600CF040600C9040600C30406F6
:1052600000BD040600B7040600B1040500AC040646
:1052700000A6040600A00405009B04060095040592
:1052800000900406008A04050085040500800406D9
:10529000007A04050075040500700405006B040520
:1052A0000066040500610405005C04050057040560
:1052B00000520405004D04050048040500430405A0
:1052C000003E0404003A04050035040500300404DF
:1052D000002C04050027040400230405001E040418
:1052E000001A04040016040500110404000D04044F
:1052F00000090405000404040000040400FC030485
:1053000000F8030400F4030400F0030400EC0304B9
:1053100000E8030400E4030400E0030400DC0304E9
:1053200000D8030400D4030400D0030400CC030419
:1053300000C8030300C503030024F404D9201BC4E0
:105340000C5C0E9804C4095F0265077101F405F94D
:1053500000FB04B30048048700C1036900580355EB
:105360000003034500BE023A008402310053022AC2
:10537000002902250004022000E4011C00C80119D4
:1053800000AF01170098011400840113007101108F
:10539000006101100051010E0043010D0036010BA8
:1053A000002B010B0020010B00150109000C010965
:1053B0000003010800FB000800F3000800EB0007F1
:1053C00000E4000600DE000600D8000600D2000659
:1053D00000CC000500C7000500C2000500BD0004A8
:1053E00000B9000400B5000400B1000400AD0004E1
:1053F00000A9000400A5000300A20003009F000410
:10540000009B000300980003009500020093000336
:1054100000900003008D0002008B00030088000252
:10542000008600020084000300810002007F000269
:10543000007D0002007B000200790002007700017D
:105440000076000200740002007200010071000288
:10545000006F0002006D0001006C0002006A000194
:10546000006900020067000100660001006500019C
:1054700000640002006200010061000100600001A0
:10548000005F0002005D0001005C0001005B0001A4
:10549000005A0001005900010058000100570001A6
:1054A00000560001005500010054000100530000A7
:1054B00000530001005200010051000100500001A2
:1054C000004F0001004E0000004E0001004D0001A1
:1054D000004C0001004B0000004B0001004A00019D
:1054E0000049000100480000004800010047000199
:1054F0000046000000460001004500000045000194
:10550000004400010043000000430001004200008D
:105510000042000100410000004100010040000184
:10552000003F0000003F0001003E0000003E00017F
:10553000003D0000003D0001003C0000003C000078
:10554000003C0001003B0000003B0001003A00006D
:10555000003A000100390000003900010038000065
:10556000003800000038000100370000003700015B
:105570000036000000360000003600010035000053
:105580000035000000350001003400000034000048
:10559000003400010033000000330000003300013C
:1055A0000032000000320000003200010031000033
:1055B0000031000000310001003000000030000028
:1055C00000300001002F0000002F0000002F00001D
:1055D000002F0001002E0000002E0000002E000110
:1055E000002D0000002D0000002D0000002D000106
:1055F000002C0000002C0000002C0000002C0001FA
:10560000002B0000002B0000002B0000002B0001ED
:10561000002A0000002A0000002A0000002A0001E1
:1056200000290000002900000029000000290000D6
:1056300000290001002800000028000000280000C8
:1056400000280000002800010027000000270000BB
:1056500000270000002700000027000100260000AE
:1056600000260000002600000026000000260001A1
:105670000025000000250000002500000025000096
:105680000025000000250001002400000024000087
:10569000002400000024000000240001002300007A
:1056A000002300000023000000230000002300006E
:1056B000002300000023000100220000002200005F
:1056C0000022000000220000002200000022000151
:1056D0000021000000210000002100000021000046
:1056E0000021000000210000002100010020000036
:1056F000002000000020000000200000002000002A
:10570000002000000020000000200001001F000019
:10571000001F0000001F0000001F0000001F00000D
:10572000001F0000001F0001001E0000001E0000FE
:10573000001E0000001E00000045303A20005A3ACA
:105740002000593A2000583A20004D53312C4D5337
:10575000322050696E7300504944204175746F7453
:10576000756E652066696E69736865642120507581
:105770007420746865206C617374204B702C204B0E
:105780006920616E64204B6420636F6E7374616E78
:1057900074732066726F6D2061626F766520696E2A
:1057A000746F20436F6E66696775726174696F6E9E
:1057B0002E6800504944204175746F74756E6520E1
:1057C0006661696C6564212074696D656F7574002C
:1057D00020403A00543A00423A0050494420417572
:1057E000746F74756E65206661696C656421205400
:1057F000656D706572617475726520746F6F206875
:1058000069676800204B643A2000204B693A200009
:10581000204B703A200020436C6173736963205001
:10582000494420002054753A2000204B753A20004E
:10583000206D61783A2000206D696E3A2000206466
:105840003A200020626961733A20005049442041A7
:1058500075746F74756E652073746172740050494D
:1058600044204175746F74756E65206661696C655E
:10587000642E2042616420657874727564657220BC
:105880006E756D6265722E00486F74656E64206679
:10589000616E207370656564206973206C6F776535
:1058A00072207468616E2065787065637465640049
:1058B0005072696E742066616E2073706565642035
:1058C0006973206C6F776572207468616E206578EB
:1058D000706563746564004D494E54454D502042D7
:1058E0004544004D494E54454D50004D4158544596
:1058F0004D50004D415854454D5020424544007094
:10590000012C0190012701B0012201C0011D01F00D
:105910000118011002130130020E0160020901900A
:10592000020401C002FF000003FA004003F50080FA
:1059300003F000D003EB002004E6007004E100E077
:1059400004DC004005D700C005D2004006CD00D0E1
:1059500006C8008007C3003008BE00F008B900C0C8
:1059600009B400B00AAF00B00BAA00D00CA500002B
:105970000EA000500F9B00C0109600501291000026
:10598000148C00C0158700B0178200B0197D00D0BC
:105990001B7800001E730040206E0090226900F00A
:1059A00024640040275F0090295A00E02B55001026
:1059B0002E500020304B0010324600E03341009062
:1059C000353C001037370070383200A0392D00B058
:1059D0003A2800A03B2300603C1E00103D190090B7
:1059E0003D1400103E0F00703E0A00C03E0500004E
:1059F0003F000020484F54454E4420544845524DE6
:105A0000414C2052554E4157415900204845415480
:105A100042454420544845524D414C2052554E4138
:105A200057415900544845524D414C2052554E4122
:105A30005741590042454420544845524D414C205D
:105A400052554E415741590020544845524D414C02
:105A50002052554E41574159202850524548454102
:105A60005420484F54454E44290020544845524D37
:105A7000414C2052554E41574159202850524548DB
:105A8000454154204845415442454429005052451F
:105A900048454154204552524F52004245442050FF
:105AA000524548454154204552524F52002074728D
:105AB0006967676572656421004865617465727322
:105AC000207377697463686564206F66662E2000B2
:105AD0003A20004572723A200000FF0102010002E4
