:100000000C942C480C945D480C945D480C945D480D
:100010000C945D480C945D480C945D480C945D48CC
:100020000C945D480C945D480C945D480C945D48BC
:100030000C945D480C945D480C9443C80C940DA03E
:100040000C945D480D94972D0C945D480C945D487C
:100050000C945D480C945D480C945D480D94BD284B
:100060000C945D480C94F5980C945D480C945D4894
:100070000C945D480C945D480C945D480C945D486C
:100080000C945D480C945D480C945D480C945D485C
:100090000C94B1980C945D480C945D480C945D48A8
:1000A0000C945D480C945D480C94D2E90C945D4826
:1000B0000C945D480C945D480C945D480C945D482C
:1000C0000C945D480C945D480C945D480C941B9C0A
:1000D0000C945D480C945D480C945D480C945D480C
:1000E0000C945D4842A44BA4F8A3C7A39AA335A7D8
:1000F00085A4A4A538A68CA6A8A6DFA60DD720D7D0
:1001000032D741D74DD788D7F7D6ABD7BFD7BBD7D4
:10011000F7D6C1D7CDD7D3D7EBD751E854E843E8CA
:1001200047E84DE88BE858E85CE862E866E86AE88A
:1001300070E874E878E88BE87EE882E886E8F5EA1B
:10014000FAEAFFEA09EB13EB8CEB1DEB25EB2DEB49
:1001500037EB41EB4BEB5AEB64EB8CEB6EEB78EB54
:1001600082EB0102C1014B01070267015301C70184
:10017000A701F50161019B0161019B0161019B01E7
:10018000AB01CB0169017B01570181016D01A50123
:10019000F901AF015D017101F7018701E101510131
:1001A0005101CD015101CD01B5018301E501890165
:1001B000ED010502DD0103026501FD01BF015B01E7
:1001C000B9016301084AD73B3BCE016E84BCBFFD39
:1001D000C12F3D6C74319ABD56833DDA3D00C77F17
:1001E00011BED9E4BB4C3E916BAAAABE00000080B0
:1001F0003F05A84CCDB2D44EB93836A9020C50B93F
:10020000918688083CA6AAAA2ABE000000803F0763
:10021000634236B79BD8A71A39685618AEBAAB55A1
:100220008C1D3CB7CC5763BD6DEDFD753EF6177266
:1002300031BF000000803F08000000BE9224491238
:100240003EABAAAA2ABECDCCCC4C3E00000080BE5C
:10025000ABAAAAAA3E00000000BF000000803F0039
:1002600000000000084178D3BB4387D1133D190E2D
:100270003CC3BD4282AD2B3E68EC8276BED98FE195
:10028000A93E4C80EFFFBE01C4FF7F3F000000008D
:1002900000000D9479530D94F5280D94D9490D94CF
:1002A000C71F0D9453750D941B290D94881E0D9432
:1002B000486B0D9411440D94BA800D94AA6B0D9463
:1002C0003C700D94B62A0D945A800D94E1800D94E3
:1002D00014290D94246B0D94E8170D947E6B0D94E6
:1002E000A91B0D94BA6B0D9443730D947F1E0D944E
:1002F000971F0D9426480D94346B0D9471480D94FE
:1003000011480D945E6B0D945C750D94BC750D9445
:10031000DB6B0D943D810D945D220D943E440D9454
:1003200000280D94761E0D946D1E0D9469710D9428
:1003300097700D94EA1F0D94B82A0D94BF1F0D9469
:10034000CF1F0D94AF1F0D94E8520D94846B0D9444
:100350003D290D949F1F0D94BA2A0D94B71F0D943B
:100360009A6B0D9477190D94D76F0D9459750D9460
:10037000CE1A0D948C800D949A220D9425710D94B3
:1003800052810D94E7280D94D71F0D9448730D9456
:100390005B290D943A1C0D94BC2A0D9456750D944E
:1003A00053700D9446700D9459220D94094B0D9481
:1003B000CB700D949A730D9472790D94F7800D940F
:1003C000A71F0D94EB6B0D948A180D94847E0D94E9
:1003D0009C750D94089B0D946E180D940D810D94D1
:1003E0009B520D94DD730D9455220D9453290D9459
:1003F000D56B0D948A6B0D94851F0D9462810D94BD
:10040000E84A0D94D9280D94EC800D9402810D9446
:1004100002290D946B190D94769D0D948F1F5F53D7
:1004200045435F4C414E47000000000000000000C3
:1004300000000000000000000000000000000000BC
:1004400000000000000000000000000000000000AC
:10045000000000000000000000000000000000009C
:10046000000000000000000000000000000000008C
:10047000000000000000000000000000000000007C
:10048000000000000000000000000000000000006C
:10049000000000000000000000000000000000005C
:1004A000000000000000000000000000000000004C
:1004B000000000000000000000000000000000003C
:1004C000000000000000000000000000000000002C
:1004D000000000000000000000000000000000001C
:1004E000000000000000000000000000000000000C
:1004F00000000000000000000000000000000000FC
:10050000A55AB44BF6256D01B4B973636D01A5010D
:10051000EA02380349035B03600365037903AC0314
:10052000DE03E603F203FA0309040F0410042504B2
:100530004B044C044D045F04AE04FE0408050C0596
:100540001E052605350546055805A105A705B20572
:10055000BB05C705EE050506130620062C06840616
:100560009006E606F306FD060407120723072C078C
:100570004507460786079707B607BC07CB07D2078C
:10058000E1076F087508C308CE08E008F2080709FC
:10059000160924094D09580961097409B409BA09F1
:1005A000C109CD09CE09CF09DB09E709EF09FE0929
:1005B0000F0A1C0A280A370A5A0A6D0A7E0A920A8A
:1005C0009C0AA60AB80AD80AEB0AFD0A560B8F0B3A
:1005D000960B970BAC0BB80BCA0BDB0B080C160C6D
:1005E000200C810C820C930CA20CAD0CBF0CD10C16
:1005F000E20CF30C020D110D200D320D420D430DD6
:100600007B0D950D9F0DAF0DC40DE10DF50D510E38
:100610005F0E740E7A0E850E920EA10EE10EF10E93
:10062000FF0E120F250F360F4D0F5C0F5D0F5E0F83
:10063000870F880FA50FC60FD50FE10FF60F0B1010
:1006400020102410251026102C104B105E10641062
:1006500070107B108A108B109810A310AE10B91078
:10066000C510D410D510D810E410FF1009114C118A
:100670006C117311B511E811F51105120F12211249
:100680002F123F12CF12FE124A135913C313F8133D
:10069000211452147414A714D114F01434154315F2
:1006A000721586159015B215B315C815FD15FE15F2
:1006B0000D161B163016441653165D167416841646
:1006C000B9162C173A178317D517F517F61701180F
:1006D0002F1844188518861898189918A418B31854
:1006E000BF18C0182D192E192F193619551962194E
:1006F000631974197E198F19A019DE19211A331A7A
:10070000341A351A361A401A511A5E1AB91AC11A11
:10071000C71ACB1ADA1AE21AF21AFA1A091B0E1BB6
:100720000F1B371B3E1B471B4F1B901B9C1BAA1B01
:10073000B51BBD1BC71BD81BE31B141C261C411C6F
:10074000B61CD71CDF1CE71C4F1D5F1D711D771DDC
:10075000801D8F1DA41DB81DC91DDB1DE21DF61DCA
:10076000FD1D051E1D1E451E601EDF1E161F421F9D
:100770006A1F8B1F9A1FA31FB41FE21FE61F2A20A8
:100780007120AE20AF20BA20F2202D2162216D21F0
:10079000A721F5213D225122DE2210231B231F23F6
:1007A0002323282331234223432344234B2353234E
:1007B000602361236F2370238223AA23B223C823DB
:1007C000C923D023D123D223092461249724EC24E4
:1007D000ED24012516254C25A225A325AF25B625F8
:1007E000C225C725CE25DC25E7255B252E37735D81
:1007F000446F6C6164656E69205A0A757A206E6177
:1008000073746176656E6F2C20706F757A69740AE7
:100810006E65626F207265736574206F64206E75FB
:100820006C793F0A2563506F6B7261636F766174F8
:10083000256352657365740020302E33206E656227
:100840006F207374617273690020302E34206E65DE
:10085000626F206E6F76656A736900207A203400BB
:10086000207A2039005B303B305D206F6473617A01
:10087000656E6920626F64750043726173682064FD
:100880006574656B6365206D757A650A627974209D
:100890007A61706E75746120706F757A6520760A62
:1008A0004E6F726D616C206D6F647500504F5A4FC2
:1008B000523A0A437261736820646574656B6365BC
:1008C0000A6465616B7469766F76616E6120766526
:1008D0000A537465616C7468206D6F6475003E5ACC
:1008E000727573697400446F6C6164656E69205A37
:1008F0003A00567365204F4B2000567365206A6599
:1009000020686F746F766F2E004F6B6F6C690000FC
:100910006120737469736B6E65746520746C6163B8
:1009200069746B6F00446F6A656C79206F62612037
:100930005A20766F7A696B79206B7E686F726E6968
:100940006D7520646F72617A753F000000417574A7
:100950006F5A61766564656E692066696C2E004128
:1009600075746F6D617469636B65207A617661641B
:10097000656E692066696C616D656E7475206A6567
:10098000206D6F7A6E6520706F757A652070726960
:10099000207A61706E7574656D2066696C616D6535
:1009A0006E742073656E7A6F72752E2E2E004175EF
:1009B000746F6D617469636B65207A6176616465DB
:1009C0006E692066696C616D656E747520616B740B
:1009D00069766E692C20737469736B6E657465201B
:1009E000746C616369746B6F206120766C6F7A74CC
:1009F000652066696C616D656E742E2E2E004465EF
:100A00006C6B61206F7379004F736100506F646C81
:100A10006F7A6B61202F20546F70656E690042659C
:100A200064204F4B2E005A6168726976616E6920AE
:100A300062656475004B6F72656B636520706F64EF
:100A40006C6F7A6B7900546573742072656D656E96
:100A500075202020202020004B616C696272616348
:100A600065205A2073656C68616C612E2053656E39
:100A7000736F72206E657365706E756C2E205A6E82
:100A80006563697374656E6120747279736B613F1D
:100A90002043656B616D206E612072657365742EF5
:100AA000004A61736E7900506F6473766963656E96
:100AB0006900506F646C6F7A6B61005374617620CB
:100AC00072656D656E7500446574656B6F76616EF9
:100AD000207679706164656B2070726F7564752E15
:100AE0004F626E6F766974207469736B3F004B615F
:100AF0006C696272756A6920767963686F7A6920B9
:100B0000706F7A2E004B616C696272616365205868
:100B1000595A004B616C6962726F766174205A0099
:100B20005A6B616C6962726F766174004B616C69BB
:100B300062726163652058595A2E204F7461636553
:100B40006E696D20746C616369746B6120706F7382
:100B5000756E7465205A206F737520617A206B7EE4
:100B6000686F726E696D7520646F72617A752E2080
:100B7000506F74767264746520746C616369746B11
:100B8000656D2E004B616C696272756A69205A004E
:100B90004B616C696272616365205A2E204F7461EB
:100BA00063656E696D20746C616369746B6120703C
:100BB0006F73756E7465205A206F737520617A208B
:100BC0006B7E686F726E696D7520646F72617A7585
:100BD0002E20506F74767264746520746C61636942
:100BE000746B656D2E004B616C6962726163652088
:100BF0004F4B004B616C696272616365005A72759C
:100C0000736974004B617274612076796A6D7574D2
:100C100061004261727661206E656E69206369735E
:100C20007461005A63686C61646974004B6F706929
:100C3000726F7661742076796272616E79206A6172
:100C40007A796B3F00005A766F6C74652066696C28
:100C5000616D656E742070726F206B616C69627279
:100C6000616369207072766E69207672737476792A
:100C7000207A206E61736C6564756A696369686F58
:100C8000206D656E7500446574656B6F76616E20CE
:100C90006E6172617A2E00446574656B6F76616E69
:100CA000206E6172617A2E204F626E6F76697420B9
:100CB0007469736B3F004E6172617A00506F757A90
:100CC0006520616B7475616C6E6900446174756D4B
:100CD0003A005679706E6F7574206D6F746F72790B
:100CE000004E656E69207A6B616C6962726F766125
:100CF0006E6120767A64616C656E6F7374207472B5
:100D000079736B79206F64207469736B6F766520DB
:100D1000706F646C6F7A6B792E20506F737475707E
:100D2000756A74652070726F73696D20706F646C82
:100D300065206D616E75616C752C206B61706974D6
:100D40006F6C61205A6163696E616D652C206F6400
:100D5000737461766563204E6173746176656E6944
:100D6000207072766E69207672737476792E0050D8
:100D70006F6B722E00436863657465206F70616BE2
:100D80006F76617420706F736C65646E69206B722E
:100D90006F6B206120706F7A6D656E697420767A52
:100DA00064616C656E6F7374206D657A692074720E
:100DB00079736B6F75206120706F646C6F7A6B6FE5
:100DC000753F004B6F72656B636520453A0056793D
:100DD00073756E6F75742066696C616D656E7400F5
:100DE0005679736F7576616D2066696C616D656E9D
:100DF00074004B6F6E2E207370696E6163206E6598
:100E00007365706E7574004B6F6E636F76792073C7
:100E100070696E6163004B6F6E632E207370696E34
:100E2000616365004368796261202D20446F736CB3
:100E30006F206B20707265706973752073746174B4
:100E400069636B652070616D657469210055737409
:100E50007269686E6F7574005374726968616E6947
:100E6000005374726968616E692066696C616D65B2
:100E70006E74750043485942413A2046696C616D71
:100E8000656E742073656E7A6F72206E657265612F
:100E900067756A652C207A6B6F6E74726F6C756AF9
:100EA00074652070726F73696D207A61706F6A6506
:100EB0006E692E0054656D6E790043485942413A7F
:100EC000004C6576792076656E742E3A00000053EA
:100ED000656C68616E69204D4D5500462E20617528
:100EE000746F7A61762E0053656C68616E6900528A
:100EF0007963686C6F73742076656E742E00546528
:100F000073742076656E74696C61746F7275004BD2
:100F10006F6E74722E2076656E742E0046696C2E8C
:100F20002073656E7A6F720056797061646B7920F8
:100F300066696C616D2E0046696C616D656E74202A
:100F40007679746C6163656E20612073707261766E
:100F50006E652062617276793F0046696C616D65ED
:100F60006E74206E657A61766564656E0053656E99
:100F70007A6F722066696C616D656E74750053706E
:100F80006F747265626F76616E6F2066696C616DF9
:100F90002E00436173207469736B75004653207291
:100FA00065616B63650046532076302E34206120E6
:100FB0006E6F76656A736900536F75626F72206E2B
:100FC000656B6F6D706C65746E692E20506F6B72FF
:100FD00061636F7661743F00446F6B6F6E636F7611
:100FE000616E6920706F68796275004B616C2E20AC
:100FF0007072766E6920767273747679004E656AC7
:101000006472697620706F6D6F63692073656C66BA
:101010007465737475207A6B6F6E746F6C756A6922
:10102000206E656A63617374656A736920636879A9
:10103000627920767A6E696B616A69636920707281
:101040006920736573746176656E69207469736B6A
:1010500061726E792E004F707261767465206368DC
:10106000796275206120706F746520737469736B89
:101070006E65746520746C616369746B6F206E615A
:10108000206A65646E6F746365204D4D552E005067
:101090007275746F6B0000507265646E69207469BC
:1010A000736B6F76792076656E743F00567072654B
:1010B0006475205B756D5D00507265646E692F6CA0
:1010C0006576792076656E742E00546F70656E6952
:1010D0002F5465726D6973746F72005A616872691A
:1010E00076616E6920707265727573656E6F2062CD
:1010F000657A7065636E6F73746E696D206361737A
:101100006F766163656D2E005A6168726976616EF3
:1011100069204F4B2E005A6168726976616E6900D2
:10112000446F6272792064656E2C206A73656D204D
:1011300076617365207469736B61726E61204F72A2
:101140006967696E616C2050727573612069332E16
:101150002043686365746520616279636820566125
:10116000732070726F7665646C61206B616C69626C
:101170007261636E696D2070726F636573656D3F38
:10118000000056796D656E69742066696C616D65E5
:101190006E74005A6D656E612075737065736E6153
:1011A000210056796D656E61206F6B3F004B6F6E4D
:1011B00074726F6C6120706F646C6F7A6B79004B26
:1011C0006F6E74726F6C6120656E6473746F70758E
:1011D000004B6F6E74726F6C6120686F74656E6423
:1011E00020004B6F6E74726F6C612073656E7A6F46
:1011F0007275004B6F6E74726F6C61206F73792023
:1012000058004B6F6E74726F6C61206F7379205948
:10121000004B6F6E74726F6C61206F7379205A008F
:10122000567962657274652065787472756465724A
:101230003A0056796265722066696C616D656E74FC
:101240003A00004E796E692070726F766564752081
:1012500078797A206B616C6962726163692E205AB9
:10126000616265726520746F20707269626C697A60
:101270006E65203132206D696E2E004E796E6920C8
:1012800070726F76656475207A206B616C6962722A
:101290006163692E00496E666F726D616365005609
:1012A0006C6F7A74652066696C616D656E74004A56
:1012B000652066696C616D656E74207A617665641F
:1012C000656E3F004A65207469736B6F7679207094
:1012D0006C6174206E6120706F646C6F7A63653F1F
:1012E0000053656C68616E6920706F736C2E20749A
:1012F00069736B75004D6174652D6C692076696347
:1013000065207469736B6F7679636820706C6174A3
:10131000752C206B616C696272756A7465206A65F0
:101320002076206D656E75204E6173746176656EF2
:1013300069202D204857206E6173746176656E694F
:10134000202D205469736B6F766520706C61747901
:1013500000506F736C65646E69207469736B004C28
:101360006576792076656E74206E6120747279736B
:1013700063653F00566C65766F00566C65766F202E
:101380005B756D5D004B6F72656B6365206C696E9C
:101390002E00446F6C6164656E69206F7379205A0A
:1013A00000566C6F7A74652066696C616D656E7449
:1013B00020286E657A61766164656A7465292064A7
:1013C0006F2065787472756465727520612073741E
:1013D00069736B6E65746520746C616369746B6F9F
:1013E000005A61766573742066696C616D656E7410
:1013F0000043697374656E69206261727679005A80
:1014000061766164656E692066696C616D656E7494
:10141000750055766F6C6E656E612072656D656ED8
:1014200069636B61005A617665737420646F207420
:101430007279736B79004D313137204B616C2E20FE
:101440007072766E692076727374767900486C617A
:10145000766E69206E616269646B610000004D65A3
:1014600072696D207265666572656E636E6920765D
:1014700079736B75206B616C69627261636E696808
:101480006F20626F647500004D4D55204F4B2E202C
:10149000506F6B726163756A692076207469736B33
:1014A000752E2E2E004D4D55204F4B2E20506F6B1C
:1014B000726163756A692076206E6168726976610F
:1014C0006E692E2E2E004D6572656E65207A6B6FEB
:1014D00073656E690053656C68616E69204D4D558A
:1014E000005A61766564656E69204D4D55207365BF
:1014F0006C68616C6F004D4D552073656C68616E52
:1015000069207A61766164656E69004D4D55204FA2
:101510004B2E20506F6B726163756A692E2E2E0000
:101520004D6F640000005469636879004D4D55208B
:10153000706F74726562756A65207A617361682084
:10154000757A69766174656C652E004D4D5520760F
:10155000797061646B792070726F7564750054697D
:10156000636879004175746F6D617469636B7900AC
:101570005679732E2076796B6F6E004D4D55322063
:10158000707269706F6A656E6F0000506F73756E70
:101590006F7574206F737500506F73756E6F75740F
:1015A000205800506F73756E6F7574205900506F1E
:1015B00073756E6F7574205A0042657A20706F687B
:1015C0007962752E005A61646E61205344206B610C
:1015D00072746100004E65004E657A61706F6A65D5
:1015E0006E6F20005679736C61206E6F7661207685
:1015F00065727A65206669726D776172653A004E30
:1016000065746F6369207365004E796E69207A6B2B
:10161000616C696272756A6920767A64616C656E64
:101620006F7374206D657A69206B6F6E63656D20D2
:10163000747279736B79206120706F76726368655C
:101640006D20706F646C6F7A6B792E004E796E69C5
:101650002070726564656872656A69207472797356
:101660006B752070726F20504C412E00547279734C
:101670006B61004E65706C61746E6520686F646E9E
:101680006F7479206E6173746176656E692E204285
:1016900075646520706F757A69746F2076796368F8
:1016A0006F7A69205049442C20457374657073200B
:1016B0006174642E004E796E69206F647374726178
:1016C0006E746520746573746F76616369207679D2
:1016D0007469736B207A207469736B6F7665686FB9
:1016E00020706C6174752E0056656E742E207472B5
:1016F00079736B7900506F7A6173746176697420C5
:101700007469736B00504944206B616C2E2000504B
:101710004944206B616C2E20756B6F6E63656E6142
:1017200000504944206B616C696272616365004ED0
:101730006168726976616E692050494E4441005576
:101740006D697374657465206C6973742070617061
:10175000697275206E6120706F646C6F7A6B752092
:1017600061207564727A756A7465206A656A207092
:101770006F6420747279736B6F7520626568656D34
:10178000206D6572656E69207072766E696368207F
:101790003420626F64752E20506F6B7564207472F4
:1017A00079736B61207A6163687974692070617004
:1017B00069722C206F6B616D7A697465207679701F
:1017C0006E657465207469736B61726E752E00505E
:1017D000726F73696D206F636973746574652070CF
:1017E0006F646C6F7A6B75206120737469736B6EB4
:1017F00065746520746C616369746B6F2E00507240
:101800006F2075737065736E6F75206B616C6962A4
:1018100072616369206F63697374657465207072A7
:101820006F73696D207469736B6F766F7520747256
:1018300079736B752E20506F7476726474652074A2
:101840006C616369746B656D2E005A6B6F6E747298
:101850006F6C756A7465203A0050726F73696D2001
:101860006E61686C65646E65746520646F2070726B
:10187000697275636B79203344207469736B61728C
:10188000652061206F7072617674652070726F627E
:101890006C656D2E20506F7465206F626E6F76746C
:1018A0006520507275766F6463652072657374612C
:1018B00072746F76616E696D207469736B61726E9C
:1018C000792E0050726F73696D206F746576726542
:1018D00074652069646C65722061206D616E75614C
:1018E0006C6E65206F64737472616E7465206669D6
:1018F0006C616D656E742E00556D697374657465E9
:101900002070726F73696D207469736B6F767920C4
:10191000706C6174206E6120706F646C6F7A6B758F
:101920000050726F20767973756E757469206669E0
:101930006C616D656E747520737469736B6E65741C
:10194000652070726F73696D20746C616369746B6C
:101950006F0050726F73696D2076796A6D6574657A
:101960002075727963686C656E652066696C616D5F
:10197000656E740050726F73696D2076796A6D655B
:1019800074652066696C616D656E74206120706F8E
:10199000746520737469736B6E65746520746C6113
:1019A0006369746B6F2E004F64737472616E74653B
:1019B0002070726F73696D207469736B6F76792014
:1019C000706C6174207A20706F646C6F7A6B792E02
:1019D000004E656A707276652073707573747465F5
:1019E000206B616C6962726163692058595A2E00DC
:1019F00050726F73696D20616B7475616C697A7573
:101A00006A7465206669726D7761726520766520FB
:101A100076617369204D4D5532206A65646E6F742E
:101A200063652E2043656B616D206E612072657366
:101A300065742E0050726F73696D2063656B656A03
:101A40007465004E656A707276652070726F736996
:101A50006D2073756E64656A7465207472616E734F
:101A6000706F72746E6920736F75636173746B79D4
:101A70002E0050726564656872656A7465207472C0
:101A800079736B75210050726564656872657600C4
:101A900050726564656872657620747279736B79CB
:101AA0002E2050726F73696D2063656B656A746573
:101AB0002E000050726F73696D20616B7475616CDC
:101AC000697A756A74652E0050726F206E61687253
:101AD00061746920747279736B79206120706F6B07
:101AE0007261636F76616E6920737469736B6E6582
:101AF000746520746C616369746B6F2E0000567995
:101B00007061646B792070726F75647500546973CD
:101B10006B20707265727573656E005072656465D6
:101B200068726576206B207A61766564656E6900FF
:101B3000507265646568726576206B2076796A6D8F
:101B4000757469005469736B6F76792076656E746D
:101B50002E3A005469736B207A2053440053746901
:101B6000736B6E65746520686C2E20746C6163699C
:101B7000746B6F005469736B20706F7A617374615A
:101B800076656E0050726F20706F6B7261636F7656
:101B9000616E69206E6168726976616E6920747227
:101BA00079736B7920737469736B6E6574652074D7
:101BB0006C616369746B6F2E005469736B61726E34
:101BC00061206E6562796C61206A65737465207A44
:101BD0006B616C6962726F76616E612E20506F73FB
:101BE000747570756A74652070726F73696D20709A
:101BF0006F646C65206D616E75616C752C206B6116
:101C00007069746F6C61205A6163696E616D652CD7
:101C1000206F6473746176656320506F73747570A0
:101C2000206B616C6962726163652E005469736B2D
:101C30006F76792076656E742E0050726F73696DC1
:101C400020766C6F7A74652066696C616D656E7460
:101C500020646F20657874727564657275206120E8
:101C6000737469736B6E65746520746C61636974F9
:101C70006B6F206B206A65686F207A61766564659A
:101C80006E690050726F73696D20766C6F7A74653F
:101C90002066696C616D656E7420646F2070727669
:101CA0006E69207472756269636B79204D4D5520A1
:101CB0006120737469736B6E65746520746C616305
:101CC00069746B6F206B206A65686F207A61766536
:101CD00064656E690050726F73696D206E656A6429
:101CE000726976207A6176656474652066696C61D4
:101CF0006D656E740000567A616475205B756D5D6C
:101D00000050726F73696D2076796A6D6574652015
:101D100066696C616D656E742061207A6F70616BAD
:101D2000756A7465207475746F20616B6369004F08
:101D3000626E6F766F76616E69207469736B752061
:101D40002020200056796A6D657465207374617275
:101D5000792066696C616D656E74206120737469A9
:101D6000736B6E65746520746C616369746B6F204E
:101D700070726F207A61766564656E69206E6F7629
:101D800065686F2E000052657365742058595A209B
:101D90006B616C6962722E0000506F6B7261636FD1
:101DA000766174004F626E6F76656E692074697338
:101DB0006B750056707261766F205B756D5D00000B
:101DC0005370757374656E6920507275766F6463B5
:101DD000652076796D617A6520756C6F7A656E65C0
:101DE000207679736C65646B7920767365636820FF
:101DF0006B616C69627261636920612073707573D5
:101E00007469206B616C69627261636E69207072C3
:101E10006F636573206F64207A616361746B752EE4
:101E200020506F6B7261636F7661743F00000056E3
:101E3000707261766F00486C6564616D206B616CD7
:101E400069627261636E6920626F6420706F646C96
:101E50006F7A6B79005679626572206A617A796B64
:101E600061000053656C662074657374207374613F
:101E70007274200053656C66746573742000436847
:101E80007962612053656C667465737475210053C3
:101E9000656C66746573742073656C68616C200092
:101EA00050726F206B616C6962726163692070723D
:101EB00065736E65686F207265686F6D6F76616EB1
:101EC000692062756465206E796E69207370757320
:101ED00074656E2073656C66746573742E00567934
:101EE0006265727465207465706C6F7475207072B1
:101EF000656465687261746920747279736B7920A6
:101F00006B74657261206F64706F766964612076AE
:101F10006173656D75206D6174657269616C752E94
:101F2000004E61737461767465207465706C6F74B3
:101F3000753A000000004E6173746176656E690049
:101F400053746176206B6F6E632E207370696E2EF2
:101F500000537461762073656E7A6F7275004E65FA
:101F60006B7465726520736F75626F7279206E6530
:101F70006275646F7520736574726964656E792E1D
:101F8000204D6178696D616C6E6920706F63657456
:101F900020736F75626F727520766520736C6F7A2F
:101FA00063652070726F20736574726964656E6911
:101FB000206A65203130302E0054726964656E6984
:101FC000005A61646E65004361730054657A6B6505
:101FD000207A6B6F73656E693A0041626563656470
:101FE000610054726964656E6920736F75626F7207
:101FF0007500486C6173697479004C65686B652085
:102000007A6B6F73656E693A005A76756B0000568D
:1020100079736B79746C2073652070726F626C6574
:102020006D2C2073726F766E6176616D206F7375A3
:10203000205A202E2E2E004A65646E6F750052794C
:1020400063686C6F737400546F6369207365004A32
:10205000652076797A61646F76616E612073746150
:1020600062696C6E6920706F6B6F6A6F7661207445
:1020700065706C6F74612032312D323643206120DF
:102080007065766E6120706F646C6F7A6B612E0084
:1020900053746174697374696B6120005A6173745D
:1020A00061766974207469736B005A4153544156C8
:1020B000454E4F2E00506F64706F72610050726F0A
:1020C000686F7A656E65005A766F6C746520666914
:1020D0006C616D656E743A005465706C2E206B6196
:1020E0006C2E005A766F6C7465207465706C6F741A
:1020F000752C206B74657261206F64706F766964F3
:102100006120766173656D75206D617465726961BA
:102110006C752E005465706C6F742E206B616C6949
:102120006272616365005465706C6F746E69206BD8
:10213000616C6962726163652073656C68616C6172
:10214000005465706C6F746E69206B616C696272AB
:1021500061636520646F6B6F6E63656E61206120E3
:102160006A65206E796E6920616B7469766E692E7E
:10217000205465706C6F746E69206B616C6962725B
:10218000616369206A65206D6F7A6E6F2064656196
:102190006B7469766F7661742076206D656E75203C
:1021A0004E6173746176656E692D3E5465706C2E58
:1021B000206B616C2E0053656E7A6F72206F7665AE
:1021C00072656E2C2076796A6D6574652066696C1F
:1021D000616D656E742E005465706C6F746100548F
:1021E00065706C6F7479004A6520706F74726562F7
:1021F00061206B616C6962726F766174206F7375B8
:10220000205A2E2050726F73696D20706F73747531
:1022100070756A746520646C65207072697275638C
:102220006B792C206B617069746F6C61205A6163EB
:10223000696E616D652C2073656B636520506F73EB
:10224000747570206B616C6962726163652E004603
:10225000696C616D656E742063656C6B656D0043C0
:10226000656C6B6F767920636173207469736B752D
:10227000004C6164697400567973756E6F757400F3
:1022800043656C6B656D2073656C68616E69006B8E
:10229000207A61766564656E692066696C616D653A
:1022A0006E7475006B2076796A6D75746920666945
:1022B0006C616D656E74750056796A6D6F7574200A
:1022C00066696C616D656E74005679736F757661C1
:1022D0006D2066696C616D656E740043656C6B653D
:1022E0006D00506F757A69746520626568656D2050
:1022F0007469736B75004E6170657469006E657A00
:102300006E616D790043656B61207365206E61209D
:10231000757A69766174656C652E2E2E0043656B47
:10232000616E69206E61207A63686C61646E757499
:102330006920747279736B79206120706F646C6F9F
:102340007A6B792E0043656B616E69206E61207A2D
:1023500063686C61646E7574692050494E44410035
:10236000506F757A696A74652076796A6D6F7574D5
:102370002070726F206F64737472616E656E692075
:1023800066696C616D656E7475203120706F6B7558
:102390006420707265736168756A65207A20505494
:1023A0004645207472756269636B79207A61207486
:1023B00069736B61726E6F752E20506F757A696AE2
:1023C000746520767973756E6F75742C20706F6BE1
:1023D0007564206E656E692076696465742E00569A
:1023E00061726F76616E693A20646F736C6F206BF7
:1023F00065207A6D656E65207479707520746973D7
:102400006B61726E792061206D6F74686572626FA6
:10241000617264752E005661726F76616E693A2042
:10242000646F736C6F206B65207A6D656E652074C8
:10243000797075206D6F74686572626F6172647512
:102440002E005661726F76616E693A20646F736C0C
:102450006F206B65207A6D656E65207479707520CC
:102460007469736B61726E792E0042796C6F20769D
:102470007973756E7574692066696C616D656E74CB
:10248000752075737065736E653F0043687962618E
:10249000207A61706F6A656E6900507275766F643C
:1024A00063650044657461696C792058595A206BE2
:1024B000616C2E004B616C696272616365205859D2
:1024C0005A2073656C68616C612E204E61686C6582
:1024D000646E65746520646F206D616E75616C75E6
:1024E0002E00416E6F00507275766F646365206DCB
:1024F000757A657465206B64796B6F6C6976207A88
:102500006E6F76752073707573746974207A206DA0
:10251000656E75204B616C696272616365202D3E4A
:1025200020507275766F646365004B616C696272EE
:102530006163652058595A207620706F7261646B10
:10254000752E205A6B6F73656E6920627564652005
:102550006175746F6D617469636B79207679726FE0
:10256000766E616E6F20707269207469736B752E60
:10257000004B616C6962726163652058595A20761C
:1025800020706F7261646B752E20582F59206F7305
:1025900079206D69726E65207A6B6F73656E652E3A
:1025A00020446F6272612070726163652100004B8C
:1025B0006F72656B636520583A004B616C6962729B
:1025C0006163652058595A207620706F7261646B80
:1025D000752E20582F59206F7379206A736F7520DC
:1025E0006B6F6C6D652E2047726174756C756A69CE
:1025F00021004B616C6962726163652058595A20F1
:102600006E65707265736E612E20507265646E69BE
:10261000206B616C69627261636E6920626F6479BC
:10262000206D6F63207670726564752E004B616C4F
:102630006962726163652058595A206E65707265CF
:10264000736E612E20507261767920707265646EAF
:102650006920626F64206D6F6320767072656475A7
:102660002E005A617665737420767365004B616C39
:102670006962726163652058595A2073656C68619C
:102680006C612E204B616C69627261636E692062BD
:102690006F6420706F646C6F7A6B79206E656E6109
:1026A0006C657A656E2E004B616C69627261636560
:1026B0002058595A2073656C68616C612E205072E5
:1026C00065646E69206B616C69627261636E69201A
:1026D000626F6479206D6F63207670726564752E09
:1026E0002053726F766E656A7465207469736B61CE
:1026F000726E752E004B616C696272616365205861
:10270000595A2073656C68616C612E205072617635
:102710007920707265646E6920626F64206D6F63EA
:10272000207670726564752E2053726F766E656ABE
:102730007465207469736B61726E752E0059207612
:102740007A64616C656E6F7374206F64206D696E5E
:10275000005469736B61726E61207A61636E6520EB
:102760007469736B6E6F7574206C6F6D656E6F75C9
:1027700020636172752E204F746163656E696D20F0
:10278000746C616369746B61206E617374617674DB
:1027900065206F7074696D616C6E69207679736BFA
:1027A000752E20506F73747570756A746520706F24
:1027B000646C65206F6272617A6B75207620686147
:1027C0006E64626F6F6B7520286B617069746F6CDB
:1027D00061204B616C696272616365292E004F76DE
:1027E0006572656E692073656C68616C6F2C20760C
:1027F000796A6D6574652066696C616D656E7420BB
:1028000061207A6B75737465207A6E6F76752E0011
:102810004B6F72656B636520593A00567970005AA8
:102820006170005A706574004B6F6E74726F6C61EA
:102830000046616C65736E65207370757374656EA8
:1028400069000000507269736E65005661726F76A0
:102850006174004857206E6173746176656E69001B
:10286000004B6F6D702E206D61676E657475000092
:102870004D65736820426564204C6576656C696EB1
:1028800067004D4B3353206669726D776172652026
:10289000646574656B6F76616E206E612074697318
:1028A0006B61726E65204D4B33004D4D55206D6F41
:1028B000640050726F62696861207A6D656E612094
:1028C0006D6F64752E2E2E0000547279736B61004B
:1028D0000000472D636F6465206A6520707269701F
:1028E000726176656E2070726F206A696E792074ED
:1028F0007970207469736B61726E792E20506F6BE2
:102900007261636F7661743F00472D636F64652069
:102910006A652070726970726176656E2070726F80
:10292000206A696E7920747970207469736B6172A2
:102930006E792E2050726F73696D20707265736CA2
:102940006963756A7465206D6F64656C207A6E6F5B
:1029500076752E205469736B207A727573656E2EAE
:1029600000472D636F6465206A652070726970721C
:102970006176656E2070726F206E6F76656A73691E
:10298000206669726D776172652E20506F6B72617F
:10299000636F7661743F00472D636F6465206A65DD
:1029A0002070726970726176656E2070726F206E31
:1029B0006F76656A7369206669726D776172652EDC
:1029C0002050726F73696D20616B7475616C697AE8
:1029D000756A7465206669726D776172652E205420
:1029E00069736B207A727573656E2E000050726584
:1029F000646568726576206B6520737472696875AA
:102A000000507265646568726576206B2076797314
:102A1000756E757469005072756D65722074727987
:102A2000736B79207469736B61726E7920736520A2
:102A30006C697369206F6420472D636F64652E2075
:102A4000506F6B7261636F7661743F005072756D89
:102A5000657220747279736B79207469736B61721B
:102A60006E79207365206C697369206F6420472D2F
:102A7000636F64652E2050726F73696D207A6B6F7F
:102A80006E74726F6C756A7465206E6173746176B2
:102A9000656E692E205469736B207A727573656E4A
:102AA0002E00005072656A6D656E6F766174005617
:102AB00079627261740053656E7A6F7220696E6616
:102AC0006F00506C61740041736973742E00546917
:102AD000736B6F766520706C617479004B6F7265F3
:102AE0006B6365205A3A00506F636574206D6572A0
:102AF000656E69205A000000000000000000000020
:102B000000000000000000000000000000000000C5
:102B100000000000000000000000000000000000B5
:102B200000000000000000000000000000000000A5
:102B30000000000000000000000000000000000095
:103410000000000000000000000000000000590152
:10342000472D636F646520736C6963656420666F04
:1034300072206120646966666572656E74206C65D1
:1034400076656C2E20436F6E74696E75653F005A09
:1034500001472D636F646520736C69636564206642
:103460006F72206120646966666572656E74206C97
:103470006576656C2E20506C656173652072652DD4
:10348000736C69636520746865206D6F64656C207A
:10349000616761696E2E205072696E742063616E7F
:1034A00063656C6C65642E005E01472D636F646517
:1034B00020736C6963656420666F722061206E659D
:1034C000776572206669726D776172652E20506C27
:1034D000656173652075706461746520746865202A
:1034E0006669726D776172652E205072696E742004
:1034F00063616E63656C6C65642E005D01472D63CE
:103500006F646520736C6963656420666F72206107
:10351000206E65776572206669726D776172652EBF
:1035200020436F6E74696E75653F005C01472D63C3
:103530006F646520736C6963656420666F722061D7
:1035400020646966666572656E74207072696E7457
:10355000657220747970652E20506C6561736520EA
:1035600072652D736C69636520746865206D6F6486
:10357000656C20616761696E2E205072696E7420DF
:1035800063616E63656C6C65642E005B01472D633F
:103590006F646520736C6963656420666F72206177
:1035A00020646966666572656E74207072696E74F7
:1035B000657220747970652E20436F6E74696E7524
:1035C000653F005B01472D636F646520736C696321
:1035D000656420666F722061206469666665726545
:1035E0006E74207072696E74657220747970652EC5
:1035F00020436F6E74696E75653F005C01472D63F3
:103600006F646520736C6963656420666F72206106
:1036100020646966666572656E74207072696E7486
:10362000657220747970652E20506C656173652019
:1036300072652D736C69636520746865206D6F64B5
:10364000656C20616761696E2E205072696E74200E
:1036500063616E63656C6C65642E00CD00507265AD
:103660007373206B6E6F6220746F20707265686573
:103670006174206E6F7A7A6C6520616E6420636F6E
:103680006E74696E75652E00C000506C656173655F
:1036900020707265737320746865206B6E6F622092
:1036A000746F20756E6C6F61642066696C616D6506
:1036B0006E7400E10052656D6F7665206F6C64205A
:1036C00066696C616D656E7420616E6420707265F0
:1036D000737320746865206B6E6F6220746F207343
:1036E00074617274206C6F6164696E67206E6577B7
:1036F0002066696C616D656E742E000E00616E64EB
:1037000020707265737320746865206B6E6F620041
:103710007A00496E736572742066696C616D656EBE
:1037200074002D00436F6C6F72206E6F7420636F96
:10373000727265637400540046696C616D656E74E5
:10374000206E6F74206C6F61646564006C00436868
:10375000616E67656420636F72726563746C793F34
:103760000087004C6F6164696E6720636F6C6F72D5
:10377000006B004368616E676520737563636573F2
:10378000732100BE00506C65617365206F70656EBB
:103790002069646C657220616E642072656D6F765D
:1037A000652066696C616D656E74206D616E756112
:1037B0006C6C792E0030015761732066696C616D05
:1037C000656E7420756E6C6F6164207375636365DC
:1037D000737366756C3F00CC00506C656173652037
:1037E000757067726164652E00AC004E6577206667
:1037F00069726D776172652076657273696F6E208C
:10380000617661696C61626C653A002B0157616990
:1038100074696E6720666F722050494E4441207073
:10382000726F626520636F6F6C696E67007400432E
:10383000686F6F73652065787472756465723A009D
:103840004A00457874727564657200750043686F4C
:103850006F73652066696C616D656E743A00A700D0
:103860004E6F206D6F76652E0029015761697420B7
:10387000666F7220757365722E2E2E000801536FCD
:103880006D652070726F626C656D20656E636F751B
:103890006E74657265642C205A2D6C6576656C6952
:1038A0006E6720656E666F72636564202E2E2E0033
:1038B0000C01537461626C6520616D6269656E74A0
:1038C0002074656D70657261747572652032312D7A
:1038D000323643206973206E65656465642061201B
:1038E0007269676964207374616E64206973207201
:1038F000657175697265642E00C400506C656173F2
:10390000652072756E2058595A2063616C69627225
:103910006174696F6E2066697273742E001B0154A6
:1039200068657265206973207374696C6C2061200E
:103930006E65656420746F206D616B65205A20632D
:10394000616C6962726174696F6E2E20506C656182
:10395000736520666F6C6C6F7720746865206D618D
:103960006E75616C2C2063686170746572204669A5
:103970007273742073746570732C2073656374693B
:103980006F6E2043616C6962726174696F6E20664C
:103990006C6F772E00D8005072696E746572206863
:1039A0006173206E6F74206265656E2063616C695F
:1039B000627261746564207965742E20506C656153
:1039C000736520666F6C6C6F7720746865206D611D
:1039D0006E75616C2C206368617074657220466935
:1039E0007273742073746570732C207365637469CB
:1039F0006F6E2043616C6962726174696F6E2066DC
:103A00006C6F772E00B1004F6C642073657474691D
:103A10006E677320666F756E642E204465666175EF
:103A20006C74205049442C20457374657073206574
:103A300074632E2077696C6C206265207365742E28
:103A4000002D015761726E696E673A20626F74686B
:103A5000207072696E746572207479706520616E71
:103A600064206D6F74686572626F6172642074792E
:103A70007065206368616E6765642E002F01576171
:103A8000726E696E673A207072696E746572207426
:103A9000797065206368616E6765642E002E01573A
:103AA00061726E696E673A206D6F74686572626FDD
:103AB0006172642074797065206368616E67656403
:103AC0002E00370158595A2063616C696272617423
:103AD000696F6E20616C6C2072696768742E205368
:103AE0006B65772077696C6C20626520636F7272FA
:103AF0006563746564206175746F6D617469636179
:103B00006C6C792E00380158595A2063616C6962D7
:103B1000726174696F6E20616C6C20726967687481
:103B20002E20582F592061786573206172652073AB
:103B30006C696768746C7920736B657765642E2097
:103B4000476F6F64206A6F6221003B0158595A2009
:103B500063616C6962726174696F6E206F6B2E2095
:103B6000582F5920617865732061726520706572E5
:103B700070656E646963756C61722E20436F6E6749
:103B8000726174756C6174696F6E7321003D0158C8
:103B9000595A2063616C6962726174696F6E206347
:103BA0006F6D70726F6D697365642E2052696768FE
:103BB000742066726F6E742063616C6962726174E6
:103BC000696F6E20706F696E74206E6F74207265FD
:103BD00061636861626C652E003C0158595A20632C
:103BE000616C6962726174696F6E20636F6D70726F
:103BF0006F6D697365642E2046726F6E7420636109
:103C00006C6962726174696F6E20706F696E747333
:103C1000206E6F7420726561636861626C652E004E
:103C2000410158595A2063616C6962726174696F0D
:103C30006E206661696C65642E2052696768742025
:103C400066726F6E742063616C6962726174696F11
:103C50006E20706F696E74206E6F74207265616380
:103C60006861626C652E00400158595A2063616C8E
:103C70006962726174696F6E206661696C65642E39
:103C80002046726F6E742063616C69627261746940
:103C90006F6E20706F696E7473206E6F7420726522
:103CA00061636861626C652E00340158595A206363
:103CB000616C6962726174696F6E206661696C65BE
:103CC000642E20506C6561736520636F6E73756C34
:103CD0007420746865206D616E75616C2E003F0103
:103CE00058595A2063616C6962726174696F6E2001
:103CF0006661696C65642E204265642063616C694D
:103D000062726174696F6E20706F696E7420776182
:103D100073206E6F7420666F756E642E00BF005046
:103D20006C6561736520706C616365207374656593
:103D30006C207368656574206F6E206865617462BD
:103D400065642E00380044697374616E6365206297
:103D500065747765656E20746970206F662074687D
:103D600065206E6F7A7A6C6520616E642074686578
:103D70002062656420737572666163652068617393
:103D8000206E6F74206265656E207365742079659E
:103D9000742E20506C6561736520666F6C6C6F7754
:103DA00020746865206D616E75616C2C206368619C
:103DB00070746572204669727374207374657073D1
:103DC0002C2073656374696F6E204669727374206A
:103DD0006C617965722063616C6962726174696F8C
:103DE0006E2E00B900506C616365206120736865B8
:103DF0006574206F6620706170657220756E6465F1
:103E00007220746865206E6F7A7A6C6520647572B2
:103E1000696E67207468652063616C6962726174A1
:103E2000696F6E206F66206669727374203420702B
:103E30006F696E74732E20496620746865206E6FFA
:103E40007A7A6C6520636174636865732074686551
:103E50002070617065722C20706F776572206F66BC
:103E60006620746865207072696E74657220696D71
:103E70006D6564696174656C792E00C300506C6572
:103E80006173652072656D6F766520737465656C0E
:103E90002073686565742066726F6D206865617453
:103EA0006265642E007C00497320737465656C2024
:103EB0007368656574206F6E2068656174626564FF
:103EC0003F000300206F66203400ED0053656172EF
:103ED0006368696E67206265642063616C69627201
:103EE0006174696F6E20706F696E74000400206FDA
:103EF000662039008F004D6561737572696E6720A9
:103F00007265666572656E63652068656967687469
:103F1000206F662063616C6962726174696F6E20E4
:103F2000706F696E7400BB00506C656173652063CF
:103F30006C65616E20746865206E6F7A7A6C65209E
:103F4000666F722063616C6962726174696F6E2E54
:103F500020436C69636B207768656E20646F6E65C3
:103F60002E0011004175746F20686F6D65001C0094
:103F7000426564206C6576656C696E672066616970
:103F80006C65642E2053656E736F72206469646E75
:103F90007420747269676765722E20446562726965
:103FA00073206F6E206E6F7A7A6C653F205761695F
:103FB00074696E6720666F722072657365742E0077
:103FC000C500506C6561736520757064617465200F
:103FD0006669726D7761726520696E20796F75729E
:103FE000204D4D55322E2057616974696E672066E9
:103FF0006F722072657365742E00C600506C656127
:104000007365207761697400B80050494E444120BF
:1040100048656174696E6700290043616C6962726A
:104020006174696F6E20646F6E6500270043616C78
:104030006962726174696E67205A00180042656493
:1040400020646F6E650019004265642048656174E4
:10405000696E6700660048656174696E6720646F09
:104060006E652E00670048656174696E67004C01DB
:104070004669726D776172650057014D6F64656CBA
:10408000004D01537472696374004E015761726E82
:10409000004F014857205365747570004F01485711
:1040A000205365747570004901436865636B730044
:1040B00058014E6F7A7A6C6520642E006A01537441
:1040C00065656C2073686565747300FF004E6F6EE4
:1040D00065000201416C70686162657400FE005306
:1040E0006F727400000154696D65009A004E6F7222
:1040F0006D616C00EA005344206361726400EB0060
:10410000466C61736841697200EE0053656C6563CB
:1041100074206C616E677561676500130154656D8D
:10412000702E2063616C2E0053014D657368206210
:104130006564206C6576656C696E67004F01485751
:1041400020536574757000500046616E732063687B
:1041500065636B004C00462E206175746F6C6F6157
:104160006400370044697361626C65207374657024
:104170007065727300A3004D6F7665206178697376
:1041800000190154656D7065726174757265001572
:104190000154656D702E2063616C6962726174698F
:1041A0006F6E00E30052657365742058595A20639E
:1041B000616C6962722E00FB0053686F7720656E38
:1041C000642073746F707300B700504944206361BA
:1041D0006C6962726174696F6E001A0042656420D6
:1041E0006C6576656C20636F727265637400900015
:1041F0004D65736820426564204C6576656C696E18
:104200006700240043616C696272617465205A0022
:10421000230043616C6962726174652058595A00C9
:10422000F10053656C667465737420202020202093
:1042300020202000320157697A617264003E014CEF
:104240006F616420616C6C003C00456A656374209A
:1042500066696C616D656E74004A004578747275AC
:1042600064657200A6004D6F7665205A00A5004D6A
:104270006F7665205900A4004D6F766520580013B5
:10428000004175746F6C6F6164696E672066696C5C
:10429000616D656E7420617661696C61626C652028
:1042A0006F6E6C79207768656E2066696C616D65EC
:1042B0006E742073656E736F7220697320747572EB
:1042C0006E6564206F6E2E2E2E0045004552524FB3
:1042D000523A2046696C616D656E742073656E7329
:1042E0006F72206973206E6F7420726573706F6EC9
:1042F00064696E672C20706C656173652063686506
:10430000636B20636F6E6E656374696F6E2E002F32
:1043100000436F70792073656C6563746564206C0D
:10432000616E67756167653F00250043616C696276
:104330007261746500FFFF536865657420252E3730
:10434000730A5A206F66667365743A20252B312EE6
:104350003366206D6D0A2563436F6E74696E7565F3
:104360000A256353746172742066726F6D207A65DA
:10437000726F00DC00506C65617365206C6F616466
:104380002066696C616D656E742066697273742E47
:10439000007B0049732066696C616D656E74206CEA
:1043A0006F616465643F00120153656C656374203E
:1043B00066696C616D656E743A00760046696C6181
:1043C0006D656E74002B0043616E63656C00E900DF
:1043D00052756E6E696E672057697A6172642077D4
:1043E000696C6C2064656C657465206375727265B8
:1043F0006E742063616C6962726174696F6E2072A1
:104400006573756C747320616E642073746172746B
:104410002066726F6D2074686520626567696E6ED4
:10442000696E672E20436F6E74696E75653F00CAB2
:104430000050726568656174696E67206E6F7A7A84
:104440006C652E20506C6561736520776169742EF0
:104450000088004C6F6164696E672066696C616DED
:10446000656E7400DA00506C6561736520696E7367
:104470006572742066696C616D656E7420696E7416
:104480006F207468652065787472756465722C207D
:104490007468656E20707265737320746865206B34
:1044A0006E6F6220746F206C6F61642069742E00DF
:1044B000DB00506C6561736520696E7365727420F2
:1044C00066696C616D656E7420696E746F207468C6
:1044D000652066697273742074756265206F66204A
:1044E000746865204D4D552C207468656E2070727F
:1044F00065737320746865206B6E6F6220746F2023
:104500006C6F61642069742E0043015468652070EB
:1045100072696E7465722077696C6C207374617255
:1045200074207072696E74696E672061207A6967A1
:104530002D7A6167206C696E652E20526F746174EC
:104540006520746865206B6E6F6220756E74696C8F
:1045500020796F7520726561636820746865206FCB
:104560007074696D616C206865696768742E20439A
:104570006865636B20746865207069637475726523
:104580007320696E207468652068616E64626F6F65
:104590006B202843616C6962726174696F6E20637D
:1045A000686170746572292E00140153656C65632F
:1045B000742074656D7065726174757265207768BA
:1045C000696368206D61746368657320796F7572C3
:1045D000206D6174657269616C2E00310043686FF3
:1045E0006F736520612066696C616D656E7420660D
:1045F0006F7220746865204669727374204C61790B
:1046000065722043616C6962726174696F6E2061CA
:104610006E642073656C65637420697420696E2014
:10462000746865206F6E2D73637265656E206D65AD
:104630006E752E00AE004E6F7720492077696C6C46
:104640002063616C6962726174652064697374616E
:104650006E6365206265747765656E20746970208D
:104660006F6620746865206E6F7A7A6C6520616E63
:104670006420686561746265642073757266616345
:10468000652E003601596F752063616E20616C776D
:1046900061797320726573756D6520746865205744
:1046A000697A6172642066726F6D2043616C696221
:1046B000726174696F6E202D3E2057697A61726451
:1046C0002E00BD00506C6561736520636865636B87
:1046D000206F75722068616E64626F6F6B20616E0F
:1046E0006420666978207468652070726F626C65FA
:1046F0006D2E205468656E20726573756D6520742B
:1047000068652057697A61726420627920726562F7
:104710006F6F74696E6720746865207072696E745B
:1047200065722E000B00416C6C20697320646F6E03
:10473000652E204861707079207072696E74696EA0
:104740006721007E00496620796F75206861766573
:10475000206164646974696F6E616C20737465654F
:104760006C207368656574732C2063616C69627278
:104770006174652074686569722070726573657410
:104780007320696E2053657474696E6773202D20E1
:104790004857205365747570202D20537465656CDF
:1047A000207368656574732E00BA00506C65617380
:1047B0006520636C65616E20686561746265642064
:1047C000616E64207468656E207072657373207406
:1047D0006865206B6E6F622E003A00446F20796F1F
:1047E000752077616E7420746F20726570656174D6
:1047F000206C617374207374657020746F2072650F
:1048000061646A7573742064697374616E63652092
:104810006265747765656E206E6F7A7A6C6520616B
:104820006E6420686561746265643F00F5005365DD
:104830006C656374206E6F7A7A6C6520707265683F
:104840006561742074656D70657261747572652040
:104850007768696368206D61746368657320796F38
:104860007572206D6174657269616C2E007B004900
:10487000732066696C616D656E74206C6F61646530
:10488000643F007B0049732066696C616D656E74DE
:10489000206C6F616465643F00AF004E6F77204904
:1048A0002077696C6C2070726568656174206E6F2A
:1048B0007A7A6C6520666F7220504C412E00780029
:1048C000492077696C6C2072756E207A2063616C68
:1048D0006962726174696F6E206E6F772E00B2002C
:1048E0004E6F772072656D6F7665207468652074F1
:1048F000657374207072696E742066726F6D2073B8
:104900007465656C2073686565742E00C700506C13
:10491000656173652072656D6F7665207368697077
:1049200070696E672068656C706572732066697265
:1049300073742E007700492077696C6C2072756E55
:104940002078797A2063616C6962726174696F6E34
:10495000206E6F772E2049742077696C6C2074610B
:104960006B6520617070726F782E203132206D6916
:104970006E732E005D0046697273742C2049207797
:10498000696C6C2072756E207468652073656C6646
:104990007465737420746F20636865636B206D6F3A
:1049A000737420636F6D6D6F6E20617373656D62DC
:1049B0006C792070726F626C656D732E00680048B0
:1049C000692C204920616D20796F7572204F7269C2
:1049D00067696E616C205072757361206933207055
:1049E00072696E7465722E20576F756C6420796FD2
:1049F00075206C696B65206D6520746F2067756923
:104A0000646520796F75207468726F7567682074AB
:104A100068652073657475702070726F6365737359
:104A20003F00100053706F6F6C4A6F696E00430057
:104A300043757474657200160154656D706572611A
:104A4000747572652063616C6962726174696F6EFE
:104A5000206661696C656400170154656D7065724C
:104A600061747572652063616C6962726174696FEB
:104A70006E2069732066696E697368656420616E73
:104A800064206163746976652E2054656D702E20F4
:104A900063616C6962726174696F6E2063616E201C
:104AA00062652064697361626C656420696E206D63
:104AB000656E752053657474696E67732D3E546519
:104AC0006D702E2063616C2E00500149523A004BEC
:104AD0000146494E44413A005F0150494E44413A33
:104AE00000FC0053656E736F72207374617465000F
:104AF00041004572726F72202D2073746174696376
:104B0000206D656D6F727920686173206265656ED6
:104B1000206F7665727772697474656E002C00433D
:104B20006172642072656D6F76656400F800507282
:104B3000757361206933204D4B322E3553204F4B16
:104B40002E0063015072696E746572206E6F7A7AFE
:104B50006C65206469616D65746572206469666660
:104B60006572732066726F6D2074686520472D63CF
:104B70006F64652E20506C656173652063686563A2
:104B80006B207468652076616C756520696E207392
:104B9000657474696E67732E205072696E74206339
:104BA000616E63656C6C65642E0062015072696EA3
:104BB000746572206E6F7A7A6C65206469616D65C8
:104BC00074657220646966666572732066726F6DC3
:104BD0002074686520472D636F64652E20436F6ED7
:104BE00074696E75653F0042004375742066696C98
:104BF000616D656E7400C100506C656173652070F5
:104C0000756C6C206F75742066696C616D656E746F
:104C100020696D6D6564696174656C790024015566
:104C20006E6C6F6164696E672066696C616D656E3C
:104C30007400E600526573756D696E672070726965
:104C40006E7400E400526573657400650152656E10
:104C5000616D65005C004669727374206C617965F2
:104C6000722063616C2E00660153656C656374008D
:104C70006A01537465656C207368656574730068B8
:104C8000015368656574001001537570706F72741C
:104C9000004B004661696C207374617473204D4D44
:104CA00055004D004661696C207374617473000D8A
:104CB00001537461746973746963732020002A005E
:104CC00043616C6962726174696F6E0012004175B4
:104CD000746F4C6F61642066696C616D656E740001
:104CE00042004375742066696C616D656E74003CAA
:104CF00000456A6563742066696C616D656E740059
:104D00002301556E6C6F61642066696C616D656E20
:104D100074008A004C6F616420746F206E6F7A7A21
:104D20006C650086004C6F61642066696C616D651E
:104D30006E7400A8004E6F205344206361726400BB
:104D4000E500526573756D65207072696E7400B40C
:104D5000005061757365207072696E7400E50052D1
:104D60006573756D65207072696E7400C90050724C
:104D70006568656174001E0154756E650084004CA1
:104D80006976652061646A757374205A00790049F8
:104D90006E666F2073637265656E005B0046696EB8
:104DA000697368696E67206D6F76656D656E747383
:104DB0000069014173736973740009014F6E636583
:104DC000000601536F756E640004014C6F7564003A
:104DD0009F004175746F20706F776572009B005360
:104DE000696C656E740098004D6F646500A00048A2
:104DF00069676820706F77657200500046616E7356
:104E000020636865636B00510046696C2E207365F2
:104E10006E736F72006A004368616E676520666931
:104E20006C616D656E74005F00466C6F77000A01FF
:104E30005370656564002E00436F6F6C646F776E0E
:104E400000C8005072656865617420746865206EE2
:104E50006F7A7A6C65210047004552524F523A00F2
:104E6000530046696C616D656E7420657874727567
:104E700064696E672026207769746820636F727298
:104E800065637420636F6C6F723F0014004175742A
:104E90006F6C6F6164696E672066696C616D656EC9
:104EA00074206973206163746976652C206A757358
:104EB0007420707265737320746865206B6E6F6206
:104EC00020616E6420696E736572742066696C611E
:104ED0006D656E742E2E2E00560046696C616D65F0
:104EE0006E7420757365640057005072696E74208B
:104EF00074696D65001C01546F74616C2066696C87
:104F0000616D656E74001D01546F74616C20707268
:104F1000696E742074696D6500420159206469737B
:104F200074616E63652066726F6D206D696E0081BD
:104F3000004C65667400EC00526967687400930069
:104F40004D6561737572656420736B65770005014B
:104F5000536C6967687420736B65773A000101537D
:104F6000657665726520736B65773A0005005B3086
:104F70003B305D20706F696E74206F666673657478
:104F800000090041646A757374696E67205A3A00BB
:104F9000E400526573657400DE005265617220732F
:104FA000696465205B756D5D00620046726F6E74AA
:104FB00020736964655B756D5D00E7005269676821
:104FC0007420736964655B756D5D0082004C656675
:104FD000742073696465205B756D5D00F600536530
:104FE000742074656D70657261747572653A000F36
:104FF00000417265206C65667420616E6420726980
:10500000676874205A7E6361727269616765732094
:10501000616C6C2075703F00260043616C696272A0
:105020006174696E672058595A2E20526F746174EA
:105030006520746865206B6E6F6220746F206D6FE1
:10504000766520746865205A2063617272696167B1
:105050006520757020746F2074686520656E64200B
:1050600073746F70706572732E20436C69636B206C
:105070007768656E20646F6E652E00280043616C52
:105080006962726174696E67205A2E20526F746172
:10509000746520746865206B6E6F6220746F206D7C
:1050A0006F766520746865205A2063617272696149
:1050B000676520757020746F2074686520656E6464
:1050C0002073746F70706572732E20436C69636B0C
:1050D000207768656E20646F6E652E000301536F44
:1050E0007274696E672066696C657300FD00536FAA
:1050F0006D652066696C65732077696C6C206E6FD6
:105100007420626520736F727465642E204D61781F
:105110002E204E6F2E206F662066696C65732069A5
:105120006E203120666F6C64657220666F7220732A
:105130006F7274696E67206973203130302E0051B0
:10514000014D61676E65747320636F6D702E00A9E9
:10515000004E2F410046014F66660047014F6E002A
:105160006C015A2D70726F6265206E722E005201B2
:105170004D657368004E0046616E2073706565640E
:10518000001F0042656400B0004E6F7A7A6C6500C3
:10519000FA0053657474696E677300D000507269C9
:1051A0006E742061626F72746564000E0153746FD7
:1051B00070207072696E74005A0046696C652069CF
:1051C0006E636F6D706C6574652E20436F6E7469CD
:1051D0006E756520616E797761793F00D4005072F9
:1051E000696E742066726F6D2053440048014261FD
:1051F000636B008C004D61696E0097004D4D55202A
:105200004F4B2E20526573756D696E672E2E2E00E2
:1052100091004D4D55204F4B2E20526573756D6991
:105220006E6720706F736974696F6E2E2E2E0092F8
:10523000004D4D55204F4B2E20526573756D696E94
:10524000672074656D70657261747572652E2E2E9F
:10525000005E00466978207468652069737375651F
:1052600020616E64207468656E20707265737320AF
:10527000627574746F6E206F6E204D4D5520756E83
:1052800069742E00D70050726573732074686520AE
:105290006B6E6F6220746F20726573756D65206E22
:1052A0006F7A7A6C652074656D7065726174757261
:1052B000652E009C004D4D55206E6565647320750C
:1052C00073657220617474656E74696F6E2E00442C
:1052D0000043757474696E672066696C616D656EF4
:1052E0007400C200506C656173652072656D6F76E5
:1052F000652066696C616D656E7420616E642074F2
:1053000068656E20707265737320746865206B6EBB
:105310006F622E003D00456A656374696E672066A2
:10532000696C616D656E740095004D4D55206C6F14
:105330006164206661696C65642020202020000F74
:105340000153544F505045442E200065004865617C
:1053500074696E672064697361626C656420627948
:10536000207361666574792074696D65722E0064BE
:10537000012573206C6576656C20657870656374B3
:105380006564004A0146616C7365207472696767E1
:105390006572696E67001101537761707065640012
:1053A000630046726F6E742F6C6566742066616E62
:1053B0007300160041786973001500417869732005
:1053C0006C656E6774680089004C6F6F7365207040
:1053D000756C6C6579003E00456E6473746F702067
:1053E0006E6F7420686974003F00456E6473746F5B
:1053F0007000A2004D6F746F72004000456E6473C0
:10540000746F7073003101576972696E672065723D
:10541000726F72001700426564202F204865617426
:10542000657200AB004E6F7420636F6E6E656374BF
:1054300065640064004865617465722F5468657224
:105440006D6973746F7200BC00506C656173652088
:10545000636865636B203A00F20053656C6674659F
:105460007374206572726F72202100550046696C5A
:10547000616D656E742073656E736F7200D300503A
:1054800072696E742066616E3A00480045787472E5
:10549000756465722066616E3A00220043616C6932
:1054A00062726174696E6720686F6D6500F3005306
:1054B000656C6674657374206661696C6564202030
:1054C000000A00416C6C20636F7272656374202067
:1054D00020202020007000436865636B696E6720A0
:1054E00073656E736F727320006F00436865636B42
:1054F000696E6720686F74656E642020006D0043DC
:105500006865636B696E67206265642020202020D7
:10551000007300436865636B696E67205A20617889
:1055200069732020007200436865636B696E6720B1
:105530005920617869732020007100436865636BAE
:10554000696E67205820617869732020006E0043DF
:105550006865636B696E6720656E6473746F7073E2
:1055600000D9005072696E742046414E00B3004E5F
:105570006F7A7A6C652046414E002501546F746144
:105580006C007F004C617374207072696E74007DD2
:10559000004C617374207072696E74206661696C6E
:1055A000757265730094004D4D55206661696C738A
:1055B0000096004D4D55206C6F6164206661696CEA
:1055C00073002001546F74616C206661696C7572A0
:1055D00065730094004D4D55206661696C730096AB
:1055E000004D4D55206C6F6164206661696C7300DD
:1055F0009D004D4D5520706F776572206661696C16
:1056000073007D004C617374207072696E74206643
:1056100061696C7572657300520046696C616D2E2C
:105620002072756E6F757473002001546F74616C15
:10563000206661696C7572657300520046696C6121
:105640006D2E2072756E6F75747300CB0050494ECD
:105650004441001A0154656D70657261747572651C
:105660007300670153656E736F7220696E666F0019
:105670004900457874727564657220696E666F00C2
:10568000330158595A2063616C2E20646574616936
:105690006C73002801756E6B6E6F776E00A1004D04
:1056A0004D553220636F6E6E65637465640036001D
:1056B000446174653A006900686F77746F2E707288
:1056C00075736133642E636F6D006000666F727571
:1056D0006D2E707275736133642E636F6D00DD0023
:1056E000707275736133642E636F6D002201746F85
:1056F00020756E6C6F61642066696C616D656E7497
:10570000002101746F206C6F61642066696C616DAB
:10571000656E7400D50050726573732074686520DF
:105720006B6E6F620008003E43616E63656C0060E3
:105730000150726568656174696E6720746F2063DB
:10574000757400610150726568656174696E6720E7
:10575000746F20656A65637400D200507265686575
:105760006174696E6720746F20756E6C6F61640080
:10577000D10050726568656174696E6720746F202E
:105780006C6F6164002A0157616974696E672066F5
:105790006F72206E6F7A7A6C6520616E642062652C
:1057A0006420636F6F6C696E6700EF0053656C6611
:1057B0002074657374204F4B00F00053656C6620B5
:1057C00074657374207374617274202000AD004E90
:1057D0006F74207370696E6E696E67000B01537091
:1057E000696E6E696E670080004C65667420686F34
:1057F00074656E642066616E3F00610046726F6E74
:1058000074207072696E742066616E3F004F0046AE
:10581000616E207465737400350159657300AA00C8
:105820004E6F008B004D3131372046697273742002
:105830006C617965722063616C2E00B6005049443A
:105840002063616C2E2066696E697368656400B5BB
:10585000005049442063616C2E202020202020200D
:105860002020202000D6005072696E74207061756F
:1058700073656400256420627974657320777269AA
:105880007474656E20746F20454550524F4D2061F1
:1058900074206164647265737320307825303478C5
:1058A000004433202D20526561642F57726974655E
:1058B00020454550524F4D0A0020436F756E7420AD
:1058C000583A20005344207072696E74696E6720E4
:1058D0006279746520004E6F7420696E2066617273
:1058E0006D206D6F64652E00416374697665204597
:1058F000787472756465723A2000496E76616C69DD
:1059000064206578747275646572005A204F66660B
:1059100073657400556E6B6E6F776E20636F6D6D7F
:10592000616E643A2022004D32303020496E76613B
:105930006C696420657874727564657220007A5FA2
:105940006D61783A20007A5F6D696E3A2000795F68
:105950006D696E3A20006F70656E0054524947477A
:105960004552454400785F6D696E3A20005265707B
:105970006F7274696E6720656E6473746F702073E4
:1059800074617475730053494C454E54004E4F5228
:105990004D414C002553204D4F44453A20506572EF
:1059A00063656E7420646F6E653A2025643B2070D9
:1059B00072696E742074696D652072656D61696EBF
:1059C000696E6720696E206D696E733A2025640ADE
:1059D00000456E642066696C65206C6973740042D2
:1059E0006567696E2066696C65206C697374000A6E
:1059F00050494E44412074656D70657261747572D2
:105A0000653A20252E3166205A2073686966742015
:105A1000286D6D293A20252E3366000A537465706F
:105A20003A2025642F360A000A537465703A2025FF
:105A3000642F362028736B6970706564290A504999
:105A40004E44412074656D70657261747572653A7B
:105A5000202564205A20736869667420286D6D299A
:105A60003A300A000A5A45524F3A20252E33660A28
:105A70000073746172742074656D70657261747501
:105A800072653A20252E31660A0025642020252ED5
:105A9000326600255320583A20252E356620593A83
:105AA00020252E3566205A3A20252E35660A0053C9
:105AB0006C6565702E2E2E004E6F7420696E206608
:105AC00061726D206D6F64652E0025640045303A6B
:105AD00025642052504D0A50524E303A25642052CF
:105AE000504D0A002564002020506C616E6E657276
:105AF00042756666657242797465733A2000204685
:105B0000726565204D656D6F72793A2000207C20AA
:105B1000417574686F723A2000204C61737420558F
:105B20007064617465643A200020536F6674776115
:105B300072652052657365740020576174636864F0
:105B40006F67205265736574002042726F776E2014
:105B50006F757420526573657400204578746572A2
:105B60006E616C20526573657400506F7765725575
:105B700070006572726F722077726974696E672047
:105B8000746F2066696C6500656E6473746F707302
:105B9000206869743A2000446F6E652073617669ED
:105BA0006E672066696C652E006F6B003F3F00508A
:105BB0006F6C736B69004974616C69616E6F00464C
:105BC00072616E6361697300457370616E6F6C0022
:105BD000446575747363680043657374696E61002E
:105BE000456E676C6973680025632533642F2564EF
:105BF0002563005A25362E32662563005A20202060
:105C00002D2D2D200025632533642525002D2D2DD8
:105C10000025336868640025335325337325250038
:105C20005553420020202000205344002025753E7B
:105C3000257500203F3E257500204625750020462D
:105C40003F0020463020200025632D2D3A2D2D20A9
:105C500020002563253375682025632563002563AF
:105C6000253032753A253032752563256300576932
:105C70007A61726420656E642073746174653A2081
:105C800025640A004572723A205052494E5420460B
:105C9000414E204552524F520020203000202031EA
:105CA000004572723A20455854522E2046414E20EB
:105CB0004552524F52002F2F20616374696F6E3A24
:105CC000726573756D65640020746F6F206C6F6E04
:105CD0006720657874727573696F6E20707265766F
:105CE000656E7465640020636F6C642065787472FF
:105CF0007573696F6E2070726576656E7465640089
:105D000025533A0A2531382E32666D200A25533A3A
:105D10000A2531306C6468202530326868646D2053
:105D2000253032686864730025533A0A2531382ECD
:105D300032666D200A25533A0A2531306C6464209E
:105D400025303268686468202530326868646D00E8
:105D500025362E32666D6D0025533A0A25530A25E5
:105D6000533A0A25533A0025332E32660100255353
:105D70003A0A25530A252D31352E31355325332E38
:105D80003266010A252D31352E31355325332E3219
:105D900066010053442063617264206F6B006F7072
:105DA000656E526F6F74206661696C656400766F12
:105DB0006C756D652E696E6974206661696C6564C9
:105DC00000534420696E6974206661696C005772E3
:105DD0006974696E6720746F2066696C653A20008B
:105DE00046696C652073656C656374656400205357
:105DF000697A653A200046696C65206F70656E654A
:105E0000643A2000747279696E6720746F20636150
:105E10006C6C207375622D67636F64652066696CB6
:105E20006573207769746820746F6F206D616E7977
:105E3000206C6576656C732E006F70656E206661F0
:105E4000696C65642C2046696C653A20002F2F2010
:105E5000616374696F6E3A63616E63656C00436180
:105E60006E6E6F7420656E746572207375626469FE
:105E7000723A200025632533642F2564256300656D
:105E80006E717565696E67202200446F6E652070C3
:105E900072696E74696E672066696C65004D313198
:105EA000322063616C6C65642E20456D6572676598
:105EB0006E63792053746F702E005072696E746532
:105EC000722073746F707065642064756520746FE0
:105ED000206572726F72732E20466978207468652F
:105EE000206572726F7220616E6420757365204D3B
:105EF00039393920746F20726573746172742E2081
:105F00002854656D706572617475726520697320BF
:105F100072657365742E2053657420697420616600
:105F20007465722072657374617274696E6729009A
:105F30004E6F204C696E65204E756D6265722077DC
:105F400069746820636865636B73756D2C204C61A0
:105F50007374204C696E653A20004E6F204368656B
:105F6000636B73756D2077697468206C696E65204A
:105F70006E756D6265722C204C617374204C696E75
:105F8000653A2000636865636B73756D206D697396
:105F90006D617463682C204C617374204C696E656C
:105FA0003A20004C696E65204E756D6265722069FD
:105FB00073206E6F74204C617374204C696E652081
:105FC0004E756D6265722B312C204C617374204CC0
:105FD000696E653A2000526573656E640025533A18
:105FE00020256C640A25530A00496E616374697642
:105FF0006974792053687574646F776E004B494CEF
:106000004C45442E20005072696E746572206861A0
:106010006C7465642E206B696C6C28292063616C3C
:106020006C656421004B494C4C3A2025640A004DB4
:1060300032323120496E76616C6964206578747201
:106040007564657220004D32313820496E76616C7E
:10605000696420657874727564657220004D313012
:106060003920496E76616C69642065787472756454
:10607000657220004D31303520496E76616C69645F
:1060800020657874727564657220004D313034205B
:10609000496E76616C6964206578747275646572A6
:1060A00020002F2F20616374696F6E3A70617573E1
:1060B0006564002573202534642052504D0A2573F1
:1060C000202534642052504D0A006E616E00696EC6
:1060D00066004E414E494E495459494E46CDCCCCAE
:1060E0003D0AD7233C17B7D13877CC2B329595E6AC
:1060F000241FB14F0A000020410000C84200401C8C
:106100004620BCBE4CCA1B0E5AAEC59D7400407AD8
:1061100010F35A00A0724E18090010A5D4E8000030
:10612000E87648170000E40B54020000CA9A3B00CE
:106130000000E1F505000080969800000040420F45
:10614000000000A08601000000102700000000E809
:1061500003000000006400000000000A00000000CE
:10616000000100000000002C76D888DC674F08236F
:10617000DFC1DFAE59E1B1B796E5E3E453C63AE6D5
:1061800051997696E8E6C28426EB898C9B62ED40B5
:106190007C6FFCEFBC9C9F40F2BAA56FA5F4900504
:1061A0005A2AF75C936B6CF9676DC11BFCE0E40D38
:1061B00047FEF520E6B500D0ED902E03009435772C
:1061C000050080841E080000204E0A000000C80C54
:1061D000333333330F986E12831141EF8D211489BD
:1061E0003BE65516CFFEE6DB18D1844B381BF77C17
:1061F0001D901DA4BBE424203284725E228100C95C
:10620000F124ECA1E53D276364696E6F70737578C6
:10621000585B00442D31202D20456E646C657373EE
:10622000206C6F6F700A00416476616E6365204B6D
:106230003D004B206F7574206F6620616C6C6F772A
:1062400065642072616E676521004D3232302053E3
:10625000256900255346696C616D656E7420736510
:106260007474696E67733A2044697361626C656423
:106270000A00255346696C616D656E742073657400
:1062800074696E67733A0A25532020204D323030EE
:106290002044252E32660A002553526574726163CC
:1062A000743A20533D4C656E67746820286D6D29E3
:1062B00020463A537065656420286D6D2F6D292046
:1062C0005A3A205A4C69667420286D6D290A255364
:1062D0002020204D3230372053252E32662046258F
:1062E0002E3266205A252E32660A25535265636F78
:1062F0007665723A20533D4578747261206C656E04
:1063000067746820286D6D2920463A53706565646E
:1063100020286D6D2F6D290A25532020204D323005
:10632000382053252E32662046252E32660A255304
:106330004175746F2D526574726163743A20533DD8
:106340003020746F2064697361626C652C20312089
:10635000746F20696E7465727072657420657874EC
:10636000727564652D6F6E6C79206D6F7665732024
:106370006173207265747261637473206F7220722E
:1063800065636F7665726965730A25532020204D19
:10639000323039205325640A00255350494420687F
:1063A0006561746265642073657474696E67733ABD
