:100000000C9429610C945A610C945A610C945A61B5
:100010000C945A610C945A610C945A610C945A6174
:100020000C945A610C945A610C945A610C945A6164
:100030000C945A610D9400710C945A610C945A619D
:100040000C945A610D9405950C945A610C945A6164
:100050000C945A610C945A610D9425650D94A67206
:100060000C945A610D942D7F0C945A610C945A6132
:100070000C945A610C945A610C945A610C945A6114
:100080000C945A610C945A610C945A610C945A6104
:100090000C945A610C945A610C945A610C945A61F4
:1000A0000C945A610C945A610C945A610C945A61E4
:1000B0000C945A610C945A610C945A610C945A61D4
:1000C0000C945A610C945A610C945A610C945A61C4
:1000D0000C945A610C945A610C945A610C945A61B4
:1000E0000C945A61BAF9D2F9E4F9FAF90BFA1FFA49
:1000F000B2FA39FA60FA70FA8DFAACFADFFAE7FA76
:10010000EFFAEFFAEFFA15FB15FB15FBF7FA24FBF4
:1001100015FB01FB5C014E017C019C017A017E0113
:1001200052013A0162016401A6019E01AA016E0119
:100130005E0134012C015601B001A4015401880173
:100140008601900168012C014A01580170016C017F
:1001500096018E01B2013001940150013C019801D9
:100160009A01AE01780192016001940146012A01D1
:1001700080012E018A018401760172016A013E012B
:100180004801084AD73B3BCE016E84BCBFFDC12F5E
:100190003D6C74319ABD56833DDA3D00C77F11BE78
:1001A000D9E4BB4C3E916BAAAABE000000803F057B
:1001B000A84CCDB2D44EB93836A9020C50B99186AC
:1001C00088083CA6AAAA2ABE000000803F07634216
:1001D00036B79BD8A71A39685618AEBAAB558C1DDE
:1001E0003CB7CC5763BD6DEDFD753EF6177231BF60
:1001F000000000803F08000000BE922449123EAB80
:10020000AAAA2ABECDCCCC4C3E00000080BEABAA30
:10021000AAAA3E00000000BF000000803F000000CE
:100220000000084178D3BB4387D1133D190E3CC36E
:10023000BD4282AD2B3E68EC8276BED98FE1A93EED
:100240004C80EFFFBE01C4FF7F3F000000000000B4
:100250000D9418370D9445720D9435700D94678F79
:100260000D94E0710D94DB780D94F76F0D945B7035
:100270000D9449A00D94F2650D94F2710D940190C6
:100280000D94312E0D94AA2E0D94FF7F0D943B7288
:100290000D941B900D9428700D94E2B90D94826515
:1002A0000D94EA710D94EE650D9410700D9402702A
:1002B0000D942C700D9453BA0D9474650D94F16FD8
:1002C0000D9431720D94F4650D94F8650D94171F1B
:1002D0000D9422700D94F68F0D94C2710D94ED6FF4
:1002E0000D9430700D94EB8F0D94F4460D94BF8FE8
:1002F0000D9418720D94C6650D949E650D94D46589
:100300000D944F720D9491200D949F8F0D941A703F
:100310000D9414700D94818F0D943B1E0D94CC712F
:100320000D941E700D9427720D9459720D94C7711F
:100330000D94FA710D9404720D94AC650D94FB6FDD
:100340000D94B56F0D944E190D940C700D940066BC
:100350000D94DC780D94FE6F0D94B09E0D940E728A
:100360000D9406700D94D6716E616E00696E660014
:100370004E414E494E495459494E46CDCCCC3D0A8A
:10038000D7233C17B7D13877CC2B329595E6241F6D
:10039000B14F0A000020410000C84200401C462026
:1003A000BCBE4CCA1B0E5AAEC59D7400407A10F3F9
:1003B0005A00A0724E18090010A5D4E80000E87693
:1003C00048170000E40B54020000CA9A3B000000EA
:1003D000E1F505000080969800000040420F000003
:1003E00000A08601000000102700000000E80300C4
:1003F0000000006400000000000A0000000000018E
:1004000000000000002C76D888DC674F0823DFC18D
:10041000DFAE59E1B1B796E5E3E453C63AE6519948
:100420007696E8E6C28426EB898C9B62ED407C6F71
:10043000FCEFBC9C9F40F2BAA56FA5F490055A2A28
:10044000F75C936B6CF9676DC11BFCE0E40D47FE34
:10045000F520E6B500D0ED902E0300943577050029
:1004600080841E080000204E0A000000C80C3333B0
:1004700033330F986E12831141EF8D2114893BE6BF
:100480005516CFFEE6DB18D1844B381BF77C1D9048
:100490001DA4BBE424203284725E228100C9F124B1
:1004A000ECA1E53D275344207072696E74696E6754
:1004B00020627974652000426974746520616B74F0
:1004C00075616C6973696572656E2E0050726F7329
:1004D0007A65207A616B7475616C697A6F77616394
:1004E0000041637475616C697A617220706F72206B
:1004F0006661766F72005072656761206167676937
:100500006F726E612E0050726F73696D20616B7433
:1005100075616C697A756A74652E00506C656173DB
:100520006520757067726164652E004E6575652083
:100530004669726D776172652056657273696F6E78
:1005400020766572667565676261723A00577973E5
:100550007A6C61206E6F776120776572736A6120B3
:100560006669726D776172653A004E7565766F20C7
:100570006669726D7761726520646973706F6E6908
:10058000626C653A004E756F7661207665727369AC
:100590006F6E652064656C206669726D7761726547
:1005A00020646973706F6E6962696C650056797357
:1005B0006C61206E6F7661207665727A652066695F
:1005C000726D776172653A004E6577206669726D6B
:1005D000776172652076657273696F6E20617661EE
:1005E000696C61626C653A00756E64204B6E6F7069
:1005F000662064727565636B656E004E6163697336
:100600006E696A2070727A796369736B0048617AE7
:1006100020636C6963006520636C69636361726564
:10062000206D616E6F706F6C61006120737469730F
:100630006B6E65746520746C616369746B6F0061C7
:100640006E6420707265737320746865206B6E6FC2
:10065000620046696C616D2E20626572656974681E
:10066000616C74656E0050727A79676F74756A2078
:1006700066696C616D656E7400507265706172615F
:10068000722066696C616D656E746F005072657082
:1006900061726172652066696C616D656E746F0070
:1006A0005072697072617674652066696C616D65FF
:1006B0006E740050726570617265206E6577206699
:1006C000696C616D656E7400466172626520756E5D
:1006D0006B6C6172004B6F6C6F72207A616E696532
:1006E000637A79737A2E00436F6C6F72206E6F207D
:1006F000686F6D6F67656E656F00436F6C6F7265D5
:10070000206E6F6E207075726F004261727661208C
:100710006E656E6920636973746100436F6C6F72FC
:10072000206E6F7420636C6561720046696C2E20C8
:100730006E696368742067656C6164656E004272FF
:10074000616B2066696C616D656E74750046696CDD
:100750002E206E6F20696E74726F64756369646FAA
:100760000046696C2E206E6F6E2063617269636152
:10077000746F0046696C616D656E74206E657A6198
:10078000766564656E0046696C616D656E74206E99
:100790006F74206C6F61646564005765636873658E
:1007A0006C206F6B3F0057796D69616E61206F6BD4
:1007B0003F0043616D626961646F20636F727265AF
:1007C00063742E3F0043616D626961746F20636FD3
:1007D00072722E3F0056796D656E61206F6B3F001F
:1007E0004368616E67656420636F72726563746CE1
:1007F000793F004C61646520466172626500437A0E
:1008000079737A637A2E206B6F6C6F727500436117
:100810006D6269616E646F20636F6C6F720043611B
:10082000726963616E646F20636F6C6F7265004301
:10083000697374656E69206261727679004C6F61CC
:1008400064696E6720636F6C6F72005765636873CD
:10085000656C206572666F6C67722E210057796D2A
:1008600069616E61206F6B210043616D62696F2069
:10087000636F72726563746F0043616D62696F20AC
:10088000726975736369746F21005A6D656E6120BA
:1008900075737065736E6121004368616E676520D2
:1008A000737563636573732100456B73747275644C
:1008B0006572004578747275736F72004573747257
:1008C00075736F7265004578747275646572005750
:1008D0006165686C656E2053696520457874727532
:1008E000646572005779626965727A20656B73740A
:1008F000727564657200456C65676972206578740D
:100900007275736F723A0053656C657A696F6E61C8
:10091000206573747275736F72653A0056796265FB
:100920007274652065787472756465723A00436804
:100930006F6F73652065787472756465723A007ABA
:100940005F6D61783A20005A204F666673657400C7
:10095000556E6B6E6F776E20636F6D6D616E643A6E
:100960002022004D32303020496E76616C6964205F
:10097000657874727564657220007A5F6D696E3A8D
:100980002000795F6D696E3A20006F70656E0054CB
:10099000524947474552454400785F6D696E3A2099
:1009A000005265706F7274696E6720656E6473744F
:1009B0006F70207374617475730020436F756E746B
:1009C00020583A20004F666600456E642066696CC8
:1009D00065206C69737400426567696E2066696C96
:1009E00065206C697374004B65696E65204265779C
:1009F0006567756E672E0053696E206D6F76696D41
:100A000069656E746F004E657373756E206D6F76D9
:100A1000696D656E746F2E004E6F206D6F76652E5A
:100A200000447275636B20666F72746765736574DA
:100A30007A7400577A6E6F7769656E6965206472A3
:100A4000756B7500526573756D69656E646F2069AD
:100A50006D70726573696F6E0052697072656E6455
:100A600069207374616D7061004F626E6F76656EA0
:100A700069207469736B7500526573756D696E6773
:100A8000207072696E7400576172746520617566BA
:100A900020757365722E2E2E004573706572616E1F
:100AA000646F206F7264656E657300417474656E67
:100AB00064656E646F207574656E74650057616956
:100AC0007420666F7220757365722E2E2E005A2D5B
:100AD0004B616C696272696572756E6720666568E4
:100AE0006C67657363686C672E2053656E736F72F5
:100AF000207A7520686F63682061757367656C6F15
:100B00006573742E2057617274652061756620527A
:100B1000657365742E004B616C69627261636A6112
:100B2000205A206E69657564616E612E2053656E72
:100B3000736F7220646F746B2E207A6120777973E3
:100B40006F6B6F2E20437A656B616D206E61207232
:100B5000657365742E004E6976656C6163696F6EAE
:100B60002066616C6C6164612E2053656E736F72D8
:100B70002066756E63696F6E612064656D6173696F
:100B800061646F2074656D7072616E6F2E204573A5
:100B9000706572616E646F2072657365742E004CAF
:100BA0006976656C6C616D656E746F206C657474CC
:100BB0006F2066616C6C69746F2E5269737020735C
:100BC000656E736F72652074726F70706F207072D3
:100BD0006573746F496E2061747465736120646914
:100BE0002072657365742E004B616C69627261637B
:100BF00065205A2073656C68616C612E2053656EA8
:100C0000736F72207365706E756C207072696C6999
:100C100073207679736F6B6F2E2043656B616D2047
:100C20006E612072657365742E00426564206C6588
:100C300076656C696E67206661696C65642E205309
:100C4000656E736F72207472696767657265642080
:100C5000746F6F20686967682E2057616974696EC8
:100C60006720666F722072657365742E005A2D4B73
:100C7000616C696272696572756E67206665686C21
:100C800067657363686C672E2053656E736F72209F
:100C90006E6963687420616E67657363686C6F73F7
:100CA00073656E2E205761727465206175662052DF
:100CB000657365742E004B616C69627261636A6171
:100CC000206E69657564616E612E2053656E736F69
:100CD00072206F646C61637A6F6E79206C7562202C
:100CE00075737A6B6F647A2E206B6162656C2E204F
:100CF000437A656B616D206E612072657365742E39
:100D0000004E6976656C6163696F6E2066616C6C1C
:100D10006164612E2053656E736F72206465736326
:100D20006F6E65637461646F206F206361626C65D0
:100D3000732064616E61646F732E204573706572F9
:100D4000616E646F2072657365742E004C69766500
:100D50006C6C616D656E746F206C6574746F206669
:100D6000616C6C69746F2E2053656E736F726520B1
:100D7000646973636F6E2E206F204361766F204429
:100D8000616E6E2E20496E206174746573612064FB
:100D9000692072657365742E004B616C69627261C3
:100DA0006365205A2073656C68616C612E20536501
:100DB0006E736F72206A65206F64706F6A656E79FA
:100DC000206E65626F20707265727573656E792032
:100DD0006B6162656C2E2043656B616D206E6120D6
:100DE00072657365742E00426564206C6576656C6F
:100DF000696E67206661696C65642E2053656E7349
:100E00006F7220646973636F6E6E656374656420CE
:100E10006F72206361626C652062726F6B656E2E0B
:100E20002057616974696E6720666F7220726573FE
:100E300065742E005A2D4B616C2E206665686C67B8
:100E4000657363686C672E2053656E736F72206ED6
:100E5000696368742061757367656C6F6573742E60
:100E6000205363686D75747A69676520447565738E
:100E7000653F205761727465206175662052657305
:100E80006574004B616C69627261636A61206E69AE
:100E9000657564616E612E2053656E736F72206E8E
:100EA000696520646F746B6E616C2E205A616E6987
:100EB00065637A79737A2E206479737A613F20436F
:100EC0007A656B616D206E612072657365742E00AA
:100ED0004E6976656C6163696F6E2066616C6C61EA
:100EE00064612E2053656E736F72206E6F2066757D
:100EF0006E63696F6E612E204573636F6D62726FF2
:100F00007320656E206E6F7A7A6C653F2045737032
:100F10006572616E646F2072657365742E004C6932
:100F200076656C6C616D656E746F206C6574746F42
:100F30002066616C6C69746F2E4E6F5269737053CA
:100F4000656E736F7220526573696475692073757D
:100F5000207567656C6C6F3F20496E206174746505
:100F600073612064692072657365742E004B616C37
:100F7000696272616365205A2073656C68616C6197
:100F80002E2053656E736F72206E657365706E757B
:100F90006C2E205A6E6563697374656E612074727D
:100FA00079736B613F2043656B616D206E612072C8
:100FB000657365742E00426564206C6576656C69A6
:100FC0006E67206661696C65642E2053656E736F71
:100FD00072206469646E7420747269676765722E2A
:100FE00020446562726973206F6E206E6F7A7A6C2E
:100FF000653F2057616974696E6720666F72207261
:10100000657365742E0054656D702E204B616C699C
:101010006272696572756E67206665727469672EA3
:10102000204B6C69636B656E20756D207765697404
:101030006572207A7520676568656E2E0043696564
:10104000706C6E61206B616C69627261636A6120B1
:101050007A616B6F6E637A6F6E612E204B6F6E7468
:10106000796E75756A2070727A796369736B6965D8
:101070006D0043616C69627261636F6E2074656DAF
:101080007065726174757261207465726D696E61EC
:1010900064612E2048617A20636C696320706172FC
:1010A0006120636F6E74696E7561722E0054617297
:1010B00061747572612074656D70657261747572AA
:1010C00061207465726D696E6174612E2046617273
:1010D0006520636C69636B2070657220636F6E744A
:1010E000696E756172652E005465706C6F746E69FF
:1010F000206B616C69627261636520646F6B6F6EF7
:1011000063656E612E20506F6B726163756A7465E2
:1011100020737469736B656D20746C616369746BA3
:10112000612E0054656D706572617475726520631F
:10113000616C6962726174696F6E2069732066699F
:101140006E69736865642E20436C69636B20746FED
:1011500020636F6E74696E75652E0045696E656EED
:10116000204D6F6D656E742062697474652E004544
:101170006E2065737065726100536F7370656E7376
:10118000696F6E652E2E2E00536C6565702E2E2EA7
:10119000005A207368696674206170706C696564B8
:1011A0003A000A000A002F00A5040A004E6F7420BE
:1011B0005344207072696E74696E670053442070E6
:1011C00072696E7420706175736564002E004465E9
:1011D0006C6574696F6E206661696C65642C20466D
:1011E000696C653A200046696C652064656C6574BD
:1011F00065643A002E0020573A0020453A00543AE0
:10120000001B050605F604E104CC04B70400C8057C
:10121000AD0585056A054D052B05504944204175EE
:10122000746F74756E652066696E69736865642194
:101230002050757420746865206C617374204B7045
:101240002C204B6920616E64204B6420636F6E73A9
:1012500074616E74732066726F6D2061626F766563
:1012600020696E746F20436F6E6669677572617472
:10127000696F6E2E6800504944204175746F747513
:101280006E65206661696C6564212074696D656FA7
:1012900075740020403A006F6B20543A006F6B2049
:1012A000423A00504944204175746F74756E652050
:1012B0006661696C6564212054656D706572617446
:1012C00075726520746F6F206869676800204B64D1
:1012D0003A2000204B693A2000204B703A20002031
:1012E000436C617373696320504944200020547536
:1012F0003A2000204B753A2000206D61783A20009A
:10130000206D696E3A200020643A200020626961F5
:10131000733A200053657474696E67732053746F59
:101320007265640046696C616D656E7420736574E6
:1013300074696E67733A2044697361626C65640016
:101340002020204D32303020440046696C616D65AC
:101350006E742073657474696E67733A0020202080
:101360004D3230392053004175746F2D52657472BF
:101370006163743A20533D3020746F206469736157
:10138000626C652C203120746F20696E74657270F8
:1013900072657420657874727564652D6F6E6C79F2
:1013A000206D6F766573206173207265747261635E
:1013B0007473206F72207265636F766572696573EE
:1013C000002046002020204D323038205300526546
:1013D000636F7665723A20533D4578747261206C74
:1013E000656E67746820286D6D2920463A537065D4
:1013F000656420286D6D2F6D2900205A002046005D
:101400002020204D323037205300526574726163C2
:10141000743A20533D4C656E67746820286D6D29C1
:1014200020463A537065656420286D6D2F6D292024
:101430005A3A205A4C69667420286D6D2900204460
:10144000002049002020204D3330342050005049E6
:101450004420686561746265642073657474696EA4
:1014600067733A002044002049002020204D33308B
:10147000312050005049442073657474696E67735D
:101480003A00205A0020590020204D323036205892
:1014900000486F6D65206F666673657420286D6DFA
:1014A000293A00204500205A0020590020580020E9
:1014B000420020540020204D32303520530041643A
:1014C00076616E636564207661726961626C6573D2
:1014D0003A20533D4D696E2066656564726174659E
:1014E00020286D6D2F73292C20543D4D696E20747A
:1014F000726176656C20666565647261746520282A
:101500006D6D2F73292C20423D6D696E696D756D6F
:10151000207365676D656E742074696D6520286D34
:1015200073292C20583D6D6178696D756D2058596F
:10153000206A65726B20286D6D2F73292C20205A2C
:101540003D6D6178696D756D205A206A65726B20FA
:10155000286D6D2F73292C2020453D6D6178696DB4
:10156000756D2045206A65726B20286D6D2F73297B
:101570000020540020204D3230342053004163635A
:10158000656C65726174696F6E3A20533D61636387
:10159000656C65726174696F6E2C20543D72657460
:1015A0007261637420616363656C65726174696FF5
:1015B0006E00204500205A0020590020204D323076
:1015C000312058004D6178696D756D204163636508
:1015D0006C65726174696F6E20286D6D2F7332298E
:1015E0003A00204500205A0020590020204D32307A
:1015F000332058004D6178696D756D2066656564AE
:10160000726174657320286D6D2F73293A0020452F
:1016100000205A0020590020204D39322058005314
:10162000746570732070657220756E69743A003F3E
:10163000062A0616060D06FB05E805B306A0068C6D
:10164000067906660652061B070A07FA06E706D55C
:1016500006C8068607730761074D073E072B07E09C
:1016600007D507C507B207A6079A073D082F081E2A
:10167000080E08FE07F30799088A08790869085DCB
:10168000084B084175746F0020452F443D004164AC
:1016900076616E6365204B3D00C608C608BC08B382
:1016A00008A908C6082E091C090709F608E408CF8E
:1016B000082200496E76616C6964205420636F646F
:1016C000652E00496E76616C6964204D20636F64FD
:1016D000652E004D3232302053256900203A20001B
:1016E0003F090047094C414E472053454C20464F87
:1016F00052434544002200500963097A0982098A4D
:10170000098F099909A109205A3A0020593A00BACB
:101710000920453A00205A3A0020593A00583A0028
:1017200030303030303030302D303030302D3030BF
:1017300030302D303030302D3030303030303030AF
:10174000303030300020555549443A0031002045B2
:10175000585452554445525F434F554E543A0050E9
:1017600072757361206933204D4B3200204D414327
:1017700048494E455F545950453A00312E300020BB
:101780006261736564206F6E204D61726C696E20BA
:101790004649524D574152455F55524C3A68747410
:1017A00070733A2F2F6769746875622E636F6D2F9F
:1017B000707275736133642F50727573612D466951
:1017C000726D776172652050524F544F434F4C5F9A
:1017D00056455253494F4E3A004649524D57415291
:1017E000455F4E414D453A50727573612D466972A1
:1017F0006D7761726520004D3131332053002E002A
:101800002000C50920423A0020453A00543A002001
:1018100042403A0020403A00202F003A0020540075
:10182000202F0020423A00202F006F6B20543A00F6
:101830003B207072696E742074696D652072656DED
:1018400061696E696E6720696E206D696E733A20FA
:101850000053494C454E54204D4F44453A20506565
:101860007263656E7420646F6E653A20003B207071
:1018700072696E742074696D652072656D61696E40
:10188000696E6720696E206D696E733A20004E4F55
:10189000524D414C204D4F44453A2050657263658E
:1018A0006E7420646F6E653A20002569206D696E44
:1018B0002C2025692073656300C909D709180A1807
:1018C0000A060AF709180AE709780A690A590A4450
:1018D0000A330A210ABD0ABD0AAB0A990ABD0A8762
:1018E0000A496E76616C6964204D20636F646500FF
:1018F0004D65736820626564206C6576656C696E01
:1019000067206E6F74206163746976652E000A002B
:101910002020000A4D6561737572656420706F69DF
:101920006E74733A000A5A207365617263682068A6
:1019300065696768743A20002C004E756D20582C3C
:10194000593A2000476F20686F6D652066696E699F
:1019500073686564004D65736820626564206C651A
:1019600076656C696E67206163746976617465641D
:1019700000557073616D706C652066696E6973687F
:10198000656400426564206C6576656C696E6720ED
:10199000636F7272656374696F6E2066696E6973D6
:1019A00068656400206D6963726F6E7300457863CB
:1019B00065737369766520626564206C6576656C15
:1019C000696E6720636F7272656374696F6E3A2027
:1019D000006261627973746570206170706C696512
:1019E0006400636C65616E2075702066696E697352
:1019F00068656420002A0CE80B9F0B560B160BCE73
:101A00000AE70D990D4C0D010DB60C6D0CB60F6D5E
:101A10000F1E0FD00E830E340E4732382057300081
:101A2000473238205730002311E810AD1072103DB6
:101A300010061054656D706572617475726520636F
:101A4000616C6962726174696F6E20646F6E652E7D
:101A500020436F6E74696E756520776974682070B5
:101A600072657373696E6720746865206B6E6F6250
:101A70002E0000205A20736869667420286D6D2935
:101A80003A0054656D70657261747572653A200034
:101A9000002F3600537465703A2000005A45524FAB
:101AA0003A20000050494E44412070726F62652018
:101AB00063616C6962726174696F6E2073746172C4
:101AC0007400473238205730000A00205A3A20006C
:101AD00020593A200020583A2000881188117911A5
:101AE0006F1188115B11416B7475656C6C657300C7
:101AF00054796C6B6F20616B7475616C6E6500411D
:101B0000637475616C0041747475616C6500506F2D
:101B1000757A6520616B7475616C6E6900437572CE
:101B200072656E74004265696D20447275636B2046
:101B300062656E75747A746500557A797465207083
:101B4000727A79206472756B7500557361646F20C9
:101B5000656E20696D70726573696F6E0055736193
:101B60007469206E656C6C61207374616D706100C6
:101B7000506F757A69746520626568656D20746957
:101B8000736B75005573656420647572696E6720A8
:101B90007072696E7400416C6C650057737A79736A
:101BA000746B6F00546F646F7300547574746900C4
:101BB00056736500416C6C00504944204B616C6960
:101BC000622E20666572746967004B616C2E20502E
:101BD0004944207A616B6F6E637A6F6E6100436176
:101BE0006C2E20504944207465726D696E61646189
:101BF0000043616C2E2050494420636F6D706C650A
:101C0000746100504944206B616C2E20756B6F6EBF
:101C100063656E61005049442063616C2E206669E3
:101C20006E697368656400504944204B616C696259
:101C30002E004B616C2E205049440043616C2E20D5
:101C40005049442020202020202020202020004314
:101C5000616C2E2050494400504944206B616C2E29
:101C60002020202020202020202020005049442017
:101C700063616C2E202020202020202020202000A6
:101C80004D3131372045727374652D536368696334
:101C90006874204B616C2E004D313137204B616CE4
:101CA0002E20312E2077617273747779004D313197
:101CB000372043616C2E207072696D6572612063FC
:101CC00061702E004D3131372043616C2E207072CF
:101CD000696D6F206C617965722E004D313137204E
:101CE0004B616C2E207072766E69207672737476FA
:101CF00079004D313137204669727374206C6179F7
:101D000065722063616C2E00447275636B20776589
:101D100069746572676568656E00577A6E61776988
:101D2000616E6965206472756B75005265616E75D0
:101D300064617220696D70726573696F6E005374AF
:101D4000616D706120696E207269707265736100E7
:101D50004F626E6F766F76616E69207469736B7512
:101D600000526573756D696E67207072696E7400DC
:101D7000447275636B207061757369657274004499
:101D800072756B207A6174727A796D616E7900492F
:101D90006D70726573696F6E20656E20706175730A
:101DA00061005374616D706120696E20706175739C
:101DB00061005469736B20706F7A6173746176652A
:101DC0006E005072696E7420706175736564001DD9
:101DD0001B0E1B061BFF1AF01AE61A841B701B5DF4
:101DE0001B4A1B391B251BB41BB01BAA1BA41B9B26
:101DF0001B961B496E76616C6964205049442063D0
:101E0000616C2E20726573756C74732E204E6F7426
:101E10002073746F72656420746F20454550524F73
:101E20004D2E004D35303000151C031CF11BDE1B00
:101E3000CA1BB81B6C1C581C4F1C3B1C321C271C9B
:101E40004731205A3135204631353030004739315D
:101E50000047312058353020593139302045302065
:101E6000463730303000473930004D373032004D82
:101E70003730322043004D3730322055004D373057
:101E800032004731205A3135204631353030004755
:101E9000393100473120583530205931393020450B
:101EA00030204637303030004D383300473930006D
:101EB0004D3834004D313034205330004D3834002B
:101EC0004731205A31302046313330302E303030D7
:101ED00000473120583130205931383020463430D5
:101EE0003030004D313430205330004D313034200B
:101EF0005330004D313037004734205330004731E4
:101F00002058353020593120452D332E3030303097
:101F10000047312058302059312045352E3030309F
:101F200030004731204632343030004731205835B8
:101F30003020593120452D352E303030300047319A
:101F40002058302059312045352E30303030004770
:101F50003120463234303000473120583530205956
:101F60003120452D352E303030300047312058306B
:101F70002059312045352E30303030004731204651
:101F8000323030300047312058353020593120452B
:101F90002D352E3030303000473120583020593127
:101FA0002045332E30303030004731204631363036
:101FB0003000473120452D31322E30303030204630
:101FC0003230303000473120452D31352E30303021
:101FD0003020463330303000473120452D35302E0B
:101FE0003030303020463534303000473120452DF8
:101FF00031352E30303030204635303030004731EA
:1020000020583430204533004731204635323030B7
:1020100000473120583131302045322E38004731C9
:102020002046343630300047312058313930204591
:10203000322E3700473120463430303000473120CF
:10204000583234302045340047312058323435205E
:102050005931004731205A302E3520463732303042
:102060002E30303000473120452D3420463231307B
:10207000302E30303030300047342053300047317C
:1020800020452D302E30373530302046323130303B
:102090002E3030303030004731205835302059351F
:1020A000352045332E36323737330047312058320A
:1020B0003030205935352045302E3439333836000C
:1020C00047312058323030205937352045332E36AD
:1020D00032373733004731205835302059373520D3
:1020E00045302E34393338360047312058353020CA
:1020F0005939352045332E363237373300473120B2
:1021000058323030205939352045302E3439333863
:102110003600473120583230302059313135204592
:10212000332E363237373300473120583530205977
:102130003131352045302E3439333836004731209F
:1021400058353020593133352045332E3632373724
:102150003300473120583230302059313335204553
:10216000302E363631373400473120583230302067
:10217000593135352045322E363237373300473125
:102180002058313030205931353520453200473123
:102190002058373520593135352045322E35004706
:1021A0003120463130383000473120583630205900
:1021B00031353520453400473120583530205931EC
:1021C0003535004731204634303030004D32303420
:1021D000205331303030004731205A302E313530E5
:1021E0002046373230302E30303000473120452DF8
:1021F000342046323130302E3030303030004D38DF
:1022000033004739300047323100473932204530FA
:102210002E3000473120583234302E3020453020C7
:1022200046313030302E3000473120583232302E97
:1022300030204531332046313030302E30004731A8
:10224000205A302E3230302046373230302E303067
:102250003000473120583136302E30204532302E74
:10226000302046313030302E300047312058353064
:102270002E30204538302E302046313030302E3050
:10228000004731205A302E32353020463732303038
:102290002E303030004D39322045313430004D324F
:1022A0003033204531303000473932204530004D41
:1022B0003833004739300047323100473238004761
:1022C000383700F21CDB1CC41CAD1C981C801C544D
:1022D00030004D3130392053323130004D313930FA
:1022E00020533535004D31343020533535004D31D4
:1022F00030342053323130004D31303700611D50C1
:102300001D3E1D2B1D1A1D081D4739300047312069
:102310004534004D3832004731204534004D3833C4
:10232000004D31303620532564004D323230205379
:10233000256400C21DB21DA21D8F1D7F1D701D4989
:10234000737420646572205363686C697474656E7D
:102350002067616E7A206F62656E3F004F62612078
:10236000776F7A6B6920646F6A656368616C792046
:10237000646F20676F726E656A2072616D793F00CD
:10238000436172726F73205A20697A712E2F6465CF
:10239000722E20657374616E2061727269626120B1
:1023A0006D6178696D6F3F00492063617272656C81
:1023B0006C69205A2073696E2F64657320736F6E89
:1023C0006F20616C74657A7A61206D61783F00449A
:1023D0006F6A656C79206F6261205A20766F7A6926
:1023E0006B79206B7E686F726E696D7520646F7299
:1023F000617A753F00417265206C65667420616E7C
:1024000064207269676874205A7E636172726961C0
:1024100067657320616C6C2075703F00426974744D
:102420006520656E746665726E656E205369652001
:10243000756562657273746568656E646573204660
:10244000696C616D656E7420766F6E2064657220B4
:1024500044756573652E204B6C69636B656E2077E0
:10246000656E6E207361756265722E00446C61202A
:102470007072617769646C2E206B616C6962726145
:10248000636A692070726F737A65206F637A7973FB
:10249000636963206479737A652E20506F74772E98
:1024A0002067757A696B69656D2E004C696D70697E
:1024B00061206E6F7A7A6C65207061726120636151
:1024C0006C6962726163696F6E2E20436C69636B25
:1024D000206375616E646F206163616265732E00B5
:1024E00050756C697265206C277567656C6C6F2020
:1024F000706572206C612063616C696272617A69D7
:102500006F6E652C20706F69206661726520636C48
:1025100069636B2E0050726F2075737065736E6FF8
:1025200075206B616C696272616369206F636973A6
:10253000746574652070726F73696D207469736B54
:102540006F766F7520747279736B752E20506F746F
:10255000767264746520746C616369746B656D2E4A
:1025600000506C6561736520636C65616E207468F2
:1025700065206E6F7A7A6C6520666F722063616C7D
:102580006962726174696F6E2E20436C69636B209F
:102590007768656E20646F6E652E004B616C6962B2
:1025A00072696572656E20766F6E2058595A2E20BA
:1025B00044726568656E205369652064656E204BC2
:1025C0006E6F70662062697320646572206F626549
:1025D000726520416E7363686C6167206572726515
:1025E0006963687420776972642E204B6C69636B31
:1025F000656E205369652064656E204B6E6F706652
:102600002077656E6E2065732067616E7A206F6239
:10261000656E20776972642E004B616C696272612D
:10262000636A612058595A2E2050727A656B726520
:10263000632067616C6B652C206162792070727A0F
:102640006573756E6163206F73205A20646F206715
:102650006F726E796368206B72616E636F77656B02
:102660002E204E616369736E696A2C206279207036
:102670006F7477696572647A69632E0043616C696F
:102680006272616E646F2058595A2E2047697261D8
:1026900020656C20626F746F6E20706172612073B0
:1026A0007562697220656C206578747275736F72DB
:1026B00020686173746120746F636172206C6F7342
:1026C00020746F706573207375706572696F7265C1
:1026D000732E20446573707565732068617A20637A
:1026E0006C69632E0043616C696272617A696F6E16
:1026F000652058595A2E2052756F74617265206C8E
:1027000061206D616E6F706F6C6120706572206109
:102710006C7A61726520696C2063617272656C6CA1
:102720006F205A2066696E6F20616C6C27616C7433
:10273000657A7A61206D617373696D612E20436CD7
:1027400069636B20706572207465726D696E617269
:10275000652E004B616C6962726163652058595A3D
:102760002E204F746163656E696D20746C616369BE
:10277000746B6120706F73756E7465205A206F736F
:102780007520617A206B7E686F726E696D7520644A
:102790006F72617A752E20506F7476726474652042
:1027A000746C616369746B656D2E0043616C696262
:1027B000726174696E672058595A2E20526F746185
:1027C000746520746865206B6E6F6220746F206D75
:1027D0006F766520746865205A2063617272696142
:1027E000676520757020746F2074686520656E645D
:1027F0002073746F70706572732E20436C69636B05
:10280000207768656E20646F6E652E004B616C6981
:102810006272696572656E20766F6E205A2E204452
:10282000726568656E205369652064656E204B6E25
:102830006F70662062697320646572206F626572D2
:102840006520416E7363686C6167206572726569AB
:1028500063687420776972642E204B6C69636B65C2
:102860006E205369652064656E204B6E6F70662024
:1028700077656E6E2065732067616E7A206F626582
:102880006E20776972642E004B616C6962726163BD
:102890006A61205A2E2050727A656B7265632067D8
:1028A000616C6B652C206162792070727A6573753A
:1028B0006E6163206F73205A20646F20676F726EA1
:1028C000796368206B72616E636F77656B2E204E43
:1028D000616369736E696A2C20627920706F747706
:1028E000696572647A69632E0043616C6962726122
:1028F0006E646F205A2E204769726120656C2062D9
:102900006F746F6E207061726120737562697220DE
:10291000656C206578747275736F7220686173746A
:102920006120746F636172206C6F7320746F7065C7
:1029300073207375706572696F7265732E204465BC
:1029400073707565732068617A20636C69632E000B
:1029500043616C696272617A696F6E65205A2E20DC
:1029600052756F74617265206C61206D616E6F705D
:102970006F6C612070657220616C7A61726520698C
:102980006C2063617272656C6C6F205A2066696E90
:102990006F20616C6C27616C74657A7A61206D615F
:1029A0007373696D612E20436C69636B207065726F
:1029B000207465726D696E6172652E004B616C6981
:1029C0006272616365205A2E204F746163656E697F
:1029D0006D20746C616369746B6120706F73756EC8
:1029E0007465205A206F737520617A206B7E686F42
:1029F000726E696D7520646F72617A752E20506FEA
:102A000074767264746520746C616369746B656D4F
:102A10002E0043616C6962726174696E67205A2E80
:102A200020526F7461746520746865206B6E6F62EC
:102A300020746F206D6F766520746865205A20635E
:102A40006172726961676520757020746F207468A7
:102A50006520656E642073746F70706572732E20CC
:102A6000436C69636B207768656E20646F6E652EBA
:102A70000057617274656E206175662041626B75E6
:102A800065686C756E6720766F6E20486561746549
:102A90007220756E6420426574742E004F637A65EF
:102AA0006B6977616E6965206E6120777963686C08
:102AB0006F647A656E6965206479737A792069201C
:102AC000706F646B6C61646B692E00457370657226
:102AD000616E646F20656E667269616D69656E74A2
:102AE0006F20646520686561746265642079206583
:102AF00078747275736F722E00496E2061747465FC
:102B000073612064656C20726166667265646461DD
:102B10006D656E746F2064656C6C61207465737490
:102B2000696E6120652064656C2070696174746FE2
:102B30000043656B616E69206E61207A63686C6129
:102B4000646E75746920747279736B79206120707A
:102B50006F646C6F7A6B792E0057616974696E6768
:102B600020666F72206E6F7A7A6C6520616E6420C9
:102B700062656420636F6F6C696E6700497465728B
:102B800061636A6120005265697465726163696F8F
:102B90006E2000526569746572617A696F6E652096
:102BA00000497465726163652000497465726174DF
:102BB000696F6E200020766F6E203900207A2039F0
:102BC00000206465203900207375203900207A20A8
:102BD0003900206F6620390056657262657373652F
:102BE00072756E672042657474204B616C69627205
:102BF00069657270756E6B7400506F707261776981
:102C0000616D2070726563797A796A6E6F73632083
:102C100070756E6B7475206B616C6962726163793B
:102C20006A6E65676F004D656A6F72616E646F20D2
:102C300070756E746F2064652063616C6962726187
:102C400063696F6E206865617462656400506572C7
:102C500066657A696F6E2E20696C206C6574746F7E
:102C60002070756E746F2064692063616C69627294
:102C7000617A2E005A6C657073756A69207072658E
:102C8000736E6F7374206B616C69627261636E69DD
:102C9000686F20626F647500496D70726F76696E3F
:102CA00067206265642063616C6962726174696F38
:102CB0006E20706F696E740058595A204B616C69B0
:102CC0006272696572756E6720696E204F72646EFC
:102CD000756E672E20536368696566686569742040
:102CE00077697264206175746F6D6174697363686C
:102CF000206B6F72726967696572742E004B616C2C
:102D000069627261636A612058595A2070726177F2
:102D100069646C6F77612E20536B6F7379206265E5
:102D20006461206175746F6D617479637A6E696531
:102D3000207779726F776E616E652070727A792074
:102D40006472756B752E0043616C696272616369B0
:102D50006F6E2058595A20636F7272656374612ECA
:102D6000204C6120696E636C696E6163696F6E20CF
:102D7000736520636F727265676972612061757433
:102D80006F6D61746963616D656E74652E0043617A
:102D90006C696272617A696F6E2058595A20636F4C
:102DA0007272657474612E204C6120646973746F53
:102DB0007273696F6E652076657272612720617526
:102DC000746F6D61746963616D656E746520636FA6
:102DD0006D70656E736174612E004B616C69627217
:102DE0006163652058595A207620706F7261646B58
:102DF000752E205A6B6F73656E692062756465204D
:102E00006175746F6D617469636B79207679726F27
:102E1000766E616E6F20707269207469736B752EA7
:102E20000058595A2063616C6962726174696F6EEF
:102E300020616C6C2072696768742E20536B657713
:102E40002077696C6C20626520636F7272656374B1
:102E50006564206175746F6D61746963616C6C7910
:102E60002E0058595A204B616C69627269657275FF
:102E70006E6720696E204F72646E756E672E2058E3
:102E80002F592041636873656E2073696E642065F5
:102E900074776173207363686965662E004B616C9B
:102EA00069627261636A612058595A207072617751
:102EB00069646C6F77612E204F73696520582F59B4
:102EC000206C656B6B6F20736B6F736E652E204487
:102ED0006F62726120726F626F7461210043616C76
:102EE0006962726163696F6E2058595A20636F720C
:102EF00072656374612E204C6F7320656A65732060
:102F000058202F205920657374616E206C696765A5
:102F100072616D656E746520696E636C696E616463
:102F20006F732E204275656E2074726162616A6FE4
:102F3000210043616C696272617A696F6E20585931
:102F40005A20636F7272657474612E2041737369C5
:102F500020582F59206C65676765726D656E7465C2
:102F60002073746F7274692E2042656E20666174DE
:102F7000746F21004B616C696272616365205859FE
:102F80005A207620706F7261646B752E20582F590D
:102F9000206F7379206D69726E65207A6B6F73652F
:102FA0006E652E20446F62726120707261636521CC
:102FB0000058595A2063616C6962726174696F6E5E
:102FC00020616C6C2072696768742E20582F59201C
:102FD000617865732061726520736C696768746CD1
:102FE0007920736B657765642E20476F6F64206A64
:102FF0006F62210058595A2D4B616C696272696584
:1030000072756E67204F4B2E20582F592D416368E3
:1030100073656E2073696E642073656E6B72656391
:103020006874207A7565696E616E6465722E2047DA
:103030006C7565636B77756E73636821004B616CAB
:1030400069627261636A612058595A206F6B2E2041
:103050004F73696520582F592073612070726F7308
:10306000746F7061646C652E2047726174756C6159
:10307000636A65210043616C6962726163696F6EA6
:103080002058595A206F6B2E20456A657320582F9F
:10309000592070657270656E646963756C617265E4
:1030A000732E20456E686F72616275656E612100D6
:1030B00043616C696272617A696F6E652058595A12
:1030C000204F4B2E20476C69206173736920582F65
:1030D0005920736F6E6F2070657270656E646963DE
:1030E0006F6C6172692E20436F6D706C696D656ED7
:1030F000746921004B616C69627261636520585983
:103100005A207620706F7261646B752E20582F598B
:10311000206F7379206A736F75206B6F6C6D652EED
:103120002047726174756C756A69210058595A207C
:1031300063616C6962726174696F6E206F6B2E20BF
:10314000582F59206178657320617265207065720F
:1031500070656E646963756C61722E20436F6E6773
:10316000726174756C6174696F6E73210058595A7D
:103170002D4B616C696272696572756E6720756E40
:1031800067656E61752E204C696E6B657220766F77
:10319000726465726572204B616C696272696572F6
:1031A00070756E6B7420697374207A752077656909
:1031B0007420766F726E652E004B616C696272616D
:1031C000636A612058595A206E6965646F6B6C613F
:1031D000646E612E204C6577792070727A65646E1A
:1031E000692070756E6B74207A62797420777973B8
:1031F000756E6965747920646F2070727A6F64757A
:103200002E0043616C696272617A696F6E20585951
:103210005A20636F6D70726F6D65746964612E20E2
:1032200050756E746F2066726F6E74616C20697A6F
:103230007175696572646F206E6F20616C63616E79
:103240007A61626C652E0043616C696272617A69B1
:103250006F6E652058595A20636F6D70726F6D657F
:103260007373612E2050756E746F20616E74657279
:10327000696F72652073696E697374726F206E6F07
:103280006E207261676769756E676962696C652E29
:10329000004B616C6962726163652058595A206EF7
:1032A00065707265736E612E204C65767920707240
:1032B00065646E6920626F64206D6F632076707242
:1032C0006564752E0058595A2063616C6962726199
:1032D00074696F6E20636F6D70726F6D6973656472
:1032E0002E204C6566742066726F6E742063616C6C
:1032F0006962726174696F6E20706F696E74206E9E
:103300006F7420726561636861626C652E00585944
:103310005A2D4B616C696272696572756E672075B2
:103320006E67656E61752E205265636874657220E4
:10333000766F726465726572204B616C6962726946
:10334000657270756E6B7420697374207A7520775E
:1033500065697420766F726E652E004B616C6962D0
:103360007261636A612058595A206E6965646F6B97
:103370006C61646E612E2050726177792070727A70
:1033800065646E692070756E6B74207A6279742042
:10339000777973756E6965747920646F2070727ABD
:1033A0006F64752E0043616C696272617A696F6E39
:1033B0002058595A20636F6D70726F6D657469641F
:1033C000612E2050756E746F2066726F6E74616C22
:1033D000206465726563686F206E6F20616C636145
:1033E0006E7A61626C652E0043616C696272617A0B
:1033F000696F6E652058595A20636F6D70726F6DDA
:10340000657373612E2050756E746F20616E7465E4
:1034100072696F72652064657374726F206E6F6E6F
:10342000207261676769756E676962696C652E00F5
:103430004B616C6962726163652058595A206E65F0
:10344000707265736E612E20507261767920707291
:1034500065646E6920626F64206D6F6320767072A0
:103460006564752E0058595A2063616C69627261F7
:1034700074696F6E20636F6D70726F6D69736564D0
:103480002E2052696768742066726F6E74206361C3
:103490006C6962726174696F6E20706F696E7420FE
:1034A0006E6F7420726561636861626C652E00588E
:1034B000595A2D4B616C696272696572756E67202D
:1034C000756E67656E61752E20566F7264657265E4
:1034D000204B616C69627269657270756E6B7465A0
:1034E0002073696E64207A75207765697420766F21
:1034F000726E652E004B616C6962722E2058595AAB
:10350000206E6965646F6B6C61646E612E20507211
:103510007A65646E69652070756E6B7479206B6175
:103520006C6962722E205A627974207779732E202A
:10353000646F2070727A6F64752E0043616C6962EB
:1035400072617A696F6E2058595A20636F6D70727C
:103550006F6D65746964612E2050756E746F732091
:1035600066726F6E74616C6573206E6F20616C6340
:10357000616E7A61626C65732E0043616C69627280
:10358000617A696F6E652058595A20636F6D707249
:103590006F6D657373612E2050756E746920616E56
:1035A000746572696F7269206E6F6E2072616767F1
:1035B00069756E676962696C692E004B616C69623E
:1035C000726163652058595A206E65707265736E1A
:1035D000612E20507265646E69206B616C69627245
:1035E00061636E6920626F6479206D6F632076700D
:1035F000726564752E0058595A2063616C69627255
:103600006174696F6E20636F6D70726F6D69736541
:10361000642E2046726F6E742063616C6962726101
:1036200074696F6E20706F696E7473206E6F742092
:10363000726561636861626C652E0058595A2D4B42
:10364000616C696272696572756E67206665686C27
:1036500067657363686C6167656E2E204C696E6B7D
:10366000657220766F726465726572204B616C6959
:10367000627269657270756E6B7420697374207AFA
:1036800075207765697420766F726E652E004B61C8
:103690006C6962722E2058595A206E696575646192
:1036A0006E612E204C6577792070727A65646E6940
:1036B0002070756E6B74207A62797420646F20704C
:1036C000727A6F64752E205779726F776E616320FE
:1036D0006472756B61726B652E0043616C69627216
:1036E0006163696F6E2058595A2066616C6C616421
:1036F000612E2050756E746F2066726F6E74616CEF
:1037000020697A7175696572646F206E6F20616CD3
:1037100063616E7A61626C652E0043616C696272EE
:10372000617A696F6E652058595A2066616C6C69C0
:1037300074612E2050756E746F20616E74657269AD
:103740006F72652073696E697374726F206E6F6E2D
:10375000207261676769756E676962696C652E00C2
:103760004B616C6962726163652058595A207365B8
:103770006C68616C612E204C65767920707265648E
:103780006E6920626F64206D6F632076707265646D
:10379000752E2053726F766E656A74652074697336
:1037A0006B61726E752E0058595A2063616C6962A4
:1037B000726174696F6E206661696C65642E204C5D
:1037C0006566742066726F6E742063616C696272E4
:1037D0006174696F6E20706F696E74206E6F7420F3
:1037E000726561636861626C652E0058595A2D4B91
:1037F000616C696272696572756E67206665686C76
:1038000067657363686C6167656E2E2052656368D7
:1038100074657220766F726465726572204B616C9C
:1038200069627269657270756E6B74206973742059
:103830007A75207765697420766F726E652E004BFD
:10384000616C6962722E2058595A206E69657564E0
:10385000616E612E2050726177792070727A656492
:103860006E692070756E6B74207A62797420646F53
:103870002070727A6F64752E205779726F776E613F
:1038800063206472756B61726B652E0043616C69B5
:1038900062726163696F6E2058595A2066616C6C60
:1038A00061642E2050756E746F2066726F6E746145
:1038B0006C206465726563686F206E6F20616C6355
:1038C000616E7A61626C652E0043616C696272613F
:1038D0007A696F6E652058595A2066616C6C6974FC
:1038E000612E2050756E746F20616E746572696F01
:1038F00072652064657374726F206E6F6E207261E2
:10390000676769756E676962696C652E004B616CEB
:103910006962726163652058595A2073656C6861E9
:103920006C612E20507261767920707265646E69C8
:1039300020626F64206D6F63207670726564752EEF
:103940002053726F766E656A7465207469736B615B
:10395000726E752E0058595A2063616C69627261EB
:1039600074696F6E206661696C65642E20526967A8
:1039700068742066726F6E742063616C6962726134
:1039800074696F6E20706F696E74206E6F74207230
:103990006561636861626C652E0058595A2D4B61F0
:1039A0006C696272696572756E67206665686C67BE
:1039B000657363686C6167656E2E20566F7264650F
:1039C0007265204B616C69627269657270756E6BAD
:1039D00074652073696E64207A7520776569742038
:1039E000766F726E652E004B616C6962722E205884
:1039F000595A206E69657564616E612E2050727A25
:103A000065642E2070756E6B7479206B616C6962D1
:103A1000722E207A62797420646F2070727A6F64DB
:103A2000752E205779726F776E6163206472756BA3
:103A300061726B652E0043616C6962726163696FCC
:103A40006E2058595A2066616C6C6164612E20505A
:103A5000756E746F732066726F6E74616C6573201F
:103A60006E6F20616C63616E7A61626C65732E00AB
:103A700043616C696272617A696F6E652058595A48
:103A80002066616C6C6974612E2050756E746920BB
:103A9000616E746572696F7269206E6F6E207261FB
:103AA000676769756E676962696C692E004B616C46
:103AB0006962726163652058595A2073656C686148
:103AC0006C612E20507265646E69206B616C696256
:103AD0007261636E6920626F6479206D6F63207616
:103AE00070726564752E2053726F766E656A7465A8
:103AF000207469736B61726E752E0058595A206379
:103B0000616C6962726174696F6E206661696C656F
:103B1000642E2046726F6E742063616C69627261FC
:103B200074696F6E20706F696E7473206E6F74208D
:103B3000726561636861626C652E0058595A2D4B3D
:103B4000616C696272696572756E67206665686C22
:103B500067657363686C6167656E2E204269747473
:103B600065207363686175656E2053696520696EB1
:103B7000206461732048616E64627563682E004B37
:103B8000616C69627261636A612058595A206E697A
:103B900065706F776965647A696F6E612E20537006
:103BA000726177647A6963207720696E73747275C5
:103BB0006B636A692E0043616C6962726163696F4D
:103BC0006E2058595A2066616C6C6164612E2043E6
:103BD0006F6E73756C746120656C206D616E7561BC
:103BE0006C20706F72206661766F722E0043616C7C
:103BF000696272617A696F6E652058595A206661F0
:103C00006C6C6974612E2053692070726567612045
:103C1000646920636F6E73756C7461726520696C82
:103C2000206D616E75616C652E004B616C6962720E
:103C30006163652058595A2073656C68616C612E08
:103C4000204E61686C65646E65746520646F206DDC
:103C5000616E75616C752E0058595A2063616C69EC
:103C600062726174696F6E206661696C65642E2092
:103C7000506C6561736520636F6E73756C7420742E
:103C80006865206D616E75616C2E0058595A2D4B18
:103C9000616C696272696572756E67206665686CD1
:103CA00067657363686C6167656E2E204265747426
:103CB0002D4B616C69627269657270756E6B7420F0
:103CC0006E6963687420676566756E64656E2E0044
:103CD0004B616C6962722E2058595A206E69657565
:103CE00064616E612E204B616C6962726163796AF6
:103CF0006E792070756E6B7420706F646B6C61648C
:103D00006B69206E69657A6E616C657A696F6E7930
:103D10002E0043616C6962726163696F6E2058594D
:103D20005A2066616C6C6164612E2050756E746FF0
:103D3000732064652063616C6962726163696F6E90
:103D400020656E2068656174626564206E6F206511
:103D50006E636F6E747261646F732E0043616C6981
:103D60006272617A696F6E652058595A2066616C7B
:103D70006C6974612E20496C2070756E746F2064BC
:103D8000692063616C696272617A696F6E65207324
:103D9000756C206C6574746F206E6F6E20652720C3
:103DA000737461746F2074726F7661746F2E004B40
:103DB000616C6962726163652058595A2073656C41
:103DC00068616C612E204B616C69627261636E691F
:103DD00020626F6420706F646C6F7A6B79206E65FF
:103DE0006E616C657A656E2E0058595A2063616C5D
:103DF0006962726174696F6E206661696C65642EB8
:103E0000204265642063616C6962726174696F6EDF
:103E100020706F696E7420776173206E6F742066F6
:103E20006F756E642E0020766F6E203400207A202D
:103E30003400206465203400207375203400207A1B
:103E4000203400206F6620340053756368656E204F
:103E500042657474204B616C696272696572707539
:103E60006E6B7400537A756B616D2070756E6B7438
:103E700075206B616C6962726163796A6E65676FE8
:103E800020706F646B6C61646B6900427573636171
:103E90006E646F2070756E746F2064652063616C52
:103EA0006962726163696F6E2068656174626564DE
:103EB00000526963657263612064656C206C65748F
:103EC000746F2070756E746F2064692063616C6913
:103ED0006272617A2E00486C6564616D206B616C62
:103EE00069627261636E6920626F6420706F646CD6
:103EF0006F7A6B7900536561726368696E672062DF
:103F000065642063616C6962726174696F6E2070B0
:103F10006F696E74004C6567656E2065696E20423E
:103F20006C6174742050617069657220756E74657F
:103F300072206469652044756573652077616568E2
:103F400072656E6420646572204B616C696272698F
:103F50006572756E67206465722065727374656E34
:103F600020342050756E6B74652E2057656E6E2060
:103F700064696520447565736520646173205061D0
:103F8000706965722065696E6B6C656D6D742C204F
:103F9000447275636B657220736F666F7274206113
:103FA0007573736368616C74656E00556D696573D4
:103FB00063206B6172746B652070617069657275E6
:103FC000206E6120706F646B6C6164636520692092
:103FD00074727A796D616A20706F64206479737A83
:103FE0006120706F64637A617320706F6D696172B4
:103FF00075207069657277737A79636820342070F0
:10400000756E6B746F772E204A65736C69206479C6
:10401000737A61207A616861637A79206F207061B8
:10402000706965722C2077796C61637A206472758F
:104030006B61726B652E00436F6C6F6361722075EC
:104040006E6120686F6A6120646520706170656CC4
:1040500020736F627265206C612073757065726683
:104060006963696520646520696D70726573696F45
:104070006E20647572616E7465206C612063616C82
:104080006962726163696F6E206465206C6F732072
:104090007072696D65726F7320342070756E746F05
:1040A000732E205369206C6120626F7175696C6C8E
:1040B00061206D7565766520656C20706170656C3A
:1040C0002C2061706167617220696D707265736F19
:1040D000726120696E6D6564696174616D656E748D
:1040E000652E00506F72726520756E20666F676C6A
:1040F000696F20736F74746F206C277567656C6CC3
:104100006F20647572616E7465206C612063616CF0
:10411000696272617A696F6E652064656920707288
:10412000696D6920342070756E74692E20496E2087
:104130006361736F206C277567656C6C6F206D759C
:104140006F766120696C20666F676C696F20737091
:1041500065676E6572652070726F6E74616D656EF5
:104160007465206C61207374616D70616E74652E6E
:1041700000556D697374657465206C697374207083
:104180006170697275206E6120706F646C6F7A6BFC
:10419000752061207564727A756A7465206A656A33
:1041A00020706F6420747279736B6F75206265681C
:1041B000656D206D6572656E69207072766E6963DB
:1041C00068203420626F64752E20506F6B756420F8
:1041D000747279736B61207A616368797469207095
:1041E000617069722C207679706E657465207469CF
:1041F000736B61726E752E00506C61636520612077
:104200007368656574206F662070617065722075D3
:104210006E64657220746865206E6F7A7A6C6520B2
:10422000647572696E67207468652063616C696289
:10423000726174696F6E206F662066697273742094
:104240003420706F696E74732E204966207468651F
:10425000206E6F7A7A6C6520636174636865732081
:104260007468652070617065722C20706F7765725C
:10427000206F666620746865207072696E7465725E
:1042800020696D6D6564696174656C792E00F52334
:10429000CF23A82380235C233F2361251525E02419
:1042A000AB246C241C24AB275327E5267C26192637
:1042B0009B25122ABC295029E92888280C28592B2B
:1042C000312BF92ACB2A9C2A712A203C2000574105
:1042D000524E494E473A2046726F6E7420706F6995
:1042E0006E74206E6F7420726561636861626C65C4
:1042F0002E205920636F6F7264696E6174653A0095
:10430000000000E442FCFFFFBF000057430000C074
:10431000420000E44200004243000040410000C06F
:1043200042AA2BA12B932B862B7C2BAA2B4974659D
:10433000726174696F6E3A200043616C63756C61E1
:1043400074696F6E206F6620746865206D616368A4
:10435000696E6520736B657720616E64206F666699
:10436000736574206661696C65642E00D22BCD2B59
:10437000C72BC12BBC2BB52B982C742C4D2C262C69
:10438000F92BD82B212EDA2D8E2D472DFD2CB82C74
:10439000B12F742F322FDD2E9D2E622E2C31F43052
:1043A000B03075303D30F42FC53291324732023291
:1043B000B9316D3165343034E833A5335B330E33B6
:1043C000F635BB357A353B35F534AF34A737603732
:1043D0001A37DA368E363B3655390D39C9388C38AE
:1043E0003F38EB37FB3AAD3A703A363AE7399A390B
:1043F000583C2A3CED3BB63B7F3B3B3BE93DAF3D68
:104400005C3D123DD03C8B3C433E3E3E383E323E0E
:104410002D3E263EF53ED63EB13E8B3E643E493EA5
:10442000F8417141E3403740AB3F153F5374616E33
:104430006461726465696E7374656C6C756E6765D2
:104440006E2077757264656E207A757275636B671E
:10445000657365747A7400557374617769656E6904
:104460006120646F6D799C6C6E6500416A75737430
:10447000657320706F72206465666563746F206376
:1044800061726761646F732E00536574746167674E
:104490006920707265646566696E6974692063611C
:1044A0007269636174690044656661756C746E69F4
:1044B000206E6173746176656E69206E61687261E9
:1044C0006E6F0044656661756C7420736574746901
:1044D0006E6773206C6F616465640054656D706510
:1044E0007261747572207775726465206E69636895
:1044F00074206B616C6962726965727400436965EE
:10450000706C6E61206B616C69627261636A6120BC
:104510006E69652062796C612070727A6570726F65
:104520007761647A6F6E61004C612074656D7065AF
:104530007261747572612064652063616C69627276
:104540006163696F6E206E6F206861207369646FAC
:1045500020616A757374616461005461726174757D
:1045600072612064656C6C612074656D7065726148
:1045700074757261206E6F6E20616E636F72612060
:104580006573656775697461005469736B61726EF8
:1045900061206E6562796C61207465706C6F746EF9
:1045A00065207A6B616C6962726F76616E6100542E
:1045B000656D70657261747572652063616C6962A6
:1045C000726174696F6E20686173206E6F7420620F
:1045D00065656E2072756E20796574004465722081
:1045E00041627374616E64207A7769736368656E83
:1045F0002064657220537069747A65206465722046
:10460000447565736520756E64206465722042652B
:10461000747420697374206E6F6368206E696368B8
:10462000742065696E67657374656C6C742E2042C6
:104630006974746520666F6C67656E2053696520C8
:1046400064656D2048616E64627563682C204669FC
:104650007273742073746570732C2073656374694E
:104660006F6E204669727374206C61796572206385
:10467000616C6962726174696F6E2E004F646C6563
:10468000676C6F7363206479737A79206F6420702C
:104690006F646B6C61646B69206E6965206A657319
:1046A0007420736B616C6962726F77616E612E202A
:1046B000506F73746570756A207A676F646E696590
:1046C000207A20696E737472756B636A6120726FF1
:1046D0007A647A69616C205A61637A796E616D7966
:1046E0002C20706F64726F7A647A69616C204B6100
:1046F0006C69627261636A61207069657277737A4E
:10470000656A20776172737477792E0044697374D7
:10471000616E63696120656E747265206C612070E2
:10472000756E74612064656C206E6F7A7A6C65209A
:1047300079206C61207375706572666963696520A4
:104740006465206C612068656174626564206175D0
:104750006E206E6F2066696A6164612E20506F72F0
:10476000206661766F72207369676120656C206DC9
:10477000616E75616C2C206361706974756C6F205B
:1047800046697273742073746570732C2046697265
:104790007374206C617965722063616C6962726107
:1047A00074696F6E2E0044697374616E7A6120744F
:1047B0007261206C612070756E74612064656C6C30
:1047C000277567656C6C6F2065206C612073757050
:1047D000657266696369652064656C206C657474D4
:1047E0006F206E6F6E20616E636F726120696D70F5
:1047F0006F7374612E205369207072656761206445
:1048000069207365677569726520696C206D616EDA
:1048100075616C652C2063617069746F6C6F2046E4
:10482000697273742073746570732C2073657A6970
:104830006F6E65204669727374206C6179657220B1
:1048400063616C6962726174696F6E2E004E656E91
:1048500069207A6B616C6962726F76616E61207635
:104860007A64616C656E6F737420747279736B799E
:10487000206F64207469736B6F766520706F646C51
:104880006F7A6B792E20506F73747570756A7465CA
:104890002070726F73696D20706F646C65206D613C
:1048A0006E75616C752C206B617069746F6C612022
:1048B0005A6163696E616D652C206F6473746176F3
:1048C0006563204E6173746176656E6920707276DF
:1048D0006E69207672737476792E00446973746100
:1048E0006E6365206265747765656E2074697020FB
:1048F0006F6620746865206E6F7A7A6C6520616ED1
:1049000064207468652062656420737572666163F3
:104910006520686173206E6F74206265656E207318
:104920006574207965742E20506C6561736520660E
:104930006F6C6C6F7720746865206D616E75616C4B
:104940002C206368617074657220466972737420EC
:1049500073746570732C2073656374696F6E204681
:1049600069727374206C617965722063616C69622D
:10497000726174696F6E2E004465722044727563B3
:104980006B6572207775726465206E6F6368206E48
:1049900069636874206B616C696272696572742EF8
:1049A00020426974746520666F6C67656E20536978
:1049B00065206461732048616E64627563682C20B1
:1049C0004B61706974656C204669727374207374EE
:1049D0006570732C2041627363686E697474204340
:1049E000616C6962726174696F6E20666C6F772E9C
:1049F000004472756B61726B61206E6965207A6F1D
:104A00007374616C61206A65737A637A6520736B75
:104A1000616C6962726F77616E612E2050726F7384
:104A20007A65206B6965726F7761632073696520B1
:104A3000696E737472756B636A612C20726F7A642D
:104A40007A69616C205A61637A796E616D792C2084
:104A5000706F64726F7A647A69616C2053656C66FA
:104A6000746573742E00496D707265736F72612086
:104A70006E6F20657374612063616C69627261643A
:104A80006120746F64617669612E20506F722066B8
:104A900061766F722075736120656C206D616E7533
:104AA000616C2C206361706974756C6F204669724B
:104AB00073742073746570732C2043616C69627227
:104AC0006174696F6E20666C6F772E005374616D30
:104AD00070616E746520616E636F7261206E6F6EBF
:104AE0002063616C6962726174612E205369207069
:104AF00072656761206469207365677569726520F6
:104B0000696C206D616E75616C652C2063617069E4
:104B1000746F6C6F205052494D4920504153534996
:104B20002C2073657A696F6E652064656C6C6120FA
:104B300063616C696272617A696F6E652E00546997
:104B4000736B61726E61206E6562796C61206A655B
:104B5000737465207A6B616C6962726F76616E61E5
:104B60002E20506F73747570756A74652070726F43
:104B700073696D20706F646C65206D616E75616C1A
:104B8000752C206B617069746F6C61205A61636968
:104B90006E616D652C206F6473746176656320505F
:104BA0006F73747570206B616C6962726163652EDE
:104BB000005072696E74657220686173206E6F7444
:104BC000206265656E2063616C6962726174656400
:104BD000207965742E20506C6561736520666F6C5A
:104BE0006C6F7720746865206D616E75616C2C2028
:104BF000636861707465722046697273742073749F
:104C00006570732C2073656374696F6E2043616CEB
:104C10006962726174696F6E20666C6F772E002016
:104C200020506C616E6E657242756666657242797F
:104C30007465733A20002046726565204D656D6F7E
:104C400072793A2000207C20417574686F723A2096
:104C500000204C61737420557064617465643A205F
:104C60000020536F667477617265205265736574B6
:104C700000205761746368646F67205265736574C0
:104C8000002042726F776E206F75742052657365D5
:104C900074002045787465726E616C20526573658E
:104CA0007400506F7765725570006572726F722074
:104CB00077726974696E6720746F2066696C65002D
:104CC000656E6473746F7073206869743A20004471
:104CD0006F6E6520736176696E672066696C652EFC
:104CE000006F6B00202D20496E76616C6964206531
:104CF00078747275646572206E756D6265722021BC
:104D00000050525553413344465700C344A7448989
:104D1000446B4457442C44AF4589455A452845FDCA
:104D200044DB44DB484D48A6470C477C46DC45B194
:104D30004B3E4BCC4A664AF149784920202020332B
:104D40004420205072696E74657273202020200008
:104D50002020204F726967696E616C2050727573F4
:104D60006120202000466163746F727920524553A0
:104D70004554001F4C364C4A756E2020342032308A
:104D8000313900436F6D70696C65643A2000286E9C
:104D90006F6E652C2064656661756C7420636F6E40
:104DA0006669672900454C4A756E202034203230F0
:104DB00031392031323A35383A303300514C614C78
:104DC000714C814C924CA24C73746172740020201F
:104DD0002020334420205072696E74657273202045
:104DE0002020002020204F726967696E616C20507E
:104DF00072757361202020002055706C6F616420F3
:104E0000696E2070726F677265737300AA4C5A00E6
:104E1000205A3A00590020593A00580020583A00C8
:104E2000C04CCF4CE14C4D323900446572206C616E
:104E30007566656E646520417373697374656E741D
:104E4000206C6F65736368742064696520616B749E
:104E500075656C6C65204B616C6962726965726521
:104E6000726765626E6973736520756E6420776919
:104E7000726420766F6E20416E66616E6720616E8F
:104E800020626567696E6E656E2E20466F72747360
:104E900065747A656E3F00576C61637A656E69650B
:104EA0002057697A617264207573756E6965206F29
:104EB0006265636E652064616E65206B616C69621A
:104EC000726163796A6E652069207A61637A6E69BE
:104ED00065206F64206E6F77612E204B6F6E747942
:104EE0006E756F7761633F00456A656375746172C3
:104EF00020656C2057697A61726420626F727261FA
:104F00007261206C6F732076616C6F7265732064C0
:104F1000652063616C6962726163696F6E206163B1
:104F20007475616C6573207920636F6D656E7A614D
:104F30007261206465206E7565766F2E20436F6EFA
:104F400074696E7561723F005365206176766920E1
:104F5000696C2057697A6172642070657264657249
:104F60006169206C612063616C696272617A696F4A
:104F70006E65207072656573697374656E74652003
:104F80006520646F76726169207269636F6D696E06
:104F900063696172652064616C6C27696E697A6906
:104FA0006F2E20436F6E74696E756172653F00539A
:104FB00070757374656E692057697A6172646120D7
:104FC00076796D617A6520756C6F7A656E6520768D
:104FD00079736C65646B79207673656368206B61A7
:104FE0006C696272616369206120737075737469A2
:104FF000206B616C69627261636E692070726F63AD
:105000006573206F64207A616361746B752E205024
:105010006F6B7261636F7661743F0052756E6E697B
:105020006E672057697A6172642077696C6C2064BE
:10503000656C6574652063757272656E742063615A
:105040006C6962726174696F6E20726573756C74DD
:105050007320616E642073746172742066726F6D68
:105060002074686520626567696E6E696E672E20C0
:10507000436F6E74696E75653F0052657365742089
:1050800058595A204B616C6962722E0052657365E3
:1050900074206B616C6962722E2058595A005265F7
:1050A0007365742058595A206B616C6962722E00C6
:1050B00052657365742058595A2063616C69627235
:1050C0002E00456E64736368616C7465722053745E
:1050D00061742E00506F6B617A206B72616E636F2A
:1050E000776B6900456E73656E6120746F70652023
:1050F00066696E616C00537461746F2066696E65D9
:10510000636F7273610053746176206B6F6E632EF0
:10511000207370696E2E0053686F7720656E64206F
:1051200073746F707300504944204B616C696272F4
:10513000696572756E67004B616C69627261636A62
:1051400061205049440043616C6962726163696F18
:105150006E205049440043616C696272617A696FE4
:105160006E652050494400504944206B616C69626F
:1051700072616365005049442063616C69627261C9
:1051800074696F6E0054656D702E206B616C69627E
:1051900072696572656E00436965706C6E61206B43
:1051A000616C6962722E0043616C6962726163694D
:1051B0006F6E2074656D702E00546172617475722B
:1051C000612074656D702E005465706C6F742E20B4
:1051D0006B616C6962726163650054656D702E204D
:1051E00063616C6962726174696F6E0042657474A8
:1051F000206C6576656C204B6F7272656B74004B2A
:105200006F72656B746120706F646B6C61646B6945
:1052100000436F72722E206465206C612063616DA3
:105220006100436F7272657A2E206C69762E6C6510
:1052300074746F004B6F72656B636520706F646C84
:105240006F7A6B7900426564206C6576656C2063CB
:105250006F72726563740057697A617264004D659C
:1052600073682042657474204C6576656C696E675E
:10527000004D657368206C6976656C2E206C6574D2
:10528000746F004D65736820426564204C657665D7
:105290006C696E670045727374652D53636869634A
:1052A0006874204B616C004B616C2E20312E20778E
:1052B0006172737477790043616C2E207072696D2E
:1052C000657261206361702E0043616C2E207072E4
:1052D000696D6F206C617965722E004B616C2E20B8
:1052E0007072766E69207672737476790046697290
:1052F0007374206C617965722063616C2E004B6160
:105300006C696272696572656E205A004B616C69E6
:105310006272756A205A0043616C69627261722020
:105320005A0043616C69627261205A004B616C697A
:1053300062726F766174205A0043616C69627261B7
:105340007465205A004B616C696272696572756E92
:10535000672058595A004B616C69627261636A61D7
:105360002058595A0043616C696272612058595A39
:105370000043616C696272612058595A004B616C3C
:105380006962726163652058595A0043616C6962B1
:10539000726174652058595A0053656C6273747455
:1053A000657374202020202020200053656C6674D3
:1053B000657374004175746F746573740053656C24
:1053C0006674657374202020202020202020005344
:1053D00074617274706F736974696F6E004C6C6580
:1053E00076617220616C206F726967656E0054721D
:1053F0006F7661206F726967696E65004175746FC1
:1054000020686F6D65004465757473636800506F44
:105410006C736B6900457370616E6F6C00497461E9
:105420006C69616E6F0043657374696E6100456EEF
:10543000676C6973680046696C616D656E74206C99
:1054400065616474005770726F772E2066696C61B5
:105450006D656E747500496E74726F64756369650D
:105460006E646F2066696C616D2E004361726963C2
:10547000616E646F2066696C616D2E005A617661A1
:1054800064656E692066696C616D656E7475004C4B
:105490006F6164696E672066696C616D656E74002A
:1054A00046696C616D656E7420696E2065787472F2
:1054B0007564657220312065696E6C6567656E2E56
:1054C000204B6C69636B656E2077656E6E20666538
:1054D000727469672E00576C6F7A2066696C616D13
:1054E000656E7420646F20656B7374727564657289
:1054F0006120312E20506F7477696572647A207054
:10550000727A796369736B69656D2E00496E736594
:10551000727461722066696C616D656E746F20656E
:105520006E20656C206578747275736F7220312EF1
:105530002048617A20636C696320756E612076650E
:105540007A207465726D696E61646F2E00496E73A6
:1055500065726972652066696C616D656E746F2035
:105560006E656C6C276573747275736F726520312C
:105570002E20436C69636B2070657220636F6E74BC
:10558000696E756172652E00566C6F7A746520665F
:10559000696C616D656E7420646F206578747275D6
:1055A0006465727520312E20506F74767264746554
:1055B00020746C616369746B656D2E00496E736550
:1055C00072742066696C616D656E7420696E746FAB
:1055D00020657874727564657220312E20436C6981
:1055E000636B207768656E20646F6E652E00466978
:1055F0006C616D656E7420696E2065787472756477
:10560000657220342065696E6C6567656E2E204B6F
:105610006C69636B656E2077656E6E20666572746B
:1056200069672E00576C6F7A2066696C616D656ED4
:105630007420646F20656B73747275646572612089
:10564000342E20506F7477696572647A2070727A94
:10565000796369736B69656D2E00496E7365727449
:1056600061722066696C616D656E746F20656E2075
:10567000656C206578747275736F7220342E2048C3
:10568000617A20636C696320756E612076657A208B
:105690007465726D696E61646F2E00496E73657218
:1056A0006972652066696C616D656E746F206E65E8
:1056B0006C6C276573747275736F726520342E205D
:1056C000436C69636B2070657220636F6E74696EE2
:1056D000756172652E00566C6F7A74652066696C10
:1056E000616D656E7420646F206578747275646591
:1056F000727520342E20506F747672647465207435
:105700006C616369746B656D2E00496E73657274AC
:105710002066696C616D656E7420696E746F2065BA
:105720007874727564657220342E20436C69636BE3
:10573000207768656E20646F6E652E0046696C6127
:105740006D656E7420696E2065787472756465721B
:1057500020332065696E6C6567656E2E204B6C6921
:10576000636B656E2077656E6E206665727469671F
:105770002E00576C6F7A2066696C616D656E7420BF
:10578000646F20656B737472756465726120332E6B
:1057900020506F7477696572647A2070727A7963C9
:1057A00069736B69656D2E00496E73657274617201
:1057B0002066696C616D656E746F20656E20656C26
:1057C000206578747275736F7220332E2048617A69
:1057D00020636C696320756E612076657A2074653C
:1057E000726D696E61646F2E00496E7365726972C5
:1057F000652066696C616D656E746F206E656C6C9A
:10580000276573747275736F726520332E20436C35
:1058100069636B2070657220636F6E74696E756169
:1058200072652E00566C6F7A74652066696C616DC6
:10583000656E7420646F2065787472756465727526
:1058400020332E20506F74767264746520746C61FE
:105850006369746B656D2E00496E736572742066A2
:10586000696C616D656E7420696E746F2065787403
:10587000727564657220332E20436C69636B2077E8
:1058800068656E20646F6E652E0046696C616D659B
:105890006E7420696E20657874727564657220324A
:1058A0002065696E6C6567656E2E204B6C69636B55
:1058B000656E2077656E6E206665727469672E006E
:1058C000576C6F7A2066696C616D656E7420646FC9
:1058D00020656B737472756465726120322E20507E
:1058E0006F7477696572647A2070727A796369730C
:1058F0006B69656D2E00496E736572746172206606
:10590000696C616D656E746F20656E20656C2065D5
:1059100078747275736F7220322E2048617A20631A
:105920006C696320756E612076657A207465726D8E
:10593000696E61646F2E00496E73657269726520CD
:1059400066696C616D656E746F206E656C6C276541
:1059500073747275736F726520322E20436C6963A5
:105960006B2070657220636F6E74696E756172650D
:105970002E00566C6F7A74652066696C616D656E79
:105980007420646F20657874727564657275203256
:105990002E20506F74767264746520746C61636934
:1059A000746B656D2E00496E736572742066696C48
:1059B000616D656E7420696E746F206578747275A0
:1059C00064657220322E20436C69636B20776865B2
:1059D0006E20646F6E652E00426974746520776175
:1059E0007274656E0050726F737A6520637A656BAE
:1059F000616300506F72204661766F72204573704C
:105A00006572617200417370657474610050726FE9
:105A100073696D2063656B656A746500506C6561C0
:105A2000736520776169740046696C616D656E7499
:105A30002061757377657266656E00577973757747
:105A4000616D2066696C616D656E7400536F6C7476
:105A5000616E646F2066696C616D656E746F005273
:105A6000696C6173632E2066696C616D656E746F1D
:105A7000005679736F7576616D2066696C616D652E
:105A80006E7400556E6C6F6164696E672066696C38
:105A9000616D656E7400447565736520566F72772D
:105AA0006165726D656E004E6167727A656A206429
:105AB00079737A65210050726563616C656E7461FB
:105AC00072206578747275736F72005072657269B6
:105AD000732E207567656C6C6F210050726564656C
