; device = mm-control

:100000000C9403050C942B050C942B050C942B05D8
:100010000C942B050C942B050C942B050C942B05A0
:100020000C942B050C942B050C94BA300C9488314D
:100030000C942B050C942B050C942B050C942B0580
:100040000C942B050C9436250C942B050C942B0545
:100050000C942B050C941F250C942B050C942B054C
:100060000C942B050C949C270C9465270C942B0561
:100070000C942B050C942B050C942B050C942B0540
:100080000C942B050C942B050C942B050C942B0530
:100090000C942B050C942B050C942B050C942B0520
:1000A0000C942B050C942B050C942B0501A102003C
:1000B0000001A0020000029E020000029C0200005B
:1000C0000A52160000099A0D00000A8F0D00000D5B
:1000D0008B0D511E09800D00000D750D6E0D096A06
:1000E0000D00000D660D630D0D5F0D5C0D0E570DBF
:1000F000520D0A4F0D00000A4C0D00000A490D0078
:10010000000E440D3F0D0E3A0D350D0E300D2B0D2A
:100110000E260D210D0E1C0D170D0E120D0D0D0DC1
:10012000251628220D201623220D1B163D1B0A0919
:100130000D00000D050D6D140D010DAF150DFD0C1D
:10014000FA0C0DF60CF30C0DEF0CEC0C0DE80CE5B5
:100150000C0AE20C00000E0424202424F4D43050B5
:10016000C38E20C2A24017828B7011127A910D812A
:100170006CD90AA861E108C7586607615143061E99
:100180004B5D05C145A7041A411104093D9803714F
:100190003931034036DB0265339102D4305402809A
:1001A0002E1D02632CEE01752AC501B028A0011096
:1001B0002781018F2564012B244B01E0223401ACFF
:1001C000211F018D200D01801FFC00841EED009772
:1001D0001DDF00B81CD200E61BC600201BBC00645B
:1001E0001AB200B219A8000A19A0006A189900D121
:1001F00017910040178B00B516840031167E00B3AE
:100200001579003A157300C7146F0058146A00EE90
:100210001366008813630025135E00C7125B006C31
:1002200012570015125400C111510070114F0021D6
:10023000114B00D61049008D1047004610440002B3
:10024000104200C00F4000800F3E00420F3C0006ED
:100250000F3B00CB0E3800930E37005C0E350027A5
:100260000E3400F30D3200C10D3100900D300060EE
:100270000D2E00320D2D00050D2C00D90C2B00AEDB
:100280000C2900850C29005C0C2700350C27000E7A
:100290000C2600E80B2400C40B2400A00B23007DD7
:1002A0000B23005A0B2100390B2100180B2000F8FA
:1002B0000A1F00D90A1E00BB0A1E009D0A1D0080ED
:1002C0000A1D00630A1C00470A1B002C0A1B0011B0
:1002D0000A1A00F7091A00DD091900C4091900AB50
:1002E000091900920917007B091800630917004CCF
:1002F00009160036091600200916000A091500F52E
:10030000081500E0081400CC081400B8081400A474
:10031000081400900813007D0812006B08130058A1
:1003200008120046081200340811002308110012B8
:1003300008110001081100F0071000E0071000D0BC
:10034000071000C0071000B0070F00A107100091B0
:10035000070E0083070F0074070F0065070E005794
:10036000070E0049070E003B070D002E070E002068
:10037000070D0013070D0006070D00F9060C00ED30
:10038000060D00E0060C00D4060C00C8060C00BCEC
:10039000060C00B0060C00A4060B0099060C008D9C
:1003A000060B0082060B0077060B006C060B006143
:1003B000060A0057060B004C060A0042060A0038DF
:1003C000060A002E060A0024060A001A060A001071
:1003D00006090007060A00FD050900F4050900EBFF
:1003E000050900E2050900D9050900D0050900C783
:1003F000050900BE050900B5050800AD050800A502
:100400000509009C050800940508008C0508008477
:100410000508007C050800740508006C05070065E8
:100420000508005D050700560508004E0507004752
:100430000507004005080038050700310507002AB8
:10044000050700230507001C050600160507000F19
:100450000507000805060002050700FB040600F575
:10046000040700EE040600E8040600E2040700DBCF
:10047000040600D5040600CF040600C9040600C324
:10048000040600BD040600B7040600B1040500AC74
:10049000040600A6040600A00405009B04060095BF
:1004A000040500900406008A040500850405008008
:1004B0000406007A04050075040500700405006B4D
:1004C00004050066040500610405005C040500578E
:1004D000040500520405004D0405004804050043CE
:1004E0000405003E0404003A04050035040500300C
:1004F0000404002C04050027040400230405001E46
:100500000404001A04040016040500110404000D7C
:10051000040400090405000404040000040400FCB1
:10052000030400F8030400F4030400F0030400ECE7
:10053000030400E8030400E4030400E0030400DC17
:10054000030400D8030400D4030400D0030400CC47
:10055000030400C8030300C503030024F404D920E6
:100560001BC40C5C0E9804C4095F0265077101F49A
:1005700005F900FB04B30048048700C10369005873
:1005800003550003034500BE023A008402310053C4
:10059000022A002902250004022000E4011C00C8F0
:1005A000011900AF011700980114008401130071B4
:1005B0000110006101100051010E0043010D0036D1
:1005C000010B002B010B0020010B00150109000C91
:1005D00001090003010800FB000800F3000800EB1C
:1005E000000700E4000600DE000600D8000600D286
:1005F000000600CC000500C7000500C2000500BDD4
:10060000000400B9000400B5000400B1000400AD0E
:10061000000400A9000400A5000300A20003009F3D
:100620000004009B00030098000300950002009363
:10063000000300900003008D0002008B000300887F
:100640000002008600020084000300810002007F97
:100650000002007D0002007B0002007900020077AA
:1006600000010076000200740002007200010071B7
:100670000002006F0002006D0001006C0002006AC1
:1006800000010069000200670001006600010065CA
:1006900000010064000200620001006100010060CE
:1006A0000001005F0002005D0001005C0001005BD2
:1006B0000001005A000100590001005800010057D4
:1006C00000010056000100550001005400010053D4
:1006D00000000053000100520001005100010050D1
:1006E0000001004F0001004E0000004E0001004DCF
:1006F0000001004C0001004B0000004B0001004ACB
:1007000000010049000100480000004800010047C6
:1007100000010046000000460001004500000045C1
:1007200000010044000100430000004300010042BA
:1007300000000042000100410000004100010040B3
:100740000001003F0000003F0001003E0000003EAD
:100750000001003D0000003D0001003C0000003CA5
:100760000000003C0001003B0000003B0001003A9B
:100770000000003A00010039000000390001003893
:10078000000000380000003800010037000000378A
:100790000001003600000036000000360001003580
:1007A0000000003500000035000100340000003476
:1007B000000000340001003300000033000000336B
:1007C0000001003200000032000000320001003160
:1007D0000000003100000031000100300000003056
:1007E000000000300001002F0000002F0000002F4B
:1007F0000000002F0001002E0000002E0000002E3F
:100800000001002D0000002D0000002D0000002D33
:100810000001002C0000002C0000002C0000002C27
:100820000001002B0000002B0000002B0000002B1B
:100830000001002A0000002A0000002A0000002A0F
:100840000001002900000029000000290000002903
:1008500000000029000100280000002800000028F6
:1008600000000028000000280001002700000027E9
:1008700000000027000000270000002700010026DC
:1008800000000026000000260000002600000026D0
:1008900000010025000000250000002500000025C3
:1008A00000000025000000250001002400000024B5
:1008B00000000024000000240000002400010023A8
:1008C000000000230000002300000023000000239C
:1008D000000000230000002300010022000000228D
:1008E0000000002200000022000000220000002280
:1008F0000001002100000021000000210000002173
:100900000000002100000021000000210001002063
:100910000000002000000020000000200000002057
:100920000000002000000020000000200001001F47
:100930000000001F0000001F0000001F0000001F3B
:100940000000001F0000001F0001001E0000001E2C
:100950000000001E0000001E000000080307360310
:100960004F0072006900670069006E0061006C0052
:1009700020005000720075007300610020004D00DF
:100980004D005500200075006E00690074002000C5
:100990003DD811DC00001803700072007500730070
:1009A0006100330064002E0063006F006D000000E2
:1009B0000403090409023E00020100C032090400D8
:1009C00000010202010005240010010424020605B2
:1009D00024060001070582030800FF090401000244
:1009E0000A000000070504024000050705830240D5
:1009F00000051201100102000008992C04000100FA
:100A000001020001252411241FBECFEFDAE0DEBF72
:100A1000CDBF13E0A0E0B1E0ECEDFBE602C0059035
:100A20000D92A43BB107D9F727E0A4EBB3E001C0D6
:100A30001D92A438B207E1F715E0C3E0D5E004C089
:100A40002197FE010E941C33C230D107C9F70E94D2
:100A5000CD270C94EC350C940000FC016370862FBC
:100A6000880F9081997F982B90836150623018F0A5
:100A70009E7F908308959160FCCF81E090E0FC011F
:100A8000E752FC4F2081297F2E7F2083FC01E85212
:100A9000FC4F2081297F2E7F208302968B30910589
:100AA00071F70895EF92FF920F931F93CF93C82F82
:100AB0007B018A010E943D05CC0F81E08C0F90E004
:100AC000B70187529C4F0E942D058C2F90E0B801F2
:100AD00087529C4FCF911F910F91FF90EF900C94F4
:100AE0002D0591E0909317079091390720913807D1
:100AF0002917D9F120913807392F321BE0911507BA
:100B0000F0911607303219F50FB607FCFDCF308192
:100B100035FFFACF30E0921751F0A22FAF71B0E05D
:100B2000AB5EB84F13963C912F5F20933807368306
:100B3000208120642083209138079213DBCFE0913D
:100B40001507F091160721812F7D2183D3CFA92F7F
:100B5000AF71B0E0AB5EB84F13968C939F5F9093EC
:100B600039078181806281830895E0911507F091B2
:100B70001607208125FFBECF868380818064808315
:100B80000895CF93DF93DC011496ED91FC911597B6
:100B900016964C9116978FB7F894928121E030E029
:100BA00001C0220F4A95EAF72095292322838FBF9F
:100BB000FB01CB0105962191CD91DC9111972A8300
:100BC000298127FFFDCF2A81EF0121972883E8178C
:100BD000F90789F71496ED91FC91159716964C91AB
:100BE0009FB7F894828121E030E001C0220F4A953E
:100BF000EAF7822B82839FBFDF91CF910895909176
:100C0000ED038091EE03981789F0E92FE370F0E08F
:100C1000E751FC4F80812091EF03222311F087FFE1
:100C200005C09F5F9093ED038F7708958FE7089538
:100C30009091D1048091D20498130CC090918605B4
:100C400080918705981306C081E020913B06909122
:100C50003C06291380E008950F931F93CF93DF93F1
:100C6000EC018C01060F111DC017D10759F08091BE
:100C7000390790913807891B803251F089910E9481
:100C80007105F2CF81E0DF91CF911F910F9108950F
:100C900080E0F9CF22E0FC01228308958F929F9299
:100CA000AF92BF92CF92DF92EF92FF92CF93DF93FA
:100CB0009C01FC01E857FF4F608171818281938123
:100CC000349740813196508131960190F081E02D2A
:100CD0003097F9F0C080D180E280F380D901AA5525
:100CE000BF4F8D909D90AD90BC90C818D908EA0870
:100CF000FB08E481E11108C0F094E094D094C09422
:100D0000C11CD11CE11CF11C6C197D098E099F09C5
:100D10004F5FA1E24517E1F0E42FE370E901AE9FD8
:100D2000C00DD11D1124C880D980EA80FB80EC81E0
:100D3000E11108C0F094E094D094C094C11CD11C7F
:100D4000E11CF11C6C197D098E099F094F5FE2CFF0
:100D5000DF91CF91FF90EF90DF90CF90BF90AF9059
:100D60009F908F9008951092D5041092D6041092FF
:100D7000D7041092D80481E0089508958A3020F0B5
:100D8000803120F4895A0895805D089580E00895A7
:100D90000F931F93CF93DF93082FEB0190E024E094
:100DA000959587952A95E1F711E0009721F00E942B
:100DB000BE06899312E0802F8F700E94BE06888342
:100DC000812FDF91CF911F910F910895CF93DF93E2
:100DD000EB01FC0120812883818181110DC080E31A
:100DE000898381E091E0980FC90FD11D90E298832B
:100DF0008E5FDF91CF9108956F5F7F4F0E94C8068D
:100E0000F1CF9AE2FB019083811105C080E38183D9
:100E100081E08F5F08956F5F7F4F0E94C806F9CF12
:100E2000CF92DF92EF92FF921F93CF93DF93EC016B
:100E30006B0114E0892B69F480E3FB01808311E0EE
:100E4000812FDF91CF911F91FF90EF90DF90CF9096
:100E50000895CE018827907F892B39F424E0CC0FA8
:100E6000DD1F2A95E1F71150F4CF76018E2D8C19F4
:100E7000811730F78D2F82958F7094E0CC0FDD1F96
:100E80009A95E1F70E94BE06F70181937F01EECFAC
:100E9000803330F08A3330F09FE9980F963020F09D
:100EA00080E00895805308958755089590ED980F38
:100EB0009A3038F09FE9980F81E0963018F080E082
:100EC000089581E00895FC018081813041F020F097
:100ED000823039F483E001C081E08083089582E0AC
:100EE000FCCF108208950F931F93FC01808591859C
:100EF000A285B3858A019B01081B190B2A0B3B0BAA
:100F0000D901C801B7FF07C0B095A095909581950C
:100F10009F4FAF4FBF4F1F910F910895CF93DF9316
:100F2000DC011796EC91B5EBEB9FF0011124EF5229
:100F3000FB4F3081218132130BC0EC018B818C83FC
:100F4000E881F9810084F185E02DCE0109951A82AE
:100F5000DF91CF91089581E008959FB7F894EFE66F
:100F6000F0E08081826080839FBF0895AA27639FFD
:100F7000B12D749FF001849FF00D839FE00DF11D52
:100F8000649FB00DE11DFA1F739FB00DE11DFA1FA4
:100F9000829FB00DE11DFA1F729FB10DEA1FFA1F6B
:100FA000BB0FEA1FFA1F1124CF0108952FB7F89441
:100FB000EFE6F0E0808190819D7F90832FBF869542
:100FC0008170089581110C94AD079FB7F8948091BA
:100FD0006F008D7F80936F009FBF0895CF92DF9247
:100FE000EF92FF920F931F93CF93DF93C82FC62EDC
:100FF0000E94D607D82EEC2EF12C85EBC89FE0017D
:1010000011248E01035B1B4FC8010E944E06AE01E6
:10101000485B5B4FFA01E357FF4F60837183828324
:101020009383329720813181232B89F0EA01C756BF
:10103000DF4FCA018B559F4FDC018D919C91B0E031
:10104000A0E088839983AA83BB8311821082F80170
:10105000EC57FF4F80818183CC2061F085EB8E9D22
:10106000F0018F9DF00D1124EF51FB4F1082118282
:10107000128213828D2DDF91CF911F910F91FF90DE
:10108000EF90DF90CF900C94E207CF93DF93C82FBF
:101090000E94D607D82F6C2F80E00E94EE076C2F9D
:1010A00081E00E94EE076C2F82E00E94EE078D2FF8
:1010B000DF91CF910C94E207CF92DF92EF92FF92F3
:1010C000CF93DF93C82F0E94D607D82F25EBC29F5E
:1010D000C0011124835B9B4F0E944E066B017C0173
:1010E0008D2F0E94E207C701B601DF91CF91FF90DB
:1010F000EF90DF90CF90089580E00E945C0823E598
:1011000030E040E050E00E948A33CA01B9010895FE
:1011100082E00E945C0808950F931F9325EBFC0169
:1011200011922A95E9F72DE1629FF0011124E95906
:10113000F94F058916892789308D418D528D638D30
:10114000748DDC01A757BF4F1C9211961C92139609
:101150001D921D921D921C9213971C961D921D921A
:101160001D921C92139718970D931D932D933C93EA
:10117000139714964D935D936D937C9313971A97E1
:1011800011961C921E9295962189328943892D933E
:101190003D934C931F910F910895FB0181342CE9ED
:1011A000920708F030C081322EE4920708F42EC076
:1011B000969587959695879524E02083809781154D
:1011C00028E0920708F433C0E92FFF27EE0FFF1F36
:1011D000EE0FFF1F9F01255A3A4FF9013296659194
:1011E0007491789FA001689F000C411D1124511D2E
:1011F000F90185919491841B950B8436910510F427
:1012000084E690E0089580E49CE9D2CF813127E222
:10121000920720F09695879522E0CFCF21E020839A
:101220008032910508F0CACF80E290E0C7CF9C01E0
:10123000369527952C7F3F77255A3E4FF9014591EA
:101240005491F90132966591749187709927869F20
:101250009001879F300D969F300D112463E03695E5
:1012600027956A95E1F7CA01821B930BC6CF0F93AE
:101270001F93CF938C01C8EC6111CCED0E948808BC
:1012800028E030E040E050E00E948A33BA01A90132
:10129000C8010E94730721E0C817190608F020E072
:1012A000822FCF911F910F910895FC019081892F7A
:1012B0008370813081F030F0823001F593604423F7
:1012C00041F019C04423B9F09C7F7283618391601F
:1012D0009460908310C092FB882780F984130CC01F
:1012E00021813281621B730B83819C7F9260861700
:1012F000170679F370F308959C7FEBCF72836183B7
:101300009C7F9B7FE6CF4FB146FB442740F960911D
:10131000E5037091E60382E791E00C945509FC0126
:101320008281803141F4868597858130910529F449
:1013300090E080E00895838194810895FC0182818A
:10134000863021F0803151F48585089593A1933042
:1013500031F0953031F0923009F48CE1089587E056
:10136000089582E0089581E00895FC018281803132
:1013700019F4868597850895838194810895FC01E9
:101380008281803109F485850895FC018281803154
:1013900019F4868597850895838194810895FC01C9
:1013A0008281803109F485850895FC01128221E053
:1013B00030E0348323838091E5039091E60390939A
:1013C0005D0780935C070895FC0182818823A9F062
:1013D0008A3169F480915A01811107C080916801B6
:1013E000811103C0CF010E94D50980E008958DE0EE
:1013F00082838FE290E89483838381E00895E8E517
:10140000F1E082818F778283E6E6F1E082818F7757
:10141000828308950E94FF0910925D0110926B0172
:10142000089520E430E002C0220F331F6A95E2F7EE
:10143000822B932B0895FC01228130E02F772530F9
:10144000310531F026303105A9F090E080E00895B3
:101450006781268180E094E820FD02C090E080E072
:1014600021FD986822FD906923FD906A24FD906C0F
:101470000C94110A678187E090E8FACF90917C0084
:10148000907E892B80937C0080917B008F7D809360
:101490007B0080917A00806480937A0080917A004A
:1014A00086FDFCCF809178009091790008950F938C
:1014B0001F93CF93DF930091E5031091E60385E03E
:1014C0000E943E0AC0E08333910568F09C012055DC
:1014D0003109C1E02531310530F0805A9109CFEF53
:1014E000459708F4C2E00C2E000CDD0B41E020977C
:1014F00009F040E0B80181E491E00E94550941E023
:10150000C130D10509F040E0B80185E491E00E94C6
:10151000550941E0229709F040E0B80189E491E0E3
:10152000DF91CF911F910F910C9455090F931F9349
:10153000CF93DF9300D000D01F92CDB7DEB7CB01A1
:10154000406849833A832B831C830D83BE016F5F00
:101550007F4F0E94C1050F900F900F900F900F903A
:10156000DF91CF911F910F910895EF92FF920F930A
:101570001F93CF93DF9300D000D01F92CDB7DEB77B
:101580007B018E010F5F1F4F85E0F80111928A9554
:10159000E9F74983B801C7010E94C1051982B80162
:1015A000C7010E94C1056A817B818C819D810E9457
:1015B000A9330F900F900F900F900F90DF91CF9164
:1015C0001F910F91FF90EF9008958F929F92AF928D
:1015D000BF92CF92DF92EF92FF921F93CF93DF9350
:1015E000FC011181112309F440C05B01EC0141E0D1
:1015F0000E94B50A6B017C014FE6B501CE010E9445
:10160000B50AAB01BC018881982F9C29460157017E
:1016100022E0B694A794979487942A95D1F790FBEB
:1016200080F980FA81F988834A015B018824992432
:10163000AA24F8E1BF2281E089288A288B2809F4AE
:1016400080E0988180FB92F972FB882780F980FB0B
:1016500093F971FB442740F940FB94F99883CD2816
:10166000CE28CF2811F4192F1170812FDF91CF913F
:101670001F91FF90EF90DF90CF90BF90AF909F9021
:101680008F9008951F93CF93DF93EC018F819DE19D
:10169000899FB00111246E507C4F15EB189FC0013B
:1016A0001124885B9B4F0E94E50A882369F08F8193
:1016B000189FF0011124E85BFB4F90819E8361E04D
:1016C0000E94EE0785E08A83DF91CF911F910895F4
:1016D0000F931F93FA0102812181122F1F7120178E
:1016E00048F00F712FE030E040E10E94960A1F9110
:1016F0000F910895012FF6CFCF93DF9300D01F9263
:10170000CDB7DEB7FC0191E0603208F090E099833C
:10171000962F603208F096959A83603208F04695CD
:101720004B8387812DE1829FB00111246E507C4F45
:1017300025EB829FC0011124AE014F5F5F4F885B94
:101740009B4F0E94680B0F900F900F90DF91CF91ED
:101750000895CF93DF93EC01EF8185EBE89FF001D3
:101760001124E850FB4F42816181CE010E947C0B25
:10177000E881F9810190F081E02DCE01099581E0A9
:101780008A8380E0DF91CF910895FC01248525872D
:101790006091630640916406222319F0213019F408
:1017A000462F0C947C0B08950F931F9300EF1FEFAF
:1017B0002FE030E0411104C006E410E020E030E00A
:1017C00043E10E94960A1F910F9108950F931F9372
:1017D000CF938C0181E0611101C080E08093C70349
:1017E000C1E06111C0E04C2F68E676E088E494E047
:1017F0000E94D40B4C2F65E876E08DEF94E00E94B8
:10180000D40B4C2F62EA76E082EB95E00E94D40B79
:10181000C8010E94D50981E0CF911F910F910895D1
:10182000BF92CF92DF92EF92FF920F931F93CF93CD
:10183000DF937C01EB016A01B22EFC01118282E090
:101840008383EC81FD814E812FB7F894328181E052
:1018500090E0BC0102C0660F771F4A95E2F7362B75
:1018600032832FBF2181262B2183EA85FB852181AD
:101870003C85AC0101C0440F3A95EAF7342F30950E
:10188000322331833FB7F8942281242B22833FBF38
:10189000EF81F88549852FB7F894328101C0880F10
:1018A0004A95EAF7982F9095932392832FBF9181C1
:1018B000892B818344E0BE01C7010E94B50A092F2C
:1018C000112722273327013111052105310509F0A0
:1018D0006BC026E096958795779567952A95D1F701
:1018E000E1E06E2760FD60C0F70180818E7F80831C
:1018F00041E0BE01C7010E94B50A3D85F601808125
:1019000021E080FB21F923703F70306130623F7B22
:101910003F7703ED10E04CE6BE01C7010E94960A36
:10192000A601BE01C7010E94680B00E010E098010B
:1019300041E1BE01C7010E94960A2E852F772F77BD
:1019400010E030E04DE6BE01C7010E94960A02ECAD
:1019500011E020E030E044E1BE01C7010E94960A98
:1019600004E810E020E030E040E0BE01C7010E9442
:10197000960A00EF14E024E130E040E7BE01C70121
:101980000E94960A4B2DBE01C7010E94D40B81E034
:10199000F7018183DF91CF911F910F91FF90EF901D
:1019A000DF90CF90BF90089580E0F4CFF89488E165
:1019B00098E00FB6F894A895809360000FBE9093BE
:1019C0006000FFCF81EE90E0089580936306089554
:1019D0008091630690E008958093AE05089580910C
:1019E000AE0590E008958093F90408958091F9047C
:1019F00090E008958093D80308958091D80390E0F3
:101A0000089580915C0190E0089580916A0190E0D2
:101A100008950E947C08CB0108959093D70380938A
:101A2000D60308958091D6039091D703089590939B
:101A3000D3038093D20308958091D2039091D3036E
:101A400008959093CD038093CC0308958091CC03A7
:101A50009091CD0308959093D5038093D403089576
:101A60008091D4039091D50308959093D1038093EE
:101A7000D00308958091D0039091D103089590935D
:101A8000CB038093CA0308958091CA039091CB033E
:101A9000089584EF91E0089588EC90E0089580E245
:101AA00093E008959093CF038093CE03089580919F
:101AB000CE039091CF0308958093C9030895809138
:101AC000C90390E008958093C80308958091C803E6
:101AD00090E008958091C70390E0089521E0892B5C
:101AE00009F420E020931901089590911501937055
:101AF00021E030E0923011F030E020E0C90108959B
:101B000090917201937021E030E0923011F030E05A
:101B100020E0C90108958091C60390E00895809166
:101B20005E0790915F07DC01ED91FC910680F781E3
:101B3000E02D099480915E0790915F07DC01ED91A3
:101B4000FC910480F581E02D099590E0089581E0F5
:101B50000895FC0180899189089590E080E00895BE
:101B6000FC01838194810895FC0182810895862778
:101B700098E027E0382F880F37FD82279150D1F762
:101B80000895CF93DF93EC01688180E00E94B70D48
:101B900069810E94B70D6A81CB810E94B70D6C2FBD
:101BA000DF91CF910C94B70DCF93DF93EC010E949E
:101BB000C10D6D810E94B70D6E81CF810E94B70D5E
:101BC0006C2FDF91CF910C94B70DAF92BF92CF9253
:101BD000DF92EF92FF920F931F93CF93DF93CDB7D6
:101BE000DEB72D970FB6F894DEBF0FBECDBF5C01F8
:101BF000C62ED42E052F790190E080E022E56623E1
:101C000019F0942F852F21E435E0F501DE011996B6
:101C100001900D923A95E1F735E0FE013996DE012B
:101C2000119601900D923A95E1F72E839F83888754
:101C3000CE0101960E94D40D8D83B701C5010E948B
:101C4000E606F701E80FF11D9E81908311E0180F61
:101C5000CC2041F0B701610F711D8D2D902F0E9496
:101C60001007180FB701610F711D8D810E940107C8
:101C7000810FF701E80FF11D9AE090838F5F2D9699
:101C80000FB6F894DEBF0FBECDBFDF91CF911F918D
:101C90000F91FF90EF90DF90CF90BF90AF9008959D
:101CA000EF92FF921F93CF93DF93CDB7DEB762978A
:101CB0000FB6F894DEBF0FBECDBF162F7A01FC0120
:101CC000218180818E872F87198A188ACE010E96EE
:101CD0000E94C10D8A8B85E0FE013E96DE011996B9
:101CE00001900D928A95E1F785E0FE013996DE01BB
:101CF000119601900D928A95E1F71E8318861F8236
:101D0000CE0101960E94D40D8D83B701CE010196BC
:101D10000E94E606F701E80FF11D108311E0180F8D
:101D2000B701610F711D8D810E940107810FF701BD
:101D3000E80FF11D9AE090838F5F62960FB6F894DA
:101D4000DEBF0FBECDBFDF91CF911F91FF90EF900F
:101D50000895CF93DF93CDB7DEB72E970FB6F894E3
:101D6000DEBF0FBECDBFAE014F5F5F4F0E94500E72
:101D7000682FCE0101960E942C062E960FB6F8947D
:101D8000DEBF0FBECDBFDF91CF910895CF93DF931C
:101D9000EC0180915E0790915F07DC01ED91FC9171
:101DA0000480F581E02D0995811138C0E881E55462
:101DB000E13108F04BC0F0E0E052F14F0C941C33DD
:101DC000140F260F260F170F260F260FF10E1A0FCE
:101DD000230F260F260F260F260F260F260F1D0F67
:101DE000200F85E092E090935F0780935E0785E087
:101DF000FE01A0E6B7E001900D928A95E1F780918F
:101E00005E0790915F07DC01ED91FC910190F081FC
:101E1000E02D6981099561E4811101C062E5CE017F
:101E2000DF91CF910C94A90E84EE91E0DCCF89ED87
:101E300091E0D9CF87EC91E0D6CF81EA91E0D3CF82
:101E40008CE891E0D0CF81E891E0CDCF86E791E0BA
:101E5000CACF20E130E040E050E86FB7F8944798EF
:101E60006FBF6FB7F894FC01E423F523EF2B11F15A
:101E70002D9A6FBF6FB7F894479A6FBF56954795E5
:101E80002150310951F72FB7F89447982FBF2FB73A
:101E9000F8942E9A2FBF20E52A95F1F72FB7F894E2
:101EA0002E982FBF20E52A95F1F79093E8038093B1
:101EB000E70308952D98DDCF1F93CF93DF932091F3
:101EC000E603822F869590E0A82FA17050E040E0B5
:101ED000D0E0C0E09C0120953095CC0FDD1FFA01C9
:101EE000E752FC4F8081982F96959370923071F154
:101EF000933081F18081682F617070E0C62BD72B01
:101F00004F5F5F4F4A30510541F78091E303909155
:101F1000E403C817D907B1F01FB7F8948091E7031D
:101F20009091E8038F73992720E0D0FB26F9D1FB2D
:101F300027F9822B9C2B0E94290F1FBFD093E4030B
:101F4000C093E303DF91CF911F910895A0FB80F927
:101F50008083D0CF20FB80F9FBCFCF93DF93C0915C
:101F6000E503D091E6038091E5039091E6038C1B95
:101F70009D0BC39718F40E945C0FF5CFDF91CF91B2
:101F8000089541E050E070E060E00E9452050C943A
:101F9000AD0F50E040E061E070E00E9452050C940B
:101FA000AD0FCF93C0E08C2F0E94C10F8C2F0E94E9
:101FB000C90FCF5FC530B9F78C2F0E94C90F8C2F86
:101FC0000E94C10FC150C1F7CF910895CF93CFB7F1
:101FD000F894880F21E030E002C0220F331F8A9569
:101FE000E2F78091E7039091E803662349F020959A
:101FF0003095822393230E94290FCFBFCF9108955C
:10200000822B932BF8CF0F931F93CF93DF93EC0189
:10201000142FFB0122810FB7F89430E0220F331FF9
:102020002F5F3F4F81E090E0AC0102C0440F551F8D
:102030002A95E2F79A018091E7039091E803112332
:1020400091F020953095822393230E94290F0FBF92
:102050008A81811711F08B818C831A83DF91CF9154
:102060001F910F910895842B932BEFCFCF93DF9384
:10207000282F30E045EB849FC0011124885B9B4FE3
:10208000EC01C155DF4F4881442361F04DE1429F8F
:10209000B001439F700D11246859794F40E00E94B0
:1020A00003101882DF91CF9108951F93CF93DF9390
:1020B00000D01F92CDB7DEB7182F49835A836B83A8
:1020C0000E9436102DE1129FB0011124FB01E95945
:1020D000F94F6859794F25EB129FC00111242489CB
:1020E000AE014F5F5F4F885B9B4F0E94100C0F90BB
:1020F0000F900F90DF91CF911F91089595EB899FDD
:10210000F0011124E850FB4F4081518162810C9411
:10211000551080E00C947E10CF93DF93EC018F81FB
:102120000E947E10882329F0CE01DF91CF910C947C
:10213000A90B85E08A8382E0DF91CF910895CF9348
:10214000DF93EC0181E00E945C0828EC30E040E085
:1021500050E00E948A33BA01A901CE010E947307A0
:10216000BC0190E080E00E94723420E030E040E961
:1021700052E40E94373487FD1AC088E99AE3A0E050
:10218000B0E080938A0590938B05A0938C05B09363
:102190008D058FEF8C838B81863010F085E08B83EB
:1021A000CE010E948C1081E0DF91CF91089580E0F4
:1021B000FBCFCF93DF93EC010E94880828E030E04A
:1021C00040E050E00E948A33BA01A901CE010E948A
:1021D0007307BC0190E080E00E94723420E030E0A0
:1021E00047E553E40E94373487FD14C010923F0640
:1021F0001092400610924106109242068C85811181
:1022000002C085E08B83CE010E948C1081E0DF91BB
:10221000CF91089580E0FBCFEF92FF920F931F9331
:10222000CF93DF93C82F0E947E1025EBC29FC00181
:1022300011249C01285B3B4F79013DE1C39FE001E4
:1022400011242196BE016959794F41E0C7010E94CE
:10225000D40BC254D94F4CE6BE01C7010E94B50A47
:102260008B019C01007F4CE6BE01C7010E94960ACB
:10227000DF91CF911F910F91FF90EF90089580E033
:102280000E94361010923701089581E00C943610A8
:10229000CF93DF93EC018F8195EB899FF00111249F
:1022A000DF01A85BBB4F14969C91149791111FC03E
:1022B00013968C91139714968C93E881F98102847C
:1022C000F385E02D61E0CE010995882369F061E096
:1022D0008F810E94EE07E881F9810480F581E02D6D
:1022E000CE01099584E08A83DF91CF910895EF5262
:1022F000FB4F208191812913F7CF1D820E94361058
:1023000086E0F1CF0F931F93CF93DF93EC018F8182
:1023100015EB189FF0011124DF01A85BBB4F149649
:102320009C91149791113BC013968C91139714961E
:102330008C93E881F9810284F385E02D60E0CE0181
:102340000995882339F161E08F810E94EE078F8122
:102350004091C70301E040279DE1899FB00111240E
:102360006859794F189FC0011124885B9B4F0E94C8
:10237000D40BE881F9810680F781E02DCE01099523
:10238000811107C01D828F810E94361086E08A83EA
:1023900001C00D83DF91CF911F910F910895EF52EE
:1023A000FB4F208191812913F5CF1D82EDCFCF9373
:1023B000DF93EC018A8180688A8361E08F810E94CB
:1023C000EE078F81DF91CF910C94361088E591E074
:1023D0000E94D71186E691E00C94D7114F925F923C
:1023E0006F927F929F92AF92BF92CF92DF92EF92C5
:1023F000FF920F931F93CF93DF93CDB7DEB7609714
:102400000FB6F894DEBF0FBECDBF7C01DC01129683
:102410008C9112978F3109F4F9C0A0F48D3109F431
:10242000DAC008F0DFC0882309F49BC18DE0D70132
:1024300012968C9312978FE290E814969C938E9349
:1024400013978FC1813209F429C108F4EEC082329A
:10245000A1F0833259F78091E5039091E6035196FC
:102460002D913C915297821B930BC39708F4CCC0DB
:1024700082E212968C930E943D05F701C4842DE1FF
:10248000C29EF0011124E154F94F80E1DE01119662
:1024900001900D928A95E1F785EBC89E60011124A9
:1024A000D601A85BBB4F6D01F7011385183108F009
:1024B000D8C0012F077011FB662760F981E06827FB
:1024C0008B810E94E60FE885F9854A855FB7F8940D
:1024D00010FFB9C0828121E030E001C0220F4A958F
:1024E000EAF7822B82835FBF12FB442740F9BE01CB
:1024F0006F5F7F4FC6010E94031044E0BE016F5F13
:102500007F4FC6010E94B50A2B013C01F3E04F2228
:1025100055246624772464FDA0C044E050E060E0C8
:1025200070E0C201842B8027982F909590FBAA24FD
:10253000A0F8B12CF501E752FC4F9081997F926091
:102540009160908321E081FBAA27A0F9A227AE5FCA
:10255000B0E0A752BC4F9C91997F926091609C9390
:1025600082FBEE27E0F9E227EC5FF0E0E752FC4F58
:102570009081997F926091609083D7011C96EC9135
:102580001C97EE0DFF2DF11D9585892B8587809178
:10259000E5039091E60352969C938E93519761E0E8
:1025A00070E053968D919C91892B11F070E060E062
:1025B000F701748B638B82EE93E00E942D0583E21A
:1025C000D70112968C9312971B968C911B978F5F55
:1025D0001B968C9319C0F7011482138213868EE127
:1025E000828312C082E01C968C9350E040E061E050
:1025F00070E083E00E94520582E2F70182838FE15E
:10260000808B84850E940C1180E0ACC081E01C9618
:102610008C9341E050E070E060E083E00E9452055E
:1026200082E2F701828380E2EBCF1C961C9241E0AC
:1026300050E061E070E083E00E94520582E2F70121
:10264000828381E2DDCF228181E090E001C0880FAA
:102650004A95EAF78095822345CF40E050E0BA01E1
:1026600060CF40E0BE016F5F7F4FCD010E9403103D
:102670004CE6BE016F5F7F4FC6010E94B50A8B0119
:102680009C01007F03604CE6BE016F5F7F4FC60177
:102690000E94960AF70113868089A2CF1D968C911D
:1026A0001D9781110AC01E968C911E97811105C03D
:1026B0001F968C91882309F478C084E2F701828305
:1026C00080E092EC948383835701FDE0AF0EB11C50
:1026D00089EDC82E83E0D82E912CD5011D915D0186
:1026E0001123F9F0692DF701838194810E94110A69
:1026F000D70114969C938E931397612F6170812F4D
:10270000827012FD45C070E001E010E0811101C04F
:1027100000E0C60101960E942D05B801C6010E9485
:102720002D059394B2E0CB0ED11CE3E09E12D5CFE1
:102730008091DF03897F8E7F8093DF038091E003A8
:10274000897F8E7F8093E0038091E103897F82609F
:1027500081608093E1038091E203897F8E7F809383
:10276000E20381E060960FB6F894DEBF0FBECDBFE6
:10277000DF91CF911F910F91FF90EF90DF90CF905D
:10278000BF90AF909F907F906F905F904F90089513
:10279000662341F062E070E002E0811101C001E0D7
:1027A00010E0B7CF61E070E0F7CF0E943D05C701B0
:1027B0000E94D509D6CFCF9390E0FC01E55AF64FA1
:1027C000C4918F5C9C4F0E9422338F3F09F48C2F61
:1027D000CF9108951F93CF93DF93EC011D828A81DF
:1027E00087FD3AC08F810E94DB139F811DE1199FF5
:1027F000F0011124E959F94F8787892F0E947E1033
:102800002F8130E0129FB001139F700D1124685981
:10281000794F15EB129FC001139F900D112441E0D9
:10282000885B9B4F0E94D40BEF811E9FF001112407
:10283000E85BFB4F8381848383E08A838FEF8C8303
:10284000E881F9810280F381E02DCE01099580E0D5
:10285000DF91CF911F91089581E0FACF90916801A7
:10286000913011F481E00895809369019430C9F0AA
:1028700090916A01891304C080916B01811111C08C
:10288000809172018370823069F380916B018111B4
:102890000AC08091C603823030F486E691E00E943F
:1028A000EA1380E0089586E691E00C94A90BCF939B
:1028B000DF93EC01862F9BE19A830E942E148130D6
:1028C00031F01C821B8281E0DF91CF91089587E86F
:1028D00090E89C838B8380E0F7CF0C942E1480913A
:1028E0005A018130C9F087FD17C085E080935B01F4
:1028F0001092640180915D01811106C088E591E02C
:102900000E94EA1380E00895809165018823D1F345
:1029100088E591E00C94A90B81E008952AE0FC0180
:1029200022837683658342E050E070E060E080912E
:10293000C5030E9452050C946F14CF93DF93EC01F2
:1029400087E18A831C821B8288A1833060F080E04B
:102950000E942E14813049F46AE070E8CE01DF91C4
:10296000CF910C948E1484E0F3CFDF91CF91089532
:10297000CF93DF93EC01862F0E942E14882339F029
:102980006AE070E8CE01DF91CF910C948E14DF9154
:10299000CF91089590915A019130D1F097FD18C0D0
:1029A00080935B0160936401943041F080915D01FC
:1029B000811106C088E591E00E94EA1380E0089545
:1029C000809165016817D1F388E591E00C94A90B1B
:1029D00081E0089561E00C94CA14FC016183809148
:1029E00072018370823019F083E080830895108231
:1029F0008091C5030C94EA14CF93DF932091720168
:102A00002370223021F02091C603223070F0EC01B7
:102A10000E94891083E08A831C821B8261E0CE01C0
:102A20000B960E94ED140E943D0581E0DF91CF914D
:102A30000895653038F026E030E8FC0134832383C4
:102A400080E00895FC011482138260A32091C603E4
:102A5000222339F020E122830B960E94FC1481E0AE
:102A600008950E949D14FBCFCF93DF93FC01108249
:102A7000C5ECD3E050E040E062E070E088810E9465
:102A800052058881DF91CF910C94EA14FC011082E9
:102A90006183428350E040E062E070E08091C503D2
:102AA0000E9452058091C5030E942E14811106C018
:102AB0008091C5030E94EA1481E0089580E00895A2
:102AC000CF93DF93EC0185E08A831C821B8241E077
:102AD000CE010B960E944615811107C06AE070E88E
:102AE000CE01DF91CF910C948E1450E040E062E073
:102AF00070E08091C503DF91CF910C945205CF9384
:102B0000DF93EC0182E18A838CA10E94EA146CA11C
:102B1000CE010E94B81450E040E062E070E08CA169
:102B2000DF91CF910C945205653038F026E030E803
:102B3000FC013483238380E00895FC011482138216
:102B400064A32091C603223038F020E122830B9643
:102B50000E94FC1481E008950E947F15FBCF853010
:102B6000910510F00C946F140C94EA14CF92DF923C
:102B7000EF92FF921F93CF93DF93EC0161157105E4
:102B800009F441C0122F6A017B018F818F3F61F4EC
:102B90008A818F838B819C81998788877C836B83D3
:102BA0008CE08A830E94E6118A85882331F0FC82BA
:102BB000EB828CE08A830E94E6118A818C3049F492
:102BC0008FE3E822E894F0F8E7E0EE16E0E8FE068E
:102BD00049F081E0DF91CF911F91FF90EF90DF905E
:102BE000CF9008950E94FF05813099F72A85212B07
:102BF0002A870E94FF09C6010E94EA138AE18A839C
:102C00001C821B82E6CF8A85982F922391F09A81AD
:102C10009A3179F4FA0195819923D9F29F819A83A7
:102C2000488559855C834B83209528232A878FEF1D
:102C30008F8380E0CFCF82E00E94DB1390E0089585
:102C400081E00E94DB1390E0089580E00E94DB1396
:102C500090E008951F93CF93DF938EE293E00E945C
:102C600022338F5FC82FD0E0DC2FCC278FE293E098
:102C70000E942233182F80E393E00E9422331F3FEB
:102C800011F4882369F0811748F481E0810F8C0FDB
:102C90009D2F911DDF91CF911F9108958F5FF7CFE9
:102CA00081E0F5CF0C942A16CF93DF938BE090E070
:102CB0000E942233C82F8CE090E00E942233D82F4C
:102CC0008C1749F08DE090E00E942233C81719F06C
:102CD000CD2FD813CFEF8C2FDF91CF9108950F9385
:102CE0001F93CF93DF930E945416082F10E081307A
:102CF00029F0B0F08230A1F08330A9F5CFE1D3E024
:102D0000CE010E960E94223390E024E0959587959F
:102D10002A95E1F70817190709F1CE01019611C0AC
:102D2000D0E0C0E0CE010E960E94223390E034E065
:102D3000959587953A95E1F70817190739F0CE016F
:102D40000197DF91CF911F910F9108952196C03285
:102D500083E0D80739F78FE193E0F3CF219780F62E
:102D600090E080E0EECF8FEF9FEFEBCF2F923F927E
:102D70004F925F926F927F928F929F92AF92BF928B
:102D8000CF92DF92EF92FF920F931F93CF93DF9337
:102D9000CDB7DEB7A1970FB6F894DEBF0FBECDBF9B
:102DA000882E912C9A8A898A95EB899F500111244B
:102DB000BE8AAD8AD501A35BBB4FB88FAF8BFD0137
:102DC000EC57FF4F81819081B82FB91BB43011F5BA
:102DD000E0915E07F0915F078DE082838BE290E8DF
:102DE0009483838321E030E0F901E752FC4F808136
:102DF000897F846081608083F901E852FC4F808183
:102E0000897F8460816080832E5F3F4F2B30310546
:102E100059F7B7C18370882E912C9A8E898EED89CF
:102E2000FE89EB52FB4F80819181A281B3814A01DF
:102E30005B01881A990AAA0ABB0AD501C4018983D1
:102E40009A83AB83BC83B7FF0BC0882499245401B9
:102E5000881A990AAA0ABB0A89829A82AB82BC8222
:102E60003F2CE986DD86CD82680179014B8F5C8F2E
:102E70006D8F7E8F21E2A98CBA8C2A9DF0012B9D4B
:102E8000F00D112425EB89889A88289DB001299D91
:102E9000700D1124E60FF71F8F01085B1B4F89800F
:102EA0009A80AB80BC80F80185829682A782B0862A
:102EB0000097A105B10509F442C180959095A095B0
:102EC000B0958827B7FD83959927AA27BB278187C7
:102ED000C68AD78AE08EF18EFB01E85BFB4FDF01EB
:102EE000AB56BF4F8D909D90AD90BC90D8019296FF
:102EF0008D929D92AD92BC929597A3E4B0E0A5010E
:102F000094010E94B03353E0969587957795679525
:102F10005A95D1F7D8011A966D937D938D939C9312
:102F20001D97DF01A756BF4F8D919D910D90BC91CC
:102F3000A02DEF56FF4FC816D906EA06FB0608F487
:102F400039C1B701A601481B590B6A0B7B0B4080A6
:102F5000518062807380441555056605770510F42D
:102F60002A013B01840D951DA61DB71D88379105CB
:102F7000A105B10520F488E790E0A0E0B0E0CB8A9D
:102F8000DC8A2E2C0F2D8C159D05AE05BF0520F477
:102F90008B8B9C8B2A2E0B2F8D819D85A985B32D24
:102FA00088379105A105B10520F488E790E0A0E0FD
:102FB000B0E03C2C1D2DE9A2FF8E8C159D05AE05C1
:102FC000BF0520F4382E192FA9A3BF8F81149104B7
:102FD000A104B10421F4812C912C540183942B89F8
:102FE0003C89422D502FB901822D902F0E945833D9
:102FF0006D837E838F839887A7019601C701B601F1
:103000000E94583369877A878B879C87232D312FBD
:1030100049A15F8D632D712FCA010E9458336D87BE
:103020007E878F87988B24013501440C551C661CC4
:10303000771C69857A858B859C856150710981092A
:1030400091092D813E814F815885621B730B840B42
:10305000950B640D751D861D971DA30192010E949D
:10306000683369017A0169857A858B859C852D8510
:103070003E854F855889621B730B840B950BA3010A
:1030800092010E946833DA01C9018C0D9D1DAE1DAD
:10309000BF1D49815A816B817C8184179507A607E2
:1030A000B70708F09DC0481B590B6A0B7B0B81E2E8
:1030B000A98CBA8C8A9DF0018B9DF00D112425EB13
:1030C00089889A88289DC001299D900D1124E80FB8
:1030D000F91FE85BFB4FC686D786E08AF18AC40EEB
:1030E000D51EE61EF71EC28AD38AE48AF58A9B881B
:1030F000928EAC88A38E248E058F368E178FB9A042
:10310000B0A28F8C81A2885B9B4FFC01E756FF4FDA
:1031100030821183B2828382EF89F88DEC57FF4FA2
:1031200021812F5F218383579F4F8B8C9C8CAD8C8B
:10313000BE8CDC018D929D92AD92BC92139785EB73
:1031400089889A88889DF001899DF00D1124E950A5
:10315000FB4FFA83E9838081811113C08DE1889D43
:10316000B001899D700D11246859794F41E08D8916
:103170009E89885B9B4F0E94031081E0A981BA81E0
:103180008C93A1960FB6F894DEBF0FBECDBFDF9132
:10319000CF911F910F91FF90EF90DF90CF90BF9054
:1031A000AF909F908F907F906F905F904F903F90E7
:1031B0002F900895AC01BD014C195D096E097F097E
:1031C00040805180628073804415550566057705FF
:1031D00010F42A013B0184199509A609B709C6CE46
:1031E000A501940182E0220F331F441F551F8A95C9
:1031F000D1F769817A818B819C81617077278827DB
:10320000992769877A878B879C87C980DA80EB80CA
:10321000FC80F694E794D794C7948D809E80AF800D
:10322000B8846D857E858F859889681579058A05AE
:103230009B0508F450C04B015C0171E0871A9108AE
:10324000A108B1088D819E81AF81B885881A990A3D
:10325000AA0ABB0AC501B401620F731F841F951F20
:1032600089849A84AB84BC8489288A288B2821F09D
:10327000640D751D861D971D0E946833C20ED31EF6
:10328000E41EF51E89809A80AB80BC808C149D045E
:10329000AE04BF04E0F4A5019401C301B2010E9491
:1032A00058338D809E80AF80B884680D791D8A1D4B
:1032B0009B1D0E9472340E9497350E944334362E23
:1032C000172F89A39F8FC980DA80EB80FC8040E0B4
:1032D00050E0BA01ECCE6D817E818F8198858D841E
:1032E0009E84AF84B888681979098A099B09898402
:1032F0009A84AB84BC8489288A288B2821F0640DA9
:10330000751D861D971D0E946833C20ED31EE41ED4
:10331000F51E89819A81AB81BC81C816D906EA065F
:10332000FB0610F4D701C601C980DA80EB80FC806F
:10333000C81AD90AEA0AFB0ACACFCF92DF92EF92E3
:10334000FF920F931F93CF93DF938C01CFE3D6E0CF
:1033500080ED97E0A0E0B0E088839983AA83BB83E7
:103360000E94880828E030E040E050E00E948A3364
:10337000F80120873187428753876091D603709187
:10338000D70390E080E00E94723424EE38E34EE0F0
:1033900051E40E9424350E9443348B019C014881F2
:1033A00059816A817B81405A5F4061097109C12C52
:1033B000D12C760182E00E94B616DF91CF911F9149
:1033C0000F91FF90EF90DF90CF9008958F929F9292
:1033D000AF92BF92CF92DF92EF92FF920F931F9323
:1033E00049015A01670178010091D5041091D60472
:1033F0002091D7043091D804AB01BC01400F511F7C
:10340000621F731F9501840180E00E94B61681E05F
:10341000809337011F910F91FF90EF90DF90CF9035
:10342000BF90AF909F908F900895CF92DF92EF92D0
:10343000FF920F931F93CF93DF938C01CAE8D5E0DF
:10344000188219821A821B8281E00E945C0828EC93
:1034500030E040E050E00E948A33F8012087318755
:10346000428753876091D2037091D30390E080E04C
:103470000E94723420E030E048E453E40E94243596
:103480000E9443348B019C01488159816A817B8170
:10349000405D5A486F4F7F4FC12CD12C760181E09F
:1034A0000E94B616DF91CF911F910F91FF90EF9080
:1034B000DF90CF9008958F929F92AF92BF92CF925C
:1034C000DF92EF92FF920F931F93CF93DF93EC0164
:1034D0006091D0037091D10390E080E00E9472343B
:1034E00020E030E048E453E40E9424350E94433455
:1034F0004B015C01EB8184E0E89FF0011124E4566C
:10350000FC4F20E030E048E453E460817181828127
:1035100093810E9424350E943C34AB01BC01C12C34
:10352000D12C76019501840181E00E94B616DF91CD
:10353000CF911F910F91FF90EF90DF90CF90BF90B0
:10354000AF909F908F900895CF92DF92EF92FF926D
:103550000F931F93CF93DF938C01CFE3D6E080EAE4
:1035600090E0A0E0B0E088839983AA83BB830E94A7
:10357000880828E030E040E050E00E948A33F801FB
:1035800020873187428753876091D6037091D70394
:1035900090E080E00E94723424EE38E34EE051E483
:1035A0000E9424350E9443348B019C01488159813B
:1035B0006A817B814056504F6F4F7F4FC12CD12C79
:1035C000760182E00E94B616DF91CF911F910F9194
:1035D000FF90EF90DF90CF9008958F929F92AF92DF
:1035E000BF92CF92DF92EF92FF920F931F93CF93F0
:1035F000DF93EC016091D4037091D50390E080E0FB
:103600000E94723424EE38E34EE051E40E942435E7
:103610000E9443344B015C018B8124E0829FC001F6
:1036200011242C85213031F584599C4F24EE38E348
:103630004EE051E4FC0160817181828193810E949E
:1036400024350E943C34C12CD12C76019501840193
:10365000AB01BC0182E00E94B616DF91CF911F91B1
:103660000F91FF90EF90DF90CF90BF90AF909F9021
:103670008F9008958C579C4FD9CF682F83E393E0A8
:103680000C943033CF93C82F682F8BE090E00E94CA
:1036900030336C2F8CE090E00E9430336C2F8DE043
:1036A00090E00E9430330E94541691E08C1390E019
:1036B000892FCF910895CF92DF92EF92FF920F93CF
:1036C0001F93CF93DF931F92CDB7DEB793E0D92E30
:1036D0008F70C82E0E945416182F89830E946F166F
:1036E000113031F098F0123089F0133009F04BC0EE
:1036F0008C0101501109003283E01807A0F0CE01BF
:1037000001960E94630710E000E00DC08C010F5F7E
:103710001F4F003283E0180730F0CE0101960E945F
:1037200063070FE113E089810E94421BE82E882382
:10373000F1F0698180E1689FB0011124FC2CF60E44
:10374000025F1F4F6F2DC8010E943033C8010E94D5
:103750002233F81669F0CE0101960E946307898131
:103760000E94421B882319F0DA94D110B3CFE12CC8
:103770008E2D0F90DF91CF911F910F91FF90EF90C1
:10378000DF90CF9008951982BECF6093C6038093D7
:10379000C503623029F030F0643011F0683021F454
:1037A0000C945B1B85E0FCCF0895CF93DF93EC0175
:1037B00085E08A831C821B8261E08DA10E94C51B6B
:1037C00040E061E0CE0180960E944615811107C05D
:1037D0006AE070E8CE01DF91CF910C948E14DF91F6
:1037E000CF910895CF93DF93EC01862F653040F0A1
:1037F00086E090E89C838B8380E0DF91CF910895F1
:1038000021E030E03C832B836091C5039091C60397
:10381000861302C0983061F021E02093EF038DA35E
:10382000923040F080E18A83CE010B960E94FC1416
:1038300081E0E3CF62E00E94C51B40E061E0CE0181
:1038400080960E944615882329F095E09A831C8271
:103850001B82D3CF6AE070E8CE010E948E14E8CFBD
:1038600080917201982F9370923021F49091C60349
:10387000943068F08370823041F08091C6038230CA
:1038800020F061E085E00E94C51B81E0089580E0A2
:103890000895EF92FF921F93CF93DF93FC01128163
:1038A000112321F11C3001F5EC010E94FF0581304C
:1038B000D9F4EB80FC80F8E0EF16F0E8FF06A1F405
:1038C0000E94301C811109C0FC82EB821A83DF91B7
:1038D000CF911F91FF90EF9008950E94FF0981E022
:1038E00090E09C838B831A8280E0F1CF81E0EFCF60
:1038F000CF93DF93EC010E94301C811108C00E941D
:10390000E61188E090E89C838B838CE08A8381E0D9
:10391000DF91CF910895EF92FF920F931F93CF9372
:10392000DF93EC018881882351F0813051F181E0EF
:10393000DF91CF911F910F91FF90EF9008958091AB
:1039400065018130E1F488836091CE037091CF03EB
:1039500090E080E00E94723428E230E247EA52E4CC
:103960000E9424350E9443349B01AC01E12CF12CD0
:10397000870169EE76EF8FEF9FEF0E94E61980E0F6
:10398000D7CF0E941806882399F2909172018091F6
:10399000C5039370923089F092E0988361E00E94B1
:1039A000C51BE091C503EE0FEF5FF0E0E752FC4F5F
:1039B0008081897F8E7F8083E2CF93E0988342E08D
:1039C00050E070E060E00E945205D9CFCF93DF93C2
:1039D000EC018A818823B1F08B3171F48091680108
:1039E000811108C061E080916A010E94C51BCE016F
:1039F0000E94D50980E007C08DE08A838FE290E8BD
:103A00009C838B8381E0DF91CF910895CF93DF93E7
:103A1000EC01198A188A653030F086E090E89C83C2
:103A20008B8380E019C081E090E09C838B83809140
:103A3000C6038330B0F7823021F48091C503681348
:103A4000F0CF862F61E00E94C51B81E08F8760E088
:103A5000CE010E94601581E0DF91CF910895209101
:103A6000E5033091E60380915E0790915F07DC01EA
:103A7000ED91FC910480F581E02D40915C0750911F
:103A80005D07B901641B750BAB01483E534040F420
:103A90000995811139C08091ED038093EE0308955B
:103AA000285E334030935D0720935C0709958111B0
:103AB0002BC08091C603823038F59091ED03809140
:103AC000EE03981709F10E94FF05813079F0E8F0C4
:103AD0008230D1F46091C5036623B1F061508DE46A
:103AE00091E00E9457148DE491E00AC06091C503F3
:103AF000653050F487EC91E00E94061D87EC91E060
:103B000090935F0780935E0708956091C5036530C9
:103B1000D8F76F5FE4CFFC01148213822AE122837D
:103B20000E940A0A209115012370909172019370EE
:103B30008091C503223029F468E0923029F062E0D8
:103B400003C061E09230D9F30E94C51B81E0089563
:103B5000DF92EF92FF920F931F93CF93DF93EC01CD
:103B60008881813009F447C028F0823009F463C0AD
:103B700081E006C0D090650181E0D81649F080E070
:103B8000DF91CF911F910F91FF90EF90DF900895FB
:103B900090916A018091C5039813F1CF0E9489101A
:103BA000E12CF12C870127E836E040E050E063E8A3
:103BB00074E180E090E00E94E6198981882359F041
:103BC000D88262E08091C5030E94C51B8091ED03FD
:103BD0008093EE03D4CF82E08883E12CF12C87011F
:103BE00027E836E040E050E063E874E180E090E0F0
:103BF0000E94E619E6CF809172018370823059F4F9
:103C00008A810E94450862E08091C5030E94C51B1D
:103C100085E08883ADCF0E941806882309F4AFCFD2
:103C200086E0888342E050E070E060E08091C50368
:103C30000E945205A4CF8091720183708230E1F01E
:103C40009091ED038091EE03981316C08091D204F9
:103C50009091D104891B823008F091CFE12CF12C96
:103C6000870127E836E040E050E063E874E180E057
:103C700090E00E94E61983CF8A810E94450862E0A5
:103C80008091C5030E94C51B8091ED039091EE03C6
:103C9000891305C095E098838093EE0369CF97E080
:103CA000FACF682F8091C5030C94C51BCF93DF9387
:103CB000D0E0C0E06FEFCE010E9430332196C115F5
:103CC00088E0D807B9F76FEF80E098E0DF91CF91F7
:103CD0000C9430330F931F93CF93DF9320916501A2
:103CE00021112EC0FC018CE0828385819681948312
:103CF000838381E090E0968385830E942A168F3F1C
:103D0000980791F0EC0121966C2F61500C2F0170F7
:103D100010E0C801815D9C4F0E9430336D2F6150CF
:103D20008EE293E00E9430330E943F118091ED03B8
:103D30008093EE03DF91CF911F910F910C94E611C8
:103D4000DF91CF911F910F910895CF92DF92EF9263
:103D5000FF920F931F93CF93DF93EC018A818530FD
:103D600009F423C148F4823009F4D2C0833089F0C9
:103D7000811129C111E00FC18C3009F4DEC08931F5
:103D800009F4B6C08A3009F01EC1CE010E946A1E35
:103D900027C08B85813031F160F0823009F44FC04B
:103DA000843009F099C062E070E8CE010E948E1460
:103DB00017C08091C603823088F081E08B870E9413
:103DC0008910E091C503EE0FEF5FF0E0E752FC4F82
:103DD0008081897F84608160808302C084E08B87DA
:103DE00010E0D9C0809165018130D1F782E08B87E6
:103DF00062E08091C5030E94C51B0E947C086D870C
:103E00007E878F87988B6091CE037091CF0390E06F
:103E100080E00E94723428E230E247EA52E40E94D5
:103E200024350E9443349B01AC01E12CF12C870125
:103E300062E175EA8EEF9FEF0E94E619D1CF0E94F2
:103E40007C080D851E852F85388968017901C61A81
:103E5000D70AE80AF90AD701C601B7FF07C0B0952B
:103E6000A095909581959F4FAF4FBF4F4091C9034B
:103E700050E070E060E0481759076A077B07ACF430
:103E8000809115018370823081F485E08B8781E019
:103E90000E944508E091C503EE0FEF5FF0E0E752A6
:103EA000FC4F8081897F8E7F97CF809172018370D4
:103EB000823011F083E0EACF0E941806882309F4CB
:103EC0008FCF6C8561506C87662309F487CFCE0154
:103ED0000B960E94ED1484CF64E070E8853009F4FD
:103EE00064CF89E18A83CE0144960E94341578CF4D
:103EF000CE0144960E948B1C882309F471CF8C89D3
:103F0000833009F450CF82E08A830E946F1468CF17
:103F100080916501811164CF80916801811160CF2A
:103F2000CE010E94D5090E943F1161E08091C50336
:103F30000E94C51B0E943D0553CF0E94FF058130A2
:103F400009F04ECF0E940A0A80917201837082307C
:103F500049F4E881F9810190F081E02D60E0CE0123
:103F600009953ECF809115018370823009F438CFD6
:103F700041E061E0CE0141960E944615182F88234A
:103F800029F085E08A831C821B822ACF6AE070E8D0
:103F9000CE010E948E14812FDF91CF911F910F913E
:103FA000FF90EF90DF90CF900895CE0141960E9450
:103FB000A81D882309F414CF8989863009F091CF90
:103FC00061E070E8F2CE8DE08A838FE290E89C8316
:103FD0008B83D0CECF93DF93EC018A818530C9F0FB
:103FE00068F4882349F0823009F464C08DE08A8344
:103FF0008FE290E89C838B8381E012C08C3009F4BF
:104000006BC0893161F18A3089F7CE010E946A1E46
:1040100006C0CE010B960E94A81D811104C080E04D
:10402000DF91CF9108958B85863069F0873089F0D4
:104030008530A9F789E18A831C821B82CE010E9606
:104040000E943415ECCF61E070E8CE010E948E141E
:10405000E6CF81E090E0998B888B1F86EBCFCE0175
:104060000E960E948B1C8823D1F28E85833019F422
:1040700062E070E8EACF8F858823B9F081508F879E
:104080008091C503853028F086E090E89C838B837F
:10409000C6CF21E030E03C832B8361E00E94C51B4A
:1040A00061E0CE010E946015BACF82E08A830E944F
:1040B0006F14B5CF809165018111B1CF90916A01E4
:1040C0008091C5039813ABCFCE010E94D5090E9401
:1040D0003D050E943F11A3CF0E94FF05813009F0EA
:1040E0009ECF0E94FF09809172018370823009F493
:1040F000A1CF60E0D6CFEF92FF920F931F93CF93A3
:10410000DF93EC018A818C3009F451C070F4813066
:1041100051F148F08A3009F446C08DE08A838FE27D
:1041200090E89C838B8381E00DC0873191F08831CA
:1041300081F1803191F7CE010B960E94A51E81116D
:104140004CC080E0DF91CF911F910F91FF90EF90D5
:1041500008950E9418068823A1F381E08A8388A12C
:104160000E94EA14EECF80916501813051F788E119
:104170008A830E948910E12CF12C870127E836E020
:1041800040E050E06EE07DE080E090E00E94E619C3
:10419000D8CF0E9418068823A1F26CE070E8CE0107
:1041A0000E948E14CECFCE010E946A1ECACF0E94FA
:1041B000FF05813031F60E94FF098B819C818A3096
:1041C00020E8920751F08C30904809F0BACF0E9455
:1041D0003D05CE010E94D509B4CFCE010E949D14A9
:1041E000B0CFEF92FF920F931F93CF93DF93DC0139
:1041F0001296EC911297EB3108F019C1EC01F0E046
:10420000EC5FFE4D0C941C3321221722A8211722AB
:1042100017225121172217221722172204221722B0
:1042200007221722172217221F2117222A21852150
:104230009E21CB21F421172217226221EC210B961B
:104240000E94A51E811102C010E023C0CE010E9471
:104250007F15FACF809165018130B1F78CA19091E3
:104260006A018913F1CF61E00E94C51B41E061E062
:10427000CE0180960E944615182F882329F085E0EC
:104280008A831C821B82E0CF6AE070E8CE010E9424
:104290008E14812FDF91CF911F910F91FF90EF909E
:1042A000089580960E94A81D882371F288A161E07C
:1042B00070E8863091F089E18A83CE0183960E946E
:1042C0003415C2CF83960E948B1C882309F4BCCF7F
:1042D0008BA1833031F462E070E8CE010E948E142D
:1042E000B3CF83E18A8361E08CA10E94C51B50E0BB
:1042F00040E062E070E08091C5030E9452056CA12D
:104300006F5FCE010E94B8149FCF20916A018CA1EB
:1043100090E001962817190609F096CF84E18A8368
:10432000E12CF12C870127E836E040E050E06EE315
:1043300074E080E090E00E94E61986CF0E941806A3
:10434000882309F481CF82E08A830E946F147CCF96
:1043500080916501811178CF85E18A835091D803DE
:1043600041E0503208F040E0503208F0569560E0ED
:1043700081E00E9455108091D0039091D1039EA3BB
:104380008DA38091D2039091D3039093D103809316
:10439000D0036CA1B6CF9CA180916A01981354CF31
:1043A0008AE18A8341E05FE160E081E00E9455108C
:1043B0008DA19EA19093D1038093D00310926B01A5
:1043C000E12CF12C870127E836E040E050E06FE572
:1043D0007EEF8FEF9FEFAFCF80916B01882309F4C1
:1043E00033CF86E18A8330CF8091680181112CCF51
:1043F000CD010E94D50950E040E061E070E080917D
:10440000C5030E94520520CF0E946A1E1DCF0E9444
:10441000FF05813009F018CF0E940A0AE881F9816E
:104420000190F081E02D6CA1CE0109950DCF8DE0BA
:1044300012968C9312978FE290E814969C938E9329
:10444000139711E026CF682F82E393E00C9430336A
:10445000682F81E393E00C9430334F925F926F9218
:104460007F928F929F92AF92BF92CF92DF92EF9204
:10447000FF920F931F93CF93DF93EC019A819630B5
:1044800009F45BC0E0F4992341F0953059F18DE0D7
:104490008A838FE290E89C838B8381E0DF91CF91C8
:1044A0001F910F91FF90EF90DF90CF90BF90AF9052
:1044B0009F908F907F906F905F904F9008959C3069
:1044C00009F47FC1903131F09A3009F7CE010E9492
:1044D0006A1E06C0CE010B960E94A51E811190C1D6
:1044E00080E0DCCFCE0180960E94A81D8823C1F316
:1044F00088A161E070E8863009F45CC150E040E0DA
:1045000062E070E08091C5030E9452051BA283E027
:104510008CA38091C503E82FEE0FEF5FF0E0E75228
:10452000FC4F9081997F9460916090830E94EA147F
:1045300086E08A831C821B82D3CF8BA1823009F450
:10454000C4C0C8F4882381F1813009F4A9C0873040
:1045500009F42EC1883009F431C150E040E061E037
:1045600070E08091C5030E9452051092EF03CE01C6
:104570000E94D509B5CF843009F40BC108F4EBC013
:10458000853029F7809165018111AACF9BA3E09125
:10459000C503EE0FEF5FF0E0E752FC4F8081897FAB
:1045A0008260816080839CCF80916501813009F0B9
:1045B00097CF8BA30E94891084E393E00E942A3353
:1045C0009C01255531402439324010F088E691E0B5
:1045D000BC0190E080E00E9472344B015C0160916C
:1045E000CA037091CB0390E080E00E9472342B01EB
:1045F0003C016091CC037091CD0390E080E00E947B
:10460000723428E230E247EA52E40E9424350E94E4
:1046100043346B017C0128E230E247EA52E4C301F3
:10462000B2010E9424350E9443342B013C0128E250
:1046300030E247EA52E4C501B4010E9424350E94E9
:104640003C3487017601A30192010E94E619609132
:10465000CC037091CD0390E080E00E94723428E298
:1046600030E247EA52E40E9424350E9443342B0191
:104670003C01A501940160E070E08AE794E40E94A7
:10468000CA3328E230E247EA52E40E9424350E940D
:104690003C3483017201A30192010E94E61920CFEC
:1046A000809115018370823031F481E00E944508C9
:1046B00088E08BA315CF8091D2049091D104891BFF
:1046C000813009F00DCF82E0F4CF80911501837025
:1046D0008230D1F581E00E94450864E08091C503F5
:1046E0000E94C51B6091CC037091CD0390E080E0E7
:1046F0000E9472344B015C016091C80370E090E04D
:1047000080E00E9472342B013C0128E230E247EA4B
:1047100052E4C501B4010E9424350E9443344B0188
:104720005C0128E230E247EA52E4C301B2010E9490
:1047300024350E943C34E12CF12C8701A501940121
:104740000E94E61983E0B5CF0E941806882309F479
:10475000C7CE87E0AECF0E941806882309F4C0CEEA
:1047600068E08091C5030E94C51B62E08091C5038B
:104770000E94CA14E12CF12C870127E836E040E0C2
:1047800050E061EA71E080E090E00E94E61984E088
:1047900090CF80916501823009F0A2CE61E080E087
:1047A0000E94EE070E943F110E946F1485E081CFA6
:1047B00063E070E8CE010E948E1492CE69E070E84A
:1047C000F9CF0E94FF05813009F08ACE0E940A0AC3
:1047D0008B819C81893020E8920741F08A30904893
:1047E00079F0809172018370823051F4E881F9810F
:1047F0000190F081E02D6091C503CE01099570CE46
:10480000CE010E94D51B6CCE84E393E00E942A3334
:104810009C01255531402439324010F088E691E062
:104820000895FC018DE182831482138282E08487E3
:104830003D9683E0DF011D928A95E9F781E00895B6
:10484000BC0184E393E00C9442330F931F93CF9306
:10485000DF93CDB7DEB72A970FB6F894DEBF0FBE51
:10486000CDBFE9EEF3E014821582168217828DE146
:10487000E7E3F2E0A1EFB3E001900D928A95E1F752
:104880008DE1E4E5F2E0AEE0B4E001900D928A95AE
:10489000E1F78DE1E1E7F2E0ABE2B4E001900D92E7
:1048A0008A95E1F78DE1E7E3F2E0A7E6B6E0019053
:1048B0000D928A95E1F78DE1E4E5F2E0A4E8B6E037
:1048C00001900D928A95E1F78DE1E1E7F2E0A1EA2E
:1048D000B6E001900D928A95E1F760E088E494E0FB
:1048E0000E948C0861E08DEF94E00E948C0862E0E9
:1048F00082EB95E00E948C088DE1E7E3F2E0AEEBFD
:10490000B6E001900D928A95E1F78DE1E4E5F2E0E1
:10491000ABEDB6E001900D928A95E1F78DE1E1E70C
:10492000F2E0A8EFB6E001900D928A95E1F7E5E19B
:10493000F7E088EC90E09183808313A214A2109298
:104940005A0710925B0705E617E0F8011082118202
:1049500012821482138286E697E00E94C10DF8014C
:10496000858316821E821F8219861886CE010696BE
:104970000E94C10D8A8785E0FE013696DE01119600
:1049800001900D928A95E1F785E0FE013196ACE643
:10499000B7E001900D928A95E1F7F801148616862A
:1049A00015868CE697E00E94D40DF80183870CE50C
:1049B00017E0F801118210828CE292E093838283E7
:1049C00088E5848315821782168280E697E00E942C
:1049D000C10DF80180872A960FB6F894DEBF0FBE8E
:1049E000CDBFDF91CF911F910F910895FC01848974
:1049F0009589A689B789803B9440A105B10599F4B2
:104A000087E797E79093FF0A8093FE0A81E08093FF
:104A1000C40388E19CE00FB6F894A89580936000E9
:104A20000FBE90936000089508958AE191E00C9480
:104A3000932E8AE191E00C94982D089508951F9289
:104A40000F920FB60F9211248F939F938091E503DD
:104A50009091E60301969093E6038093E5039F917E
:104A60008F910F900FBE0F901F9018951F920F926D
:104A70000FB60F9211242F923F924F925F926F9236
:104A80007F928F929F92AF92BF92CF92DF92EF92DE
:104A9000FF920F931F932F933F934F935F936F93C7
:104AA0007F938F939F93AF93BF93EF93FF93CF9396
:104AB000DF93CDB7DEB72697DEBFCDBF9E012F5F58
:104AC0003F4F490187E6C82E86E0D82E01ED14E05D
:104AD0003901F12CE12CD8019A96AD90BC909B97AE
:104AE000F301A192B1923F01F1E0AF16BF0608F0C9
:104AF0000EC1A114B10431F49C9111968C919817B8
:104B000009F405C1D80112968D919C911397892BB8
:104B100009F044C08C9111969C911197891771F0FE
:104B20008370F70121E2829FE00DF11D1124CF0176
:104B3000835B9B4F13969C938E931297D80112968A
:104B4000ED91FC91309709F4B5C16481F60184813F
:104B5000682783810E94E60FD80158961D921D9206
:104B60001D921C925B971296ED91FC91139785898B
:104B700096895D969C938E935C97B70161517B4FAC
:104B80000E94CD08B0E0A0E0F801848B958BA68B45
:104B9000B78B12A213A214A215A2178EF801368D9C
:104BA00020E0F80182A193A1A4A1B5A1321719F1C7
:104BB000F60140845184428561E070E002C0660FD6
:104BC000771F4A95E2F7F20160830196A11DB11D9E
:104BD000F80182A393A3A4A3B5A342815381FA0150
:104BE000408151816281738184179507A607B707B9
:104BF00010F42F5FD6CFD80192962D903D904D9016
:104C00005C9095971296ED91FC9113974185528592
:104C100063857485421553056405750508F4E3C082
:104C2000258136814781508554966D917D918D9176
:104C30009C9157970E94B607D8011296ED91FC916E
:104C4000139725893689820F931F5D969C938E93C7
:104C50005C97218932892817390720F45D963C93A7
:104C60002E935C97B70161517B4FF801848D958D30
:104C70000E94CD08D80154964D915D916D917C9123
:104C80005797480F591F611D711DF801448B558BB3
:104C9000668B778BD8011296ED91FC9113979296C3
:104CA0004D915D916D917C919597208031804280EE
:104CB0005380421553056405750538F013961C9210
:104CC0001E9212972C912F5F2C93009709F4F2C03B
:104CD000F3013297A80EB91EB182A082F801E558FF
:104CE000F1098081882399F0D6011B962D913C9182
:104CF000D9012C9130E0D6011D969C9102C03595CA
:104D000027959A95E2F720FDCCC081508083BDE1C4
:104D1000CB0ED11CE5EBEE0EF11C0B541F4FFFE147
:104D2000EF16F2E0FF0609F0D6CE89819A812B8139
:104D30003C812115310531F0009719F0281739070A
:104D400008F4C9012D813E812115310531F000970C
:104D500019F02817390708F4C901EBEFF4E0A401B2
:104D60004A5F5F4FD4012D913D914D0121153105D1
:104D700009F4A5C0281B390B31832083EB54FF4F66
:104D80008416950679F7009709F49CC090938900E2
:104D90008093880026960FB6F894DEBF0FBECDBF75
:104DA000DF91CF91FF91EF91BF91AF919F918F9143
:104DB0007F916F915F914F913F912F911F910F9133
:104DC000FF90EF90DF90CF90BF90AF909F908F902B
:104DD0007F906F905F904F903F902F900F900FBEFD
:104DE0000F901F90189545855685678570894215E7
:104DF00053056405750508F03FC02581368147815C
:104E0000508558966D917D918D919C915B970E94F4
:104E1000B607F801248D358D0280F381E02D281727
:104E20003907C0F4818D928DB70161517B4F0E948B
:104E3000CD08D80158964D915D916D917C915B970D
:104E4000480F591F611D711DF801408F518F628FEE
:104E5000738F20CFA901481B590BCA01418D528D78
:104E6000638D748D1C01512C412C24163506460689
:104E70005706D0F6CA01D8CF5F968C9181110CC02D
:104E8000B70161517B4F818992890E94CD08F80159
:104E900091A380A3868D878FD80190968D919C9148
:104EA000F9CED801A658B1099C91891708F02FCFE7
:104EB0008F5F2CCFF30132971182108228CF30E020
:104EC00020E05ACF80E090E461CF1F920F920FB69E
:104ED0000F9211242F938F939F93EF93FF938091C1
:104EE00038079091390720E0891749F0E82FEF71D2
:104EF000F0E0EB5EF84F23818F5F80933807E091FD
:104F00001507F09116072683808180648083809145
:104F10003807891307C0E0911507F09116078181C2
:104F20008F7D8183FF91EF919F918F912F910F90B2
:104F30000FBE0F901F9018951F920F920FB60F92F1
:104F400011242F933F938F939F93EF93FF93E091BF
:104F50001507F0911607808184FF0CC08681FF91B0
:104F6000EF919F918F913F912F910F900FBE0F90D6
:104F70001F901895968180915B0720915A07382FD2
:104F8000321B303261F3E82FEF71F0E0EB5EF84F47
:104F900095A38F5F80935B07E2CFCF93DF93CDB76D
:104FA000DEB7AA970FB6F894DEBF0FBECDBF109242
:104FB0006E0082E084BD93E095BD99EF97BD16BC6D
:104FC0009FEF95BB80936E0088E199E20FB6F8944D
:104FD000A895809360000FBE909360000E946F16AA
:104FE000803223E0920708F40EC185E08093C50368
:104FF0008091C503853008F021C188E08093C60305
:105000008EE18093C80388E28093C9032FE530E0E6
:105010003093CB032093CA0344E150E05093CD0377
:105020004093CC033093CF032093CE032DE230E0A6
:105030003093D1032093D0032EE130E03093D3039B
:105040002093D2032CE231E03093D5032093D40394
:1050500029E031E03093D7032093D6038093D8031F
:105060008FB7F8942D988FBF259A8FB7F8942E9804
:105070008FBF269A8FB7F89447988FBF3F9A8AE2DE
:1050800090E00E94290F8091E203897F8260816015
:105090008093E2030E945C0F52988FB7F8945A985D
:1050A0008FBF8FB7F8945B988FBF539AE091150725
:1050B000F091160780E190E095838483808182607F
:1050C0008083E0911507F0911607138288E88183A9
:1050D0008091E003897F826081608093E0030E9479
:1050E0005C0F23988FB7F8942B988FBF8FB7F894E5
:1050F0002A988FBF229A8FB7F89429988FBF219A48
:105100008FB7F894289A8FBF209A8CE58CBD1DBC70
:105110008091DE03897F826081608093DE030E943C
:105120005C0F809181008F7E80938100809181004F
:10513000886080938100809180008D7F80938000C3
:10514000809180008E7F80938000809180008F739B
:1051500080938000809180008F7C8093800080917C
:105160008100887F82608093810080E090E490934A
:1051700089008093880010928500109284000E941C
:10518000AD078091DC03897F826081608093DC03BE
:105190000E945C0F80917A00876080937A008091F2
:1051A0007C00806480937C0080917A00806880938A
:1051B0007A008091DA03897F826081608093DA03CC
:1051C0000E945C0F0E949C3064EB73E08AE191E0E6
:1051D0000E947F2E84EB93E0909381078093800759
:1051E0000E94570A78940091E5031091E60380919C
:1051F000E5039091E603801B910B8636910500F53F
:105200000E948309F4CF0E960E942233182F8F70CC
:105210008093C503853008F0E8CE0E945416843090
:1052200008F0E3CE212F30E0E4E035952795EA95AC
:10523000E1F78217130609F0D8CEDACE81E0DECE90
:105240000E94570A81E090E0FC01E752FC4F208168
:10525000297F2E7F2083FC01E852FC4F2081297F8B
:105260002E7F208302968B30910571F70E945C0F90
:105270000E94570A809149018370823029F40E946C
:10528000561E0E94D10FEDC360E080E091E00E94C5
:10529000112480E091E00E94EE11982E811103C04C
:1052A0000E945C0FF6CF8091030190910401813040
:1052B000910509F4BBC09093300280932F028CE0DB
:1052C00080932E02E0911507F0911607818180618D
:1052D000818366246394712C4DE0442E40E8542E63
:1052E00055E0852E65E0362E74E0272E0E94570A81
:1052F0000E945C0F8091030190910401019709F0D5
:1053000085C00E9483096091E5037091E603409196
:10531000190185E191E00E94550980915A0187FDAC
:1053200013C0853021F088E591E00E94420B809106
:105330005A01813009F4D4C008F4E1C0833009F483
:10534000D4C0843009F4D6C08091680187FD13C0B1
:10535000853021F086E691E00E94420B8091680141
:10536000823009F4E9C008F0D8C0882309F416C1D6
:10537000813009F4DCC08091370187FD0EC0853093
:1053800021F085E391E00E94420B8091370181304A
:1053900009F418C1843009F41AC1A1E4B1E082E033
:1053A00090E0682F582F18967C9118977370409151
:1053B000F003242F30E0082E02C0359527950A947B
:1053C000E2F7217031E0723009F030E02317D9F0B4
:1053D000723089F42091EE033091ED03F22FF31B2C
:1053E000F43049F0E22FE370F0E0E751FC4F6083C6
:1053F0002F5F2093EE03930101C0220F5A95EAF725
:1054000042274093F0031497019758F60091C40384
:10541000002309F4E8C00EE812E0D8018D918D0157
:10542000882309F4DCC00E947105F7CF60E08CE2AC
:1054300092E00E94781C8091C603843018F588E5BC
:1054400091E00E94EA138091C603823050F580916A
:1054500072018370823029F186E691E00E94EA139E
:105460008091C603823008F42DCFE091C503EE0F82
:10547000EF5FF0E0E752FC4F8081897F82608160BE
:10548000808320CF80EA90E0A0E0B0E080933F06E8
:1054900090934006A0934106B093420610925D019E
:1054A000D2CFE091C50334E0E39FF0011124E4562C
:1054B000FC4F20E030E048E453E460817181828158
:1054C00093810E9424350E943C3460938A05709336
:1054D0008B0580938C0590938D0510926B01C0CF46
:1054E00088E591E00E948E072FCF88E591E00E9429
:1054F00048112ACF88E591E00E94821125CF809142
:105500005D01811121CF8091C603843008F01CCF4A
:1055100088E591E00E94EA1317CF8330D1F18430FF
:1055200009F029CF86E691E00E94821124CF86E619
:1055300091E00E948E071FCF80915D01882309F4BE
:105540001ACF83E0809368016091D2037091D303F6
:1055500090E080E00E94723420E030E048E453E4C0
:105560000E9424350E9443348B019C0140918A059E
:1055700050918B0560918C0570918D054053554776
:1055800061097109C12CD12C760181E00E94B61607
:10559000F2CE86E691E00E944811EDCE80916B013B
:1055A0008111E9CE8091C603823008F0E4CE80916B
:1055B00072018370823009F4DECE86E691E00E94AB
:1055C000EA13D9CE85E391E00E948E07E6CE71E022
:1055D00070933A0185E391E00E94B306DECE8AE043
:1055E0000E947105FFCF8AE191E00E94402E8AE17E
:1055F00091E00E942A2E0E94D1321AE08EE10E9490
:105600003E0A1150D9F79093C3038093C2038331AC
:10561000914058F181E00E94450882E00E943610D6
:1056200081E00E94361080E00E943610E0915E0713
:10563000F0915F078DE082835482438221E030E065
:10564000F901E752FC4F8081897F8460816080830B
:10565000F901E852FC4F8081897F846081608083FA
:105660002E5F3F4F2B30310559F70E942F1DF090D0
:105670005B0723E0E22E80915A078F1509F4AAC137
:10568000E82FEF71F0E0EB5EF84F15A18F5F80938C
:105690005A0780916507823009F465C058F4882361
:1056A000F9F0813009F44AC01A3009F48BC01D307A
:1056B00009F588C0833009F461C08430A9F7812FCF
:1056C0000E945607882309F470C0812F0E94480762
:1056D00090916A079295907F892B80936A07CBCF30
:1056E0001E3400F51B3468F4173448F4153448F4BC
:1056F000123439F01092660730926507BCCF183427
:10570000C9F7109366071092670710926907109205
:10571000680710926A0782E0173509F081E08093EC
:105720006507A9CF193538F4173558F780EB810F85
:10573000863038F3DFCF163621F3DCCF812F0E947D
:105740005607882359F0812F0E94480790916707D8
:105750009295907F892B809367078DCF1A3251F6EF
:105760002092650788CF812F0E9456078111EBCFC9
:10577000103209F0BFCFE09265077DCF812F0E94E4
:105780005607882359F3812F0E9448072091680704
:105790003091690794E0220F331F9A95E1F7282B87
:1057A000309369072093680766CF1A3019F01D30CF
:1057B00009F0A0CF10916A0786E697E00E94C10D1C
:1057C000181398CF1092650785E0E6E6F7E0DE0152
:1057D0005C9601900D928A95E1F785E0FE017C963A
:1057E000DE01919601900D928A95E1F785E0FE0128
:1057F000B196DE01969601900D928A95E1F7EEA1A1
:10580000E254E53208F0E6C0F0E0E75FF34D0C94B7
:105810001C332E2CEA2CEA2C8B2DEA2CEA2C8B2D17
:10582000EA2CEA2C8B2D8B2DEA2CEA2CEA2C472C27
:105830005A2C332D332D8B2D8B2DEA2C5D2D2D2DB8
:10584000EA2CEA2CEA2CEA2CEA2CEA2CEA2CEA2CA8
:10585000EA2CEA2CEA2CEA2CEA2C902D9FA19068E5
:105860008091EE032091ED03E82FE21BE43049F034
:10587000E82FE370F0E0E751FC4F90838F5F809357
:10588000EE0361E4CE0186960E94A90EA3C080912A
:105890007201837041E050E0823011F050E040E04E
:1058A0009E012F5F3F4F61E0CE0186960E94E50D7D
:1058B000682F8CC08091EF038823A9F09091ED03AD
:1058C0008091EE03981779F0E92FE370F0E0E7514B
:1058D000FC4F808187FD07C09F5F9093ED0390E0B0
:1058E00022E48F3749F580915E0790915F07DC01D4
:1058F000ED91FC910680F781E02D09959C01809146
:105900005E0790915F072115310569F0213031055F
:1059100009F49AC0DC01ED91FC910680F781E02D3D
:10592000099525E409C0DC01ED91FC910480F58125
:10593000E02D099590E020E535E0E0E6F7E0DE01B6
:10594000579601900D923A95E1F735E0FE01779672
:10595000DE011F9601900D923A95E1F72C8B9E8BFC
:105960008D8BCE010F960E94D40D8B8BBE016F5F85
:105970007F4F80E697E00E94E606E1E0F0E0EC0F62
:10598000FD1FE80FF11D9C89908311E0180F61E065
:1059900070E06C0F7D1F610F711D8D899E890E94C3
:1059A0001007180F61E070E06C0F7D1F610F711D13
:1059B0008B890E940107810FE1E0F0E0EC0FFD1FF1
:1059C000E80FF11D9AE0908361E0680FCE01019627
:1059D0000E942C0600915E0710915F0788E591E018
:1059E0000E941B0A21E048E551E0BC01C8010E9469
:1059F000B615F82E86E691E00E941B0A22E046E6E4
:105A000051E0BC01C8010E94B615F82A85E391E077
:105A10000E941B0A24E045E351E0BC01C8010E943A
:105A2000B615F1100FC081110DC0D80112968C91DE
:105A300012978D3039F0ED91FC910280F381E02DC9
:105A4000C8010995A89552CCDC01ED91FC91008428
:105A5000F185E02D099526E46FCF8FA18A3209F4F4
:105A60000ECC0E94D60CEFA1E332B0F4E89DF00119
:105A70001124E455FF4F8491319683FD18C0837043
:105A8000823028F0823071F0B12CA12C05C0A59194
:105A9000B491AC90B12C092D9E012F5F3F4FA50111
:105AA000602F02CFA591B491AD90BC90F4CF8591B9
:105AB0009491FC0109955C01EECF88A599A5EFA111
:105AC000E33280F4E89DF0011124E455FF4F249166
:105AD00022FF08C0339623FD19C02370223020F026
