; device = mm-control

:100000000C9406050C942E050C942E050C942E05CC
:100010000C942E050C942E050C942E050C942E0594
:100020000C942E050C942E050C94D8300C94A6310B
:100030000C942E050C942E050C942E050C942E0574
:100040000C942E050C9451250C942E050C942E0521
:100050000C942E050C943A250C942E050C942E0528
:100060000C942E050C94B7270C9480270C942E0525
:100070000C942E050C942E050C942E050C942E0534
:100080000C942E050C942E050C942E050C942E0524
:100090000C942E050C942E050C942E050C942E0514
:1000A0000C942E050C942E050C942E0501A1020033
:1000B0000001A0020000029E020000029C0200005B
:1000C0000A5C16000009A40D00000A990D00000D3D
:1000D000950D5B1E098A0D00000D7F0D780D0974CA
:1000E0000D00000D700D6D0D0D690D660D0E610D8D
:1000F0005C0D0A590D00000A560D00000A530D0050
:10010000000E4E0D490D0E440D3F0D0E3A0D350DEE
:100110000E300D2B0D0E260D210D0E1C0D170D0D85
:100120002F1643220D2A163E220D2516471B0A13B1
:100130000D00000D0F0D77140D0B0DB9150D070DEA
:10014000040D0D000DFD0C0DF90CF60C0DF20CEF6D
:100150000C0AEC0C00000E1F243B240EE80CE50CEE
:1001600024F4D43050C38E20C2A24017828B701169
:10017000127A910D816CD90AA861E108C758660707
:10018000615143061E4B5D05C145A7041A41110488
:10019000093D9803713931034036DB026533910222
:1001A000D4305402802E1D02632CEE01752AC50145
:1001B000B028A001102781018F2564012B244B0159
:1001C000E0223401AC211F018D200D01801FFC00B5
:1001D000841EED00971DDF00B81CD200E61BC60090
:1001E000201BBC00641AB200B219A8000A19A000B2
:1001F0006A189900D117910040178B00B51684003A
:1002000031167E00B31579003A157300C7146F00DC
:1002100058146A00EE1366008813630025135E000D
:10022000C7125B006C12570015125400C111510027
:1002300070114F0021114B00D61049008D1047005E
:100240004610440002104200C00F4000800F3E00E4
:10025000420F3C00060F3B00CB0E3800930E3700D8
:100260005C0E3500270E3400F30D3200C10D310055
:10027000900D3000600D2E00320D2D00050D2C006C
:10028000D90C2B00AE0C2900850C29005C0C270032
:10029000350C27000E0C2600E80B2400C40B2400AC
:1002A000A00B23007D0B23005A0B2100390B2100EA
:1002B000180B2000F80A1F00D90A1E00BB0A1E00F6
:1002C0009D0A1D00800A1D00630A1C00470A1B00CE
:1002D0002C0A1B00110A1A00F7091A00DD0919007F
:1002E000C4091900AB091900920917007B0918000D
:1002F000630917004C09160036091600200916007C
:100300000A091500F5081500E0081400CC081400CF
:10031000B8081400A4081400900813007D08120007
:100320006B08130058081200460812003408110028
:10033000230811001208110001081100F007100035
:10034000E0071000D0071000C0071000B0070F0032
:10035000A107100091070E0083070F0074070F001C
:1003600065070E0057070E0049070E003B070D00FA
:100370002E070E0020070D0013070D0006070D00C5
:10038000F9060C00ED060D00E0060C00D4060C008A
:10039000C8060C00BC060C00B0060C00A4060B003E
:1003A00099060C008D060B0082060B0077060B00E9
:1003B0006C060B0061060A0057060B004C060A008B
:1003C00042060A0038060A002E060A0024060A0021
:1003D0001A060A001006090007060A00FD050900B2
:1003E000F4050900EB050900E2050900D90509003B
:1003F000D0050900C7050900BE050900B5050800BC
:10040000AD050800A50509009C0508009405080035
:100410008C050800840508007C05080074050800A8
:100420006C050700650508005D0507005605080016
:100430004E0507004705070040050800380507007E
:10044000310507002A050700230507001C050600E3
:10045000160507000F05070008050600020507003E
:10046000FB040600F5040700EE040600E80406009D
:10047000E2040700DB040600D5040600CF040600F2
:10048000C9040600C3040600BD040600B704060044
:10049000B1040500AC040600A6040600A004050093
:1004A0009B04060095040500900406008A040500DC
:1004B00085040500800406007A0405007504050023
:1004C000700405006B040500660405006104050066
:1004D0005C04050057040500520405004D040500A6
:1004E00048040500430405003E0404003A040500E6
:1004F00035040500300404002C0405002704040022
:10050000230405001E0404001A0404001604050058
:10051000110404000D04040009040500040404008F
:1005200000040400FC030400F8030400F4030400C6
:10053000F0030400EC030400E8030400E4030400F7
:10054000E0030400DC030400D8030400D403040027
:10055000D0030400CC030400C8030300C503030058
:1005600024F404D9201BC40C5C0E9804C4095F0257
:1005700065077101F405F900FB04B3004804870026
:10058000C10369005803550003034500BE023A0049
:100590008402310053022A002902250004022000AF
:1005A000E4011C00C8011900AF01170098011400F4
:1005B00084011300710110006101100051010E004F
:1005C00043010D0036010B002B010B0020010B0035
:1005D000150109000C01090003010800FB000800D7
:1005E000F3000800EB000700E4000600DE00060050
:1005F000D8000600D2000600CC000500C7000500A8
:10060000C2000500BD000400B9000400B5000400EC
:10061000B1000400AD000400A9000400A50003001F
:10062000A20003009F0004009B0003009800030049
:100630009500020093000300900003008D0002006B
:100640008B00030088000200860002008400030083
:10065000810002007F0002007D0002007B0002009A
:1006600079000200770001007600020074000200A9
:1006700072000100710002006F0002006D000100B5
:100680006C0002006A0001006900020067000100BE
:1006900066000100650001006400020062000100C4
:1006A00061000100600001005F0002005D000100C8
:1006B0005C0001005B0001005A00010059000100CC
:1006C00058000100570001005600010055000100CC
:1006D00054000100530000005300010052000100CB
:1006E00051000100500001004F0001004E000000C9
:1006F0004E0001004D0001004C0001004B000000C5
:100700004B0001004A0001004900010048000000C0
:1007100048000100470001004600000046000100BB
:1007200045000000450001004400010043000000B6
:1007300043000100420000004200010041000000AF
:1007400041000100400001003F0000003F000100A7
:100750003E0000003E0001003D0000003D000100A1
:100760003C0000003C0000003C0001003B00000099
:100770003B0001003A0000003A000100390000008F
:100780003900010038000000380000003800010086
:10079000370000003700010036000000360000007E
:1007A0003600010035000000350000003500010072
:1007B0003400000034000000340001003300000069
:1007C000330000003300010032000000320000005E
:1007D0003200010031000000310000003100010052
:1007E0003000000030000000300001002F00000049
:1007F0002F0000002F0000002F0001002E0000003D
:100800002E0000002E0001002D0000002D00000031
:100810002D0000002D0001002C0000002C00000025
:100820002C0000002C0001002B0000002B00000019
:100830002B0000002B0001002A0000002A0000000D
:100840002A0000002A000100290000002900000001
:1008500029000000290000002900010028000000F4
:1008600028000000280000002800000028000100E7
:1008700027000000270000002700000027000000DC
:1008800027000100260000002600000026000000CE
:1008900026000000260001002500000025000000C1
:1008A00025000000250000002500000025000100B3
:1008B00024000000240000002400000024000000A8
:1008C000240001002300000023000000230000009A
:1008D000230000002300000023000000230001008B
:1008E0002200000022000000220000002200000080
:1008F0002200000022000100210000002100000071
:100900002100000021000000210000002100000063
:100910002100010020000000200000002000000055
:100920002000000020000000200000002000000047
:10093000200001001F0000001F0000001F00000039
:100940001F0000001F0000001F0000001F0001002A
:100950001E0000001E0000001E0000001E0000001F
:1009600008030736034F0072006900670069006ED4
:100970000061006C0020005000720075007300617F
:100980000020004D004D005500200075006E0069EC
:1009900000740020003DD811DC00001803700072C4
:1009A00000750073006100330064002E0063006F67
:1009B000006D0000000403090409023E000201006A
:1009C000C0320904000001020201000524001001E8
:1009D000042402060524060001070582030800FF1F
:1009E00009040100020A0000000705040240000596
:1009F000070583024000051201100102000008995A
:100A00002C040001000102000100402411241FBE3B
:100A1000CFEFDAE0DEBFCDBF13E0A0E0B1E0E8E168
:100A2000FCE602C005900D92A43BB107D9F727E080
:100A3000A4EBB3E001C01D92A538B207E1F715E0C1
:100A4000C6E0D5E004C02197FE010E943A33C530CC
:100A5000D107C9F70E94E8270C940A360C940000CD
:100A6000FC016370862F880F9081997F982B90836B
:100A70006150623018F09E7F908308959160FCCFA2
:100A800081E090E0FC01E652FC4F2081297F2E7F1F
:100A90002083FC01E752FC4F2081297F2E7F208399
:100AA00002968B30910571F70895EF92FF920F93A4
:100AB0001F93CF93C82F7B018A010E944005CC0F62
:100AC00081E08C0F90E0B70186529C4F0E94300568
:100AD0008C2F90E0B80186529C4FCF911F910F91BF
:100AE000FF90EF900C94300591E09093180790914F
:100AF0003A07209139072917D9F120913907392F61
:100B0000321BE0911607F0911707303219F50FB636
:100B100007FCFDCF308135FFFACF30E0921751F05E
:100B2000A22FAF71B0E0AA5EB84F13963C912F5F31
:100B30002093390736832081206420832091390750
:100B40009213DBCFE0911607F091170721812F7DDB
:100B50002183D3CFA92FAF71B0E0AA5EB84F13960F
:100B60008C939F5F90933A0781818062818308957F
:100B7000E0911607F0911707208125FFBECF8683ED
:100B80008081806480830895CF93DF93DC01149685
:100B9000ED91FC91159716964C9116978FB7F89496
:100BA000928121E030E001C0220F4A95EAF72095BA
:100BB000292322838FBFFB01CB0105962191CD9183
:100BC000DC9111972A83298127FFFDCF2A81EF012C
:100BD00021972883E817F90789F71496ED91FC917E
:100BE000159716964C919FB7F894828121E030E0DA
:100BF00001C0220F4A95EAF7822B82839FBFDF91C3
:100C0000CF9108959091EE038091EF03981789F0AA
:100C1000E92FE370F0E0E651FC4F80812091F00372
:100C2000222311F087FF05C09F5F9093EE038F771B
:100C300008958FE708959091D2048091D30498137A
:100C40000CC09091870580918805981306C081E0BB
:100C500020913C0690913D06291380E008950F9362
:100C60001F93CF93DF93EC018C01060F111DC0176A
:100C7000D10759F080913A0790913907891B80324A
:100C800051F089910E947405F2CF81E0DF91CF91FC
:100C90001F910F91089580E0F9CF22E0FC0122839B
:100CA00008958F929F92AF92BF92CF92DF92EF9270
:100CB000FF92CF93DF939C01FC01E857FF4F6081C7
:100CC0007181828193813497408131965081319630
:100CD0000190F081E02D3097F9F0C080D180E28062
:100CE000F380D901AA55BF4F8D909D90AD90BC90D7
:100CF000C818D908EA08FB08E481E11108C0F0949B
:100D0000E094D094C094C11CD11CE11CF11C6C195E
:100D10007D098E099F094F5FA1E24517E1F0E42F9D
:100D2000E370E901AE9FC00DD11D1124C880D980A8
:100D3000EA80FB80EC81E11108C0F094E094D0944B
:100D4000C094C11CD11CE11CF11C6C197D098E09D9
:100D50009F094F5FE2CFDF91CF91FF90EF90DF903F
:100D6000CF90BF90AF909F908F9008951092D6042F
:100D70001092D7041092D8041092D90481E00895FB
:100D800008958A3020F0803120F4895A0895805DDA
:100D9000089580E008950F931F93CF93DF93082F5A
:100DA000EB0190E024E0959587952A95E1F711E015
:100DB000009721F00E94C106899312E0802F8F7066
:100DC0000E94C1068883812FDF91CF911F910F91DF
:100DD0000895CF93DF93EB01FC012081288381816B
:100DE00081110DC080E3898381E091E0980FC90FE4
:100DF000D11D90E298838E5FDF91CF9108956F5F50
:100E00007F4F0E94CB06F1CF9AE2FB0190838111C4
:100E100005C080E3818381E08F5F08956F5F7F4F1E
:100E20000E94CB06F9CFCF92DF92EF92FF921F93F1
:100E3000CF93DF93EC016B0114E0892B69F480E31D
:100E4000FB01808311E0812FDF91CF911F91FF90F3
:100E5000EF90DF90CF900895CE018827907F892B67
:100E600039F424E0CC0FDD1F2A95E1F71150F4CFBF
:100E700076018E2D8C19811730F78D2F82958F700A
:100E800094E0CC0FDD1F9A95E1F70E94C106F701AF
:100E900081937F01EECF803330F08A3330F09FE9C9
:100EA000980F963020F080E008958053089587557C
:100EB000089590ED980F9A3038F09FE9980F81E0EF
:100EC000963018F080E0089581E00895FC0180815B
:100ED000813041F020F0823039F483E001C081E0BC
:100EE0008083089582E0FCCF108208950F931F93B2
:100EF000FC0180859185A285B3858A019B01081B31
:100F0000190B2A0B3B0BD901C801B7FF07C0B095DD
:100F1000A095909581959F4FAF4FBF4F1F910F9117
:100F20000895CF93DF93DC011796EC91B5EBEB9F1F
:100F3000F0011124EE52FB4F3081218132130BC09E
:100F4000EC018B818C83E881F9810084F185E02DAF
:100F5000CE0109951A82DF91CF91089581E008951D
:100F60009FB7F894EFE6F0E08081826080839FBFB6
:100F70000895AA27639FB12D749FF001849FF00DFF
:100F8000839FE00DF11D649FB00DE11DFA1F739F5B
:100F9000B00DE11DFA1F829FB00DE11DFA1F729F77
:100FA000B10DEA1FFA1FBB0FEA1FFA1F1124CF0170
:100FB00008952FB7F894EFE6F0E0808190819D7F4F
:100FC00090832FBF86958170089581110C94B0078E
:100FD0009FB7F89480916F008D7F80936F009FBFC3
:100FE0000895CF92DF92EF92FF920F931F93CF93CA
:100FF000DF93C82FC62E0E94D907D82EEC2EF12CD5
:1010000085EBC89FE00111248E01025B1B4FC801D4
:101010000E945106AE01475B5B4FFA01E357FF4F59
:101020006083718382839383329720813181232B64
:1010300089F0EA01C756DF4FCA018B559F4FDC018B
:101040008D919C91B0E0A0E088839983AA83BB83B3
:1010500011821082F801EC57FF4F80818183CC20F0
:1010600061F085EB8E9DF0018F9DF00D1124EE5106
:10107000FB4F10821182128213828D2DDF91CF914E
:101080001F910F91FF90EF90DF90CF900C94E507A8
:10109000CF93DF93C82F0E94D907D82F6C2F80E001
:1010A0000E94F1076C2F81E00E94F1076C2F82E013
:1010B0000E94F1078D2FDF91CF910C94E507CF921D
:1010C000DF92EF92FF92CF93DF93C82F0E94D90750
:1010D000D82F25EBC29FC0011124825B9B4F0E9439
:1010E00051066B017C018D2F0E94E507C701B601F7
:1010F000DF91CF91FF90EF90DF90CF90089580E047
:101100000E945F0823E530E040E050E00E94A833F1
:10111000CA01B901089582E00E945F0808950F9303
:101120001F9325EBFC0111922A95E9F72DE1629FAF
:10113000F0011124E859F94F058916892789308D66
:10114000418D528D638D748DDC01A757BF4F1C926A
:1011500011961C9213961D921D921D921C9213972C
:101160001C961D921D921D921C92139718970D9319
:101170001D932D933C93139714964D935D936D930C
:101180007C9313971A9711961C921E92959621891B
:10119000328943892D933D934C931F910F9108956C
:1011A000FB0181342CE9920708F030C081322EE433
:1011B000920708F42EC0969587959695879524E01A
:1011C00020838097811528E0920708F433C0E92F27
:1011D000FF27EE0FFF1FEE0FFF1F9F01205A3A4F10
:1011E000F901329665917491789FA001689F000C77
:1011F000411D1124511DF90185919491841B950B7A
:101200008436910510F484E690E0089580E49CE92A
:10121000D2CF813127E2920720F09695879522E080
:10122000CFCF21E020838032910508F0CACF80E241
:1012300090E0C7CF9C01369527952C7F3F77205AA9
:101240003E4FF90145915491F9013296659174919F
:1012500087709927869F9001879F300D969F300D4C
:10126000112463E0369527956A95E1F7CA01821B40
:10127000930BC6CF0F931F93CF938C01C8EC6111D2
:10128000CCED0E948B0828E030E040E050E00E9466
:10129000A833BA01A901C8010E94760721E0C81746
:1012A000190608F020E0822FCF911F910F91089529
:1012B000FC019081892F8370813081F030F0823081
:1012C00001F59360442341F019C04423B9F09C7F99
:1012D0007283618391609460908310C092FB882731
:1012E00080F984130CC021813281621B730B8381CE
:1012F0009C7F92608617170679F370F308959C7FA0
:10130000EBCF728361839C7F9B7FE6CF4FB146FB1F
:10131000442740F96091E6037091E70382E791E08A
:101320000C945809FC018281803141F486859785AF
:101330008130910529F490E080E0089583819481C3
:101340000895FC018281863021F0803151F4858539
:10135000089593A1933031F0953031F0923009F433
:101360008CE1089587E0089582E0089581E0089572
:10137000FC018281803119F48685978508958381E7
:1013800094810895FC018281803109F48585089556
:10139000FC018281803119F48685978508958381C7
:1013A00094810895FC018281803109F48585089536
:1013B000FC01128221E030E0348323838091E60334
:1013C0009091E70390935E0780935D070895FC0179
:1013D00082818823A9F08A3169F480915A018111B0
:1013E00007C080916801811103C0CF010E94D80914
:1013F00080E008958DE082838FE290E89483838378
:1014000081E00895E8E5F1E082818F778283E6E666
:10141000F1E082818F77828308950E94020A109200
:101420005D0110926B01089520E430E002C0220FAC
:10143000331F6A95E2F7822B932B0895FC012281DA
:1014400030E02F772530310531F026303105A9F015
:1014500090E080E008956781268180E094E820FD97
:1014600002C090E080E021FD986822FD906923FD94
:10147000906A24FD906C0C94140A678187E090E8D0
:10148000FACF90917C00907E892B80937C00809194
:101490007B008F7D80937B0080917A0080648093B5
:1014A0007A0080917A0086FDFCCF8091780090913F
:1014B000790008950F931F93CF93DF930091E60374
:1014C0001091E70385E00E94410AC0E08333910553
:1014D00068F09C0120553109C1E02531310530F01B
:1014E000805A9109CFEF459708F4C2E00C2E000C0A
:1014F000DD0B41E0209709F040E0B80181E491E084
:101500000E94580941E0C130D10509F040E0B8011E
:1015100085E491E00E94580941E0229709F040E0FB
:10152000B80189E491E0DF91CF911F910F910C9464
:1015300058090F931F93CF93DF9300D000D01F92D1
:10154000CDB7DEB7CB01406849833A832B831C8338
:101550000D83BE016F5F7F4F0E94C4050F900F90F7
:101560000F900F900F90DF91CF911F910F910895E1
:10157000EF92FF920F931F93CF93DF9300D000D091
:101580001F92CDB7DEB77B018E010F5F1F4F85E045
:10159000F80111928A95E9F74983B801C7010E94C1
:1015A000C4051982B801C7010E94C4056A817B8104
:1015B0008C819D810E94C7330F900F900F900F90E8
:1015C0000F90DF91CF911F910F91FF90EF900895B1
:1015D0008F929F92AF92BF92CF92DF92EF92FF9243
:1015E0001F93CF93DF93FC011181112309F440C0B5
:1015F0005B01EC0141E00E94B80A6B017C014FE6FF
:10160000B501CE010E94B80AAB01BC018881982FB8
:101610009C294601570122E0B694A7949794879499
:101620002A95D1F790FB80F980FA81F988834A01E5
:101630005B0188249924AA24F8E1BF2281E089284B
:101640008A288B2809F480E0988180FB92F972FB4C
:10165000882780F980FB93F971FB442740F940FB10
:1016600094F99883CD28CE28CF2811F4192F117022
:10167000812FDF91CF911F91FF90EF90DF90CF905E
:10168000BF90AF909F908F9008951F93CF93DF935B
:10169000EC018F819DE1899FB00111246D507C4F39
:1016A00015EB189FC0011124875B9B4F0E94E80A2D
:1016B000882369F08F81189FF0011124E75BFB4FAD
:1016C00090819E8361E00E94F10785E08A83DF912B
:1016D000CF911F9108950F931F93FA0102812181E9
:1016E000122F1F71201748F00F712FE030E040E1FA
:1016F0000E94990A1F910F910895012FF6CFCF9361
:10170000DF9300D01F92CDB7DEB7FC0191E06032CD
:1017100008F090E09983962F603208F096959A83AE
:10172000603208F046954B8387812DE1829FB0019E
:1017300011246D507C4F25EB829FC0011124AE0116
:101740004F5F5F4F875B9B4F0E946B0B0F900F901B
:101750000F90DF91CF910895CF93DF93EC01EF814C
:1017600085EBE89FF0011124E750FB4F4281618136
:10177000CE010E947F0BE881F9810190F081E02D7C
:10178000CE01099581E08A8380E0DF91CF910895B1
:10179000FC0124852587609164064091650622231B
:1017A00019F0213019F4462F0C947F0B08950F93F4
:1017B0001F9300EF1FEF2FE030E0411104C006E45B
:1017C00010E020E030E043E10E94990A1F910F9160
:1017D00008950F931F93CF938C0181E0611101C095
:1017E00080E08093C703C1E06111C0E04C2F69E63F
:1017F00076E089E494E00E94D70B4C2F66E876E00F
:101800008EEF94E00E94D70B4C2F63EA76E083EBD7
:1018100095E00E94D70BC8010E94D80981E0CF91C2
:101820001F910F910895BF92CF92DF92EF92FF9296
:101830000F931F93CF93DF937C01EB016A01B22ECC
:10184000FC01118282E08383EC81FD814E812FB700
:10185000F894328181E090E0BC0102C0660F771FEE
:101860004A95E2F7362B32832FBF2181262B218325
:10187000EA85FB8521813C85AC0101C0440F3A9586
:10188000EAF7342F3095322331833FB7F894228121
:10189000242B22833FBFEF81F88549852FB7F89429
:1018A000328101C0880F4A95EAF7982F90959323CB
:1018B00092832FBF9181892B818344E0BE01C701B0
:1018C0000E94B80A092F1127222733270131110559
:1018D0002105310509F06BC026E09695879577952F
:1018E00067952A95D1F7E1E06E2760FD60C0F701AA
:1018F00080818E7F808341E0BE01C7010E94B80ACB
:101900003D85F601808121E080FB21F923703F7045
:10191000306130623F7B3F7703ED10E04CE6BE0163
:10192000C7010E94990AA601BE01C7010E946B0B64
:1019300000E010E0980141E1BE01C7010E94990A50
:101940002E852F772F7710E030E04DE6BE01C701DE
:101950000E94990A02EC11E020E030E044E1BE016F
:10196000C7010E94990A04E810E020E030E040E05E
:10197000BE01C7010E94990A00EF14E024E130E0A3
:1019800040E7BE01C7010E94990A4B2DBE01C70165
:101990000E94D70B81E0F7018183DF91CF911F91E6
:1019A0000F91FF90EF90DF90CF90BF90089580E06F
:1019B000F4CFF89488E198E00FB6F894A895809356
:1019C00060000FBE90936000FFCF8093D90308950D
:1019D0008091D90390E0089581EE90E0089580937E
:1019E000640608958091640690E008958093AF05A1
:1019F00008958091AF0590E008958093FA040895CA
:101A00008091FA0490E008958093D803089580911E
:101A1000D80390E0089580915C0190E00895809152
:101A20006A0190E008950E947F08CB010895909389
:101A3000D7038093D60308958091D6039091D7035E
:101A400008959093D3038093D20308958091D20395
:101A50009091D30308959093CD038093CC03089580
:101A60008091CC039091CD0308959093D5038093FA
:101A7000D40308958091D4039091D5030895909351
:101A8000D1038093D00308958091D0039091D10326
:101A900008959093CB038093CA0308958091CA035D
:101AA0009091CB03089584EF91E0089588EC90E045
:101AB000089580E293E008959093CF038093CE033E
:101AC00008958091CE039091CF0308958093C90328
:101AD00008958091C90390E008958093C803089504
:101AE0008091C80390E008958091C70390E0089525
:101AF00021E0892B09F420E02093190108959091A9
:101B00001501937021E030E0923011F030E020E0D8
:101B1000C901089590917201937021E030E09230F4
:101B200011F030E020E0C90108958091C60390E0F3
:101B3000089580915F0790916007DC01ED91FC9121
:101B40000680F781E02D099480915F0790916007EE
:101B5000DC01ED91FC910480F581E02D099590E088
:101B6000089581E00895FC0180899189089590E0AD
:101B700080E00895FC01838194810895FC018281B5
:101B80000895862798E027E0382F880F37FD8227B1
:101B90009150D1F70895CF93DF93EC01688180E0F5
:101BA0000E94C10D69810E94C10D6A81CB810E9492
:101BB000C10D6C2FDF91CF910C94C10DCF93DF93AA
:101BC000EC010E94CB0D6D810E94C10D6E81CF8111
:101BD0000E94C10D6C2FDF91CF910C94C10DAF927B
:101BE000BF92CF92DF92EF92FF920F931F93CF930A
:101BF000DF93CDB7DEB72D970FB6F894DEBF0FBEDB
:101C0000CDBF5C01C62ED42E052F790190E080E077
:101C100022E5662319F0942F852F21E435E0F501A4
:101C2000DE01199601900D923A95E1F735E0FE013B
:101C30003996DE01119601900D923A95E1F72E83C7
:101C40009F838887CE0101960E94DE0D8D83B701A8
:101C5000C5010E94E906F701E80FF11D9E819083FE
:101C600011E0180FCC2041F0B701610F711D8D2DCF
:101C7000902F0E941307180FB701610F711D8D81FE
:101C80000E940407810FF701E80FF11D9AE090838D
:101C90008F5F2D960FB6F894DEBF0FBECDBFDF91DC
:101CA000CF911F910F91FF90EF90DF90CF90BF9059
:101CB000AF900895EF92FF921F93CF93DF93CDB72C
:101CC000DEB762970FB6F894DEBF0FBECDBF162FFA
:101CD0007A01FC01218180818E872F87198A188AD9
:101CE000CE010E960E94CB0D8A8B85E0FE013E96BA
:101CF000DE01199601900D928A95E1F785E0FE01CB
:101D00003996DE01119601900D928A95E1F71E83B6
:101D100018861F82CE0101960E94DE0D8D83B701C9
:101D2000CE0101960E94E906F701E80FF11D10832C
:101D300011E0180FB701610F711D8D810E9404071A
:101D4000810FF701E80FF11D9AE090838F5F629693
:101D50000FB6F894DEBF0FBECDBFDF91CF911F91BC
:101D6000FF90EF900895CF93DF93CDB7DEB72E9716
:101D70000FB6F894DEBF0FBECDBFAE014F5F5F4F11
:101D80000E945A0E682FCE0101960E942F062E96B1
:101D90000FB6F894DEBF0FBECDBFDF91CF9108958F
:101DA000CF93DF93EC0180915F0790916007DC0196
:101DB000ED91FC910480F581E02D0995811138C0E9
:101DC000E881E554E13108F04BC0F0E0E651F14F15
:101DD0000C943A331E0F300F300F210F300F300F9D
:101DE000FB0E240F2D0F300F300F300F300F300F40
:101DF000300F270F2A0F85E092E0909360078093C1
:101E00005F0785E0FE01A1E6B7E001900D928A959B
:101E1000E1F780915F0790916007DC01ED91FC9103
:101E20000190F081E02D6981099561E4811101C083
:101E300062E5CE01DF91CF910C94B30E84EE91E078
:101E4000DCCF89ED91E0D9CF87EC91E0D6CF81EA64
:101E500091E0D3CF8CE891E0D0CF81E891E0CDCF75
:101E600086E791E0CACF20E130E040E050E86FB76C
:101E7000F89447986FBF6FB7F894FC01E423F523FB
:101E8000EF2B11F12D9A6FBF6FB7F894479A6FBF80
:101E9000569547952150310951F72FB7F894479837
:101EA0002FBF2FB7F8942E9A2FBF20E52A95F1F770
:101EB0002FB7F8942E982FBF20E52A95F1F790932D
:101EC000E9038093E80308952D98DDCF1F93CF9306
:101ED000DF932091E703822F869590E0A82FA170D1
:101EE00050E040E0D0E0C0E09C0120953095CC0F60
:101EF000DD1FFA01E652FC4F8081982F9695937072
:101F0000923071F1933081F18081682F617070E0BF
:101F1000C62BD72B4F5F5F4F4A30510541F7809159
:101F2000E4039091E503C817D907B1F01FB7F894FF
:101F30008091E8039091E9038F73992720E0D0FB0B
:101F400026F9D1FB27F9822B9C2B0E94330F1FBF50
:101F5000D093E503C093E403DF91CF911F910895DF
:101F6000A0FB80F98083D0CF20FB80F9FBCFCF93FB
:101F7000DF93C091E603D091E7038091E60390914F
:101F8000E7038C1B9D0BC39718F40E94660FF5CFD7
:101F9000DF91CF91089541E050E070E060E00E9451
:101FA00055050C94B70F50E040E061E070E00E94EE
:101FB00055050C94B70FCF93C0E08C2F0E94CB0F28
:101FC0008C2F0E94D30FCF5FC530B9F78C2F0E94A2
:101FD000D30F8C2F0E94CB0FC150C1F7CF91089522
:101FE000CF93CFB7F894880F21E030E002C0220FE2
:101FF000331F8A95E2F78091E8039091E903662305
:1020000049F020953095822393230E94330FCFBF50
:10201000CF910895822B932BF8CF0F931F93CF93DB
:10202000DF93EC01142FFB0122810FB7F89430E00D
:10203000220F331F2F5F3F4F81E090E0AC0102C0C1
:10204000440F551F2A95E2F79A018091E803909179
:10205000E903112391F020953095822393230E9468
:10206000330F0FBF8A81811711F08B818C831A8304
:10207000DF91CF911F910F910895842B932BEFCF78
:10208000CF93DF93282F30E045EB849FC0011124CC
:10209000875B9B4FEC01C155DF4F4881442361F0C2
:1020A0004DE1429FB001439F700D11246759794F54
:1020B00040E00E940D101882DF91CF9108951F9388
:1020C000CF93DF9300D01F92CDB7DEB7182F49838F
:1020D0005A836B830E9440102DE1129FB00111249E
:1020E000FB01E859F94F6759794F25EB129FC00161
:1020F00011242489AE014F5F5F4F875B9B4F0E9485
:10210000130C0F900F900F90DF91CF911F910895B6
:1021100095EB899FF0011124E750FB4F40815181DD
:1021200062810C945F1080E00C948810CF93DF9351
:10213000EC018F810E948810882329F0CE01DF9165
:10214000CF910C94AC0B85E08A8382E0DF91CF9134
:102150000895CF93DF93EC0181E00E945F0828ECA3
:1021600030E040E050E00E94A833BA01A901CE015E
:102170000E947607BC0190E080E00E94903420E04D
:1021800030E040E952E40E94553487FD1AC088E9E6
:102190009AE3A0E0B0E080938B0590938C05A09328
:1021A0008D05B0938E058FEF8C838B81863010F078
:1021B00085E08B83CE010E94961081E0DF91CF9164
:1021C000089580E0FBCFCF93DF93EC010E948B0852
:1021D00028E030E040E050E00E94A833BA01A901B5
:1021E000CE010E947607BC0190E080E00E9490340E
:1021F00020E030E047E553E40E94553487FD14C0E9
:102200001092400610924106109242061092430628
:102210008C85811102C085E08B83CE010E949610CF
:1022200081E0DF91CF91089580E0FBCFEF92FF92A4
:102230000F931F93CF93DF93C82F0E94881025EB35
:10224000C29FC00111249C01275B3B4F79013DE1F6
:10225000C39FE00111242196BE016859794F41E0E6
:10226000C7010E94D70BC154D94F4CE6BE01C7012C
:102270000E94B80A8B019C01007F4CE6BE01C70199
:102280000E94990ADF91CF911F910F91FF90EF90DB
:10229000089580E00E94401010923701089581E077
:1022A0000C944010CF93DF93EC018F8195EB899FC5
:1022B000F0011124DF01A75BBB4F14969C9114978A
:1022C00091111FC013968C91139714968C93E881EB
:1022D000F9810284F385E02D61E0CE010995882320
:1022E00069F061E08F810E94F107E881F981048043
:1022F000F581E02DCE01099584E08A83DF91CF91AD
:102300000895EE52FB4F208191812913F7CF1D8252
:102310000E94401086E0F1CF0F931F93CF93DF937D
:10232000EC018F8115EB189FF0011124DF01A75BF1
:10233000BB4F14969C91149791113BC013968C91AE
:10234000139714968C93E881F9810284F385E02D2C
:1023500060E0CE010995882339F161E08F810E9408
:10236000F1078F814091C70301E040279DE1899FDC
:10237000B00111246759794F189FC0011124875B60
:102380009B4F0E94D70BE881F9810680F781E02DF1
:10239000CE010995811107C01D828F810E944010D6
:1023A00086E08A8301C00D83DF91CF911F910F9149
:1023B0000895EE52FB4F208191812913F5CF1D82A4
:1023C000EDCFCF93DF93EC018A8180688A8361E04F
:1023D0008F810E94F1078F81DF91CF910C94401083
:1023E00088E591E00E94E11186E691E00C94E1110C
:1023F0004F925F926F927F929F92AF92BF92CF92D5
:10240000DF92EF92FF920F931F93CF93DF93CDB79D
:10241000DEB760970FB6F894DEBF0FBECDBF7C016C
:10242000DC0112968C9112978F3109F4F9C0A0F457
:102430008D3109F4DAC008F0DFC0882309F49BC1AC
:102440008DE0D70112968C9312978FE290E8149644
:102450009C938E9313978FC1813209F429C108F49C
:10246000EEC08232A1F0833259F78091E603909159
:10247000E70351962D913C915297821B930BC39782
:1024800008F4CCC082E212968C930E944005F701BA
:10249000C4842DE1C29EF0011124E054F94F80E183
:1024A000DE01119601900D928A95E1F785EBC89EA9
:1024B00060011124D601A75BBB4F6D01F7011385A5
:1024C000183108F0D8C0012F077011FB662760F99A
:1024D00081E068278B810E94F00FE885F9854A85A5
:1024E0005FB7F89410FFB9C0828121E030E001C0ED
:1024F000220F4A95EAF7822B82835FBF12FB4427A3
:1025000040F9BE016F5F7F4FC6010E940D1044E08D
:10251000BE016F5F7F4FC6010E94B80A2B013C01CC
:10252000F3E04F2255246624772464FDA0C044E0E4
:1025300050E060E070E0C201842B8027982F9095D6
:1025400090FBAA24A0F8B12CF501E652FC4F908133
:10255000997F92609160908321E081FBAA27A0F986
:10256000A227AE5FB0E0A652BC4F9C91997F9260CB
:1025700091609C9382FBEE27E0F9E227EC5FF0E0AC
:10258000E652FC4F9081997F926091609083D701D1
:102590001C96EC911C97EE0DFF2DF11D9585892B56
:1025A00085878091E6039091E70352969C938E93E2
:1025B000519761E070E053968D919C91892B11F0B9
:1025C00070E060E0F701748B638B83EE93E00E9410
:1025D000300583E2D70112968C9312971B968C914B
:1025E0001B978F5F1B968C9319C0F701148213827F
:1025F00013868EE1828312C082E01C968C9350E099
:1026000040E061E070E083E00E94550582E2F7015E
:1026100082838FE1808B84850E94161180E0ACC09C
:1026200081E01C968C9341E050E070E060E083E034
:102630000E94550582E2F701828380E2EBCF1C966F
:102640001C9241E050E061E070E083E00E9455059B
:1026500082E2F701828381E2DDCF228181E090E096
:1026600001C0880F4A95EAF78095822345CF40E064
:1026700050E0BA0160CF40E0BE016F5F7F4FCD01F7
:102680000E940D104CE6BE016F5F7F4FC6010E9495
:10269000B80A8B019C01007F03604CE6BE016F5FAE
:1026A0007F4FC6010E94990AF70113868089A2CF45
:1026B0001D968C911D9781110AC01E968C911E97B4
:1026C000811105C01F968C91882309F478C084E29B
:1026D000F701828380E092EC948383835701FDE0CD
:1026E000AF0EB11C8AEDC82E83E0D82E912CD501F7
:1026F0001D915D011123F9F0692DF701838194810A
:102700000E94140AD70114969C938E931397612FFD
:102710006170812F827012FD45C070E001E010E011
:10272000811101C000E0C60101960E943005B80188
:10273000C6010E9430059394B2E0CB0ED11CE3E0B9
:102740009E12D5CF8091E003897F8E7F8093E00336
:102750008091E103897F8E7F8093E1038091E20382
:10276000897F826081608093E2038091E303897FA7
:102770008E7F8093E30381E060960FB6F894DEBF0E
:102780000FBECDBFDF91CF911F910F91FF90EF90C2
:10279000DF90CF90BF90AF909F907F906F905F90B1
:1027A0004F900895662341F062E070E002E08111ED
:1027B00001C001E010E0B7CF61E070E0F7CF0E9408
:1027C0004005C7010E94D809D6CFCF9390E0FC0105
:1027D000E05AF64FC4918F5C9C4F0E9440338F3F6C
:1027E00009F48C2FCF9108951F93CF93DF93EC01C1
:1027F0001D828A8187FD3AC08F810E94E5139F81E7
:102800001DE1199FF0011124E859F94F8787892F9D
:102810000E9488102F8130E0129FB001139F700D2D
:1028200011246759794F15EB129FC001139F900D2A
:10283000112441E0875B9B4F0E94D70BEF811E9FC5
:10284000F0011124E75BFB4F8381848383E08A835B
:102850008FEF8C83E881F9810280F381E02DCE0136
:10286000099580E0DF91CF911F91089581E0FACF23
:1028700090916801913011F481E00895809369018D
:102880009430C9F090916A01891304C080916B0162
:10289000811111C0809172018370823069F380913F
:1028A0006B0181110AC08091C603823030F486E644
:1028B00091E00E94F41380E0089586E691E00C9484
:1028C000AC0BCF93DF93EC01862F9BE19A830E94A0
:1028D0003814813031F01C821B8281E0DF91CF916E
:1028E000089587E890E89C838B8380E0F7CF0C9471
:1028F000381480915A018130C9F087FD17C085E0F6
:1029000080935B011092640180915D01811106C08A
:1029100088E591E00E94F41380E0089580916501BC
:102920008823D1F388E591E00C94AC0B81E0089505
:102930002AE0FC0122837683658342E050E070E068
:1029400060E08091C5030E9455050C947914CF93E3
:10295000DF93EC0187E18A831C821B8288A183308C
:1029600060F080E00E943814813049F46AE070E839
:10297000CE01DF91CF910C94981484E0F3CFDF91D6
:10298000CF910895CF93DF93EC01862F0E943814E6
:10299000882339F06AE070E8CE01DF91CF910C9482
:1029A0009814DF91CF91089590915A019130D1F010
:1029B00097FD18C080935B0160936401943041F0EF
:1029C00080915D01811106C088E591E00E94F413B9
:1029D00080E00895809165016817D1F388E591E062
:1029E0000C94AC0B81E0089561E00C94D414FC01CC
:1029F0006183809172018370823019F083E080835B
:102A0000089510828091C5030C94F414CF93DF9342
:102A1000209172012370223021F02091C6032230D0
:102A200070F0EC010E94931083E08A831C821B8269
:102A300061E0CE010B960E94F7140E94400581E0F0
:102A4000DF91CF910895653038F026E030E8FC0141
:102A50003483238380E00895FC011482138260A3F1
:102A60002091C603222339F020E122830B960E9495
:102A7000061581E008950E94A714FBCFCF93DF9342
:102A8000FC011082C5ECD3E050E040E062E070E071
:102A900088810E9455058881DF91CF910C94F414B0
:102AA000FC0110826183428350E040E062E070E00C
:102AB0008091C5030E9455058091C5030E9438147A
:102AC000811106C08091C5030E94F41481E008952D
:102AD00080E00895CF93DF93EC0185E08A831C8228
:102AE0001B8241E0CE010B960E945015811107C058
:102AF0006AE070E8CE01DF91CF910C94981450E019
:102B000040E062E070E08091C503DF91CF910C94CA
:102B10005505CF93DF93EC0182E18A838CA10E945B
:102B2000F4146CA1CE010E94C21450E040E062E0B7
:102B300070E08CA1DF91CF910C945505653038F091
:102B400026E030E8FC013483238380E00895FC0113
:102B50001482138264A32091C603223038F020E14E
:102B600022830B960E94061581E008950E94891524
:102B7000FBCF8530910510F00C9479140C94F4146B
:102B8000CF92DF92EF92FF921F93CF93DF93EC01EE
:102B90006115710509F441C0122F6A017B018F8113
:102BA0008F3F61F48A818F838B819C81998788878D
:102BB0007C836B838CE08A830E94F0118A85882352
:102BC00031F0FC82EB828CE08A830E94F0118A81D2
:102BD0008C3049F48FE3E822E894F0F8E7E0EE1651
:102BE000E0E8FE0649F081E0DF91CF911F91FF9070
:102BF000EF90DF90CF9008950E940206813099F700
:102C00002A85212B2A870E94020AC6010E94F413FA
:102C10008AE18A831C821B82E6CF8A85982F9223C1
:102C200091F09A819A3179F4FA0195819923D9F238
:102C30009F819A83488559855C834B8320952823FF
:102C40002A878FEF8F8380E0CFCF82E00E94E51349
:102C500090E0089581E00E94E51390E0089580E0FF
:102C60000E94E51390E008951F93CF93DF938EE2C7
:102C700093E00E9440338F5FC82FD0E0DC2FCC2739
:102C80008FE293E00E944033182F80E393E00E948C
:102C900040331F3F11F4882369F0811748F481E025
:102CA000810F8C0F9D2F911DDF91CF911F91089562
:102CB0008F5FF7CF81E0F5CF0C943416CF93DF937D
:102CC0008BE090E00E944033C82F8CE090E00E949F
:102CD0004033D82F8C1749F08DE090E00E944033AC
:102CE000C81719F0CD2FD813CFEF8C2FDF91CF91CC
:102CF00008950F931F93CF93DF930E945E16082FC2
:102D000010E0813029F0B0F08230A1F08330A9F5D5
:102D1000CFE1D3E0CE010E960E94403390E024E054
:102D2000959587952A95E1F70817190709F1CE01BE
:102D3000019611C0D0E0C0E0CE010E960E94403353
:102D400090E034E0959587953A95E1F708171907D3
:102D500039F0CE010197DF91CF911F910F91089526
:102D60002196C03283E0D80739F78FE193E0F3CFA3
:102D7000219780F690E080E0EECF8FEF9FEFEBCFD2
:102D80002F923F924F925F926F927F928F929F927B
:102D9000AF92BF92CF92DF92EF92FF920F931F9369
:102DA000CF93DF93CDB7DEB7A1970FB6F894DEBF10
:102DB0000FBECDBF882E912C9A8A898A95EB899F68
:102DC00050011124BE8AAD8AD501A25BBB4FB88FDA
:102DD000AF8BFD01EC57FF4F81819081B82FB91B5C
:102DE000B43011F5E0915F07F09160078DE08283C8
:102DF0008BE290E89483838321E030E0F901E6528E
:102E0000FC4F8081897F846081608083F901E75273
:102E1000FC4F8081897F8460816080832E5F3F4F7B
:102E20002B30310559F7B7C18370882E912C9A8EBB
:102E3000898EED89FE89EA52FB4F80819181A281C2
:102E4000B3814A015B01881A990AAA0ABB0AD50113
:102E5000C40189839A83AB83BC83B7FF0BC08824EA
:102E600099245401881A990AAA0ABB0A89829A826B
:102E7000AB82BC823F2CE986DD86CD826801790178
:102E80004B8F5C8F6D8F7E8F21E2A98CBA8C2A9D2F
:102E9000F0012B9DF00D112425EB89889A88289D3F
:102EA000B001299D700D1124E60FF71F8F01075BFC
:102EB0001B4F89809A80AB80BC80F8018582968206
:102EC000A782B0860097A105B10509F442C180959B
:102ED0009095A095B0958827B7FD83959927AA2747
:102EE000BB278187C68AD78AE08EF18EFB01E75B1C
:102EF000FB4FDF01AB56BF4F8D909D90AD90BC90C6
:102F0000D80192968D929D92AD92BC929597A3E432
:102F1000B0E0A50194010E94CE3353E096958795C9
:102F2000779567955A95D1F7D8011A966D937D9349
:102F30008D939C931D97DF01A756BF4F8D919D9157
:102F40000D90BC91A02DEF56FF4FC816D906EA068A
:102F5000FB0608F439C1B701A601481B590B6A0BDF
:102F60007B0B408051806280738044155505660557
:102F7000770510F42A013B01840D951DA61DB71D90
:102F800088379105A105B10520F488E790E0A0E01D
:102F9000B0E0CB8ADC8A2E2C0F2D8C159D05AE055A
:102FA000BF0520F48B8B9C8B2A2E0B2F8D819D854A
:102FB000A985B32D88379105A105B10520F488E7CF
:102FC00090E0A0E0B0E03C2C1D2DE9A2FF8E8C1516
:102FD0009D05AE05BF0520F4382E192FA9A3BF8F7C
:102FE00081149104A104B10421F4812C912C540189
:102FF00083942B893C89422D502FB901822D902F2B
:103000000E9476336D837E838F839887A701960114
:10301000C701B6010E94763369877A878B879C87C0
:10302000232D312F49A15F8D632D712FCA010E947D
:1030300076336D877E878F87988B24013501440C0A
:10304000551C661C771C69857A858B859C8561502B
:103050007109810991092D813E814F815885621B3B
:10306000730B840B950B640D751D861D971DA301B5
:1030700092010E94863369017A0169857A858B8580
:103080009C852D853E854F855889621B730B840B6B
:10309000950BA30192010E948633DA01C9018C0DC0
:1030A0009D1DAE1DBF1D49815A816B817C81841796
:1030B0009507A607B70708F09DC0481B590B6A0B78
:1030C0007B0B81E2A98CBA8C8A9DF0018B9DF00D5F
:1030D000112425EB89889A88289DC001299D900D8F
:1030E0001124E80FF91FE75BFB4FC686D786E08AFD
:1030F000F18AC40ED51EE61EF71EC28AD38AE48A60
:10310000F58A9B88928EAC88A38E248E058F368E8E
:10311000178FB9A0B0A28F8C81A2875B9B4FFC0157
:10312000E756FF4F30821183B2828382EF89F88D98
:10313000EC57FF4F21812F5F218383579F4F8B8C4B
:103140009C8CAD8CBE8CDC018D929D92AD92BC921C
:10315000139785EB89889A88889DF001899DF00DE9
:103160001124E850FB4FFA83E9838081811113C059
:103170008DE1889DB001899D700D11246759794FAB
:1031800041E08D899E89875B9B4F0E940D1081E0F5
:10319000A981BA818C93A1960FB6F894DEBF0FBEB9
:1031A000CDBFDF91CF911F910F91FF90EF90DF90F6
:1031B000CF90BF90AF909F908F907F906F905F90D7
:1031C0004F903F902F900895AC01BD014C195D09BF
:1031D0006E097F09408051806280738044155505D7
:1031E0006605770510F42A013B0184199509A609A3
:1031F000B709C6CEA501940182E0220F331F441FF8
:10320000551F8A95D1F769817A818B819C81617084
:1032100077278827992769877A878B879C87C98032
:10322000DA80EB80FC80F694E794D794C7948D8085
:103230009E80AF80B8846D857E858F85988968155E
:1032400079058A059B0508F450C04B015C0171E0CB
:10325000871A9108A108B1088D819E81AF81B88538
:10326000881A990AAA0ABB0AC501B401620F731F22
:10327000841F951F89849A84AB84BC8489288A28FA
:103280008B2821F0640D751D861D971D0E948633C5
:10329000C20ED31EE41EF51E89809A80AB80BC80CE
:1032A0008C149D04AE04BF04E0F4A5019401C30195
:1032B000B2010E9476338D809E80AF80B884680D05
:1032C000791D8A1D9B1D0E9490340E94B5350E9475
:1032D0006134362E172F89A39F8FC980DA80EB8047
:1032E000FC8040E050E0BA01ECCE6D817E818F81A0
:1032F00098858D849E84AF84B888681979098A0975
:103300009B0989849A84AB84BC8489288A288B2869
:1033100021F0640D751D861D971D0E948633C20E17
:10332000D31EE41EF51E89819A81AB81BC81C8162B
:10333000D906EA06FB0610F4D701C601C980DA8077
:10334000EB80FC80C81AD90AEA0AFB0ACACFCF92DE
:10335000DF92EF92FF920F931F93CF93DF938C0135
:10336000C0E4D6E080ED97E0A0E0B0E088839983E8
:10337000AA83BB830E948B0828E030E040E050E045
:103380000E94A833F80120873187428753876091D4
:10339000D6037091D70390E080E00E94903424EE31
:1033A00038E34EE051E40E9442350E9461348B01C3
:1033B0009C01488159816A817B81405A5F40610943
:1033C0007109C12CD12C760182E00E94C016DF91D8
:1033D000CF911F910F91FF90EF90DF90CF900895C4
:1033E0008F929F92AF92BF92CF92DF92EF92FF9215
:1033F0000F931F9349015A01670178010091D60488
:103400001091D7042091D8043091D904AB01BC01AC
:10341000400F511F621F731F9501840180E00E94BD
:10342000C01681E0809337011F910F91FF90EF90BC
:10343000DF90CF90BF90AF909F908F900895CF92E4
:10344000DF92EF92FF920F931F93CF93DF938C0144
:10345000CBE8D5E0188219821A821B8281E00E9493
:103460005F0828EC30E040E050E00E94A833F8010B
:1034700020873187428753876091D2037091D303AD
:1034800090E080E00E94903420E030E048E453E493
:103490000E9442350E9461348B019C014881598110
:1034A0006A817B81405D5A486F4F7F4FC12CD12C80
:1034B000760181E00E94C016DF91CF911F910F919C
:1034C000FF90EF90DF90CF9008958F929F92AF92F0
:1034D000BF92CF92DF92EF92FF920F931F93CF9301
:1034E000DF93EC016091D0037091D10390E080E014
:1034F0000E94903420E030E048E453E40E944235DA
:103500000E9461344B015C01EB8184E0E89FF00193
:103510001124E456FC4F20E030E048E453E460819D
:103520007181828193810E9442350E945A34AB019D
:10353000BC01C12CD12C76019501840181E00E944F
:10354000C016DF91CF911F910F91FF90EF90DF9008
:10355000CF90BF90AF909F908F900895CF92DF92C1
:10356000EF92FF920F931F93CF93DF938C01C0E4F0
:10357000D6E080EA90E0A0E0B0E088839983AA8357
:10358000BB830E948B0828E030E040E050E00E94BE
:10359000A833F80120873187428753876091D6038B
:1035A0007091D70390E080E00E94903424EE38E3DD
:1035B0004EE051E40E9442350E9461348B019C012F
:1035C000488159816A817B814056504F6F4F7F4FB0
:1035D000C12CD12C760182E00E94C016DF91CF91E0
:1035E0001F910F91FF90EF90DF90CF9008958F92F1
:1035F0009F92AF92BF92CF92DF92EF92FF920F9382
:103600001F93CF93DF93EC016091D4037091D503A6
:1036100090E080E00E94903424EE38E34EE051E4E4
:103620000E9442350E9461344B015C018B8124E091
:10363000829FC00111242C85213031F584599C4F83
:1036400024EE38E34EE051E4FC0160817181828117
:1036500093810E9442350E945A34C12CD12C7601AC
:1036600095018401AB01BC0182E00E94C016DF918C
:10367000CF911F910F91FF90EF90DF90CF90BF906F
:10368000AF909F908F9008958C579C4FD9CF682F03
:1036900083E393E00C944E33CF93C82F682F8BE0D5
:1036A00090E00E944E336C2F8CE090E00E944E33ED
:1036B0006C2F8DE090E00E944E330E945E1691E0E8
:1036C0008C1390E0892FCF910895CF92DF92EF92E3
:1036D000FF920F931F93CF93DF931F92CDB7DEB767
:1036E00093E0D92E8F70C82E0E945E16182F898302
:1036F0000E947916113031F098F0123089F01330B1
:1037000009F04BC08C0101501109003283E0180709
:10371000A0F0CE0101960E94660710E000E00DC007
:103720008C010F5F1F4F003283E0180730F0CE018D
:1037300001960E9466070FE113E089810E944C1BED
:10374000E82E8823F1F0698180E1689FB00111249F
:10375000FC2CF60E025F1F4F6F2DC8010E944E33E6
:10376000C8010E944033F81669F0CE0101960E940C
:10377000660789810E944C1B882319F0DA94D110C6
:10378000B3CFE12C8E2D0F90DF91CF911F910F9130
:10379000FF90EF90DF90CF9008951982BECF609395
:1037A000C6038093C503623029F030F0643011F015
:1037B000683021F40C94651B85E0FCCF0895CF930D
:1037C000DF93EC0185E08A831C821B8261E08DA17E
:1037D0000E94CF1B40E061E0CE0180960E94501510
:1037E000811107C06AE070E8CE01DF91CF910C949F
:1037F0009814DF91CF910895CF93DF93EC01862F3A
:10380000653040F086E090E89C838B8380E0DF9118
:10381000CF91089521E030E03C832B836091C50374
:103820009091C603861302C0983061F021E0209386
:10383000F0038DA3923040F080E18A83CE010B9695
:103840000E94061581E0E3CF62E00E94CF1B40E0BA
:1038500061E0CE0180960E945015882329F095E002
:103860009A831C821B82D3CF6AE070E8CE010E944B
:103870009814E8CF80917201982F9370923021F4C0
:103880009091C603943068F08370823041F080914B
:10389000C603823020F061E085E00E94CF1B81E00A
:1038A000089580E00895EF92FF921F93CF93DF93E6
:1038B000FC011281112321F11C3001F5EC010E9461
:1038C00002068130D9F4EB80FC80F8E0EF16F0E8D6
:1038D000FF06A1F40E943A1C811109C0FC82EB8210
:1038E0001A83DF91CF911F91FF90EF9008950E946E
:1038F000020A81E090E09C838B831A8280E0F1CF02
:1039000081E0EFCFCF93DF93EC010E943A1C81114D
:1039100008C00E94F01188E090E89C838B838CE0C3
:103920008A8381E0DF91CF910895EF92FF920F9308
:103930001F93CF93DF93EC018881882351F081306E
:1039400051F181E0DF91CF911F910F91FF90EF90A6
:103950000895809165018130E1F488836091CE0300
:103960007091CF0390E080E00E94903428E230E232
:1039700047EA52E40E9442350E9461349B01AC0147
:10398000E12CF12C870169EE76EF8FEF9FEF0E941B
:10399000F01980E0D7CF0E941B06882399F29091FE
:1039A00072018091C5039370923089F092E0988300
:1039B00061E00E94CF1BE091C503EE0FEF5FF0E0E6
:1039C000E652FC4F8081897F8E7F8083E2CF93E037
:1039D000988342E050E070E060E00E945505D9CF46
:1039E000CF93DF93EC018A818823B1F08B3171F49E
:1039F00080916801811108C061E080916A010E9494
:103A0000CF1BCE010E94D80980E007C08DE08A83D9
:103A10008FE290E89C838B8381E0DF91CF910895C2
:103A2000CF93DF93EC01198A188A653030F086E075
:103A300090E89C838B8380E019C081E090E09C83B8
:103A40008B838091C6038330B0F7823021F480915C
:103A5000C5036813F0CF862F61E00E94CF1B81E081
:103A60008F8760E0CE010E946A1581E0DF91CF91DF
:103A700008952091E6033091E70380915F079091CC
:103A80006007DC01ED91FC910480F581E02D40910F
:103A90005D0750915E07B901641B750BAB01483E91
:103AA000534040F40995811139C08091EE03809311
:103AB000EF030895285E334030935E0720935D073F
:103AC000099581112BC08091C603823038F5909101
:103AD000EE038091EF03981709F10E9402068130EE
:103AE00079F0E8F08230D1F46091C5036623B1F03B
:103AF00061508DE491E00E9461148DE491E00AC070
:103B00006091C503653050F487EC91E00E94101D70
:103B100087EC91E09093600780935F070895609130
:103B2000C5036530D8F76F5FE4CFFC0114821382C0
:103B30002AE122830E940D0A2091150123709091A1
:103B4000720193708091C503223029F468E09230AD
:103B500029F062E003C061E09230D9F30E94CF1BEC
:103B600081E00895DF92EF92FF920F931F93CF931E
:103B7000DF93EC018881813009F447C028F082305E
:103B800009F463C081E006C0D090650181E0D816D9
:103B900049F080E0DF91CF911F910F91FF90EF905E
:103BA000DF90089590916A018091C5039813F1CF39
:103BB0000E949310E12CF12C870127E836E040E0C9
:103BC00050E063E874E180E090E00E94F0198981A0
:103BD000882359F0D88262E08091C5030E94CF1BF0
:103BE0008091EE038093EF03D4CF82E08883E12CB1
:103BF000F12C870127E836E040E050E063E874E10B
:103C000080E090E00E94F019E6CF8091720183700D
:103C1000823059F48A810E94480862E08091C5038D
:103C20000E94CF1B85E08883ADCF0E941B068823AE
:103C300009F4AFCF86E0888342E050E070E060E0B6
:103C40008091C5030E945505A4CF809172018370B5
:103C50008230E1F09091EE038091EF03981316C04B
:103C60008091D3049091D204891B823008F091CFC7
:103C7000E12CF12C870127E836E040E050E063E8D2
:103C800074E180E090E00E94F01983CF8A810E9465
:103C9000480862E08091C5030E94CF1B8091EE032B
:103CA0009091EF03891305C095E098838093EF030B
:103CB00069CF97E0FACF682F8091C5030C94CF1B92
:103CC000CF93DF93D0E0C0E06FEFCE010E944E3380
:103CD0002196C11588E0D807B9F76FEF80E098E02A
:103CE000DF91CF910C944E330F931F93CF93DF93BB
:103CF0002091650121112EC0FC018CE08283858119
:103D000096819483838381E090E0968385830E94EB
:103D100034168F3F980791F0EC0121966C2F61507B
:103D20000C2F017010E0C801815D9C4F0E944E3342
:103D30006D2F61508EE293E00E944E330E94491134
:103D40008091EE038093EF03DF91CF911F910F914C
:103D50000C94F011DF91CF911F910F910895CF92A4
:103D6000DF92EF92FF920F931F93CF93DF93EC01BB
:103D70008A81853009F423C148F4823009F4D2C025
:103D8000833089F0811129C111E00FC18C3009F411
:103D9000DEC0893109F4B6C08A3009F01EC1CE01F7
:103DA0000E94741E27C08B85813031F160F0823013
:103DB00009F44FC0843009F099C062E070E8CE0188
:103DC0000E94981417C08091C603823088F081E069
:103DD0008B870E949310E091C503EE0FEF5FF0E038
:103DE000E652FC4F8081897F84608160808302C0BD
:103DF00084E08B8710E0D9C0809165018130D1F7D4
:103E000082E08B8762E08091C5030E94CF1B0E94F5
:103E10007F086D877E878F87988B6091CE03709126
:103E2000CF0390E080E00E94903428E230E247EA3D
:103E300052E40E9442350E9461349B01AC01E12CA6
:103E4000F12C870162E175EA8EEF9FEF0E94F01975
:103E5000D1CF0E947F080D851E852F853889680186
:103E60007901C61AD70AE80AF90AD701C601B7FFCD
:103E700007C0B095A095909581959F4FAF4FBF4FCC
:103E80004091C90350E070E060E0481759076A07A5
:103E90007B07ACF4809115018370823081F485E05A
:103EA0008B8781E00E944808E091C503EE0FEF5F29
:103EB000F0E0E652FC4F8081897F8E7F97CF809122
:103EC00072018370823011F083E0EACF0E941B06FA
:103ED000882309F48FCF6C8561506C87662309F4C1
:103EE00087CFCE010B960E94F71484CF64E070E870
:103EF000853009F464CF89E18A83CE0144960E941B
:103F00003E1578CFCE0144960E94951C882309F473
:103F100071CF8C89833009F450CF82E08A830E946C
:103F2000791468CF80916501811164CF8091680117
:103F3000811160CFCE010E94D8090E94491161E031
:103F40008091C5030E94CF1B0E94400553CF0E9461
:103F50000206813009F04ECF0E940D0A8091720155
:103F60008370823049F4E881F9810190F081E02D7D
:103F700060E0CE0109953ECF8091150183708230BB
:103F800009F438CF41E061E0CE0141960E9450151E
:103F9000182F882329F085E08A831C821B822ACF70
:103FA0006AE070E8CE010E949814812FDF91CF91D2
:103FB0001F910F91FF90EF90DF90CF900895CE0169
:103FC00041960E94B21D882309F414CF8989863056
:103FD00009F091CF61E070E8F2CE8DE08A838FE244
:103FE00090E89C838B83D0CECF93DF93EC018A81C2
:103FF0008530C9F068F4882349F0823009F464C040
:104000008DE08A838FE290E89C838B8381E012C0ED
:104010008C3009F46BC0893161F18A3089F7CE01A7
:104020000E94741E06C0CE010B960E94B21D811123
:1040300004C080E0DF91CF9108958B85863069F0D0
:10404000873089F08530A9F789E18A831C821B8239
:10405000CE010E960E943E15ECCF61E070E8CE01D5
:104060000E949814E6CF81E090E0998B888B1F86A0
:10407000EBCFCE010E960E94951C8823D1F28E853F
:10408000833019F462E070E8EACF8F858823B9F0B5
:1040900081508F878091C503853028F086E090E8B5
:1040A0009C838B83C6CF21E030E03C832B8361E08F
:1040B0000E94CF1B61E0CE010E946A15BACF82E058
:1040C0008A830E947914B5CF809165018111B1CFA7
:1040D00090916A018091C5039813ABCFCE010E94E5
:1040E000D8090E9440050E944911A3CF0E940206F0
:1040F000813009F09ECF0E94020A80917201837084
:10410000823009F4A1CF60E0D6CFEF92FF920F93F7
:104110001F93CF93DF93EC018A818C3009F451C057
:1041200070F4813051F148F08A3009F446C08DE0D6
:104130008A838FE290E89C838B8381E00DC0873176
:1041400091F0883181F1803191F7CE010B960E9478
:10415000AF1E81114CC080E0DF91CF911F910F9174
:10416000FF90EF9008950E941B068823A1F381E041
:104170008A8388A10E94F414EECF8091650181307A
:1041800051F788E18A830E949310E12CF12C87017A
:1041900027E836E040E050E06EE07DE080E090E02F
:1041A0000E94F019D8CF0E941B068823A1F26CE070
:1041B00070E8CE010E949814CECFCE010E94741EEA
:1041C000CACF0E940206813031F60E94020A8B811A
:1041D0009C818A3020E8920751F08C30904809F099
:1041E000BACF0E944005CE010E94D809B4CFCE01BB
:1041F0000E94A714B0CFEF92FF920F931F93CF931B
:10420000DF93DC011296EC911297EB3108F02AC192
:10421000EC01F0E0E25FFE4D0C943A333C22322296
:10422000C321322232225B21322232223222322236
:104230001F2232222222322232223222292132220B
:1042400034218F21B921E6210F22322232226C2122
:1042500007220B960E94AF1E811102C010E023C0FE
:10426000CE010E948915FACF809165018130B1F7A6
:104270008CA190916A018913F1CF61E00E94CF1B5C
:1042800041E061E0CE0180960E945015182F8823EE
:1042900029F085E08A831C821B82E0CF6AE070E807
:1042A000CE010E949814812FDF91CF911F910F9121
:1042B000FF90EF90089580960E94B21D882371F2BE
:1042C00088A161E070E8863091F089E18A83CE01AF
:1042D00083960E943E15C2CF83960E94951C882328
:1042E00009F4BCCF8BA1833031F462E070E8CE01D9
:1042F0000E949814B3CF83E18A8361E08CA10E946D
:10430000CF1B50E040E062E070E08091C5030E9466
:1043100055056CA16F5FCE010E94C2149FCF209102
:104320006A018CA190E001962817190609F096CF32
:1043300084E18A836091D90370E090E080E00E947C
:10434000903420E030E040EA50E40E94E93328E273
:1043500030E247EA52E40E9442350E945A34E12C8E
:10436000F12C870127E836E040E050E00E94F01988
:1043700075CF0E941B06882309F470CF82E08A83E0
:104380000E9479146BCF80916501811167CF85E11F
:104390008A835091D80341E0503208F040E0503217
:1043A00008F0569560E081E00E945F108091D00394
:1043B0009091D1039EA38DA38091D2039091D303BA
:1043C0009093D1038093D0036CA1A5CF9CA1809141
:1043D0006A01981343CF8AE18A8341E05FE160E09C
:1043E00081E00E945F108DA19EA19093D1038093E4
:1043F000D00310926B01E12CF12C870127E836E005
:1044000040E050E06FE57EEF8FEF9FEFAFCF809100
:104410006B01882309F422CF86E18A831FCF809124
:10442000680181111BCFCD010E94D80950E040E006
:1044300061E070E08091C5030E9455050FCF0E9496
:10444000741E0CCF0E940206813009F007CF0E9433
:104450000D0AE881F9810190F081E02D6CA1CE0177
:104460000995FCCE8DE012968C9312978FE290E81E
:1044700014969C938E93139711E015CF682F82E3C7
:1044800093E00C944E33682F81E393E00C944E3309
:104490004F925F926F927F928F929F92AF92BF9254
:1044A000CF92DF92EF92FF920F931F93CF93DF9300
:1044B000EC019A81963009F45BC0E0F4992341F055
:1044C000953059F18DE08A838FE290E89C838B834D
:1044D00081E0DF91CF911F910F91FF90EF90DF90DE
:1044E000CF90BF90AF909F908F907F906F905F9094
:1044F0004F9008959C3009F47FC1903131F09A308B
:1045000009F7CE010E94741E06C0CE010B960E94D0
:10451000AF1E811190C180E0DCCFCE0180960E9459
:10452000B21D8823C1F388A161E070E8863009F4E8
:104530005CC150E040E062E070E08091C5030E9401
:1045400055051BA283E08CA38091C503E82FEE0FD5
:10455000EF5FF0E0E652FC4F9081997F94609160AC
:1045600090830E94F41486E08A831C821B82D3CF3E
:104570008BA1823009F4C4C0C8F4882381F1813052
:1045800009F4A9C0873009F42EC1883009F431C17B
:1045900050E040E061E070E08091C5030E94550565
:1045A0001092F003CE010E94D809B5CF843009F4EF
:1045B0000BC108F4EBC0853029F7809165018111AA
:1045C000AACF9BA3E091C503EE0FEF5FF0E0E652A8
:1045D000FC4F8081897F8260816080839CCF809145
:1045E0006501813009F097CF8BA30E94931084E37B
:1045F00093E00E9448339C012555314024393240D4
:1046000010F088E691E0BC0190E080E00E949034D8
:104610004B015C016091CA037091CB0390E080E094
:104620000E9490342B013C016091CC037091CD032A
:1046300090E080E00E94903428E230E247EA52E4C1
:104640000E9442350E9461346B017C0128E230E215
:1046500047EA52E4C301B2010E9442350E9461342C
:104660002B013C0128E230E247EA52E4C501B401E3
:104670000E9442350E945A3487017601A3019201BB
:104680000E94F0196091CC037091CD0390E080E01E
:104690000E94903428E230E247EA52E40E94423518
:1046A0000E9461342B013C01A501940160E070E09F
:1046B0008AE794E40E94E83328E230E247EA52E4D1
:1046C0000E9442350E945A3483017201A301920173
:1046D0000E94F01920CF809115018370823031F44F
:1046E00081E00E94480888E08BA315CF8091D30415
:1046F0009091D204891B813009F00DCF82E0F4CF74
:104700008091150183708230D1F581E00E944808C4
:1047100064E08091C5030E94CF1B6091CC0370912F
:10472000CD0390E080E00E9490344B015C016091E9
:10473000C80370E090E080E00E9490342B013C01BF
:1047400028E230E247EA52E4C501B4010E94423552
:104750000E9461344B015C0128E230E247EA52E4F6
:10476000C301B2010E9442350E945A34E12CF12C5F
:104770008701A50194010E94F01983E0B5CF0E9442
:104780001B06882309F4C7CE87E0AECF0E941B0624
:10479000882309F4C0CE68E08091C5030E94CF1B36
:1047A00062E08091C5030E94D414E12CF12C8701B2
:1047B00027E836E040E050E061EA71E080E090E018
:1047C0000E94F01984E090CF80916501823009F059
:1047D000A2CE61E080E00E94F1070E9449110E9490
:1047E000791485E081CF63E070E8CE010E949814CF
:1047F00092CE69E070E8F9CF0E940206813009F09C
:104800008ACE0E940D0A8B819C81893020E8920714
:1048100041F08A30904879F0809172018370823043
:1048200051F4E881F9810190F081E02D6091C50398
:10483000CE01099570CECE010E94DF1B6CCE84E3C1
:1048400093E00E9448339C01255531402439324081
:1048500010F088E691E00895FC018DE182831482D6
:10486000138282E084873D9683E0DF011D928A9562
:10487000E9F781E00895BC0184E393E00C94603390
:104880000F931F93CF93DF93CDB7DEB72A970FB661
:10489000F894DEBF0FBECDBFEAEEF3E014821582BE
:1048A000168217828DE1E7E3F2E0A2EFB3E0019018
:1048B0000D928A95E1F78DE1E4E5F2E0AFE0B4E036
:1048C00001900D928A95E1F78DE1E1E7F2E0ACE22B
:1048D000B4E001900D928A95E1F78DE1E7E3F2E013
:1048E000A8E6B6E001900D928A95E1F78DE1E4E546
:1048F000F2E0A5E8B6E001900D928A95E1F78DE12E
:10490000E1E7F2E0A2EAB6E001900D928A95E1F7C4
:1049100060E089E494E00E948F0861E08EEF94E00B
:104920000E948F0862E083EB95E00E948F088DE182
:10493000E7E3F2E0AFEBB6E001900D928A95E1F784
:104940008DE1E4E5F2E0ACEDB6E001900D928A95E0
:10495000E1F78DE1E1E7F2E0A9EFB6E001900D9219
:104960008A95E1F7E6E1F7E088EC90E091838083B7
:1049700013A214A210925B0710925C0706E617E0E0
:10498000F8011082118212821482138287E697E066
:104990000E94CB0DF801858316821E821F82198624
:1049A0001886CE0106960E94CB0D8A8785E0FE010F
:1049B0003696DE01119601900D928A95E1F785E019
:1049C000FE013196ADE6B7E001900D928A95E1F7D0
:1049D000F8011486168615868DE697E00E94DE0D96
:1049E000F80183870DE517E0F801118210828CE24F
:1049F00092E09383828388E58483158217821682EE
:104A000081E697E00E94CB0DF80180872A960FB6C9
:104A1000F894DEBF0FBECDBFDF91CF911F910F91F4
:104A20000895FC0184899589A689B789803B9440C3
:104A3000A105B10599F487E797E79093FF0A809362
:104A4000FE0A81E08093C40388E19CE00FB6F894ED
:104A5000A895809360000FBE90936000089508951C
:104A60008AE191E00C94B12E8AE191E00C94B62D8C
:104A7000089508951F920F920FB60F9211248F93ED
:104A80009F938091E6039091E70301969093E7034B
:104A90008093E6039F918F910F900FBE0F901F9010
:104AA00018951F920F920FB60F9211242F923F92DA
:104AB0004F925F926F927F928F929F92AF92BF922E
:104AC000CF92DF92EF92FF920F931F932F933F931A
:104AD0004F935F936F937F938F939F93AF93BF9306
:104AE000EF93FF93CF93DF93CDB7DEB72697DEBF6B
:104AF000CDBF9E012F5F3F4F490188E6C82E86E05B
:104B0000D82E02ED14E03901F12CE12CD8019A964F
:104B1000AD90BC909B97F301A192B1923F01F1E05F
:104B2000AF16BF0608F00EC1A114B10431F49C9178
:104B300011968C91981709F405C1D80112968D91A0
:104B40009C911397892B09F044C08C9111969C91EC
:104B50001197891771F08370F70121E2829FE00DB0
:104B6000F11D1124CF01825B9B4F13969C938E9372
:104B70001297D8011296ED91FC91309709F4B5C1C6
:104B80006481F6018481682783810E94F00FD80137
:104B900058961D921D921D921C925B971296ED9154
:104BA000FC911397858996895D969C938E935C976B
:104BB000B70160517B4F0E94D008B0E0A0E0F8013F
:104BC000848B958BA68BB78B12A213A214A215A26D
:104BD000178EF801368D20E0F80182A193A1A4A1DF
:104BE000B5A1321719F1F60140845184428561E084
:104BF00070E002C0660F771F4A95E2F7F20160830A
:104C00000196A11DB11DF80182A393A3A4A3B5A38E
:104C100042815381FA0140815181628173818417FD
:104C20009507A607B70710F42F5FD6CFD801929645
:104C30002D903D904D905C9095971296ED91FC9142
:104C40001397418552856385748542155305640524
:104C5000750508F4E3C02581368147815085549657
:104C60006D917D918D919C9157970E94B907D801C4
:104C70001296ED91FC91139725893689820F931F27
:104C80005D969C938E935C9721893289281739070A
:104C900020F45D963C932E935C97B70160517B4F57
:104CA000F801848D958D0E94D008D80154964D91BD
:104CB0005D916D917C915797480F591F611D711D32
:104CC000F801448B558B668B778BD8011296ED914A
:104CD000FC91139792964D915D916D917C91959772
:104CE000208031804280538042155305640575054C
:104CF00038F013961C921E9212972C912F5F2C93D2
:104D0000009709F4F2C0F3013297A80EB91EB182E0
:104D1000A082F801E558F1098081882399F0D60135
:104D20001B962D913C91D9012C9130E0D6011D9616
:104D30009C9102C0359527959A95E2F720FDCCC04D
:104D400081508083BDE1CB0ED11CE5EBEE0EF11C52
:104D50000B541F4FFFE1EF16F2E0FF0609F0D6CE2D
:104D600089819A812B813C812115310531F0009791
:104D700019F02817390708F4C9012D813E81211542
:104D8000310531F0009719F02817390708F4C901E7
:104D9000ECEFF4E0A4014A5F5F4FD4012D913D9107
:104DA0004D012115310509F4A5C0281B390B3183AC
:104DB0002083EB54FF4F8416950679F7009709F48A
:104DC0009CC0909389008093880026960FB6F89433
:104DD000DEBF0FBECDBFDF91CF91FF91EF91BF91AD
:104DE000AF919F918F917F916F915F914F913F9183
:104DF0002F911F910F91FF90EF90DF90CF90BF9078
:104E0000AF909F908F907F906F905F904F903F906A
:104E10002F900F900FBE0F901F90189545855685C7
:104E200067857089421553056405750508F03FC014
:104E3000258136814781508558966D917D918D9160
:104E40009C915B970E94B907F801248D358D0280F3
:104E5000F381E02D28173907C0F4818D928DB701B9
:104E600060517B4F0E94D008D80158964D915D91BA
:104E70006D917C915B97480F591F611D711DF80161
:104E8000408F518F628F738F20CFA901481B590B20
:104E9000CA01418D528D638D748D1C01512C412CA2
:104EA0002416350646065706D0F6CA01D8CF5F96B7
:104EB0008C9181110CC0B70160517B4F818992891F
:104EC0000E94D008F80191A380A3868D878FD80116
:104ED00090968D919C91F9CED801A658B1099C91DC
:104EE000891708F02FCF8F5F2CCFF30132971182F3
:104EF000108228CF30E020E05ACF80E090E461CFEC
:104F00001F920F920FB60F9211242F938F939F939E
:104F1000EF93FF938091390790913A0720E089172A
:104F200049F0E82FEF71F0E0EA5EF84F23818F5FE0
:104F300080933907E0911607F09117072683808147
:104F40008064808380913907891307C0E091160738
:104F5000F091170781818F7D8183FF91EF919F9160
:104F60008F912F910F900FBE0F901F9018951F9249
:104F70000F920FB60F9211242F933F938F939F930D
:104F8000EF93FF93E0911607F0911707808184FF5C
:104F90000CC08681FF91EF919F918F913F912F914E
:104FA0000F900FBE0F901F901895968180915C070F
:104FB00020915B07382F321B303261F3E82FEF71FD
:104FC000F0E0EA5EF84F95A38F5F80935C07E2CF35
:104FD000CF93DF93CDB7DEB7AA970FB6F894DEBFB5
:104FE0000FBECDBF10926E0082E084BD93E095BDF0
:104FF00099EF97BD16BC9FEF95BB80936E0088E13B
:1050000099E20FB6F894A895809360000FBE909334
:1050100060000E947916803223E0920708F411C1E3
:1050200085E08093C5038091C503853008F024C1D5
:1050300088E08093C6038EE18093C80388E2809362
:10504000C9032FE530E03093CB032093CA0344E13A
:1050500050E05093CD034093CC033093CF03209383
:10506000CE032DE230E03093D1032093D0032EE124
:1050700030E03093D3032093D2032CE231E030931D
:10508000D5032093D40329E031E03093D703209354
:10509000D6038093D80388E08093D9038FB7F89420
:1050A0002D988FBF259A8FB7F8942E988FBF269A88
:1050B0008FB7F89447988FBF3F9A8AE290E00E949A
:1050C000330F8091E303897F826081608093E303E3
:1050D0000E94660F52988FB7F8945A988FBF8FB777
:1050E000F8945B988FBF539AE0911607F0911707D9
:1050F00080E190E095838483808182608083E09169
:105100001607F0911707138288E881838091E103E5
:10511000897F826081608093E1030E94660F2398FB
:105120008FB7F8942B988FBF8FB7F8942A988FBFBA
:10513000229A8FB7F89429988FBF219A8FB7F89445
:10514000289A8FBF209A8CE58CBD1DBC8091DF030F
:10515000897F826081608093DF030E94660F809167
:1051600081008F7E80938100809181008860809390
:105170008100809180008D7F8093800080918000ED
:105180008E7F80938000809180008F738093800059
:10519000809180008F7C8093800080918100887F47
:1051A00082608093810080E090E4909389008093F6
:1051B000880010928500109284000E94B0078091B0
:1051C000DD03897F826081608093DD030E94660F2A
:1051D00080917A00876080937A0080917C0080645F
:1051E00080937C0080917A00806880937A0080911F
:1051F000DB03897F826081608093DB030E94660FFE
:105200000E94BA3064EB73E08AE191E00E949D2E27
:1052100084EB93E090938207809381070E945A0A5F
:1052200078940091E6031091E7038091E603909152
:10523000E703801B910B8636910500F50E948609D5
:10524000F4CF0E960E944033182F8F708093C503C1
:10525000853008F0E5CE0E945E16843008F0E0CE7E
:10526000212F30E0E4E035952795EA95E1F78217A4
:10527000130609F0D5CED7CE81E0DBCE0E945A0AC4
:1052800081E090E0FC01E652FC4F2081297F2E7FD7
:105290002083FC01E752FC4F2081297F2E7F208351
:1052A00002968B30910571F70E94660F0E945A0A90
:1052B000809149018370823029F40E94601E0E940F
:1052C000DB0FEDC360E080E091E00E942C2480E0E1
:1052D00091E00E94F811982E811103C00E94660F80
:1052E000F6CF80910301909104018130910509F47A
:1052F000BBC09093300280932F028CE080932E02EB
:10530000E0911607F09117078181806181836624FF
:105310006394712C4DE0442E40E8542E55E0852EC8
:1053200065E0362E74E0272E0E945A0A0E94660F0E
:105330008091030190910401019709F085C00E94BA
:1053400086096091E6037091E7034091190185E1B8
:1053500091E00E94580980915A0187FD13C0853061
:1053600021F088E591E00E94450B80915A0181303F
:1053700009F4D4C008F4E1C0833009F4D4C0843007
:1053800009F4D6C08091680187FD13C0853021F0F3
:1053900086E691E00E94450B80916801823009F415
:1053A000E9C008F0D8C0882309F416C1813009F497
:1053B000DCC08091370187FD0EC0853021F085E388
:1053C00091E00E94450B80913701813009F418C1AA
:1053D000843009F41AC1A1E4B1E082E090E0682FC2
:1053E000582F18967C91189773704091F103242FD1
:1053F00030E0082E02C0359527950A94E2F7217017
:1054000031E0723009F030E02317D9F0723089F4BE
:105410002091EF033091EE03F22FF31BF43049F0AB
:10542000E22FE370F0E0E651FC4F60832F5F2093A2
:10543000EF03930101C0220F5A95EAF742274093E8
:10544000F1031497019758F60091C403002309F45F
:10545000E8C00EE812E0D8018D918D01882309F48F
:10546000DCC00E947405F7CF60E08CE292E00E94FD
:10547000821C8091C603843018F588E591E00E9473
:10548000F4138091C603823050F5809172018370CD
:10549000823029F186E691E00E94F4138091C603E0
:1054A000823008F42DCFE091C503EE0FEF5FF0E0FE
:1054B000E652FC4F8081897F82608160808320CFAB
:1054C00080EA90E0A0E0B0E080934006909341062F
:1054D000A0934206B093430610925D01D2CFE091B3
:1054E000C50334E0E39FF0011124E456FC4F20E0B3
:1054F00030E048E453E460817181828193810E94AD
:1055000042350E945A3460938B0570938C058093CA
:105510008D0590938E0510926B01C0CF88E591E0C8
:105520000E9491072FCF88E591E00E9452112ACF67
:1055300088E591E00E948C1125CF80915D01811159
:1055400021CF8091C603843008F01CCF88E591E01C
:105550000E94F41317CF8330D1F1843009F029CFA2
:1055600086E691E00E948C1124CF86E691E00E94AD
:1055700091071FCF80915D01882309F41ACF83E042
:10558000809368016091D2037091D30390E080E032
:105590000E94903420E030E048E453E40E94423519
:1055A0000E9461348B019C0140918B0550918C05C8
:1055B00060918D0570918E054053554761097109C1
:1055C000C12CD12C760181E00E94C016F2CE86E675
:1055D00091E00E945211EDCE80916B018111E9CED4
:1055E0008091C603823008F0E4CE8091720183700E
:1055F000823009F4DECE86E691E00E94F413D9CE23
:1056000085E391E00E949107E6CE71E070933A0144
:1056100085E391E00E94B606DECE8AE00E94740522
:10562000FFCF8AE191E00E945E2E8AE191E00E9424
:10563000482E0E94EF321AE08EE10E94410A11507A
:10564000D9F79093C3038093C2038331914058F1FB
:1056500081E00E94480882E00E94401081E00E94A0
:10566000401080E00E944010E0915F07F0916007D9
:105670008DE082835482438221E030E0F901E652DA
:10568000FC4F8081897F846081608083F901E752CB
:10569000FC4F8081897F8460816080832E5F3F4FD3
:1056A0002B30310559F70E94391DF0905C0723E03B
:1056B000E22E80915B078F1509F4AAC1E82FEF71E4
:1056C000F0E0EA5EF84F15A18F5F80935B07809151
:1056D0006607823009F465C058F48823F9F08130F8
:1056E00009F44AC01A3009F48BC01D3009F588C08E
:1056F000833009F461C08430A9F7812F0E945907D3
:10570000882309F470C0812F0E944B0790916B078A
:105710009295907F892B80936B07CBCF1E3400F539
:105720001B3468F4173448F4153448F4123439F053
:105730001092670730926607BCCF1834C9F71093F0
:1057400067071092680710926A0710926907109213
:105750006B0782E0173509F081E080936607A9CFD7
:10576000193538F4173558F780EB810F863038F348
:10577000DFCF163621F3DCCF812F0E945907882313
:1057800059F0812F0E944B07909168079295907F66
:10579000892B809368078DCF1A3251F620926607C5
:1057A00088CF812F0E9459078111EBCF103209F069
:1057B000BFCFE09266077DCF812F0E9459078823D3
:1057C00059F3812F0E944B072091690730916A0796
:1057D00094E0220F331F9A95E1F7282B30936A0744
:1057E0002093690766CF1A3019F01D3009F0A0CF59
:1057F00010916B0787E697E00E94CB0D181398CFA6
:105800001092660785E0E7E6F7E0DE015C9601901E
:105810000D928A95E1F785E0FE017C96DE01919676
:1058200001900D928A95E1F785E0FE01B196DE01C7
:10583000969601900D928A95E1F7EEA1E254E53239
:1058400008F0E6C0F0E0E95DF34D0C943A334C2CDF
:10585000082D082DA92D082D082DA92D082D082D5E
:10586000A92DA92D082D082D082D652C782C512D3A
:10587000512DA92DA92D082D7B2D4B2D082D082D3F
:10588000082D082D082D082D082D082D082D082D70
:10589000082D082D082DAE2D9FA190688091EF0353
:1058A0002091EE03E82FE21BE43049F0E82FE3708B
:1058B000F0E0E651FC4F90838F5F8093EF0361E44B
:1058C000CE0186960E94B30EA3C0809172018370B0
:1058D00041E050E0823011F050E040E09E012F5F47
:1058E0003F4F61E0CE0186960E94EF0D682F8CC07D
:1058F0008091F0038823A9F09091EE038091EF034B
:10590000981779F0E92FE370F0E0E651FC4F8081C1
:1059100087FD07C09F5F9093EE0390E022E48F37EE
:1059200049F580915F0790916007DC01ED91FC9152
:105930000680F781E02D09959C0180915F07909189
:1059400060072115310569F02130310509F49AC04D
:10595000DC01ED91FC910680F781E02D099525E4AD
:1059600009C0DC01ED91FC910480F581E02D0995E1
:1059700090E020E535E0E1E6F7E0DE0157960190A2
:105980000D923A95E1F735E0FE017796DE011F961C
:1059900001900D923A95E1F72C8B9E8B8D8BCE0169
:1059A0000F960E94DE0D8B8BBE016F5F7F4F81E6ED
:1059B00097E00E94E906E1E0F0E0EC0FFD1FE80F40
:1059C000F11D9C89908311E0180F61E070E06C0F6D
:1059D0007D1F610F711D8D899E890E941307180F0D
:1059E00061E070E06C0F7D1F610F711D8B890E945B
:1059F0000407810FE1E0F0E0EC0FFD1FE80FF11D5F
:105A00009AE0908361E0680FCE0101960E942F0614
:105A100000915F071091600788E591E00E941E0ADF
:105A200021E048E551E0BC01C8010E94C015F82EF4
:105A300086E691E00E941E0A22E046E651E0BC01A3
:105A4000C8010E94C015F82A85E391E00E941E0A51
:105A500024E045E351E0BC01C8010E94C015F110EB
:105A60000FC081110DC0D80112968C9112978D3004
:105A700039F0ED91FC910280F381E02DC801099588
:105A8000A89552CCDC01ED91FC910084F185E02DCC
:105A9000099526E46FCF8FA18A3209F40ECC0E94BB
:105AA000D90CEFA1E432B0F4E89DF0011124E455E3
:105AB000FF4F8491319683FD18C08370823028F0A7
:105AC000823071F0B12CA12C05C0A591B491AC909D
:105AD000B12C092D9E012F5F3F4FA501602F02CFF2
