:1000000014C400000C947D290C9456290C942F29BB
:100010000C9408293AC4000038C400000C94E1286C
:1000200034C4000032C400000C944F260C94BE2649
:100030002CC400002AC4000028C4000026C400000C
:1000400024C4000022C4000020C400001EC400001C
:100050001CC400000C94A32018C400000C94A42914
:1000600014C4000012C4000010C400000EC400003C
:100070000CC400000AC4000008C4000006C400004C
:100080000C94672002C4000000C40000FEC30000FE
:10009000FCC30000FAC30000F8C30000F6C3000070
:1000A000F4C30000F2C30000F0C300004472796999
:1000B0006E6700437572696E6700447279696E6796
:1000C0002F637572696E6700636F6E74696E756F0A
:1000D0007573006F6E6365006E6F6E6500000000E3
:1000E00000250028002B002E003100000000002316
:1000F00000260029002C002F000000000200090F3C
:100100000000030401000C000000000000000000DB
:100110000000000000000000080B000202020100C5
:10012000090400000102020000052400100105245A
:1001300001010104240206052406000107058103CC
:1001400010004009040100020A0000000705020235
:100150004000000705830240000004030904120167
:100160000002EF020140992C080000010102030186
:100170005072757361205265736561726368207097
:100180007275736133642E636F6D004F72696769B6
:100190006E616C2050727573612043573100435576
:1001A00052574100496E636F7272656374206669CD
:1001B000726D77617265210000110A040A11000056
:1001C00000080C0E0C0800000004021F02040000CE
:1001D000040E1F041C0000000010080402010000AF
:1001E00019001D00220028002E00360040004B00A0
:1001F000580069007C009200AD00CC00F1001A01AB
:100200004A017E01B701F40133027102AF02E80234
:100210001C034A0372039303AD03C303D303E00338
:10022000E903F003490053005F006D007D0090007A
:10023000A500BD00D900F8001C0143016E019C011E
:10024000CE01020237026C02A102D30202032D0387
:10025000530375039103A903BD03CD03DA03E3033D
:10026000EB03F103F503F80300000000240027006E
:100270002A002D00300004080201104080401020A8
:10028000408040800802040180402010020110805C
:100290001020404020040404040404030405020266
:1002A000020204030202020206060606060604040F
:1002B0000202020404054F7665726865617400509D
:1002C0006C65617365207265737461727400486552
:1002D000617465722066616E206572726F72004390
:1002E0006C6F73652074686520636F766572005269
:1002F000656D6F7665204950412074616E6B0049D1
:100300006E73657274204950412074616E6B0000F9
:10031000507265737320746F20636F6E74696E75AD
:10032000650046696E69736865640046616E3220D7
:100330006661696C757265004E6F742F626164202E
:100340007370696E6E696E67005370696E6E696E68
:1003500067207475726E6564206F66660046616E14
:1003600031206661696C757265002020002020468E
:10037000323A0046313A004E6F2F6C6F7720706F23
:100380007765720055564C4544206661696C7572FC
:100390006500526561642074656D7065722E20651C
:1003A00072726F7200486561746572206661696C73
:1003B0007572650046333A00435731763200206D3E
:1003C000696E2E00202500203E003C200050617503
:1003D0007365640020DF46007C2F2D003E3E003E0A
:1003E0007C003C3C007C3C00447279696E672F6362
:1003F0007572696E6700437572696E670044727941
:10040000696E670057617368696E67005061757344
:100410006500436F6E74696E7565002020000706E5
:1004200005040100080A0B0C0D09436C6F7365206D
:1004300074686520636F766572004F70656E207416
:10044000686520636F76657200436F76657220740D
:1004500065737400496E736572742049504120744D
:10046000616E6B0052656D6F766520495041207456
:10047000616E6B004950412074616E6B207465732E
:100480007400526F746174696F6E207465737400C8
:1004900046616E7320746573740055564C45442054
:1004A0007465737400486561746572207465737453
:1004B00000436F6F6C646F776E005761726D2D75BE
:1004C000700048656174696E6700437572696E6794
:1004D00000447279696E670057617368696E6700DE
:1004E00000005BDF465D005BDF435D0020DF430013
:1004F0002F3130001908BD06870690056205536547
:100500006C667465737400436F6F6C646F776E0014
:100510001908EB05DF05BB05D305C70546616E333A
:100520002052504D3A200055564C45442074656D7C
:10053000702E3A004368616D2E2074656D702E3AFE
:100540000046616E322052504D3A200046616E31B5
:100550002052504D3A200032061A06DB074C066D39
:1005600006526573696E2070726568656174001962
:1005700008486F6C642074686520706C6174666FE5
:10058000726D00660614081908001908B80792066B
:100590007C075A077A069C0653657474696E677304
:1005A000004C4344206272696768746E657373001F
:1005B00055564C454420696E74656E7369747900B4
:1005C000BA00B300AC0052756E206D6F64650019FF
:1005D00008B806B306AE06A906496E666F726D616D
:1005E00074696F6E006361653862626537333664C3
:1005F00037343739353339004275696C643A203203
:1006000033370046573A2076332E312E3000534E82
:100610003A2000190837071407F106CA0646616E2A
:1006200073001908D706E40646616E73206D656E87
:10063000752073706565640046616E31206D656E6E
:10064000752073706565640046616E32206D656E5D
:1006500075207370656564001908FE060907466118
:100660006E732077617368696E6720737065656467
:100670000046616E312077617368696E6720737020
:100680006565640046616E322077617368696E67E4
:1006900020737065656400190821072C0746616E98
:1006A0007320647279696E672073706565640046B3
:1006B000616E3120647279696E672073706565645C
:1006C0000046616E3220647279696E6720737065CE
:1006D00065640019084F07440746616E732063750F
:1006E00072696E672073706565640046616E3220C2
:1006F000637572696E672073706565640046616E2C
:100700003120637572696E672073706565640019C6
:100710000871076707536F756E6400D800D300C86F
:100720000046696E697368206265657000436F6E8C
:1007300074726F6C206563686F001908AD07A207BB
:100740009707890754656D7065726174757265737A
:1007500000A207970754656D702E20756E6974733B
:1007600000526573696E20707265686561742074EB
:100770002E00447279696E67207761726D2D7570F5
:1007800020742E005B6F66665D005B6F6E5D0057C8
:1007900061726D2D7570001908D007C507526F740E
:1007A0006174696F6E20737065656400576173686A
:1007B000696E6720737065656400437572696E6762
:1007C0002073706565640019080908FE07F307E8DF
:1007D0000752756E2D74696D6500526573696E20E0
:1007E000707265686561742074696D650057617326
:1007F00068696E672072756E2D74696D650044724C
:1008000079696E672072756E2D74696D6500437528
:1008100072696E672072756E2D74696D6500537410
:100820006F70004261636B00D71711241FBECFEFBA
:10083000DAE0DEBFCDBF8091FE0A9091FF0A90936F
:100840005B0880935A0813E0A0E0B1E0E8E3FAE522
:1008500002C005900D92A039B107D9F728E0A0E9B0
:10086000B3E001C01D92AA35B207E1F714E0C5E17B
:10087000D4E004C02197FE010E94BB2AC431D107F5
:10088000C9F70E940B210C941A2DBACBCF92DF929C
:10089000EF92FF921F93CF93DF93FB01EE5BFF4F2D
:1008A00025913491821793070CF056C0FB012591D6
:1008B0003491281739070CF052C013E2A1E2B0E0DE
:1008C000D0E0C0E021E1115019F490E080E03CC09C
:1008D00030E0A901440F551FFB01E40FF51FE5901F
:1008E000F490FA013296E60FF71FC590D490A90153
:1008F000C816D9064CF49D01240F351F3595279550
:10090000EA01AD01DA01DFCF8E159F0534F49E01B7
:10091000240F351F35952795F5CFBC016E197F093A
:100920004EEC4603C001479F900D1124B6016E198D
:100930007F090E94EE294203C001439F900D1124BC
:100940008E519B4F860F971FDF91CF911F91FF9084
:10095000EF90DF90CF90089580E79EEFF5CF82EE85
:1009600094E0F2CF9C01A8EEB3E00E94AC2A609321
:100970004B0870934C0880934D0890934E086093F9
:1009800053087093540880935508909356088091AB
:100990005908882341F010924B0810924C0810928D
:1009A0004D0810924E0880914B0890914C08A091F0
:1009B0004D08B0914E0880934F0890935008A09333
:1009C0005108B0935208089584E050E040E0E2E21C
:1009D000F4E0949130917B00292F220F220F207296
:1009E0003F7D232B20937B009770906490937C0035
:1009F00090917A00906490937A0090917A0096FD9D
:100A0000FCCF9091780020917900322F292F420F4E
:100A1000531F8150F1F6CA010895EBEDF3E0828196
:100A20008F5F82830895EBEDF3E081818F5F818397
:100A30000895EBEDF3E080818F5F80830895FC01E2
:100A40008481882359F0A281B3816C938281938140
:100A500001969383828384818150848308950F93C8
:100A60001F93CF93DF938C01EB01FE0164912196DC
:100A7000662349F0D801ED91FC910190F081E02DC1
:100A8000C8010995F2CFDF91CF911F910F91089581
:100A9000FC0112861186148613868FEF9FEF9687CE
:100AA00085871786108A118A128A138A148A158AF2
:100AB000168A178A0895FC017383628383E0848316
:100AC00088E991E09183808356834583308727832B
:100AD00012861186148613868FEF9FEF968785877F
:100AE0001786108A118A128A138A148A158A168A1E
:100AF000178A0895FC017383628382E0848384EC07
:100B000093E0968385835087478384E68187228795
:100B100086E693E0918380830895FC01738362836A
:100B200082E084838EEB93E09683858350874783AE
:100B3000218781E0828786E693E091838083089510
:100B4000DC011796ED91FC91189720811A963C9143
:100B50001A97321740F421502083ED91FC910280C6
:100B6000F381E02D09950895CF93DF93EC01E8DF41
:100B7000AF81B885EB85FC858C910995DF91CF918C
:100B80000895DC011796ED91FC9118972081199634
:100B90003C911997231740F42F5F2083ED91FC912E
:100BA0000280F381E02D09950895CF93DF93EC0146
:100BB000E8DFAF81B885EB85FC858C910995DF91E5
:100BC000CF9108950F931F93CF93DF93EC01162FCE
:100BD000862F8C7039F0E881F9810280F381E02D55
:100BE000CE01099516FF11C08B852C852150330B42
:100BF000821713060CF03FC08F5F8B87E881F98165
:100C00000280F381E02DCE01099517FF0DC08B8581
:100C1000882309F43BC081508B87E881F9810280E9
:100C2000F381E02DCE01099514FF36C0EA858B854E
:100C3000E80FFF27FF1FCF01880F991FED81FE816D
:100C4000E80FF91F05911491D801ED91FC910484EE
:100C5000F585E02DC8010995009739F108171907A6
:100C6000F9F4E881F9810280F381E02DCE01099544
:100C700090E080E015C08A8529852450330B8217C7
:100C800013060CF0C2CF8F5F8A87B8CF8A8588237E
:100C900059F281508A87C1CF15FFEACF8F8198859D
:100CA000DF91CF911F910F910895C801F9CFFC01F9
:100CB00013860895FC017383628382E0848386E84F
:100CC00091E0918380835683458310861782218724
:100CD00012861386253008F024E0248708950895AD
:100CE000FC0173836283148284E791E091838083A3
:100CF000089590E080E0089590E080E008950895E0
:100D0000FC0113821282158214821782168284E4F7
:100D100091E0918780871286138614861586168641
:100D20008FE093E0908B8787128A118A148A138A46
:100D300080E2858B84E691E091838083668B178ABD
:100D4000089580E008958091A10381110DC082E093
:100D500080939D0384E080939E031092A0031092E1
:100D60009F0381E08093A1038DE993E00895409172
:100D70009B0350919C032091990330919A03421751
:100D80005307B4F49091E8009570E1F39091E80076
:100D900092FD19C08093F10080919B0390919C0378
:100DA00001968F739927892B19F48EEF8093E800B1
:100DB00080919B0390919C03019690939C03809358
:100DC0009B0381E0089580E00895EF92FF920F93D6
:100DD0001F93CF93DF93EC01E62E042F81E0860F63
:100DE000880FC5DF83E0C3DFEC0EFD2EF11CCE15AE
:100DF000DF0599F007FF0FC0FE018491B8DF182FBF
:100E000080E0B5DF812321968111F1CFCDB7DEB728
:100E1000E6E00C94E92A8881F1CF81E0F7CFB0E0D9
:100E2000A0E0E5E1F7E00C94CC2AD82E8A01EB0192
:100E30007B01E40EF51ECE15DF0551F0D7FE0EC086
:100E4000FE01849194DF21968111F5CF0FEF1FEF02
:100E5000C801CDB7DEB7E7E00C94E82A8881F2CF6D
:100E6000A1E0B0E0E6E3F7E00C94CF2A82E08983CA
:100E700042E450E068E171E080E8D1DF64DFDC014A
:100E800012960D911C910115110589F0D801ED9173
:100E9000FC910280F381E02DBE016F5F7F4FC8019E
:100EA000099597FD04C0F80100851185ECCF898173
:100EB0002196E4E00C94EB2A615030F02091F1008F
:100EC000FC0120830196F8CF289884E68093DE0306
:100ED00008958EBD00000DB407FEFDCF8EB50895B8
:100EE00081508F3008F047C0E82FF0E0E658F84F07
:100EF0000C94BB2A97079B0789078F079307BB07AB
:100F0000BB07BB079E07A407A807AC07B207BB0730
:100F1000B607809180008F7780938000089580913C
:100F200080008F7DF9CF80918000877FF5CF84B5D9
:100F30008F7784BD089584B58F7DFBCF809190001D
:100F40008F77809390000895809190008F7DF9CFE6
:100F500080919000877FF5CF8091C0008F7780933C
:100F6000C00008958091C0008F7DF9CF8091C200AC
:100F7000877F8093C2000895CF93DF93282F30E0BE
:100F8000F901E750FF4F8491F901EA58FD4FD491E0
:100F9000F901EA56FD4FC491CC2379F08111A0DF0D
:100FA000EC2FF0E0EE0FFF1FE551FF4FA591B4913C
:100FB000EC91ED2381E090E011F490E080E0DF918E
:100FC000CF9108951F93CF93DF93282F30E0F9013D
:100FD000E750FF4F8491F901EA58FD4FD491F90190
:100FE000EA56FD4FC491CC23A1F0162F811178DF72
:100FF000EC2FF0E0EE0FFF1FE352FF4FA591B491ED
:101000008FB7F894EC91111108C0D095DE23DC93D2
:101010008FBFDF91CF911F910895DE2BF8CFFF9204
:101020000F931F93CF93DF93F82E8B01C9E3D8E082
:1010300060E08981C7DF8881880F80644ADF8F2D57
:1010400048DF802F46DF812F44DF61E08981BADFEE
:10105000CDB7DEB7E5E00C94EA2A9FEF980F903108
:10106000E8F4E0914108F09142088150990B21E0A9
:1010700030E0A90102C0440F551F8A95E2F7CA016A
:10108000662369F08E2B9F2B909342088093410832
:10109000609141087091420882E1C1CF0895809526
:1010A00090958E239F23F0CF60E08BE0D6DF1092E7
:1010B000D3031092D4031092D5031092D6030FB627
:1010C000F894A895809160008861809360001092E8
:1010D00060000FBE089561E084E0BFCF0895FBCFAC
:1010E00008951F93CF93DF93182F60E080913A0803
:1010F00069DF80913908880F8164EBDE82E1E9DEE7
:1011000080E0E7DEC82FD0E080E0E3DED82B61E0AE
:1011100080913A0857DF212F2150330BC90121E07C
:1011200030E002C0220F331F8A95E2F72C233D23C3
:1011300081E0232B09F480E0DF91CF911F91089586
:1011400082E0CFDF91E0811190E0892F089583E064
:10115000C8DF91E0811190E0892F0895FC01858915
:1011600084FF06C0EDDF882361F090E080E0089501
:10117000E7DF811109C0EBDF8111F7CF8FED92E03E
:1011800008958FEF92E008958FEE92E00895CF9248
:10119000DF92EF92FF921F93CF93DF93182F6A0194
:1011A0007B01CFE2D8E060E088850CDF812F80688A
:1011B00090DE89878F2D8DDE8E2D8BDE8D2D89DE45
:1011C0008C2D87DE61E08885FDDE8985DF91CF91FA
:1011D0001F91FF90EF90DF90CF90089560E087E03F
:1011E0003CDF60E083E0EECE0895CF93DF93EC0127
:1011F0008D8981FDF3DF8D8982FD56DF8B899C8986
:10120000892B19F01092710066DF89899A89892BE0
:1012100019F081E080935808DF91CF910895CF9322
:10122000DF93EC018091220190912301DEDFD093C6
:101230002301C0932201E881F9810190F081E02D22
:10124000CE010995DF91CF91089581E295E0E7CF36
:101250000895FC0185819681E2CF0895CF93DF93B5
:10126000EC016EDF882349F08BED94E09E838D8343
:10127000CE01EFDFDF91CF910895E88DF98D808168
:10128000813059F0823091F489E095E09093C80460
:101290008093C70485EC94E002C08FEA94E09093B9
:1012A00086048093850483E894E0E0CF8FEA94E09D
:1012B000EDCFCF93DF9390E0FC01EA58FD4F2491EE
:1012C0008A569D4FFC0184918823C9F090E0880FD5
:1012D000991FFC01E859FD4FA591B491FC01E3521F
:1012E000FF4FC591D49161110DC09FB7F8948C91B7
:1012F000209582238C938881282328839FBFDF91A8
:10130000CF910895623051F49FB7F8943C91822FA9
:10131000809583238C93E8812E2BEFCF8FB7F894A1
:10132000EC912E2B2C938FBFEACFEF92FF920F936D
:101330001F93CF93DF938C01095F1F4FD0E0C0E074
:10134000E62EF12C61E0F80181918F01B2DFB70147
:101350000C2E02C0759567950A94E2F76170F8014A
:10136000319780812FDE2196C430D10559F760E096
:1013700084E028DE61E084E025DE60E084E022DEB7
:1013800083EC90E00197F1F7CDB7DEB7E6E00C947F
:10139000E92A1F93CF93DF93EC01162F642F8CE083
:1013A00011DE612F70E084E0759567958A95E1F70D
:1013B000CE01BBDF612FCE01B8DFDF91CF911F914E
:1013C000089540E061E08EE198E0E3DF8BEF98E183
:1013D0000197F1F70895E62FF0E0E25EF74F63859D
:1013E000680F606840E08EE198E0D3CF0895CF9316
:1013F000DF93EC01862F642FEEDFBE018EE198E0D3
:101400002EDBDF91CF91089542E068E08BE194E01C
:10141000EEDF42E061E08BE194E0E9CF089541E046
:10142000B8CF08950F931F93CF93DF93EB0198E00C
:10143000899FB0011124606440E08EE198E0A9DF4B
:101440008E01085F1F4FFE0164918EE198E0E7DF97
:1014500021960C171D07B9F7DF91CF911F910F91BE
:101460000895CF9362E080E0B6DFC4E160E28EE1F0
:1014700098E0D5DFC150D1F7CF910895CF92DF9298
:10148000EF92FF921F93CF93DF93CDB7DEB76497B0
:101490000FB6F894DEBF0FBECDBF7C0110E0D701C0
:1014A0001C968C911817A8F5612F80E094DFF70146
:1014B00083856EE3811360E28EE198E0B0DFD701AF
:1014C0001A96EC911A97E10FFF27FF1FCF01880FA3
:1014D000991F1596ED91FC91E80FF91F8591949154
:1014E000DC01ED91FC910190F081E02D44E1BE0121
:1014F0006F5F7F4F0995FE0131966F01D6016D91A7
:101500006D01662321F08EE198E089DFF7CF1F5F40
:10151000C6CF64960FB6F894DEBF0FBECDBFDF9185
:10152000CF911F91FF90EF90DF90CF900895A6DFAD
:1015300060E084E092CD0895CF93CFB7F894809186
:10154000C903811123C0E7EAF2E08491E7E8F2E001
:101550009491E82FF0E0EE0FFF1FE859FD4FA591A1
:10156000B491EC91E92319F461E081E12BDD61E0B4
:1015700081E19FDE8CB580618CBD8CB580648CBDB3
:1015800061E08FE096DE61E080E193DE8091C90347
:101590008F5F8093C903CFBFCF9108958CB58C60C6
:1015A0008CBD8CB58F7D8CBD8CB58C7F81608CBDE6
:1015B0008DB581608DBDC0CF0895B0E0A0E0E3EEB1
:1015C000FAE00C94C22A382E2A013B014801590145
:1015D000E5DFCFE2D8E060E08885F4DC832D79DCBC
:1015E000898780E076DC80E074DC80E072DC80E07B
:1015F00070DC61E08885E6DC60E08885E3DC832DD3
:1016000068DC898780E065DC082F80E062DCC82E1A
:1016100080E05FDC182F80E05CDCD12CF12CE12C29
:10162000D02AFE2CED2CDC2CCC24C12AFE2CED2C57
:10163000DC2CCC24C82A61E08885C4DCB301A2017B
:101640004C255D256E257F25482159216A217B2166
:101650004C255D256E257F25832D99DD8985CDB7A8
:10166000DEB7E1E10C94DE2A0F931F9394E0899F8B
:10167000F0011124EA55FE4F00811181228133814E
:10168000082E04C0000F111F221F331F0A94D2F727
:10169000462F50E070E060E004C0440F551F661F05
:1016A000771F8A95D2F78CE688DF809138081F91E2
:1016B0000F9108951F93CF93DF93182FEB0161E0F3
:1016C000F8DD209739F460E0812F7CDCDF91CF9149
:1016D0001F910895CF3FD10511F461E0F5CFE12FBF
:1016E000F0E0E750FF4FE491E150EF3008F07CC0AC
:1016F000F0E0E358F44F0C94BB2A8C0B910B960B43
:10170000A00BAA0BF40BF40BF40BB40BBE0BC80B21
:10171000D20BDF0BF40BE70B84B5806884BDC7BD2B
:10172000D5CF84B5806284BDC8BDD0CF8091800004
:10173000806880938000D0938900C0938800C6CFD2
:1017400080918000806280938000D0938B00C09352
:101750008A00BCCF80918000886080938000D09305
:101760008D00C0938C00B2CF8091900080688093F0
:101770009000D0939900C0939800A8CF80919000DA
:10178000806280939000D0939B00C0939A009ECF7C
:1017900080919000886080939000D0939D00C093CA
:1017A0009C0094CF8091C00080688093C00080919D
:1017B000C0008F7B8093C000C093CF0087CF809103
:1017C000C00080628093C000C093D0007FCF809122
:1017D000C20088608093C2008091C2008B7F80939A
:1017E000C200C093D20072CFC038D1050CF075CFC3
:1017F0006ACF282F30E0AFEFB0E00E94AC2A24E699
:1018000030E040E050E00E945E2AB90186E052CF0D
:101810000895CF93DF9390E0FC01E459FE4FD0810F
:1018200082599E4FFC01C0816623E1F0A62FB0E0F3
:1018300021E03FEF4FEF5FEF0E947A2A24E630E08D
:1018400040E050E00E945E2ACA01B90161507F4F1A
:101850008F4F9F4F8C2F2EDF61E08D2FFEDBDF91AE
:10186000CF91089560E08D2FF8DB60E08C2FAADB2C
:10187000F6CF682F81E0CDCF0895682F80E0C9CFE3
:101880000895CF93DF93C7EDD3E0688180E0C1DF97
:10189000698181E0BEDFDF91CF910895FC0116865A
:1018A00081E0878B81E090E0A0E0B0E082879387C1
:1018B000A487B5878689811106C080913A01882363
:1018C000E1F08230F1F4178A80E193E022E233E024
:1018D000309319052093180590930E0580930D05FC
:1018E0000084F185E02D80818093D70381818093EE
:1018F000D8031092CD03C5CF08951286138614869F
:1019000015868FE093E0E2CF08953FB7F894809179
:10191000950390919603A0919703B091980326B5F3
:10192000A89B05C02F3F19F00196A11DB11D3FBF17
:10193000BA2FA92F982F8827BC01CD01620F711DE6
:10194000811D911D42E0660F771F881F991F4A95E0
:10195000D1F708958F929F92AF92BF92CF92DF926C
:10196000EF92FF924B015C01D0DF6B017C01CDDF78
:101970006C197D098E099F09683E734081059105A8
:10198000B0F321E0821A9108A108B10888EEC80ED0
:1019900083E0D81EE11CF11C81149104A104B10460
:1019A00031F7FF90EF90DF90CF90BF90AF909F9076
:1019B0008F9008956CED70E089E07CDE62E370E06A
:1019C00080E090E0C7DF60E089E0FCDA6AEF70E079
:1019D00080E090E0BFDF6CED70E089E06BDE62E3F9
:1019E00070E080E090E0B6DF60E089E0EBCA089547
:1019F0002FB7F894609191037091920380919303B3
:101A0000909194032FBF0895CF92DF92EF92FF92AF
:101A10000F931F93CF938C01C62F862F8F7029F0C1
:101A20008FEF9FEFF80196878587C6FF4AC0E09148
:101A30002201F091230181899289892B09F441C007
:101A400060914B0870914C0880914D0890914E0820
:101A500038EEC32E33E0D32EE12CF12CA7019601F2
:101A60000E948A2A2F3F3F4F61F1CEDCE091220194
:101A7000F091230181899289892B19F1858983FF4E
:101A800020C060914B0870914C0880914D08909156
:101A90004E08A70196010E948A2A2B3382E038075C
:101AA00008F07AC0C9014E960E94B2048CED93E012
:101AB00042E068E09CDC9CDFF801638B748B858BD3
:101AC000968BC7FF4AC0E0912201F09123018189E2
:101AD0009289892B09F441C060914B0870914C08A0
:101AE00080914D0890914E0828EEC22E23E0D22E10
:101AF000E12CF12CA70196010E948A2A2F3F3F4F2B
:101B000061F182DCE0912201F091230181899289C7
:101B1000892B19F1858983FF20C060914B08709152
:101B20004C0880914D0890914E08A70196010E94A3
:101B30008A2A85EE93E02E31310530F0C9014E97A7
:101B40000E94B20482EE93E042E061E050DC50DF9C
:101B5000F801638B748B858B968BC4FF12C0E09168
:101B60002201F0912301858985FD11C0F80187814B
:101B70009085CF911F910F91FF90EF90DF90CF90C4
:101B80000895C5FF06C0E0912201F091230181E094
:101B9000868790E080E0EDCF8FED93E089CFB0E0D5
:101BA000A0E0E5EDFDE00C94CB2AEC0121DF0F85F0
:101BB000188929893A896B017C01C01AD10AE20A85
:101BC000F30A970186014D855E856A01F12CE12CAF
:101BD000C016D106E206F30658F46F87788B898B1E
:101BE0009A8BE881F9810280F381E02DCE0109957D
:101BF000CDB7DEB7E8E00C94E72ACF93DF93EC0192
:101C0000F7DE6F87788B898B9A8BCE0137DCDF917B
:101C1000CF910895CF92DF92EF92FF92CF93DF930F
:101C2000C62FD42F90E0B0E0A0E06C017D0121E050
:101C3000C21AD108E108F1086623C1F14FE15FE162
:101C400065E070E080E1A3DA64E088E10DDDAAECF4
:101C5000BFEFA70196010E94862A29E030E040E00C
:101C600050E00E945E2ADA01C9018A5B9F4FAF4FA4
:101C7000BF4FDD2361F080932101C0E0C093CE030C
:101C8000DF91CF91FF90EF90DF90CF9008958093F8
:101C9000200188EC80932101ABDE6093CF03709329
:101CA000D0038093D1039093D203E8CF4AE05AE067
:101CB00060E070E080E16BDA60E088E1D5DCADE304
:101CC000BFEFA70196010E94862A29E030E040E09C
:101CD00050E00E945E2A24523F4F4F4F5F4F2093A7
:101CE0002101CCCFB0E0A0E0E8E7FEE00C94CB2AE5
:101CF000EC018E85811103C08C8D811108C05ADEE4
:101D00008A819B81CDB7DEB7E8E00C94E72A70DECC
:101D10000A851B852C853D856B017C01C01AD10A83
:101D2000E20AF30A970186010B3F110521053105EF
:101D300018F490E080E0E6CF6A877B878C879D87E8
:101D4000EA8DFB8D09959D8D981799F38D8F8823CA
:101D500041F08E899F899D838C838C8D81508C8FDF
:101D6000E8CF888D998DF7CFCF93DF93EC011E8656
:101D7000EA8DFB8D09958D8F882371F08E899F895F
:101D80009D838C838AE08C8F33DE6A877B878C8788
:101D90009D87DF91CF910895888D998DF1CFCF9256
:101DA000DF92EF92FF92CF93DF93EC018F898E87C2
:101DB0001FDE6B017C018A859B85AC85BD85009704
:101DC000A105B10591F0A7019601281B390B4A0B1B
:101DD0005B0BDA01C901893E9340A105B10528F0EA
:101DE000E9DDCA86DB86EC86FD868E85882349F090
:101DF0008A819B81DF91CF91FF90EF90DF90CF9010
:101E0000089590E080E0F6CFCF93DF93EC01EB896B
:101E1000FC89309771F06D896295617040E0808136
:101E2000F9DE8091710082608093710060E084E04F
:101E300014D98D8982FF16C061E08BE00ED9D8DD00
:101E40006093D3037093D4038093D5039093D60308
:101E500088E198E20FB6F894A895809360000FBED1
:101E60009093600089899A89892B39F010925808DB
:101E700080915708811110925708BADD6A877B87D5
:101E80008C879D87DF91CF9108950F931F93CF93F8
:101E9000DF938C01C0912201D091230189899A8915
:101EA000892B51F080915808882371F0CE0156D9C2
:101EB000892B11F4CE01A8DFF80185819681DF918D
:101EC000CF911F910F910895CE018FD9F5CFCF9368
:101ED000DF93EC011E86E885F98580818093D70326
:101EE00081818093D8031092CD03CBDCE989FA89F4
:101EF000309771F080818C3308F08BE39D8991706D
:101F0000909359082CE3829FC00111240E94B204CF
:101F10008D89867069F01BD9811107C089899A89DA
:101F2000892B59F4CE0161D905C00AD98111F6CFA8
:101F3000CE016ADFDF91CF91089510925808809109
:101F40005708882379F310925708ECCF40911C0171
:101F500050911D0160911E0170911F01FC01448F81
:101F6000558F668F778F21E022A3B1CF08954091DE
:101F700018015091190160911A0170911B01FC0127
:101F8000478B508F618F728FA2CF0895FC01148E02
:101F900084E6858F178E168E8FEF9FEF91A380A317
:101FA00088E790E093A382A381E084A385A3CF0177
:101FB0008ECF0895CF93DF93EC018AE08C8F84EB72
:101FC00090E09E8F8D8F81E08F8F88A3CE017FDF81
:101FD00040E06F8D8C8D1EDEDF91CF910895CF9202
:101FE000DF92EF92FF92CF93DF93EC0189899A8978
:101FF000892B09F461C08091570881115DC08091DF
:102000005808811159C0F4DCDC01CB014091430830
:10201000509144086091450870914608C090470867
:10202000D0904808E0904908F0904A088C199D0922
:10203000AE09BF0984179507A607B707E8F1809195
:102040004B0890914C08A0914D08B0914E082091FA
:102050005908222309F444C0C0905308D090540872
:10206000E0905508F09056088C159D05AE05BF050B
:1020700068F4840F951FA61FB71F80934B08909399
:102080004C08A0934D08B0934E080DC081E080939A
:1020900058088093570810924B0810924C081092E1
:1020A0004D0810924E08A4DC6093470870934808CE
:1020B0008093490890934A088E85811108C08989C8
:1020C0009A89892B21F180915708882301F18A810F
:1020D0009B81DF91CF91FF90EF90DF90CF9008959B
:1020E0000097A105B10529F0841B950BA60BB70B32
:1020F000C4CF81E08093580880935708809153089B
:1021000090915408A0915508B0915608B6CF80918F
:10211000CC03882379F08EEC92E0909301058093B4
:1021200000058FEB92E09093F6048093F50481EF25
:1021300094E0CFCF8D8981FF2DC0C0901801D09041
:102140001901E0901A01F0901B0120E030E0A90194
:10215000C701B6010E945D2B87FF09C084E893E0A8
:10216000909301058093000582E993E0DCCF20E0A5
:1021700030E04CE852E4C701B6010E94AC2C1816BE
:102180004CF484E893E0909301058093000586EB7E
:1021900092E0C9CF8A859B85AC85BD85892B8A2B2A
:1021A0008B2B19F490E080E094CF22DCCA84DB848E
:1021B000EC84FD846C197D098E099F09613D77408F
:1021C0008105910578F38D8981FFECCF2091430142
:1021D00030E0AFEFB0E00E94AC2A24E630E040E00F
:1021E00050E00E945E2AB90183E064DA61E087E092
:1021F0000E942D081A861B861C861D86D3CFCF937E
:10220000DF93EC0120E030E0A9016C8D7D8D8E8D97
:102210009F8D0E945D2B87FD0FC020E030E0A9015B
:1022200060911C0170911D0180911E0190911F0110
:102230000E945D2B87FF11C085EA93E09093010512
:102240008093000582E993E09093F6048093F5046F
:1022500081EF94E0DF91CF91089560914B087091E8
:102260004C0880914D0890914E0828EE33E040E0F4
:1022700050E00E948A2A2150310988A199A1821731
:10228000930721F039A328A381E08AA3CE01A7DE1A
:10229000E1CFCF93DF93EC0160914B0870914C0834
:1022A00080914D0890914E0828EE33E040E050E0D8
:1022B0000E948A2A2130310539F520E030E040E2E1
:1022C00051E46F89788D898D9A8D0E94F92A209129
:1022D00018013091190140911A0150911B010E947F
:1022E000AC2C18168CF484E893E09093010580934D
:1022F000000587E793E09093F6048093F50481EF5F
:1023000094E0DF91CF910895CE0169DEFACFCF93AB
:10231000DF93EC0160914B0870914C0880914D085F
:1023200090914E0828EE33E040E050E00E948A2A67
:10233000C9016AA17BA16217730709F467C03BA3B7
:102340002AA361E06DA3009709F460C0019764E1DE
:1023500070E00E94012A892B09F058C08C8D2091D1
:10236000300130913101811113C0232BF9F08DE53B
:1023700093E0909301058093000589E493E09093A6
:10238000F6048093F50481EF94E0DF91CF910895F6
:102390004E8D5F8D4217530748F08DE593E0909383
:1023A00001058093000588E393E0E9CF2091320195
:1023B000309133019D8D911105C0232B59F08BE293
:1023C00093E0D7CF48A159A12417350718F08BE225
:1023D00093E0E5CF8436D0F48C5E8C8F94E6981B26
:1023E0009D8F8093D7039093D8031092CD0349DA41
:1023F00081E08CA380913001909131019F8F8E8F6D
:10240000809132019091330199A388A3CE01E7DD39
:10241000BCCFCF93DF93EC0160914B0870914C08D7
:1024200080914D0890914E0828EE33E040E050E056
:102430000E948A2AC9016D8D7E8D62177307A1F0F3
:102440003E8F2D8F009781F069E070E00E94012A95
:10245000892B51F48C8D815061F08C8F41E06F8D10
:102460008C8DD8DB81E088A3CE01B9DDDF91CF91DF
:1024700008958AE08C8F1F8EF1CFCF93DF93EC010C
:1024800080913E018823A1F0EE81FF81608170E0A0
:1024900090E080E00E94FC2B20912C0130912D01D6
:1024A00040912E0150912F010E945D2B18162CF0A7
:1024B0008A819B81DF91CF910895CE0190DDFACF83
:1024C000B0E0A0E0E6E6F2E10C94C82A8C01FB0142
:1024D000EA01922E9AE0A92EB12C209711F1BE01AB
:1024E000CF010E94EE296B017C01D801ED91FC9196
:1024F0000190F081E02D672B19F4C130D10569F40A
:1025000060E36C0DC801099580E3982EF701CE01B8
:10251000B5010E94012AEB01E0CF692DC8010995A0
:10252000F5CFCDB7DEB7EBE00C94E42AB0E0A0E045
:10253000ECE9F2E10C94CB2A8C01CB01BA012DEC31
:102540003CEC4CE45DE30E94F92A6B017C010E94A3
:10255000CE2BC62FD0E020E244E650E0BE01C801F9
:10256000AFDFD801ED91FC910190F081E02D6EE29A
:10257000C8010995BE01DD0F880B990B0E94FC2B49
:102580009B01AC01C701B6010E94F82A20E030E0AF
:1025900040E251E40E94B02C0E94CE2B70E020E279
:1025A00041E050E0C8018CDFCDB7DEB7E8E00C9425
:1025B000E72AA4E1B0E0EFEDF2E10C94C92A8C0126
:1025C0008091220190912301DC0151962D913C9143
:1025D000232B09F43FC0209158082223D9F10E94EF
:1025E000AE087C01892B21F48DECE82E83E0F82ED7
:1025F000D80119968D919C918E159F0551F00E94DE
:10260000E10940E061E0C7010E94F709F801F286A4
:10261000E186A0902201B0902301D5011496ED909F
:10262000FC90E114F104D1F0F801838594858E15B6
:102630009F0561F00E94310AD8011C96FC92EE922F
:102640001B9742E061E0C7010E94F7096496EAE047
:102650000C94E52AFC01E784F088CACFC9D96B0144
:102660007C01F50181899289892B21F0809158089C
:1026700081112BC060E083E10E94EB09D8015796DD
:10268000EC91F0E0E852FC4F64918EE198E00E94FA
:102690000F0AF80187859089A189B289A70196015F
:1026A000281B390B4A0B5B0BDA01C90185369105F2
:1026B000A105B10550F0C786D08AE18AF28A8789E0
:1026C0008F5F843008F0AFC0878BF80183899489CD
:1026D000A589B6890097A105B105A1F0C81AD90A44
:1026E000EA0AFB0AF9EECF16F3E0DF06E104F10493
:1026F00048F00E94040AD80153961D921D921D9223
:102700001C925697E0912201F091230181899289D0
:10271000892B09F466C060914B0870914C08809138
:102720004D0890914E0828EE33E040E050E00E94C2
:102730008A2A79012F3F320709F453C0F8018585B1
:1027400096858217930709F44CC03687258762E087
:1027500083E00E94EB09C7016CE370E00E94012A4C
:102760008C01772720E34AE050E08EE198E0A8DE74
:102770006AE38EE198E00E940F0A20E34AE050E00D
:10278000B8018EE198E09CDEE0912201F0912301F6
:10279000858986FF4AC0C0902C01D0902D01E09021
:1027A0002E01F0902F0120E030E0A901C701B60111
:1027B0000E94AC2C1816ACF462E08CE00E94EB098D
:1027C000B701A6018EE198E0B1DE8091410164ED90
:1027D00073E0882311F06CEE74E08EE198E00E94C3
:1027E0002F058091220190912301DC01ED91FC9154
:1027F0000480F581E02D44E1BE016F5F7F4F0995B4
:102800008823F1F062E08CE00E94EB098E010F5FFB
:102810001F4FF80161918F01662391F08EE198E0DE
:102820000E940F0AF6CF178A50CF87FFDACFC090E9
:102830002801D0902901E0902A01F0902B01B3CF1C
:102840008091220190912301DC01ED91FC910680A1
:10285000F781E02D44E1BE016F5F7F4F099588232A
:1028600009F4F4CE63E081E00E94EB098E010F5F72
:102870001F4FF80161918F01662309F4E7CE8EE1C5
:1028800098E00E940F0AF5CF1F93CF93DF93EC01DE
:1028900040E061E08A819B810E94F709EF81F88521
:1028A000108162E085E00E94EB09612F70E020E278
:1028B00044E650E08EE198E003DE6D817E818EE19A
:1028C00098E00E942F05DF91CF911F910895EF921C
:1028D000FF921F93CF93DF93FC0112A11123D1F03C
:1028E000EC017C01F6E1EF0EF11C798F688F4A8FC5
:1028F00064EB73E0C7010E942F0560913401709171
:10290000350120E240E157E2C701DADDE88DF98DBB
:1029100010821AA2812FDF91CF911F91FF90EF902B
:102920000895FF920F931F93CF93DF93FC01F5A0BF
:10293000FF2039F1EC018C010A5E1F4F718F608F0F
:10294000428F63E773E0C8010E942F056091300158
:102950007091310120E240E157E2C801B1DD6DE63E
:1029600073E0C8010E942F0560913201709133011C
:1029700020E240E157E2C801A3DDE88DF98D108225
:102980001DA28F2DCDB7DEB7E5E00C94EA2AFF92A9
:102990000F931F93CF93DF93FC01F4A0FF20F1F07E
:1029A000EC018C010A5E1F4F718F608F428F648D26
:1029B00070E020E244E650E0C80182DD6BE673E09F
:1029C000C8010E942F056D8D70E020E244E650E0C2
:1029D000C80176DDE88DF98D10821CA28F2DCDB750
:1029E000DEB7E5E00C94EA2A1F93CF93DF93EC0166
:1029F00018A11123B1F08F8D811118C083E4FB0160
:102A00008193F98FE88F41504A8F6C8D70E020E3FD
:102A10004AE050E0CE01469653DDE88DF98D1082F4
:102A200018A2812FDF91CF911F91089587E5E7CFFD
:102A30001F93CF93DF93EB01142F4FEF410F50E023
:102A4000FB01E40FF51F108260E270E0CE010E94EE
:102A5000132DE0912201F091230181899289892B24
:102A600031F080915808E2E1F4E0811102C0ECE01D
:102A7000F4E08491115029F0882319F0899331965C
:102A8000F8CFCE01DF91CF911F910895EF92FF9281
:102A90001F93CF93DF937C01EB018FEF840FFB013A
:102AA000E80FF11D1082D70114969C91992331F003
:102AB0008EEF840FFB01E80FF11D908311E0180FDA
:102AC000482F50E060E270E0CE010E94132DD70144
:102AD0001296ED91FC918491115029F0882319F000
:102AE00089933196F8CFCE01DF91CF911F91FF905E
:102AF000EF900895FF920F931F93CF93DF93EC0114
:102B00008B01F42E0E94A008882369F084E094E0F1
:102B10009B838A834F2DB801CE01B8DFCDB7DEB7D6
:102B2000E5E00C94EA2AE88DF98D8081813029F066
:102B3000823031F48DEF93E0EBCF86EF93E0E8CF76
:102B400088EE93E0E5CFEF92FF920F931F93CF9320
:102B5000DF938C017B01C42F99DFD8011996ED9189
:102B6000FC911A972081222399F01596ED91FC9102
:102B700024910196CE0DDF2DD11D8C179D0760F499
:102B8000222351F0DC012D93CD0131962491F5CF14
:102B90001796ED91FC91ECCFCDB7DEB7E6E00C9443
:102BA000E92AEF92FF921F93CF93DF93EC017B0111
:102BB000142F6CDFA701410F511D98878F83481B8D
:102BC00047FD40E04987EA85FB854081518162816C
:102BD0007381CE010596AADC8F819885DF91CF9114
:102BE0001F91FF90EF900895EF92FF921F93CF9364
:102BF000DF93EC017B01142F49DFA701410F511D29
:102C000098878F83481B47FD40E04987EA85FB850D
:102C10006081718120E240E157E2CE01059650DCEF
:102C20008F819885DF91CF911F91FF90EF9008954C
:102C3000B0E0A0E0EEE1F6E10C94CC2AEC0140E03B
:102C400061E08A819B810E94F7090E94310AED812F
:102C5000FE81D080ED2CF12CC701880F991FEF81E8
:102C6000F885E80FF91F05911491C8010E94222AE6
:102C7000282FDD2011F022E0280F89858150990B43
:102C8000E816F9060CF42E5F84E190E0821B9109AE
:102C900097FD01969595879562E00E94EB09ED817D
:102CA000FE818081882331F06AEC73E08EE198E048
:102CB0000E942F05B8018EE198E00E942F05ED815A
:102CC000FE81208189858150990B2817190634F4DB
:102CD00067EC73E08EE198E00E942F05CDB7DEB778
:102CE000E7E00C94E82A0F931F93CF938B01C42F36
:102CF000CDDEA8014C0F511D481B40310CF04FE0B8
:102D0000042E000C550B60EE7FE70E94392ACF910C
:102D10001F910F910895B0E0A0E0E1E9F6E10C9475
:102D2000CC2A8C01EB017B01E40EF51ED990C80181
:102D30000E94482AD81621F06D2DC8010E94502A01
:102D40000F5F1F4FEC16FD0689F7CDB7DEB7E7E042
:102D50000C94E82AA6E0B0E0E0EBF6E10C94D12A6E
:102D600046E050E068EB73E0CE0101960E94392AFC
:102D700046E050E0BE016F5F7F4F80E893E0CBDF1D
:102D800047E150E066E371E086E893E0C4DF269611
:102D9000E2E00C94ED2A1F93CF93DF93EC01162F02
:102DA00066FF12C0ED81FE81808129852150330BA1
:102DB000821713064CF48F5F8083E881F9810280CB
:102DC000F381E02DCE01099517FF0EC0ED81FE8144
:102DD0008081882349F081508083E881F9810280D5
:102DE000F381E02DCE01099590E080E014FF02C050
:102DF000B1DFCE01DF91CF911F910895CF93DF9383
:102E0000EC01E985FA8581E09081911180E0808371
:102E1000A1DFCE01DF91CF910895B0E0A0E0E3E122
:102E2000F7E10C94C22AEC0110E034EDC32E33E03C
:102E3000D32E48E6342E54E4852E6CEEA62E64E0A4
:102E4000B62E08E274E1972E8D85181708F06CC035
:102E5000812F90E0880F991FEB85FC85E80FF91F03
:102E6000A591B491E985FA8580811796ED90FC9043
:102E7000189781112EC01696BC92AE92159719968E
:102E80000C9319971A969C92F701608170E090E07C
:102E900080E00E94FA2B20E030E040E052E40E9403
:102EA000F82A26E636E646EE5FE30E94612B2B0108
:102EB0003C0120E030E0A9010E94AC2C87FF26C035
:102EC00020E030E040E05FE3C301B2010E94F82A55
:102ED00025C01696DC92CE92159719963C921997BA
:102EE0001A968C92F701608170E090E080E00E9479
:102EF000FA2B26E636E646EE5FE30E94B02C20E091
:102F000030E040E052E40E94F92AD1CF20E030E0E6
:102F100040E05FE3C301B2010E94F92A0E94C92B7D
:102F2000F70160831F5F90CFCE0168DFCE01CDB780
:102F3000DEB7E1E10C94DE2A1F93CF93DF93EC011F
:102F4000162F66FF06C0E881F9810684F785E02D1B
:102F5000099517FF07C0E881F9810088F189E02D04
:102F6000CE01099590E080E014FF02C0F3DECE01AF
:102F7000DF91CF911F910895EF92FF920F931F93CE
:102F8000CF93DF938B01040F151FEB017C01E61A31
:102F9000F70AC7018C0F9D1F0E94482A8993C0170A
:102FA000D107B9F7CDB7DEB7E6E00C94E92AB0E077
:102FB000A0E0EDEDF7E10C94C42A04E812E01093D0
:102FC00022050093210510922405109223051092EA
:102FD000260510922505109228051092270534E445
:102FE000E32E31E0F32EF0922A05E09229051092AB
:102FF0002B0510922C0510922D0510922E05109283
:103000002F0580EE94E09093310580933005109267
:103010003305109232051092350510923405109246
:10302000360560E089E095E00E94800661E081EF6E
:1030300094E00E9480061093DC040093DB0489E096
:1030400095E09093DE048093DD041092E0041092EA
:10305000DF041092E2041092E10426E431E03093A0
:10306000E4042093E3041092E5041092E604109225
:10307000E7041092E8041092E90428ED34E030935C
:10308000EB042093EA0428E331E03093ED0420932D
:10309000EC0446E3A42E41E0B42EB092EF04A092DB
:1030A000EE0428E12093F0041093C6040093C504B5
:1030B0009093C8048093C7041092CA041092C90464
:1030C0001092CC041092CB0428E431E03093CE046B
:1030D0002093CD041092CF041092D0041092D1040A
:1030E0001092D2041092D30441ED54E05093D504D1
:1030F0004093D4044BE351E05093D7044093D6045B
:10310000C7E3D1E0D093D904C093D8046CE46093B2
:10311000DA041093B0040093AF049093B204809348
:10312000B1041092B4041092B3041092B604109239
:10313000B5044AE451E05093B8044093B7041092A8
:10314000B9041092BA041092BB041092BC041092FD
:10315000BD04EAECF4E0F093BF04E093BE04E9E3BD
:10316000F1E0F093C104E093C004D093C304C09392
:10317000C2047AE47093C40410939A0400939904EF
:1031800090939C0480939B0410929E0410929D0443
:1031900070E4C72E71E0D72ED092A004C0929F0495
:1031A0003093A2042093A1041092A3041092A404CB
:1031B0001092A5041092A6041092A704E2ECF4E089
:1031C000F093A904E093A804E2E4F1E0F093AB04E7
:1031D000E093AA04D093AD04C093AC046093AE0412
:1031E000109286041092850410928804109287042D
:1031F000EFE38E2EE1E09E2E90928A048092890465
:1032000030938C0420938B0410928D0410928E04C2
:1032100010928F041092900410929104AAEBB4E0E3
:10322000B0939304A0939204E7E2F1E0F093950445
:10323000E0939404D0939704C093960465E4562ECB
:103240005092980468E772E070938404609383045A
:103250000F2EF9E96F2EF4E07F2EF02D7092070605
:10326000609206061092090610920806D0920B068C
:10327000C0920A0630930D0620930C0610920E069B
:1032800010920F061092100610921106109212065C
:10329000B0931406A0931306F0931606E093150658
:1032A000D0931806C093170650921906709305061E
:1032B0006093040610937B0500937A0590937D0537
:1032C00080937C0510927F0510927E0510928105F7
:1032D0001092800565E271E070938305609382052A
:1032E000109284051092850510928605109287052C
:1032F0001092880561EB74E070938A0560938905EC
:1033000064E271E070938C0560938B0510928E05DA
:1033100010928D0568E060938F059093630480930D
:103320006204109265041092640410926704109273
:103330006604309369042093680410926A04109222
:103340006B0410926C0410926D0410926E0485EA66
:1033500094E09093700480936F048BE794E09093D3
:10336000720480937104109274041092730484E4C4
:1033700080937504109279041092780410927A0464
:1033800086E692E0909361048093600482E792E085
:1033900090937704809376040AE000937B04109264
:1033A0007C0410927D0410927E0410927F0410928F
:1033B0008104109280041092820480E694E090933D
:1033C00048048093470410924A04109249041092D2
:1033D0004C0410924B0450934E0440934D041092B1
:1033E0004F04109250041092510410925204109203
:1033F00053048AE994E090935504809354048BE538
:1034000094E09093570480935604109259041092BC
:10341000580482E880935A048AE592E09093460427
:103420008093450400935B0410925C0410925D0449
:1034300010925E0410925F0485E494E0909322045D
:1034400080932104109224041092230410922604E5
:10345000109225048BE394E0909328048093270432
:103460001092290410922A0410922B0410922C041A
:1034700010922D0480E994E090932F0480932E0401
:103480008AE394E0909331048093300410923304E3
:1034900010923204109234041092380410923704BF
:1034A0001092390488E492E09093200480931F04E2
:1034B00084E592E0909336048093350412E01093F3
:1034C0003A0410923B0410923C0410923E04109275
:1034D0003D041092400410923F0410924204109256
:1034E000410410924304109244048FE194E09093BD
:1034F00001048093000410920304109202041092BD
:10350000050410920404F0920704E092060410925D
:1035100008041092090410920A0410920B041092ED
:103520000C0482E894E090930E0480930D0489E1EA
:1035300094E09093100480930F048AE194E09093B8
:103540001204809311041092130410921704109225
:1035500016041092180486E392E09093FF03809380
:10356000FE0382E492E0909315048093140483E0B8
:10357000782E7092190410921A0410921C04109262
:103580001B0410921D0410921E048EEF93E0909382
:10359000E3038093E2031092E5031092E403109298
:1035A000E7031092E603F092E903E092E803109239
:1035B000EA031092EB031092EC031092ED031092C9
:1035C000EE0384E794E09093F0038093EF0310926E
:1035D000F2031092F1031092F4031092F30310928D
:1035E000F5038AE292E09093E1038093E00324E6FE
:1035F00034E03093F7032093F60324E534E030936E
:10360000F9032093F80320EA38E03093FB0320937A
:10361000FA031092FC031092FD0320EE33E0309386
:1036200047052093460510924905109248051092CF
:103630004B0510924A05F0924D05E0924C05109210
:103640004E0510924F0510925005109251051092A0
:10365000520529E434E03093540520935305109229
:103660005605109255051092580510925705109264
:10367000590590934505809344058AE394E090931F
:103680005B0580935A058AE294E090935D058093F0
:103690005C0587EA98E090935F0580935E05109241
:1036A0006005109261058CE793E090931A0880936F
:1036B000190823E238E030931C0820931B08FF24EC
:1036C000F394F0921D0890931508809314088EE1EE
:1036D00098E0909317088093160884E08093180868
:1036E0002CE349E351E06EE078E089E098E00E9445
:1036F0008D052CE34BE351E06EEF77E08EEF97E022
:103700000E948D052AE048E351E06DEE77E083EFFB
:1037100097E00E948D052EE142E451E06AED77E0EA
:1037200088EE97E00E948D0525E047EC57E061EDBB
:1037300077E08BED97E00E945A068AEB97E0909332
:10374000D3078093D2071093D40720EF34E030934F
:10375000D6072093D507D093D807C093D7070093F7
:10376000D907F092DA0786E693E09093D107809329
:10377000D0074CEA57E05093C8074093C70710930F
:10378000C9073093CB072093CA07B092CD07A09208
:10379000CC070093CE07F092CF079093C607809393
:1037A000C50723E047E957E06DE977E088EB97E04C
:1037B0000E945A068FE897E09093B0078093AF0776
:1037C0001092B10794E5A92E93E0B92EB092AE07FE
:1037D000A092AD072AE8E22E27E0F22EF092B3077E
:1037E000E092B207C4E8D7E0D093B507C093B4071E
:1037F0008EE391E09093B7078093B60782E797E056
:103800009093A5078093A4071093A6074CEE54E06D
:103810005093A8074093A7079092AA078092A90700
:1038200038E23093AB0724E12093AC0786E693E0BF
:103830009093A3078093A20761E677E070939A07BD
:103840006093990710939B0750939D0740939C07A3
:10385000D0929F07C0929E073093A0072093A107A4
:10386000909398078093970785E597E090938C074E
:1038700080938B0710928D0787EE94E090938F07CB
:1038800080938E0782EE94E0909391078093900747
:1038900081E491E0909393078093920782E493E010
:1038A00090938A078093890781E597E09093950725
:1038B000809394071093960725E04AE357E064E469
:1038C00077E08CE797E00E945A068DE297E09093AC
:1038D00074078093730710927507B0927207A092D5
:1038E0007107F0927707E0927607D0937907C0933B
:1038F00078078CE391E090937B0780937A0781E2CD
:1039000097E090936A078093690710936B0780E3B1
:1039100093E090936807809367078AE391E0909320
:103920006D0780936C078BE197E090936F0780930E
:103930006E077092700780913A01843010F01092F7
:103940003A0123E04FE057E065E177E08AE597E050
:103950000E945A062EE14AE451E06DEF76E08FE4D2
:1039600097E00E947A052EE14BE451E06BEE76E0A1
:1039700084E497E00E947A0523E043ED56E069ED88
:1039800076E087E397E00E945A062EE149E451E091
:1039900061EC76E08CE297E00E947A052EE148E443
:1039A00051E06FEA76E081E297E00E947A0523E039
:1039B00047E956E06DE976E084E197E00E945A0617
:1039C0002EE147E451E064E876E089E097E00E9468
:1039D0007A052EE146E451E061E776E08EEF96E06D
:1039E0000E947A0523E048E556E06EE576E081EF37
:1039F00096E00E945A062EE145E451E068E476E044
:103A000084EE96E00E947A05CAE1D3E0D093E50601
:103A1000C093E40689E39CE09093F0068093EF0660
:103A20002EE144E451E068E376E087ED96E00E9401
:103A30007A05D093D806C093D7068DE39CE0909387
:103A4000E3068093E20623E042E256E068E276E095
:103A50008AEC96E00E945A0625E043E156E06DE1CB
:103A600076E08DEB96E00E945A066EE076E088EBF9
:103A700096E00E94700688E093E09093B9068093E8
:103A8000B80663E076E083EB96E00E94700668EF8C
:103A900075E08EEA96E00E94700665EE75E089EAB0
:103AA00096E00E94700625E04FEC55E069ED75E068
:103AB0008CE996E00E945A0686EC95E09093950674
:103AC0008093940682E08093960680E393E090933F
:103AD0009306809392068DE391E0909398068093ED
:103AE000970680EC95E090939A068093990683E080
:103AF00080939B0680913D01843010F010923D012F
:103B000021E043E451E060EB75E087E896E00E9435
:103B10007A0525E04CE451E061EA75E08AE796E039
:103B20000E947A058AE193E090937B0680937A065F
:103B300089EF9BE0909386068093850627E04AE80C
:103B400055E068E975E08DE696E00E945A0681EE40
:103B500094E0909369068093680682E0F82EF092D4
:103B60006A0686EF92E0909367068093660689E185
:103B700098E090936C0680936B0623E043E855E051
:103B800069E875E089E596E00E945A0621E04FE673
:103B900055E061E775E08CE496E00E945A0684EEF9
:103BA00092E090934D0680934C0629E536E050E074
:103BB00040E070E060E082E396E00E945B0582ED09
:103BC00092E090933306809332068DE391E09093D8
:103BD0004B0680934A0629E536E044E056E061E66C
:103BE00075E08AE196E00E945B0525E047E555E037
:103BF00069E875E087EF95E00E945A066CE475E08D
:103C00008BEE95E00E9470061092F3051092F2057B
:103C10001092F4050AEB12E01093EC050093EB050B
:103C2000CCECD2E0D093F105C093F00580E391E0B5
:103C30009093F6058093F50561E475E08FED95E0CE
:103C40000E9470061092E7051092E6051092E805B2
:103C50001093E0050093DF05D093E505C093E405DC
:103C600082E391E09093EA058093E90564E375E0CF
:103C700083ED95E00E9470061092DB051092DA0544
:103C80001092DC0592EAA92E92E0B92EB092D405EA
:103C9000A092D30524EBC22E22E0D22ED092D905D9
:103CA000C092D8058CE291E09093DE058093DD050B
:103CB00067E275E087EC95E00E9470061092CF05F0
:103CC0001092CE051092D005B092C805A092C705FB
:103CD000D092CD05C092CC0588E291E09093D205B8
:103CE0008093D1056CE175E08BEB95E00E94700646
:103CF0001092C3051092C2051092C4051093BC0522
:103D00000093BB05D093C105C093C00584E391E047
:103D10009093C6058093C50526E040E155E069E82B
:103D200075E088EA95E00E945A0680E992E0909357
:103D3000A9058093A80588EE93E09093B60580933B
:103D4000B5051092B7051092B8051092B9051092FA
:103D5000BA0528EA35E04AE755E067E075E080E912
:103D600095E00E945B0530E020E044E455E06EEF12
:103D700074E082E695E00E945B0525E044EF54E0A4
:103D800069E875E087E395E00E945A0610922108E1
:103D900010922008109222088EE893E090931F085A
:103DA00080931E0880914D0190914E01A0914F018A
:103DB000B09150018093250890932608A09327087E
:103DC000B09328088091510190915201A091530124
:103DD000B09154018093290890932A08A0932B084E
:103DE000B0932C0861E08CE00E94590961E086E004
:103DF0000E94590961E086E00E94E20761E084E0E8
:103E00000E9459098BE39DE00197F1F760E08CE097
:103E10000E94E20760E084E00E94E20763E08EE136
:103E200098E00E949509CBE4D6E4CE010197F1F722
:103E300063E08EE198E00E9495092197F1F763E035
:103E40008EE198E00E94950983E592E00197F1F7F1
:103E500062E08EE198E00E94950940E068E28EE120
:103E600098E00E94C909CBEED0E0CE010197F1F7AE
:103E700084E08093230840E06CE08EE198E00E94AB
:103E8000C909CE010197F1F70E94E1098BED9EE28D
:103E90000197F1F7F092240840E066E08EE198E0A7
:103EA0000E94C9092197F1F71092390888E08093A0
:103EB0003A088FEF9FEF90933C0880933B08109255
:103EC00042081092410810923E0810923D0810924C
:103ED000400810923F0887E0809337081092380816
:103EE00061E088E00E94590961E080913A080E94EF
:103EF000E2070E949C0A60E080913A080E94E20773
:103F000080913908880F80640E9469078AE00E94C6
:103F1000690788E00E94690761E080913A080E9481
:103F2000E20767E970E080E00E940F0887E990E00F
:103F300090933C0880933B0863E870E08CE00E941B
:103F40000F0883E890E090933E0880933D0860E07E
:103F50008AE00E942D0860E089E00E942D0862E05E
:103F600084E10E94590962E085E10E94590961E0FB
:103F700089E00E94590961E085E00E94590961E0E9
:103F800083E00E94590961E08DE00E94590961E0D7
:103F90008BE00E94590960E086E10E9459090E9465
:103FA000EE08109271000E946B080E94540861E0B4
:103FB000809137080E94590961E0809137080E947A
:103FC000E2070E94CE0A0E94CE0A60E08091370884
:103FD0000E94E20780E00E9469078093380880E031
:103FE0000E94690780E00E94690780E00E946907DB
:103FF00080E00E94690761E0809137080E94E20733
:1040000064E088E10E94340B4AE05AE060E070E02E
:1040100080E10E94C70801E010E020E030E040E0CD
:1040200050E0BA0180E00E94DD0A61E08FE00E946A
:10403000340B68E080E00E94340B04E010E020E0E4
:1040400030E044E050E060E070E080E00E94DD0A93
:104050000E94A70880932E080E94A00880932D0834
:1040600081E090E0A0E0B0E08093430890934408A2
:10407000A0934508B093460810924708109248084C
:104080001092490810924A0810924B0810924C085E
:1040900010924D0810924E0810924F08109250083E
:1040A000109251081092520810925308109254081E
:1040B000109255081092560880935708809358081C
:1040C00010925908CDB7DEB7EFE00C94E02A1F92AA
:1040D0000F920FB60F9211242F933F934F935F933C
:1040E0006F937F938F939F93AF93BF93CF93DF9300
:1040F000EF93FF938091210190E09093990080933A
:10410000980061E085E00E94E207C3E0D0E0CE01C4
:104110000197F1F760E085E00E94E2072197F1F74F
:10412000FF91EF91DF91CF91BF91AF919F918F91CF
:104130007F916F915F914F913F912F910F900FBEA3
:104140000F901F9018951F920F920FB60F92112487
:104150002F933F934F935F936F937F938F939F938F
:10416000AF93BF93CF93EF93FF9384E10E94BC077B
:10417000C1E0019709F0C0E085E10E94BC0701970A
:1041800009F4C2608091DA038C1781F0C130C1F16B
:10419000F8F0C23059F1C33071F1C093DA03809165
:1041A000D9038D3794F18CE78093D903FF91EF9178
:1041B000CF91BF91AF919F918F917F916F915F91BF
:1041C0004F913F912F910F900FBE0F901F90189518
:1041D000813031F48091D9038F5F8093D903DDCF93
:1041E0008230D9F68091D9038150F7CF882391F39B
:1041F000833099F6F7CF823069F3813071F6F2CFD0
:10420000833041F38111C9CFEDCF8091D903843838
:104210006CF684E8C9CFA6E0B0E0E1E1F1E20C94ED
:10422000C22A789484B5826084BD84B5816084BDDF
:1042300085B5826085BD85B5816085BD80916E0044
:10424000816080936E001092810080918100826075
:1042500080938100809181008160809381008091B2
:1042600080008160809380008091910082608093C3
:1042700091008091910081608093910080919000E5
:104280008160809390008091C10084608093C10020
:104290008091C10082608093C1008091C1008160E3
:1042A0008093C1008091C30081608093C30080919E
:1042B000C00082608093C0008091C20081608093C2
:1042C000C20080917A00846080937A0080917A00A5
:1042D000826080937A0080917A00816080937A0076
:1042E00080917A00806880937A001092DF031092A8
:1042F000AA031092CB038091D70081608093D700EE
:1043000080EA8093D80089B5806189BD89B58260D3
:1043100089BD09B400FEFDCF61E070E080E090E06F
:104320000E94AA0C8091D8008F7C80618093D80075
:104330008091E000807F8093E0008091E1008E7E9C
:104340008093E1008DE08093E200559A209AEEEF91
:10435000FFE7859194918B3F9C4D19F481E0809308
:10436000A90346E050E0BE016F5F7F4F80E893E015
:104370000E94BC1746E050E068EB73E0CE01019666
:104380000E942B2A892B09F0DDC047E150E066E34B
:1043900071E086E893E00E94BC1780914C010E9476
:1043A000F90B68ED71E080E00E94120A60ED71E0A7
:1043B00081E00E94120A68EC71E082E00E94120A19
:1043C00060EC71E083E00E94120A68EB71E084E027
:1043D0000E94120A62E080E00E94590962E082E0D5
:1043E0000E94590989E195E09093090180930801A1
:1043F00080916900806380936900EA9A83E195E087
:104400009093070180930601809169008C608093EE
:104410006900E99A62E081E00E9459098DE095E027
:1044200090930B0180930A0180916900806C8093C6
:104430006900EB9AF8948FEA87BD80916E008260E4
:1044400080936E001092900010929100109295004F
:104450001092940088EC90E09093990080939800DB
:104460008091910088608093910080919100836099
:104470008093910010927100789480912201909124
:104480002301DC01ED91FC910190F081E02D099573
:10449000809141018111C8C024ED33E03093A80719
:1044A0002093A70798E69093AB0784E48093AC072A
:1044B00030939D0720939C079093A0078093A107BA
:1044C00082E996E09093FF058093FE0588EA95E0E7
:1044D0009093A4068093A306909361068093600650
:1044E00087E395E0909375068093740680910E01A2
:1044F00090910F01DC01ED91FC910680F781E02D98
:10450000099580910E0190910F01DC01ED91FC91D4
:104510000280F381E02D099543E050E060EE7FE7F3
:104520008CE591E082D708E733243394892B09F492
:104530001DC10E94E10941E060E084EA91E00E942F
:10454000F709FFCF46E050E06EE971E0CE01019639
:1045500082D7892B09F021CF109140014CE050E027
:1045600066E371E086E893E00E94BC178091410108
:10457000882319F01093400110CF60913F0170E043
:1045800090E080E00E94FA2B26E636E646EE5FE3F6
:104590000E94B02C20E030E040E052E40E94F92A72
:1045A0006B017C0120E030E0A9010E94AC2C20E0EE
:1045B00030E040E05FE387FD2FC0C701B6010E94F5
:1045C000F92A0E94C92B60933F01612F70E090E0AF
:1045D00080E00E94FA2B26E636E646EE5FE30E9474
:1045E000B02C20E030E040E052E40E94F92A6B0158
:1045F0007C0120E030E0A9010E94AC2C20E030E0FA
:1046000040E05FE387FD0CC0C701B601F2D70E940E
:10461000C92B60934001C1CEC701B601E9D7D1CF04
:10462000C701B601E5D7F3CF2CEE34E03093A807ED
:104630002093A70798E29093AB0784E137CF1092BD
:10464000CE034AE05AE065E070E080E10E94C708CE
:10465000CEC00E94E40460EE71E095958795959533
:1046600087950E944604BC01990F880B990B0E9404
:10467000FC2B20E030E040E251E40E94612B60938B
:104680001C0170931D0180931E0190931F012091C6
:10469000410121110BC026E636E646EE5FE30E949B
:1046A000B02C20E030E040E052E4A3D760932C012E
:1046B00070932D0180932E0190932F012CC180E0E7
:1046C00090E4ACE1B6E48093AC039093AD03A09387
:1046D000AE03B093AF0360C1412C512C68EC662E41
:1046E00062E4762E87C1412C512C50EF652E51E4A7
:1046F000752E80C11860DDC18091B0038111F0C1B9
:104700000E94F80C4090B1035090B2036090B30344
:104710007090B4036419750986099709693E73405E
:104720008105910508F4DCC13092B0031062D8C154
:10473000992309F4D5C18091B003882329F0109200
:10474000B0031092B503CCC11061FBCF8091D903A7
:104750008D3F0CF0D0C18091D9038C5F8093D90339
:104760001068C9C1E114F10409F070C28091FE0A19
:104770009091FF0A8737974709F0A8950E94F80C97
:104780006B017C018091CE03882389F18091CF0356
:104790009091D003A091D103B091D203A7019601CB
:1047A000281B390B4A0B5B0BDA01C901C297A10523
:1047B000B105E8F0C092CF03D092D003E092D103CC
:1047C000F092D2039091210180912001891708F085
:1047D00036CF809121018C3428F0809121018450C2
:1047E000809321018091210181508093210180914A
:1047F000BA039091BB03A091BC03B091BD03A70184
:104800009601281B390B4A0B5B0BDA01C901843F67
:104810009140A105B10548F1C092BA03D092BB0303
:10482000E092BC03F092BD038091DB03809FC00146
:10483000112490933101809330011092DB03809119
:10484000DC03809FC00111249093330180933201D7
:104850001092DC038091DD03809FC00111249093AE
:104860003501809334011092DD038091B60390915D
:10487000B703A091B803B091B903A7019601281B13
:10488000390B4A0B5B0BDA01C901843F9140A1054A
:10489000B10508F4D0C0C092B603D092B703E0923D
:1048A000B803F092B9037090AB03772009F4D1CE2E
:1048B0000E94E40464E272E095958795959587954A
:1048C0000E944604BC01990F880B990B95D720E0F4
:1048D00030E040E251E4F5D660931801709319017D
:1048E00080931A0190931B012091410121110BC06B
:1048F00026E636E646EE5FE30E94B02C20E030E08C
:1049000040E052E476D660932801709329018093A9
:104910002A0190932B01672D63256093AB038AE0F6
:104920000E942D086091CD03662309F484C070E0D5
:1049300090E080E061D79B01AC0160912C01709107
:104940002D0180912E0190912F0152D64B015C01D7
:104950002091AC033091AD034091AE035091AF0371
:1049600048D62B013C0120E030E44CE156E4F4D77A
:1049700018160CF4A4CE20E030E44CE156ECC30150
:10498000B2019BD687FD9BCE4092AC035092AD0303
:104990006092AE037092AF032FE632E143E85AE330
:1049A0006091AC037091AD038091AE039091AF0321
:1049B000D7D72B013C0120E030E040E251E4C501B3
:1049C000B401CED79B01AC01C301B20112D62B01B9
:1049D0003C0120E030E048EC52E4BED718160CF45D
:1049E0007BCE20E030E040EF51E4C301B20165D658
:1049F00087FD79CE6091D70370E090E080E0FCD62F
:104A0000A30192015AD681110DC06091D80370E0C4
:104A100090E080E0F1D69B01AC01C301B2014DD61C
:104A2000882349F0C301B201B9D66093D7036093DC
:104A3000D8030E94410C8091CC0310E0811177C013
:104A40004091D3035091D4036091D5037091D60364
:104A5000411551056105710599F02091340130919E
:104A60003501232B69F4C41AD50AE60AF70A81E056
:104A700041EDC41647E0D406E104F10408F480E0F7
:104A80008093CC030E94A70890912E0810E089170C
:104A900031F012E0811101C011E080932E080E94D4
:104AA000A00890912D08891731F0882309F422CEAF
:104AB000146080932D0881E00E9471089091B503E5
:104AC000811136CE911118CE3092B5030E94F80CA8
:104AD0006093B1037093B2038093B3039093B403D4
:104AE0008091D90384300CF431CE8091D903845065
:104AF0008093D903106480913C018823C1F0812FF9
:104B0000807FA9F04AE0E42E61E089E00E94E2079C
:104B10008BE891E00197F1F760E089E00E94E207FD
:104B20008BE891E00197F1F7EA94E110EDCFC090A6
:104B30002201D0902301D60155968C9184FF02C0AA
:104B400013FD04C0867029F010FF03C0C6010E9447
:104B5000F508F6018589867049F011FF07C00E94AB
:104B6000A008811103C0C6010E94040FD601ED9177
:104B7000FC910280F381E02DC6010995009711F0A8
:104B80000E940F0980910E0190910F01DC01ED91BF
:104B9000FC910480F581E02D099580910E019091A2
:104BA0000F01DC01ED91FC910284F385E02D612F72
:104BB00009957C01B8E084319B07A9F089519840A0
:104BC00091F080910E0190910F01E816F90659F0CD
:104BD000E0912201F0912301258925FFC3CD26858F
:104BE000222309F4BFCD8091C803882309F4BECDE8
:104BF00080910E0190910F01DC01ED91FC910084F8
:104C0000F185E02D09958091C80381508093C803F8
:104C1000E82FF0E0EE0FFF1FE254FC4FC080D18080
:104C2000D0920F01C0920E01B4E1EB16B8E0FB0682
:104C300011F48111DDCF0E94E109D601ED91FC91C3
:104C40000280F381E02DC601099590CDE091C80363
:104C5000E53008F08BCD21E02E0F2093C803F0E063
:104C6000EE0FFF1FE254FC4F91838083F0920F01FF
:104C7000E0920E010E94E109D701ED91FC910680BE
:104C8000F781E02DC701099580910E0190910F01E8
:104C9000DC01ED91FC910280F381E02DD5CF1F92D4
:104CA0000F920FB60F9211248F939F938091E10082
:104CB0009091E100937F9093E10083FF0FC01092E9
:104CC000E90091E09093EB001092EC0092E3909356
:104CD000ED001092DF0398E09093F00082FF22C075
:104CE00093E09093E9009091F200992319F09AE3F0
:104CF0009093E8009091CA03992341F09091CA03E0
:104D000091509093CA03911101C05D9A9091DE0376
:104D1000992341F09091DE0391509093DE0391111D
:104D200001C0289A84FF18C08091E2008E7E8160C5
:104D30008093E2008091E1008F7E8093E10080917A
:104D4000CB038E7E80618093CB039F918F910F90D8
:104D50000FBE0F901F90189580FFF7CF8091E20053
:104D60008E7E80618093E2008091E1008E7E809350
:104D7000E1008091CB038E7E8160E5CF1F920F9280
:104D80000FB60F921124CF92DF92EF92FF920F9302
:104D90001F932F933F934F935F936F937F938F93C3
:104DA0009F93AF93BF93EF93FF93CF93DF93CDB7D1
:104DB000DEB76C97DEBFCDBF1092E9008091E800AE
:104DC00083FF25C068E0CE0145960E945C0782EF14
:104DD0008093E8008D8987FF39C09091E80090FFAB
:104DE000FCCF982F907609F034C19E894F89588D59
:104DF0002F89F88C911131C0803861F58091AA0318
:104E00008093F1001092F1008EEF8093E8006C9691
:104E10000FB6F894DEBF0FBECDBFDF91CF91FF91EB
:104E2000EF91BF91AF919F918F917F916F915F9122
:104E30004F913F912F911F910F91FF90EF90DF9035
:104E4000CF900F900FBE0F901F9018959EEF9093EC
:104E5000E800C7CF1092F100D5CF913059F48111FD
:104E6000D3CF4130510581F68091AA038D7F809385
:104E7000AA03CACF933049F48111C6CF41305105FE
:104E800019F68091AA038260F2CF953041F48091A7
:104E9000E80080FFFCCF20682093E300B5CF963078
:104EA00009F0A9C00B8D1C8D22E01092E900109230
:104EB0009C0310929B03F2122EC010929A03109240
:104EC00099030E9430071F8299E09983FA8291E04A
:104ED0009E8390EA98879AEF998720919B0330915F
:104EE0009C03275F3F4F3C832B838D831092E90007
:104EF00010929C0310929B0310939A0300939903C2
:104F000049E050E0BE016F5F7F4F80E00E940F07D5
:104F10000E94300779CF10939A03009399030E945F
:104F2000A306DC0112960D911C910115110509F4DF
:104F30003BC1D801ED91FC910480F581E02DBE01CB
:104F40006B5E7F4FC8010995009709F028C1F801F1
:104F500000851185EACFF3E0FF120EC08F89882308
:104F600009F440C0823061F440E862E18BE891E0EE
:104F70000E94E506811148CF81E28093EB0047CF84
:104F8000813029F440E86AE180E791E0F1CF833095
:104F900099F70E94A306DC011296ED90FC908E0119
:104FA0000F5F1F4F6801E114F10479F0D701ED9113
:104FB000FC910680F781E02DB801C7010995080F23
:104FC000111DF701E084F184EECFD8011C92F601A7
:104FD00001900020E9F73197BF016C197D0940E08D
:104FE000C601C6CF6AE571E0FB01449150E080E85C
:104FF0000E940F0709CF973009F4BECF983021F4F3
:1050000081E08093F10000CF993009F0FDCE8370EC
:1050100009F0B2CFE6E5F1E081E031E096E32191DD
:10502000222371F08093E9003093EB00DF011197A8
:105030002C912093EC009093ED008F5F873079F7EF
:105040008EE78093EA001092EA008F898093DF0355
:10505000DBCE8B8D9C8D1092E90010929C031092F8
:105060009B0390939A0380939903898D81117DC04E
:105070008E899D89913A49F4813209F07DCF47E0CC
:1050800050E060E171E080E0B3CF913209F074CF7D
:10509000833269F48F89988DB0E0A0E0809300019D
:1050A00090930101A0930201B0930301ADCE803231
:1050B00009F080C08091E80082FFFCCF67E080E1CA
:1050C00091E00E945C078BEF8093E8008091A90338
:1050D000E0E0F8E0882311F0EEEFFAE080911001B3
:1050E00090911101A0911201B0911301803B944065
:1050F000A105B105B9F48091170180FD13C0EE3F01
:105100008AE0F80721F587E797E79183808388E1B4
:105110009BE00FB6F894A895809360000FBE909323
:10512000600072CE0FB6F894A895809160008861F7
:1051300080936000109260000FBEA895EE3FAAE039
:10514000FA0761F41092FF0A1092FE0A5DCE808188
:1051500091819093FF0A8093FE0AD5CF8091FE0A39
:105160009091FF0A918380834FCE0E94A306FC0199
:10517000028113810115110509F4FECED801ED91CC
:10518000FC910190F081E02DBE016B5E7F4FC80164
:105190000995811139CEF80100851185EBCF1816DC
:1051A00019060CF431CEE8CEF1E0FF12D4CE6EE554
:1051B00071E01ACF823209F027CE8F8980931701D0
:1051C00085CF1F920F920FB60F9211242F933F930A
:1051D0004F935F936F937F938F939F93AF93BF93FF
:1051E000EF93FF93E0910C01F0910D010995FF9170
:1051F000EF91BF91AF919F918F917F916F915F914F
:105200004F913F912F910F900FBE0F901F901895C7
:105210001F920F920FB60F9211242F933F934F932B
:105220005F936F937F938F939F93AF93BF93EF930E
:10523000FF93E0910A01F0910B010995FF91EF9125
:10524000BF91AF919F918F917F916F915F914F919E
:105250003F912F910F900FBE0F901F9018951F92A6
:105260000F920FB60F9211242F933F934F935F939A
:105270006F937F938F939F93AF93BF93EF93FF931E
:10528000E0910801F09109010995FF91EF91BF911B
:10529000AF919F918F917F916F915F914F913F91CE
:1052A0002F910F900FBE0F901F9018951F920F9285
:1052B0000FB60F9211242F933F934F935F936F93E9
:1052C0007F938F939F93AF93BF93EF93FF93E0915F
:1052D0000601F09107010995FF91EF91BF91AF9100
:1052E0009F918F917F916F915F914F913F912F91FE
:1052F0000F900FBE0F901F9018951F920F920FB630
:105300000F9211242F933F934F935F936F937F934B
:105310008F939F93AF93BF93EF93FF93E09104011B
:10532000F09105010995FF91EF91BF91AF919F9188
:105330008F917F916F915F914F913F912F910F903E
:105340000FBE0F901F9018951F920F920FB60F92DD
:1053500011242F933F938F939F93AF93BF9380918B
:10536000910390919203A0919303B0919403309193
:10537000900323E0230F2D3758F50196A11DB11D91
:10538000209390038093910390939203A0939303AF
:10539000B09394038091950390919603A091970305
:1053A000B09198030196A11DB11D80939503909330
:1053B0009603A0939703B0939803BF91AF919F91E9
:1053C0008F913F912F910F900FBE0F901F901895C6
:1053D00026E8230F0296A11DB11DD2CF97FB072E01
:1053E00016F4009406D077FD08D00BD007FC05D04A
:1053F0003EF4909581959F4F0895709561957F4FEC
:105400000895AA1BBB1B51E107C0AA1FBB1FA6170B
:10541000B70710F0A61BB70B881F991F5A95A9F75D
:1054200080959095BC01CD010895FB01DC0104C07D
:105430008D910590801921F441505040C8F7881B88
:10544000990B0895FC0105900020E9F7809590954F
:105450008E0F9F1F0895FB01DC014150504030F03A
:105460008D910590801919F40020B9F7881B990BCC
:105470000895FB01DC014150504048F005900D9229
:105480000020C9F701C01D9241505040E0F7089537
:10549000F999FECF92BD81BDF89A992780B50895FC
:1054A000262FF999FECF1FBA92BD81BD20BD0FB640
:1054B000F894FA9AF99A0FBE01960895052E97FB73
:1054C00016F400940FD057FD05D024D007FC02D06D
:1054D00046F408C050954095309521953F4F4F4F69
:1054E0005F4F089590958095709561957F4F8F4F90
:1054F0009F4F089531D0A59F900DB49F900DA49F0C
:10550000800D911D11240895B7FFF4CFF3DF821BA6
:10551000930B0895A1E21A2EAA1BBB1BFD010DC01F
:10552000AA1FBB1FEE1FFF1FA217B307E407F50753
:1055300020F0A21BB30BE40BF50B661F771F881F2F
:10554000991F1A9469F760957095809590959B01C5
:10555000AC01BD01CF010895A29FB001B39FC0016E
:10556000A39F700D811D1124911DB29F700D811D8F
:105570001124911D0895EE0FFF1F0590F491E02D69
:1055800009942F923F924F925F926F927F928F92E7
:105590009F92AF92BF92CF92DF92EF92FF920F93C2
:1055A0001F93CF93DF93CDB7DEB7CA1BDB0B0FB6CC
:1055B000F894DEBF0FBECDBF09942A883988488889
:1055C0005F846E847D848C849B84AA84B984C8841F
:1055D000DF80EE80FD800C811B81AA81B981CE0F16
:1055E000D11D0FB6F894DEBF0FBECDBFED010895FB
:1055F0005058BB27AA270ED075C166D130F06BD1A9
:1056000020F031F49F3F11F41EF45BC10EF4E095DD
:10561000E7FB51C1E92F77D180F3BA17620773070F
:105620008407950718F071F49EF58FC10EF4E0958C
:105630000B2EBA2FA02D0B01B90190010C01CA014C
:10564000A0011124FF27591B99F0593F50F4503EF7
:1056500068F11A16F040A22F232F342F4427585FE9
:10566000F3CF469537952795A795F0405395C9F701
:105670007EF41F16BA0B620B730B840BBAF09150B9
:10568000A1F0FF0FBB1F661F771F881FC2F70EC058
:10569000BA0F621F731F841F48F48795779567952B
:1056A000B795F7959E3F08F0B3CF9395880F08F014
:1056B0009927EE0F979587950895D9D008F481E042
:1056C00008950CD00FC107D140F0FED030F021F486
:1056D0005F3F19F0F0C0511139C1F3C014D198F3F4
:1056E0009923C9F35523B1F3951B550BBB27AA2763
:1056F00062177307840738F09F5F5F4F220F331FD5
:10570000441FAA1FA9F333D00E2E3AF0E0E830D0A0
:1057100091505040E695001CCAF729D0FE2F27D0A3
:10572000660F771F881FBB1F261737074807AB0771
:10573000B0E809F0BB0B802DBF01FF2793585F4FE6
:105740002AF09E3F510568F0B6C000C15F3FECF300
:10575000983EDCF3869577956795B795F7959F5FAB
:10576000C9F7880F911D9695879597F90895E1E0FF
:10577000660F771F881FBB1F621773078407BA075E
:1057800020F0621B730B840BBA0BEE1F88F7E095B9
:10579000089504D06894B111D9C00895BCD088F0A0
:1057A0009F5790F0B92F9927B751A0F0D1F0660F0D
:1057B000771F881F991F1AF0BA95C9F712C0B13028
:1057C00081F0C3D0B1E00895C0C0672F782F88273B
:1057D000B85F39F0B93FCCF3869577956795B39567
:1057E000D9F73EF490958095709561957F4F8F4FD6
:1057F0009F4F0895E89409C097FB3EF490958095DB
:10580000709561957F4F8F4F9F4F9923A9F0F92F86
:1058100096E9BB279395F695879577956795B79504
:10582000F111F8CFFAF4BB0F11F460FF1BC06F5FEA
:105830007F4F8F4F9F4F16C0882311F096E911C0FC
:10584000772321F09EE8872F762F05C0662371F01D
:1058500096E8862F70E060E02AF09A95660F771F31
:10586000881FDAF7880F9695879597F90895990F0D
:105870000008550FAA0BE0E8FEEF16161706E8071A
:10588000F907C0F012161306E407F50798F0621B3B
:10589000730B840B950B39F40A2661F0232B242B10
:1058A000252B21F408950A2609F4A140A6958FEF2F
:1058B000811D811D089597F99F6780E870E060E081
:1058C00008959FEF80EC089500240A941616170699
:1058D00018060906089500240A94121613061406E1
:1058E00005060895092E0394000C11F4882352F044
:1058F000BB0F40F4BF2B11F460FF04C06F5F7F4FFC
:105900008F4F9F4F089557FD9058440F551F59F0E2
:105910005F3F71F04795880F97FB991F61F09F3F9C
:1059200079F087950895121613061406551FF2CFC5
:105930004695F1DF08C0161617061806991FF1CF15
:1059400086957105610508940895E894BB2766273C
:105950007727CB0197F908958ADF08F48FEF089530
:105960000BD0C0CFB1DF28F0B6DF18F0952309F0D7
:10597000A2CFA7CF1124EACFC6DFA0F3959FD1F322
:10598000950F50E0551F629FF001729FBB27F00DED
:10599000B11D639FAA27F00DB11DAA1F649F662742
:1059A000B00DA11D661F829F2227B00DA11D621F91
:1059B000739FB00DA11D621F839FA00D611D221F4B
:1059C000749F3327A00D611D231F849F600D211D2F
:1059D000822F762F6A2F11249F5750408AF0E1F0D2
:1059E00088234AF0EE0FFF1FBB1F661F771F881F1B
:1059F00091505040A9F79E3F510570F05CCFA6CF63
:105A00005F3FECF3983EDCF3869577956795B79505
:105A1000F795E7959F5FC1F7FE2B880F911D96952F
:105A2000879597F90895DC0101C06D93415050406E
:085A3000E0F70895F894FFCFA0
:105A3800FFFFFFFF840C840C840C840C840CF70596
:105A480000E1000000000000000020C2000020C2A9
:105A5800C8C821050A64640F000020C2000020C2E3
:105A68000100010001000A010403010301000023F1
:105A78001E010A641E1E3C463C463C46640A121F30
:105A8800130040145400C1808100000030315F00D1
:105A9800000000004E0CCF0EA106A1060C0D0D0B48
:105AA8000000000046157F067F067F067F067C06FD
:105AB8006F060000000046153E0A7F0657067F065F
:105AC800E20579060000000046154805D9122909A3
