:10000000DFC300000C94A2290C947B290C94542982
:100010000C942D2905C4000003C400000C9406298B
:10002000FFC30000FDC300000C9474260C94E3266B
:10003000F7C30000F5C30000F3C30000F1C30000E4
:10004000EFC30000EDC30000EBC30000E9C30000F4
:10005000E7C300000C944420E3C300000C94C929BA
:10006000DFC30000DDC30000DBC30000D9C3000014
:10007000D7C30000D5C30000D3C30000D1C3000024
:100080000C940820CDC30000CBC30000C9C30000FE
:10009000C7C30000C5C30000C3C30000C1C3000044
:1000A000BFC30000BDC30000BBC300004472796938
:1000B0006E6700437572696E6700447279696E6796
:1000C0002F637572696E6700636F6E74696E756F0A
:1000D0007573006F6E6365006E6F6E6500000000E3
:1000E00000250028002B002E003100000000002316
:1000F00000260029002C002F000000000200090F3C
:100100000000030401000C000000000000000000DB
:100110000000000000000000080B000202020100C5
:10012000090400000102020000052400100105245A
:1001300001010104240206052406000107058103CC
:1001400010004009040100020A0000000705020235
:100150004000000705830240000004030904120167
:100160000002EF020140992C0F000001010203017F
:100170005072757361205265736561726368207097
:100180007275736133642E636F6D004F72696769B6
:100190006E616C2050727573612043573153004378
:1001A0005552574100496E636F72726563742066E1
:1001B00069726D77617265210000110A040A1100ED
:1001C0000000080C0E0C0800000004021F020400CE
:1001D00000040E1F041C00000000100804020100AF
:1001E0000019001D00220028002E00360040004BA0
:1001F00000580069007C009200AD00CC00F1001AAC
:10020000014A017E01B701F40133027102AF02E835
:10021000021C034A0372039303AD03C303D303E039
:1002200003E903F003490053005F006D007D009077
:1002300000A500BD00D900F8001C0143016E019C1F
:1002400001CE01020237026C02A102D30202032D89
:1002500003530375039103A903BD03CD03DA03E33D
:1002600003EB03F103F503F803000000002400276B
:10027000002A002D003000040802011040804010C8
:1002800020408040800802040180402010020110BC
:1002900080102040402004040404040403040502E8
:1002A0000202020403020202020606060606060411
:1002B000040202020404054F7665726865617400E9
:1002C000436C6F73652074686520636F7665720098
:1002D00052656D6F7665204950412074616E6B00E8
:1002E000496E73657274204950412074616E6B00D1
:1002F00000507265737320746F20636F6E74696E43
:1003000075650046696E69736865640046616E32A2
:10031000206661696C757265004E6F742F6261644E
:10032000207370696E6E696E67005370696E6E69D6
:100330006E67207475726E6564206F666600466134
:100340006E31206661696C75726500202000202086
:1003500046323A0055564C4544206661696C7572C8
:1003600065004E6F2F6C6F7720706F77657200524B
:100370006561642074656D7065722E206572726FA0
:100380007200486561746572206661696C7572659A
:100390000046313A00435731763200206D696E2EA7
:1003A00000202500203E003C2000506175736564EC
:1003B0000020DF46007C2F2D003E3E003E7C003CAE
:1003C0003C007C3C00447279696E672F63757269EA
:1003D0006E6700437572696E6700447279696E6773
:1003E0000057617368696E670050617573650043FB
:1003F0006F6E74696E7565002020000706050401A4
:1004000000080A0B0C0D09436C6F73652074686556
:1004100020636F766572004F70656E20746865208A
:10042000636F76657200436F7665722074657374CE
:1004300000496E73657274204950412074616E6B7F
:100440000052656D6F7665204950412074616E6B76
:10045000004950412074616E6B20746573740052C2
:100460006F746174696F6E20746573740046616E99
:100470007320746573740055564C4544207465733D
:100480007400486561746572207465737400436F0D
:100490006F6C646F776E005761726D2D75700048D8
:1004A000656174696E6700437572696E67004472B6
:1004B00079696E670057617368696E670000005B59
:1004C000DF465D005BDF435D0020DF43002F3130FE
:1004D00000ED07B4067E069305650553656C6674EA
:1004E00065737400436F6F6C646F776E00ED07E2A5
:1004F00005D605CA05BE0555564C45442074656DA4
:10050000702E3A004368616D2E2074656D702E3A2E
:100510000046616E322052504D3A200046616E31E5
:100520002052504D3A200029061106AF07430664B9
:1005300006526573696E207072656865617400EDBE
:1005400007486F6C642074686520706C6174666F16
:10055000726D005D06E807ED0700ED078C07890660
:1005600050072E077106930653657474696E67739E
:10057000004C4344206272696768746E657373004F
:1005800055564C454420696E74656E7369747900E4
:10059000BA00B300AC0052756E206D6F646500ED5B
:1005A00007AF06AA06A506A006496E666F726D61C2
:1005B00074696F6E006361653862626537333664F3
:1005C00037343739353339004275696C643A203233
:1005D00033370046573A2076332E312E3000534EB3
:1005E0003A2000ED070B07F306DB06C10646616EF5
:1005F0007300ED07CE0646616E73206D656E752043
:1006000073706565640046616E32206D656E75209D
:10061000737065656400ED07E80646616E732077C8
:10062000617368696E672073706565640046616E0A
:10063000322077617368696E672073706565640046
:10064000ED07000746616E7320647279696E67205A
:1006500073706565640046616E3220647279696EFC
:100660006720737065656400ED072307180746610E
:100670006E7320637572696E6720737065656400C0
:1006800046616E3220637572696E672073706565AE
:10069000640046616E3120637572696E6720737005
:1006A00065656400ED0745073B07536F756E640091
:1006B000D800D300C80046696E697368206265651A
:1006C0007000436F6E74726F6C206563686F00ED2D
:1006D00007810776076B075D0754656D706572616A
:1006E00074757265730076076B0754656D702E2004
:1006F000756E69747300526573696E2070726568F7
:1007000065617420742E00447279696E6720776188
:10071000726D2D757020742E005B6F66665D005BD8
:100720006F6E5D005761726D2D757000ED07A40747
:100730009907526F746174696F6E20737065656498
:100740000057617368696E67207370656564004364
:100750007572696E6720737065656400ED07DD076B
:10076000D207C707BC0752756E2D74696D650052BC
:100770006573696E20707265686561742074696D57
:10078000650057617368696E672072756E2D7469B4
:100790006D6500447279696E672072756E2D74699B
:1007A0006D6500437572696E672072756E2D746990
:1007B0006D650053746F70004261636B0000B81781
:1007C00011241FBECFEFDAE0DEBFCDBF8091FE0A5D
:1007D0009091FF0A90932F0880932E0813E0A0E0D9
:1007E000B1E0E2E8FAE502C005900D92A039B10748
:1007F000D9F728E0A0E9B3E001C01D92AE32B207FC
:10080000E1F713E0C0EED3E004C02197FE010E949F
:10081000E02ACF3DD107C9F70E94DB200C943F2D81
:10082000EFCBCF92DF92EF92FF921F93CF93DF93A4
:10083000FB01EE5BFF4F25913491821793070CF07B
:1008400056C0FB0125913491281739070CF052C08E
:1008500013E2A1E2B0E0D0E0C0E021E1115019F4D0
:1008600090E080E03CC030E0A901440F551FFB013F
:10087000E40FF51FE590F490FA013296E60FF71FAA
:10088000C590D490A901C816D9064CF49D01240F37
:10089000351F35952795EA01AD01DA01DFCF8E15B9
:1008A0009F0534F49E01240F351F35952795F5CF0C
:1008B000BC016E197F094EEC4603C001479F900DA5
:1008C0001124B6016E197F090E94132A4203C00148
:1008D000439F900D11248E519B4F860F971FDF91E0
:1008E000CF911F91FF90EF90DF90CF90089580E718
:1008F0009EEFF5CF82EE94E0F2CF9C01A8EEB3E03C
:100900000E94D12A60931F087093200880932108C9
:1009100090932208609327087093280880932908F1
:1009200090932A0880912D08882341F010921F0887
:1009300010922008109221081092220880911F081E
:1009400090912008A0912108B0912208809323085B
:1009500090932408A0932508B0932608089584E076
:1009600050E040E0EFEFF3E0949130917B00292FCD
:10097000220F220F20723F7D232B20937B00977044
:10098000906490937C0090917A00906490937A00A8
:1009900090917A0096FDFCCF90917800209179009B
:1009A000322F292F420F531F8150F1F6CA010895AB
:1009B000EEEDF3E081818F5F81830895EEEDF3E04A
:1009C00080818F5F80830895FC018481882359F0A2
:1009D000A281B3816C9382819381019693838283F8
:1009E00084818150848308950F931F93CF93DF9365
:1009F0008C01EB01FE0164912196662349F0D80138
:100A0000ED91FC910190F081E02DC8010995F2CFA4
:100A1000DF91CF911F910F910895FC0112861186ED
:100A2000148613868FEF9FEF968785871786108A27
:100A3000118A128A138A148A158A168A178A0895C7
:100A4000FC017383628383E0848388E991E091836E
:100A500080835683458330872783128611861486C8
:100A600013868FEF9FEF968785871786108A118AE6
:100A7000128A138A148A158A168A178A0895FC0125
:100A80007383628382E0848381EA93E09683858323
:100A90005087478384E68187228786E693E09183A7
:100AA00080830895FC017383628382E084838BE9F1
:100AB00093E09683858350874783218781E08287EF
:100AC00086E693E0918380830895DC011796ED918B
:100AD000FC91189720811A963C911A97321740F48E
:100AE00021502083ED91FC910280F381E02D099546
:100AF0000895CF93DF93EC01E8DFAF81B885EB85F4
:100B0000FC858C910995DF91CF910895DC011796B2
:100B1000ED91FC911897208119963C911997231714
:100B200040F42F5F2083ED91FC910280F381E02D52
:100B300009950895CF93DF93EC01E8DFAF81B88585
:100B4000EB85FC858C910995DF91CF9108950F93EA
:100B50001F93CF93DF93EC01162F862F8C7039F003
:100B6000E881F9810280F381E02DCE01099516FF1D
:100B700011C08B852C852150330B821713060CF086
:100B80003FC08F5F8B87E881F9810280F381E02D80
:100B9000CE01099517FF0DC08B85882309F43BC052
:100BA00081508B87E881F9810280F381E02DCE01AD
:100BB000099514FF36C0EA858B85E80FFF27FF1FD4
:100BC000CF01880F991FED81FE81E80FF91F059174
:100BD0001491D801ED91FC910484F585E02DC801B4
:100BE0000995009739F108171907F9F4E881F98197
:100BF0000280F381E02DCE01099590E080E015C0E0
:100C00008A8529852450330B821713060CF0C2CF36
:100C10008F5F8A87B8CF8A85882359F281508A8767
:100C2000C1CF15FFEACF8F819885DF91CF911F91BA
:100C30000F910895C801F9CFFC0113860895FC01B6
:100C40007383628382E0848386E891E0918380836A
:100C50005683458310861782218712861386253096
:100C600008F024E0248708950895FC0173836283CB
:100C7000148284E791E091838083089590E080E07E
:100C8000089590E080E008950895FC011382128297
:100C9000158214821782168284E491E091878087FE
:100CA0001286138614861586168680EF92E0908B46
:100CB0008787128A118A148A138A80E2858B84E6D8
:100CC00091E091838083668B178A089580E0089570
:100CD0008091A10381110DC082E080939D0384E087
:100CE00080939E031092A00310929F0381E0809353
:100CF000A1038DE993E0089540919B0350919C03DB
:100D00002091990330919A0342175307B4F49091BC
:100D1000E8009570E1F39091E80092FD19C080938E
:100D2000F10080919B0390919C0301968F7399270A
:100D3000892B19F48EEF8093E80080919B039091AA
:100D40009C03019690939C0380939B0381E00895FC
:100D500080E00895EF92FF920F931F93CF93DF935C
:100D6000EC01E62E042F81E0860F880FC5DF83E0BB
:100D7000C3DFEC0EFD2EF11CCE15DF0599F007FF49
:100D80000FC0FE018491B8DF182F80E0B5DF81230A
:100D900021968111F1CFCDB7DEB7E6E00C940E2B92
:100DA0008881F1CF81E0F7CFB0E0A0E0EAEDF6E096
:100DB0000C94F12AD82E8A01EB017B01E40EF51E7A
:100DC000CE15DF0551F0D7FE0EC0FE01849194DFF1
:100DD00021968111F5CF0FEF1FEFC801CDB7DEB718
:100DE000E7E00C940D2B8881F2CFA1E0B0E0EBEFAF
:100DF000F6E00C94F42A82E0898342E450E068E152
:100E000071E080E8D1DF64DFDC0112960D911C9166
:100E10000115110589F0D801ED91FC910280F38153
:100E2000E02DBE016F5F7F4FC801099597FD04C09B
:100E3000F80100851185ECCF89812196E4E00C94BE
:100E4000102B615030F02091F100FC0120830196BD
:100E5000F8CF289884E68093E10308958EBD0000C2
:100E60000DB407FEFDCF8EB5089581508F3008F088
:100E700047C0E82FF0E0E15CF84F0C94E02A5C07F3
:100E800060074E07540758078007800780076307ED
:100E900069076D077107770780077B0780918000DE
:100EA0008F77809380000895809180008F7DF9CFA7
:100EB00080918000877FF5CF84B58F7784BD0895BA
:100EC00084B58F7DFBCF809190008F7780939000C9
:100ED0000895809190008F7DF9CF80919000877F59
:100EE000F5CF8091C0008F778093C00008958091E6
:100EF000C0008F7DF9CF8091C200877F8093C200B0
:100F00000895CF93DF93282F30E0F901E750FF4F8A
:100F10008491F901E958FD4FD491F901E956FD4F4B
:100F2000C491CC2379F08111A0DFEC2FF0E0EE0F1B
:100F3000FF1FE551FF4FA591B491EC91ED2381E0A6
:100F400090E011F490E080E0DF91CF9108951F933D
:100F5000CF93DF93282F30E0F901E750FF4F8491C2
:100F6000F901E958FD4FD491F901E956FD4FC491BB
:100F7000CC23A1F0162F811178DFEC2FF0E0EE0FDB
:100F8000FF1FE352FF4FA591B4918FB7F894EC91F6
:100F9000111108C0D095DE23DC938FBFDF91CF9174
:100FA0001F910895DE2BF8CFFF920F931F93CF93DD
:100FB000DF93F82E8B01CDE0D8E060E08981C7DFB8
:100FC0008881880F80644ADF8F2D48DF802F46DFBD
:100FD000812F44DF61E08981BADFCDB7DEB7E5E07C
:100FE0000C940F2B9FEF980F9031E8F4E0911508C7
:100FF000F09116088150990B21E030E0A90102C060
:10100000440F551F8A95E2F7CA01662369F08E2BBB
:101010009F2B909316088093150860911508709186
:10102000160882E1C1CF0895809590958E239F2365
:10103000F0CFCF939091D303981731F0C82F682F3A
:101040008BE0D0DFC093D303CF91089580E0F1DF30
:101050001092D2031092DD031092DA031092D9039A
:101060001092D8030FB6F894A8958091600088611B
:1010700080936000109260000FBE089561E084E0EC
:10108000B1CF0895FBCF08951F93CF93DF93182F0F
:1010900060E080910E085BDF80910D08880F81640D
:1010A000DDDE82E1DBDE80E0D9DEC82FD0E080E04B
:1010B000D5DED82B61E080910E0849DF212F215029
:1010C000330BC90121E030E002C0220F331F8A95A3
:1010D000E2F72C233D2381E0232B09F480E0DF910C
:1010E000CF911F91089582E0CFDF91E0811190E0D0
:1010F000892F089583E0C8DF91E0811190E0892F66
:101100000895FC01858984FF06C0EDDF882361F026
:1011100090E080E00895E7DF811109C0EBDF8111E5
:10112000F7CF80EC92E0089580EE92E0089580ED94
:1011300092E00895CF92DF92EF92FF921F93CF93A8
:10114000DF93182F6A017B01C3E0D8E060E0888557
:10115000FEDE812F806882DE89878F2D7FDE8E2DD7
:101160007DDE8D2D7BDE8C2D79DE61E08885EFDEE6
:101170008985DF91CF911F91FF90EF90DF90CF9005
:10118000089560E087E02EDF60E083E0E0CE089520
:10119000CF93DF93EC018D8981FDF3DF8D8982FD93
:1011A00055DF8B899C89892B19F01092710066DFBD
:1011B00089899A89892B19F081E080932C08DF9125
:1011C000CF910895CF93DF93EC018091220190910C
:1011D0002301DEDFD0932301C0932201E881F9814E
:1011E0000190F081E02DCE010995DF91CF91089516
:1011F00084E295E0E7CF0895FC0185819681E2CFF6
:101200000895CF93DF93EC016EDF882349F08EEDD4
:1012100094E09E838D83CE01EFDFDF91CF9108951F
:10122000E88DF98D8081813059F0823091F48CE025
:1012300095E09093CB048093CA0488EC94E002C0BC
:1012400082EB94E0909389048093880486E894E08C
:10125000E0CF82EB94E0EDCFCF93DF9390E0FC0101
:10126000E958FD4F249189569D4FFC0184918823B4
:10127000C9F090E0880F991FFC01E759FD4FA59137
:10128000B491FC01E352FF4FC591D49161110DC09F
:101290009FB7F8948C91209582238C938881282382
:1012A00028839FBFDF91CF910895623051F49FB79B
:1012B000F8943C91822F809583238C93E8812E2B88
:1012C000EFCF8FB7F894EC912E2B2C938FBFEACFF2
:1012D000EF92FF920F931F93CF93DF938C01095FDF
:1012E0001F4FD0E0C0E0E62EF12C61E0F8018191C3
:1012F0008F01B2DFB7010C2E02C0759567950A9475
:10130000E2F76170F8013197808121DE2196C430C7
:10131000D10559F760E084E01ADE61E084E017DE71
:1013200060E084E014DE83EC90E00197F1F7CDB744
:10133000DEB7E6E00C940E2B1F93CF93DF93EC0106
:10134000162F642F8CE003DE612F70E084E075952A
:1013500067958A95E1F7CE01BBDF612FCE01B8DF3B
:10136000DF91CF911F91089540E061E082EF97E017
:10137000E3DF8BEF98E10197F1F70895E62FF0E0B6
:10138000EE50F84F6385680F606840E082EF97E0A9
:10139000D3CF0895CF93DF93EC01862F642FEEDF38
:1013A000BE0182EF97E020DBDF91CF91089542E00C
:1013B00068E088EF93E0EEDF42E061E088EF93E0E1
:1013C000E9CF089541E0B8CF08950F931F93CF93CD
:1013D000DF93EB0198E0899FB0011124606440E045
:1013E00082EF97E0A9DF8E01085F1F4FFE01649135
:1013F00082EF97E0E7DF21960C171D07B9F7DF9121
:10140000CF911F910F910895CF9362E080E0B6DFF6
:10141000C4E160E282EF97E0D5DFC150D1F7CF9110
:101420000895CF92DF92EF92FF921F93CF93DF93B5
:10143000CDB7DEB764970FB6F894DEBF0FBECDBF51
:101440007C0110E0D7011C968C911817A8F5612F2C
:1014500080E094DFF70183856EE3811360E282EF21
:1014600097E0B0DFD7011A96EC911A97E10FFF27AA
:10147000FF1FCF01880F991F1596ED91FC91E80F82
:10148000F91F85919491DC01ED91FC910190F0811F
:10149000E02D44E1BE016F5F7F4F0995FE0131965B
:1014A0006F01D6016D916D01662321F082EF97E007
:1014B00089DFF7CF1F5FC6CF64960FB6F894DEBF03
:1014C0000FBECDBFDF91CF911F91FF90EF90DF90C6
:1014D000CF900895A6DF60E084E084CD0895CF9397
:1014E000CFB7F8948091C903811123C0E8EAF2E0F4
:1014F0008491E8E8F2E09491E82FF0E0EE0FFF1F0E
:10150000E759FD4FA591B491EC91E92319F461E0FD
:1015100081E11DDD61E081E19FDE8CB580618CBDE4
:101520008CB580648CBD61E08FE096DE61E080E187
:1015300093DE8091C9038F5F8093C903CFBFCF91A2
:1015400008958CB58C608CBD8CB58F7D8CBD8CB5B1
:101550008C7F81608CBD8DB581608DBDC0CF0895BD
:10156000B0E0A0E0E6EBFAE00C94E72A382E2A017E
:101570003B0148015901E5DFC3E0D8E060E0888520
:10158000E6DC832D6BDC898780E068DC80E066DC4C
:1015900080E064DC80E062DC61E08885D8DC60E0CB
:1015A0008885D5DC832D5ADC898780E057DC082FBD
:1015B00080E054DCC82E80E051DC182F80E04EDC47
:1015C000D12CF12CE12CD02AFE2CED2CDC2CCC24BF
:1015D000C12AFE2CED2CDC2CCC24C82A61E08885A5
:1015E000B6DCB301A2014C255D256E257F2548217F
:1015F00059216A217B214C255D256E257F25832D70
:1016000099DD8985CDB7DEB7E1E10C94032B0F930B
:101610001F9394E0899FF0011124EA55FE4F008149
:10162000118122813381082E04C0000F111F221F57
:10163000331F0A94D2F7462F50E070E060E004C0F8
:10164000440F551F661F771F8A95D2F78CE688DFF7
:1016500080910C081F910F9108951F93CF93DF93F2
:10166000182FEB0161E0F8DD209739F460E0812F5D
:101670006EDCDF91CF911F910895CF3FD10511F41A
:1016800061E0F5CFE12FF0E0E750FF4FE491E1504A
:10169000EF3008F07CC0F0E0E05BF44F0C94E02AFF
:1016A0005F0B640B690B730B7D0BC70BC70BC70B71
:1016B000870B910B9B0BA50BB20BC70BBA0B84B519
:1016C000806884BDC7BDD5CF84B5806284BDC8BDE8
:1016D000D0CF80918000806880938000D093890073
:1016E000C0938800C6CF8091800080628093800084
:1016F000D0938B00C0938A00BCCF8091800088601B
:1017000080938000D0938D00C0938C00B2CF8091E5
:101710009000806880939000D0939900C0939800C7
:10172000A8CF80919000806280939000D0939B001E
:10173000C0939A009ECF8091900088608093900023
:10174000D0939D00C0939C0094CF8091C00080688E
:101750008093C0008091C0008F7B8093C000C093B5
:10176000CF0087CF8091C00080628093C000C0937B
:10177000D0007FCF8091C20088608093C2008091AA
:10178000C2008B7F8093C200C093D20072CFC0385A
:10179000D1050CF075CF6ACF282F30E0AFEFB0E065
:1017A0000E94D12A24E630E040E050E00E94832AE3
:1017B000B90186E052CF0895CF93DF9390E0FC010A
:1017C000E459FE4FD08182599E4FFC01C0816623AF
:1017D000E1F0A62FB0E021E03FEF4FEF5FEF0E9476
:1017E0009F2A24E630E040E050E00E94832ACA01AC
:1017F000B90161507F4F8F4F9F4F8C2F2EDF61E0DB
:101800008D2FF0DBDF91CF91089560E08D2FEADB23
:1018100060E08C2F9CDBF6CF682F81E0CDCF089560
:10182000CF93DF93C4EDD3E0688180E0C5DF6981A9
:1018300081E0C2DFDF91CF910895FC01168681E03F
:10184000878B81E090E0A0E0B0E082879387A48757
:10185000B5878689811106C080913A018823E1F01D
:101860008230F1F4178A81EF92E023E033E0309385
:101870001C0520931B05909311058093100500848F
:10188000F185E02D80818093D40381818093D503FD
:101890001092CC03C5CF0895128613861486158640
:1018A00080EF92E0E2CF08953FB7F89480919503DE
:1018B00090919603A0919703B091980326B5A89BA9
:1018C00005C02F3F19F00196A11DB11D3FBFBA2FD2
:1018D000A92F982F8827BC01CD01620F711D811D92
:1018E000911D42E0660F771F881F991F4A95D1F717
:1018F00008958F929F92AF92BF92CF92DF92EF9214
:10190000FF924B015C01D0DF6B017C01CDDF6C19D4
:101910007D098E099F09683E734081059105B0F3EA
:1019200021E0821A9108A108B10888EEC80E83E070
:10193000D81EE11CF11C81149104A104B10431F7FB
:10194000FF90EF90DF90CF90BF90AF909F908F90DF
:1019500008956CED70E089E080DE62E370E080E085
:1019600090E0C7DF60E089E0F2DA6AEF70E080E0E3
:1019700090E0BFDF6CED70E089E06FDE62E370E065
:1019800080E090E0B6DF60E089E0E1CA08952FB71B
:10199000F8946091910370919203809193039091D8
:1019A00094032FBF0895CF92DF92EF92FF920F938F
:1019B0001F93CF938C01C62F862F8F7029F08FEF46
:1019C0009FEFF80196878587C6FF4AC0E091220104
:1019D000F091230181899289892B09F441C060919A
:1019E0001F0870912008809121089091220838EEFC
:1019F000C32E33E0D32EE12CF12CA70196010E94D7
:101A0000AF2A2F3F3F4F61F1D2DCE0912201F091EC
:101A1000230181899289892B19F1858983FF20C04F
:101A200060911F08709120088091210890912208F0
:101A3000A70196010E94AF2A2B3382E0380708F0F5
:101A40007AC0C9014E960E947D0489EB93E042E082
:101A500068E0A0DC9CDFF801638B748B858B968B30
:101A6000C7FF4AC0E0912201F09123018189928948
:101A7000892B09F441C060911F0870912008809162
:101A800021089091220828EEC22E23E0D22EE12CCC
:101A9000F12CA70196010E94AF2A2F3F3F4F61F121
:101AA00086DCE0912201F091230181899289892BC2
:101AB00019F1858983FF20C060911F08709120086B
:101AC0008091210890912208A70196010E94AF2AD7
:101AD00082EC93E02E31310530F0C9014E970E941F
:101AE0007D048FEB93E042E061E054DC50DFF801CD
:101AF000638B748B858B968BC4FF12C0E09122019F
:101B0000F0912301858985FD11C0F80187819085B9
:101B1000CF911F910F91FF90EF90DF90CF9008959C
:101B2000C5FF06C0E0912201F091230181E0868784
:101B300090E080E0EDCF8CEB93E089CFB0E0A0E0C7
:101B4000E4EAFDE00C94F02AEC0121DF0F8518890E
:101B500029893A896B017C01C01AD10AE20AF30A89
:101B6000970186014D855E856A01F12CE12CC01636
:101B7000D106E206F30658F46F87788B898B9A8B2F
:101B8000E881F9810280F381E02DCE010995CDB77E
:101B9000DEB7E8E00C940C2BCF93DF93EC01F7DE7B
:101BA0006F87788B898B9A8BCE013BDCDF91CF914D
:101BB0000895CF92DF92EF92FF92CF93DF93C62FDB
:101BC000D42F90E0B0E0A0E06C017D0121E0C21ACA
:101BD000D108E108F1086623C1F14FE15FE165E05A
:101BE00070E080E1A7DA64E088E111DDAAECBFEFE4
:101BF000A70196010E94AB2A29E030E040E050E0C6
:101C00000E94832ADA01C9018A5B9F4FAF4FBF4F01
:101C1000DD2361F080932101C0E0C093CD03DF910B
:101C2000CF91FF90EF90DF90CF90089580932001A7
:101C300088EC80932101ABDE6093CE037093CF03D9
:101C40008093D0039093D103E8CF4AE05AE060E05C
:101C500070E080E16FDA60E088E1D9DCADE3BFEFEE
:101C6000A70196010E94AB2A29E030E040E050E055
:101C70000E94832A24523F4F4F4F5F4F20932101F0
:101C8000CCCFB0E0A0E0E7E4FEE00C94F02AEC0159
:101C90008E85811103C08C8D811108C05ADE8A8126
:101CA0009B81CDB7DEB7E8E00C940C2B70DE0A8583
:101CB0001B852C853D856B017C01C01AD10AE20A87
:101CC000F30A970186010B3F11052105310518F430
:101CD00090E080E0E6CF6A877B878C879D87EA8DDE
:101CE000FB8D09959D8D981799F38D8F882341F071
:101CF0008E899F899D838C838C8D81508C8FE8CFBA
:101D0000888D998DF7CFCF93DF93EC011E86EA8DF6
:101D1000FB8D09958D8F882371F08E899F899D8316
:101D20008C838AE08C8F33DE6A877B878C879D87E4
:101D3000DF91CF910895888D998DF1CFCF92DF9269
:101D4000EF92FF92CF93DF93EC018F898E871FDE96
:101D50006B017C018A859B85AC85BD850097A105BB
:101D6000B10591F0A7019601281B390B4A0B5B0BBB
:101D7000DA01C901893E9340A105B10528F0E9DDEA
:101D8000CA86DB86EC86FD868E85882349F08A81AB
:101D90009B81DF91CF91FF90EF90DF90CF900895DE
:101DA00090E080E0F6CFCF93DF93EC01EB89FC89E4
:101DB000309771F06D896295617040E08081F9DE45
:101DC0008091710082608093710060E084E00AD9A4
:101DD0008D8982FF10C081E08093D2038093DD0360
:101DE000D6DD88E198E20FB6F894A895809360005C
:101DF0000FBE9093600089899A89892B39F01092DF
:101E00002C0880912B08811110922B08C0DD6A8765
:101E10007B878C879D87DF91CF9108950F931F93C8
:101E2000CF93DF938C01C0912201D0912301898946
:101E30009A89892B51F080912C08882371F0CE016A
:101E400060D9892B11F4CE01AEDFF801858196812E
:101E5000DF91CF911F910F910895CE0199D9F5CFC0
:101E6000CF93DF93EC011E86E885F985808180930E
:101E7000D40381818093D5031092CC03D1DCE9890E
:101E8000FA89309771F080818C3308F08BE39D895B
:101E9000917090932D082CE3829FC00111240E9421
:101EA0007D048D89867069F025D9811107C08989E3
:101EB0009A89892B59F4CE016BD905C014D98111A7
:101EC000F6CFCE0170DFDF91CF91089510922C08EC
:101ED00080912B08882379F310922B08ECCF409146
:101EE0001C0150911D0160911E0170911F01FC01A8
:101EF000448F558F668F778F21E022A3B1CF08954D
:101F0000409118015091190160911A0170911B01C3
:101F1000FC01478B508F618F728FA2CF0895FC0117
:101F2000148E84E6858F178E168E8FEF9FEF91A308
:101F300080A388E790E093A382A381E084A385A394
:101F4000CF018ECF0895CF93DF93EC018AE08C8F81
:101F500084EB90E09E8F8D8F81E08F8F88A3CE01E0
:101F60007FDF40E06F8D8C8D24DEDF91CF9108956F
:101F7000CF92DF92EF92FF92CF93DF93EC018989AA
:101F80009A89892B09F461C080912B0881115DC069
:101F900080912C08811159C0FADCDC01CB01409101
:101FA0001708509118086091190870911A08C0908C
:101FB0001B08D0901C08E0901D08F0901E088C199A
:101FC0009D09AE09BF0984179507A607B707E8F171
:101FD00080911F0890912008A0912108B0912208BB
:101FE00020912D08222309F444C0C0902708D090E6
:101FF0002808E0902908F0902A088C159D05AE0568
:10200000BF0568F4840F951FA61FB71F80931F0894
:1020100090932008A0932108B09322080DC081E07E
:1020200080932C0880932B0810921F081092200890
:102030001092210810922208AADC60931B0870936A
:102040001C0880931D0890931E088E85811108C07E
:1020500089899A89892B21F180912B08882301F1A4
:102060008A819B81DF91CF91FF90EF90DF90CF909D
:1020700008950097A105B10529F0841B950BA60BC7
:10208000B70BC4CF81E080932C0880932B088091FC
:10209000270890912808A0912908B0912A08B6CF66
:1020A0008D8981FF33C0C0901801D0901901E09054
:1020B0001A01F0901B0120E030E0A901C701B60130
:1020C0000E94822B87FF0FC084E593E09093040564
:1020D000809303058FE693E09093F9048093F804CE
:1020E00084EF94E0BFCF20E030E04CE852E4C70139
:1020F000B6010E94D12C18164CF484E593E090931D
:1021000004058093030587EB92E0E6CF8A859B85E3
:10211000AC85BD85892B8A2B8B2B19F490E080E050
:10212000A1CF35DCCA84DB84EC84FD846C197D0985
:102130008E099F09613D77408105910578F38D896E
:1021400081FFECCF2091430130E0AFEFB0E00E947F
:10215000D12A24E630E040E050E00E94832AB90111
:1021600083E07BDA61E087E00E94F2071A861B8633
:102170001C861D86D3CFB0E0A0E0E1ECF0E10C942A
:10218000EC2AEC018C8C9D8CAE8CBF8C20E030E076
:10219000A901C501B4010E94822B87FD11C0C09026
:1021A0001C01D0901D01E0901E01F0901F0120E065
:1021B00030E0A901C701B6010E94822B87FF13C03E
:1021C00082E893E090930405809303058FE693E003
:1021D0009093F9048093F80484EF94E0CDB7DEB7D0
:1021E000ECE00C94082B60911F08709120088091FE
:1021F00021089091220828EE33E040E050E00E9450
:10220000AF2A890101501109C9F420E030E040EA09
:1022100050E4C501B4010E941E2B9B01AC01C70113
:10222000B6010E94822B87FF09C082E893E0909359
:1022300004058093030582E693E0CACF88A199A1A3
:102240008017910721F019A308A381E08AA3CE018A
:102250008FDEC4CFCF93DF93EC0160911F087091A4
:102260002008809121089091220828EE33E040E078
:1022700050E00E94AF2A2130310539F520E030E0EE
:1022800040E251E46F89788D898D9A8D0E941E2BD2
:10229000209118013091190140911A0150911B01B0
:1022A0000E94D12C18168CF484E593E090930405D9
:1022B0008093030582E693E09093F9048093F804F9
:1022C00084EF94E0DF91CF910895CE0151DEFACFF3
:1022D000CF93DF93EC0160911F08709120088091EB
:1022E00021089091220828EE33E040E050E00E945F
:1022F000AF2AC9016AA17BA16217730709F467C0FD
:102300003BA32AA361E06DA3009709F460C0019785
:1023100064E170E00E94262A892B09F058C08C8D58
:102320002091300130913101811113C0232BF9F03C
:102330008EE393E090930405809303058AE293E093
:102340009093F9048093F80484EF94E0DF91CF91A7
:1023500008954E8D5F8D4217530748F08EE393E04A
:10236000909304058093030589E193E0E9CF2091E0
:102370003201309133019D8D911105C0232B59F00D
:102380008CE093E0D7CF48A159A12417350718F066
:102390008CE093E0E5CF8436D0F48C5E8C8F94E6AD
:1023A000981B9D8F8093D4039093D5031092CC03F8
:1023B00037DA81E08CA380913001909131019F8FB9
:1023C0008E8F809132019091330199A388A3CE0121
:1023D000CFDDBCCFCF93DF93EC0160911F087091EC
:1023E0002008809121089091220828EE33E040E0F7
:1023F00050E00E94AF2AC9016D8D7E8D6217730770
:10240000A1F03E8F2D8F009781F069E070E00E946F
:10241000262A892B51F48C8D815061F08C8F41E0FC
:102420006F8D8C8DC6DB81E088A3CE01A1DDDF91AD
:10243000CF9108958AE08C8F1F8EF1CFCF93DF93D9
:10244000EC0180913E018823A1F0EE81FF81608143
:1024500070E090E080E00E94212C20912C013091CE
:102460002D0140912E0150912F010E94822B1816B0
:102470002CF08A819B81DF91CF910895CE0178DD88
:10248000FACFB0E0A0E0E7E4F2E10C94ED2A8C0191
:10249000FB01EA01922E9AE0A92EB12C209711F1AE
:1024A000BE01CF010E94132A6B017C01D801ED917E
:1024B000FC910190F081E02D672B19F4C130D1051A
:1024C00069F460E36C0DC801099580E3982EF7016B
:1024D000CE01B5010E94262AEB01E0CF692DC8018B
:1024E0000995F5CFCDB7DEB7EBE00C94092BB0E042
:1024F000A0E0EDE7F2E10C94F02A8C01CB01BA01E7
:102500002DEC3CEC4CE45DE30E941E2B6B017C0146
:102510000E94F32BC62FD0E020E244E650E0BE013B
:10252000C801AFDFD801ED91FC910190F081E02D61
:102530006EE2C8010995BE01DD0F880B990B0E9460
:10254000212C9B01AC01C701B6010E941D2B20E08C
:1025500030E040E251E40E94D52C0E94F32B70E061
:1025600020E241E050E0C8018CDFCDB7DEB7E8E003
:102570000C940C2BA4E1B0E0E0ECF2E10C94EE2A18
:102580008C018091220190912301DC0151962D91C3
:102590003C91232B09F43FC020912C082223D9F130
:1025A0000E9481087C01892B21F48AEAE82E83E0CD
:1025B000F82ED80119968D919C918E159F0551F09A
:1025C0000E94B40940E061E0C7010E94CA09F80115
:1025D000F286E186A0902201B0902301D5011496E5
:1025E000ED90FC90E114F104D1F0F801838594851D
:1025F0008E159F0561F00E94040AD8011C96FC927A
:10260000EE921B9742E061E0C7010E94CA096496FE
:10261000EAE00C940A2BFC01E784F088CACFB7D912
:102620006B017C01F50181899289892B21F08091D0
:102630002C0881112BC060E083E10E94BE09D80103
:102640005796EC91F0E0EB54FC4F649182EF97E0E9
:102650000E94E209F80187859089A189B289A701C2
:102660009601281B390B4A0B5B0BDA01C901853631
:102670009105A105B10550F0C786D08AE18AF28A9A
:1026800087898F5F843008F0AFC0878BF80183891A
:102690009489A589B6890097A105B105A1F0C81A4A
:1026A000D90AEA0AFB0AF9EECF16F3E0DF06E104E5
:1026B000F10448F00E94D709D80153961D921D924B
:1026C0001D921C925697E0912201F091230181897D
:1026D0009289892B09F466C060911F0870912008C7
:1026E000809121089091220828EE33E040E050E0EC
:1026F0000E94AF2A79012F3F320709F453C0F80135
:10270000858596858217930709F44CC036872587FF
:1027100062E083E00E94BE09C7016CE370E00E94A2
:10272000262A8C01772720E34AE050E082EF97E0E9
:10273000A8DE6AE382EF97E00E94E20920E34AE024
:1027400050E0B80182EF97E09CDEE0912201F09129
:102750002301858986FF4AC0C0902C01D0902D01AD
:10276000E0902E01F0902F0120E030E0A901C70198
:10277000B6010E94D12C1816ACF462E08CE00E94E5
:10278000BE09B701A60182EF97E0B1DE8091410159
:1027900061EB73E0882311F069EC74E082EF97E05D
:1027A0000E94F4048091220190912301DC01ED91BB
:1027B000FC910480F581E02D44E1BE016F5F7F4F05
:1027C00009958823F1F062E08CE00E94BE098E0139
:1027D0000F5F1F4FF80161918F01662391F082EF27
:1027E00097E00E94E209F6CF178A50CF87FFDACF31
:1027F000C0902801D0902901E0902A01F0902B018F
:10280000B3CF8091220190912301DC01ED91FC91E5
:102810000680F781E02D44E1BE016F5F7F4F09958F
:10282000882309F4F4CE63E081E00E94BE098E01A2
:102830000F5F1F4FF80161918F01662309F4E7CE06
:1028400082EF97E00E94E209F5CF1F93CF93DF93C9
:10285000EC0140E061E08A819B810E94CA09EF811E
:10286000F885108162E085E00E94BE09612F70E06A
:1028700020E244E650E082EF97E003DE6D817E8146
:1028800082EF97E00E94F404DF91CF911F910895A9
:10289000EF92FF921F93CF93DF93FC0112A11123BC
:1028A000D1F0EC017C01F6E1EF0EF11C798F688F1D
:1028B0004A8F61E973E0C7010E94F404609130011E
:1028C0007091310120E240E157E2C701DADDE88D85
:1028D000F98D10821AA2812FDF91CF911F91FF9065
:1028E000EF900895FF920F931F93CF93DF93FC0116
:1028F000F5A0FF2039F1EC018C010A5E1F4F718FAA
:10290000608F428F61E973E0C8010E94F404609116
:1029100030017091310120E240E157E2C801B1DDA0
:102920006EE473E0C8010E94F4046091320170917A
:10293000330120E240E157E2C801A3DDE88DF98DC3
:1029400010821DA28F2DCDB7DEB7E5E00C940F2BC2
:10295000FF920F931F93CF93DF93FC01F4A0FF200E
:10296000F1F0EC018C010A5E1F4F718F608F428F76
:10297000648D70E020E244E650E0C80182DD6CE442
:1029800073E0C8010E94F4046D8D70E020E244E61B
:1029900050E0C80176DDE88DF98D10821CA28F2DE4
:1029A000CDB7DEB7E5E00C940F2B1F93CF93DF93E9
:1029B000EC0118A11123B1F08F8D811118C083E4AF
:1029C000FB018193F98FE88F41504A8F6C8D70E045
:1029D00020E34AE050E0CE01469653DDE88DF98DC4
:1029E000108218A2812FDF91CF911F91089587E562
:1029F000E7CF1F93CF93DF93EB01142F4FEF410FDE
:102A000050E0FB01E40FF51F108260E270E0CE01A0
:102A10000E94382DE0912201F09123018189928951
:102A2000892B31F080912C08EFEEF3E0811102C088
:102A3000E9EEF3E08491115029F0882319F089938D
:102A40003196F8CFCE01DF91CF911F910895EF928B
:102A5000FF921F93CF93DF937C01EB018FEF840FE5
:102A6000FB01E80FF11D1082D70114969C91992368
:102A700031F08EEF840FFB01E80FF11D908311E020
:102A8000180F482F50E060E270E0CE010E94382D10
:102A9000D7011296ED91FC918491115029F0882371
:102AA00019F089933196F8CFCE01DF91CF911F9124
:102AB000FF90EF900895FF920F931F93CF93DF93B2
:102AC000EC018B01F42E0E947308882369F081EEDB
:102AD00093E09B838A834F2DB801CE01B8DFCDB739
:102AE000DEB7E5E00C940F2BE88DF98D8081813005
:102AF00029F0823031F48AED93E0EBCF83ED93E05F
:102B0000E8CF85EC93E0E5CFEF92FF920F931F9310
:102B1000CF93DF938C017B01C42F99DFD8011996E5
:102B2000ED91FC911A972081222399F01596ED9151
:102B3000FC9124910196CE0DDF2DD11D8C179D07A0
:102B400060F4222351F0DC012D93CD0131962491C4
:102B5000F5CF1796ED91FC91ECCFCDB7DEB7E6E05F
:102B60000C940E2BEF92FF921F93CF93DF93EC0107
:102B70007B01142F6CDFA701410F511D98878F83B4
:102B8000481B47FD40E04987EA85FB85408151812C
:102B900062817381CE010596AADC8F819885DF91D1
:102BA000CF911F91FF90EF900895EF92FF921F93A6
:102BB000CF93DF93EC017B01142F49DFA701410F75
:102BC000511D98878F83481B47FD40E04987EA8560
:102BD000FB856081718120E240E157E2CE010596DC
:102BE00050DC8F819885DF91CF911F91FF90EF90FE
:102BF0000895B0E0A0E0EFEFF5E10C94F12AEC01CC
:102C000040E061E08A819B810E94CA090E94040A17
:102C1000ED81FE81D080ED2CF12CC701880F991F2A
:102C2000EF81F885E80FF91F05911491C8010E9402
:102C3000472A282FDD2011F022E0280F89858150B6
:102C4000990BE816F9060CF42E5F84E190E0821BE4
:102C5000910997FD01969595879562E00E94BE09BE
:102C6000ED81FE818081882331F067EA73E082EF95
:102C700097E00E94F404B80182EF97E00E94F40408
:102C8000ED81FE81208189858150990B28171906D5
:102C900034F464EA73E082EF97E00E94F404CDB765
:102CA000DEB7E7E00C940D2B0F931F93CF938B01AE
:102CB000C42FCDDEA8014C0F511D481B40310CF034
:102CC0004FE0042E000C550B60EE7FE70E945E2A59
:102CD000CF911F910F910895B0E0A0E0E2E7F6E1F7
:102CE0000C94F12A8C01EB017B01E40EF51ED990C6
:102CF000C8010E946D2AD81621F06D2DC8010E94CE
:102D0000752A0F5F1F4FEC16FD0689F7CDB7DEB7AA
:102D1000E7E00C940D2BA6E0B0E0E1E9F6E10C94BD
:102D2000F62A46E050E065E973E0CE0101960E9484
:102D30005E2A46E050E0BE016F5F7F4F80E893E07F
:102D4000CBDF47E150E066E371E086E893E0C4DF63
:102D50002696E2E00C94122B1F93CF93DF93EC01A5
:102D6000162F66FF12C0ED81FE81808129852150DA
:102D7000330B821713064CF48F5F8083E881F9814F
:102D80000280F381E02DCE01099517FF0EC0ED8181
:102D9000FE818081882349F081508083E881F98118
:102DA0000280F381E02DCE01099590E080E014FFD0
:102DB00002C0B1DFCE01DF91CF911F910895CF9373
:102DC000DF93EC01E985FA8581E09081911180E043
:102DD0008083A1DFCE01DF91CF910895B0E0A0E024
:102DE000E4EFF6E10C94E72AEC0110E031EBC32E9E
:102DF00033E0D32E4CE8342E54E4852E69ECA62E15
:102E000064E0B62E0CE374E1972E8D85181708F058
:102E10006CC0812F90E0880F991FEB85FC85E80F2F
:102E2000F91FA591B491E985FA8580811796ED90F7
:102E3000FC90189781112EC01696BC92AE921597F1
:102E400019960C9319971A969C92F701608170E07D
:102E500090E080E00E941F2C20E030E040E052E44F
:102E60000E941D2B26E636E646EE5FE30E94862B87
:102E70002B013C0120E030E0A9010E94D12C87FF0A
:102E800026C020E030E040E05FE3C301B2010E94D1
:102E90001D2B25C01696DC92CE92159719963C9262
:102EA00019971A968C92F701608170E090E080E0AB
:102EB0000E941F2C26E636E646EE5FE30E94D52CE4
:102EC00020E030E040E052E40E941E2BD1CF20E011
:102ED00030E040E05FE3C301B2010E941E2B0E947C
:102EE000EE2BF70160831F5F90CFCE0168DFCE012C
:102EF000CDB7DEB7E1E10C94032B1F93CF93DF93A3
:102F0000EC01162F66FF06C0E881F9810684F7857B
:102F1000E02D099517FF07C0E881F9810088F18944
:102F2000E02DCE01099590E080E014FF02C0F3DEB1
:102F3000CE01DF91CF911F910895EF92FF920F93F1
:102F40001F93CF93DF938B01040F151FEB017C01BF
:102F5000E61AF70AC7018C0F9D1F0E946D2A8993FC
:102F6000C017D107B9F7CDB7DEB7E6E00C940E2B4A
:102F7000B0E0A0E0EEEBF7E10C94E92A04E812E0FF
:102F8000109325050093240510922705109226051D
:102F9000109229051092280510922B0510922A05EF
:102FA00024E4E22E21E0F22EF0922D05E0922C0591
:102FB00010922E0510922F051092300510923105B7
:102FC000109232058DEB94E0909334058093330595
:102FD000109236051092350510923805109237057B
:102FE0001092390560E08CE095E00E94450661E0B2
:102FF00084EF94E00E9445061093DF040093DE0402
:103000008CE095E09093E1048093E0041092E30457
:103010001092E2041092E5041092E40426E431E0F8
:103020003093E7042093E6041092E8041092E90438
:103030001092EA041092EB041092EC0425EB34E0B9
:103040003093EE042093ED0428E331E03093F00454
:103050002093EF0436E3A32E31E0B32EB092F204B6
:10306000A092F10428E12093F3041093C904009383
:10307000C8049093CB048093CA041092CD0410929C
:10308000CC041092CF041092CE0428E431E03093A7
:10309000D1042093D0041092D2041092D304109241
:1030A000D4041092D5041092D6044EEA54E0509302
:1030B000D8044093D7044BE351E05093DA04409393
:1030C000D904C7E3D1E0D093DC04C093DB046CE403
:1030D0006093DD041093B3040093B2049093B5049D
:1030E0008093B4041092B7041092B6041092B904FD
:1030F0001092B8044AE451E05093BB044093BA04E0
:103100001092BC041092BD041092BE041092BF0431
:103110001092C004E7EAF4E0F093C204E093C10423
:10312000E9E3F1E0F093C404E093C304D093C60450
:10313000C093C5047AE47093C70410939D04009370
:103140009C0490939F0480939E041092A10410927B
:10315000A00470E4C72E71E0D72ED092A304C092D1
:10316000A2043093A5042093A4041092A604109204
:10317000A7041092A8041092A9041092AA04EFE9DF
:10318000F4E0F093AC04E093AB04E2E4F1E0F093FC
:10319000AE04E093AD04D093B004C093AF04609349
:1031A000B104109289041092880410928B0410923A
:1031B0008A04EFE38E2EE1E09E2E90928D048092A1
:1031C0008C0430938F0420938E04109290041092FC
:1031D0009104109292041092930410929404A7E91F
:1031E000B4E0B0939604A0939504E7E2F1E0F09385
:1031F0009804E0939704D0939A04C093990465E4EB
:10320000562E50929B0468E772E070938704609397
:1032100086040F2EFCE96F2EF4E07F2EF02D7092C5
:10322000FE056092FD05109200061092FF05D092F7
:103230000206C09201063093040620930306109202
:1032400005061092060610920706109208061092C4
:103250000906B0930B06A0930A06F0930D06E093BF
:103260000C06D0930F06C0930E0650921006709372
:10327000FC056093FB0510937E0500937D059093FC
:10328000800580937F05109282051092810510922F
:1032900084051092830565E271E070938605609362
:1032A0008505109287051092880510928905109265
:1032B0008A0510928B056EE874E070938D0560931B
:1032C0008C0564E271E070938F0560938E05109217
:1032D00091051092900568E06093920590936604C2
:1032E00080936504109268041092670410926A0437
:1032F0001092690430936C0420936B0410926D0457
:1033000010926E0410926F04109270041092710467
:1033100082E894E090937304809372048EE794E0C3
:10332000909375048093740410927704109276043D
:1033300084E48093780410927C0410927B041092B1
:103340007D0486E692E0909364048093630482E7B0
:1033500092E090937A04809379040AE000937E04CB
:1033600010927F04109280041092810410928204C3
:1033700010928404109283041092850483E694E0F2
:1033800090934B0480934A0410924D0410924C0485
:1033900010924F0410924E045093510440935004E5
:1033A0001092520410925304109254041092550437
:1033B0001092560487E794E0909358048093570442
:1033C0008EE594E090935A048093590410925C0423
:1033D00010925B0482E880935D048AE592E090930A
:1033E00049048093480400935E0410925F04109295
:1033F0006004109261041092620488E494E0909357
:10340000250480932404109227041092260410921D
:103410002904109228048EE394E090932B04809367
:103420002A0410922C0410922D0410922E04109253
:103430002F04109230048DE694E090933204809330
:1034400031048DE394E0909334048093330410921C
:103450003604109235041092370410923B041092F7
:103460003A0410923C0488E492E090932304809301
:10347000220484E592E0909339048093380412E0AA
:1034800010933D0410923E0410923F0410924104A8
:10349000109240041092430410924204109245048A
:1034A00010924404109246041092470482E294E081
:1034B0009093040480930304109206041092050470
:1034C0001092080410920704F0920A04E092090492
:1034D00010920B0410920C0410920D0410920E0422
:1034E00010920F048FE594E09093110480931004E0
:1034F0008CE194E090931304809312048DE194E0A6
:1035000090931504809314041092160410921A04D8
:103510001092190410921B0486E392E09093020427
:103520008093010482E492E090931804809317043E
:1035300083E0782E70921C0410921D0410921F04D8
:1035400010921E04109220041092210481E094E055
:103550009093E6038093E5031092E8031092E7034B
:103560001092EA031092E903F092EC03E092EB036D
:103570001092ED031092EE031092EF031092F003FD
:103580001092F10381E594E09093F3038093F203AA
:103590001092F5031092F4031092F7031092F603C1
:1035A0001092F8038AE292E09093E4038093E3039D
:1035B00021E434E03093FA032093F90321E334E06B
:1035C0003093FC032093FB0323E738E03093FE03A2
:1035D0002093FD031092FF031092000423EE33E0CA
:1035E00030934A052093490510924C0510924B05E3
:1035F00010924E0510924D05F0925005E0924F0545
:1036000010925105109252051092530510925405D4
:103610001092550526E234E0309357052093560565
:10362000109259051092580510925B0510925A0598
:1036300010925C05909348058093470587E194E0DC
:1036400090935E0580935D0587E094E0909360051C
:1036500080935F058AE798E0909362058093610507
:1036600010926305109264058CE793E09093EE0747
:103670008093ED0728EB37E03093F0072093EF07B6
:10368000FF24F394F092F1079093E9078093E80701
:1036900083EB97E09093EB078093EA0784E08093B5
:1036A000EC072CE349E351E063EA77E08DED97E026
:1036B0000E9452052CE34BE351E063E977E082ED91
:1036C00097E00E9452052AE048E351E062E877E083
:1036D00087EC97E00E9452052EE142E451E06FE64C
:1036E00077E08CEB97E00E94520525E04CE557E02F
:1036F00066E677E08FEA97E00E941F068FE497E086
:103700009093A7078093A6071093A8072DEC34E0A9
:103710003093AA072093A907D093AC07C093AB07B7
:103720000093AD07F092AE0786E693E09093A5076D
:103730008093A40741E457E050939C0740939B0774
:1037400010939D0730939F0720939E07B092A10787
:10375000A092A0070093A207F092A30790939A0764
:103760008093990723E04CE257E062E377E08CE82E
:1037700097E00E941F0684E297E09093840780936D
:1037800083071092850794E5A92E93E0B92EB09295
:103790008207A09281072FE1E22E27E0F22EF0921D
:1037A0008707E0928607C9E1D7E0D0938907C093E5
:1037B00088078EE391E090938B0780938A0787E0D8
:1037C00097E0909379078093780710937A0749ECF4
:1037D00054E050937C0740937B0790927E07809241
:1037E0007D073CE330937F0724E12093800786E642
:1037F00093E0909377078093760766EF76E0709377
:103800006E0760936D0710936F0750937107409395
:103810007007D0927307C092720730937407209399
:10382000750790936C0780936B078AEE96E09093F0
:10383000600780935F071092610784EC94E0909397
:103840006307809362078FEB94E090936507809302
:10385000640781E491E0909367078093660782E4B0
:1038600093E090935E0780935D0786EE96E09093D9
:1038700069078093680710936A0725E04FEC56E0CC
:1038800069ED76E080E597E00E941F0682EC96E005
:10389000909348078093470710924907B0924607D4
:1038A000A0924507F0924B07E0924A07D0934D074C
:1038B000C0934C078CE391E090934F0780934E07A1
:1038C00086EB96E090933E0780933D0710933F0769
:1038D00080E393E090933C0780933B078AE391E079
:1038E000909341078093400780EB96E090934307C5
:1038F000809342077092440780913A01843010F01F
:1039000010923A0123E044EA56E06AEA76E08EE259
:1039100097E00E941F062EE14AE451E062E976E05A
:1039200083E297E00E943F052EE14BE451E060E81E
:1039300076E088E197E00E943F0523E048E656E004
:103940006EE676E08BE097E00E941F062EE149E4E8
:1039500051E066E576E080E097E00E943F0522E0D6
:1039600040E456E064E476E083EF96E00E941F06B0
:103970002EE147E451E06DE276E088EE96E00E94A9
:103980003F0522E046E156E06AE176E08BED96E005
:103990000E941F062EE145E451E066E076E08EECE1
:1039A00096E00E943F058AE193E09093CF068093D2
:1039B000CE068CE09CE09093DA068093D90622E054
:1039C00042EF55E066EF75E081EC96E00E941F063D
:1039D00025E043EE55E06DEE75E084EB96E00E9445
:1039E0001F066EED75E08FEA96E00E94350688E0CE
:1039F00093E09093B0068093AF0663ED75E08AEA9A
:103A000096E00E94350668EC75E085EA96E00E9433
:103A1000350665EB75E080EA96E00E94350625E004
:103A20004FE955E069EA75E083E996E00E941F06D8
:103A300086E995E090938C0680938B0682E08093D4
:103A40008D0680E393E090938A06809389068DE348
:103A500091E090938F0680938E0680E995E0909395
:103A600091068093900683E08093920680913D01B9
:103A7000843010F010923D0121E043E451E060E811
:103A800075E08EE796E00E943F0525E04CE451E0AA
:103A900061E775E081E796E00E943F058AE193E0E7
:103AA00090937206809371068CEC9BE090937D0658
:103AB00080937C0627E04AE555E068E675E084E6F9
:103AC00096E00E941F068EEB94E090936006809330
:103AD0005F0612E01093610686EF92E090935E0617
:103AE00080935D068DEE97E0909363068093620667
:103AF00023E043E555E069E575E080E596E00E9446
:103B00001F0621E04FE355E061E475E083E496E0B1
:103B10000E941F0684EE92E0909344068093430631
:103B200020E536E050E040E070E060E089E296E0B9
:103B30000E94200582ED92E090932A068093290648
:103B40008DE391E0909342068093410620E536E0B4
:103B50004BEF55E061E375E081E196E00E942005BE
:103B600025E047E255E069E575E08EEE95E00E94BC
:103B70001F066CE175E082EE95E00E94350610921A
:103B8000EA051092E9051092EB058AEBE82E82E037
:103B9000F82EF092E305E092E205CCECD2E0D0936F
:103BA000E805C093E70580E391E09093ED058093ED
:103BB000EC0561E175E086ED95E00E943506109216
:103BC000DE051092DD051092DF05F092D705E09238
:103BD000D605D093DC05C093DB0582E391E090939A
:103BE000E1058093E00564E075E08AEC95E00E94D1
:103BF00035061092D2051092D1051092D30592EAA3
:103C0000E92E92E0F92EF092CB05E092CA05C4EBC2
:103C1000D2E0D093D005C093CF058CE291E0909391
:103C2000D5058093D40567EF74E08EEB95E00E9494
:103C300035061092C6051092C5051092C705F09280
:103C4000BF05E092BE05D093C405C093C30588E2CA
:103C500091E09093C9058093C80525E04DEE54E0AE
:103C600069E575E08BEA95E00E941F0680E992E025
:103C70009093AC058093AB0588EE93E09093B905E3
:103C80008093B8051092BA051092BB051092BC053E
:103C90001092BD052BEA35E04DE755E064EE74E087
:103CA00083E995E00E94200530E020E047E455E0FC
:103CB0006BED74E085E695E00E94200525E041ED7E
:103CC00054E069E575E08AE395E00E941F061092D2
:103CD000F5071092F4071092F6078EE893E09093A0
:103CE000F3078093F20780914D0190914E01A091CE
:103CF0004F01B09150018093F9079093FA07A09378
:103D0000FB07B093FC078091510190915201A09163
:103D10005301B09154018093FD079093FE07A09347
:103D2000FF07B093000861E08CE00E942C0961E07D
:103D300086E00E942C0961E086E00E94A70761E00E
:103D400084E00E942C098BE39DE00197F1F760E08D
:103D50008CE00E94A70760E084E00E94A70763E070
:103D600082EF97E00E946809CBE4D6E4CE01019788
:103D7000F1F763E082EF97E00E9468092197F1F77D
:103D800063E082EF97E00E94680983E592E0019783
:103D9000F1F762E082EF97E00E94680940E068E294
:103DA00082EF97E00E949C09CBEED0E0CE01019714
:103DB000F1F784E08093F70740E06CE082EF97E052
:103DC0000E949C09CE010197F1F70E94B4098BED86
:103DD0009EE20197F1F71093F80740E066E082EF6A
:103DE00097E00E949C092197F1F710920D0888E056
:103DF00080930E088FEF9FEF9093100880930F0829
:103E000010921608109215081092120810921108BC
:103E1000109214081092130887E080930B081092F8
:103E20000C0861E088E00E942C0961E080910E0896
:103E30000E94A7070E946F0A60E080910E080E940E
:103E4000A70780910D08880F80640E942E078AE0E2
:103E50000E942E0788E00E942E0761E080910E08E4
:103E60000E94A70767E970E080E00E94D40787E915
:103E700090E09093100880930F0863E870E08CE066
:103E80000E94D40783E890E0909312088093110871
:103E900060E08AE00E94F20760E089E00E94F20799
:103EA00062E084E10E942C0962E085E10E942C0915
:103EB00061E089E00E942C0961E085E00E942C0904
:103EC00061E083E00E942C0961E08DE00E942C09F2
:103ED00061E08BE00E942C0960E086E10E942C09E1
:103EE0000E94C108109271000E943E080E9426089C
:103EF00061E080910B080E942C0961E080910B0821
:103F00000E94A7070E94A10A0E94A10A60E0809176
:103F10000B080E94A70780E00E942E0780930C08E0
:103F200080E00E942E0780E00E942E0780E00E9421
:103F30002E0780E00E942E0761E080910B080E940E
:103F4000A70764E088E10E94070B4AE05AE060E0BE
:103F500070E080E10E949A0801E010E020E030E08B
:103F600040E050E0BA0180E00E94B00A61E08FE0DA
:103F70000E94070B68E080E00E94070B04E010E05D
:103F800020E030E044E050E060E070E080E00E943B
:103F9000B00A0E947A08809302080E9473088093F6
:103FA000010881E090E0A0E0B0E0809317089093D2
:103FB0001808A0931908B0931A0810921B081092C1
:103FC0001C0810921D0810921E0810921F081092D3
:103FD00020081092210810922208109223081092B3
:103FE0002408109225081092260810922708109293
:103FF00028081092290810922A0880932B08809391
:104000002C0810922D08CDB7DEB7EFE00C94052BED
:104010001F920F920FB60F9211242F933F934F933D
:104020005F936F937F938F939F93AF93BF93CF9340
:10403000DF93EF93FF938091210190E0909399009B
:104040008093980061E085E00E94A707C3E0D0E07C
:10405000CE010197F1F760E085E00E94A707219764
:10406000F1F7FF91EF91DF91CF91BF91AF919F91C8
:104070008F917F916F915F914F913F912F910F9011
:104080000FBE0F901F9018951F920F920FB60F92B0
:1040900011242F933F934F935F936F937F938F934D
:1040A0009F93AF93BF93CF93EF93FF9384E10E94CD
:1040B0008107C1E0019709F0C0E085E10E94810716
:1040C000019709F4C2608091D7038C17A9F0C13021
:1040D00009F460C008F443C0C23009F44FC0C330D3
:1040E00009F452C0C093D7038091D6038D370CF4E6
:1040F00056C08CE78093D6038091DD038823E9F0D6
:104100008091DB039091DC030196893E23E09207C6
:1041100008F04CC09093DC038093DB0381E0409176
:10412000DB035091DC032091D9033091DA0342176D
:10413000530708F080E08093D803FF91EF91CF916F
:10414000BF91AF919F918F917F916F915F914F91AF
:104150003F912F910F900FBE0F901F9018958130B7
:1041600031F48091D6038F5F8093D603BBCF82302A
:1041700009F0B8CF8091D6038150F6CF882389F318
:10418000833009F0AFCFF6CF823059F3813009F098
:10419000A9CFF0CF833029F38111A4CFEBCF809149
:1041A000D60384380CF0A8CF84E8A4CF1092DC03A7
:1041B0001092DB03B3CFA6E0B0E0E1EEF0E20C94A6
:1041C000E72A789484B5826084BD84B5816084BD1B
:1041D00085B5826085BD85B5816085BD80916E00A5
:1041E000816080936E0010928100809181008260D6
:1041F0008093810080918100816080938100809113
:104200008000816080938000809191008260809323
:104210009100809191008160809391008091900045
:104220008160809390008091C10084608093C10080
:104230008091C10082608093C1008091C100816043
:104240008093C1008091C30081608093C3008091FE
:10425000C00082608093C0008091C2008160809322
:10426000C20080917A00846080937A0080917A0005
:10427000826080937A0080917A00816080937A00D6
:1042800080917A00806880937A001092E203109205
:10429000AA031092CB038091D70081608093D7004E
:1042A00080EA8093D80089B5806189BD89B5826034
:1042B00089BD09B400FEFDCF61E070E080E090E0D0
:1042C0000E94790C8091D8008F7C80618093D80007
:1042D0008091E000807F8093E0008091E1008E7EFD
:1042E0008093E1008DE08093E200559A209AEEEFF2
:1042F000FFE7859194918B3F9C4D19F481E0809369
:10430000A90346E050E0BE016F5F7F4F80E893E075
:104310000E949D1746E050E065E973E0CE010196EA
:104320000E94502A892B09F02CC347E150E066E334
:1043300071E086E893E00E949D17109244018091FD
:104340004C010E94CC0B69ED71E080E00E94E50910
:1043500061ED71E081E00E94E50969EC71E082E0C5
:104360000E94E50961EC71E083E00E94E50969EBD8
:1043700071E084E00E94E50962E080E00E942C097F
:1043800062E082E00E942C098EED94E09093090196
:104390008093080180916900806380936900EA9AA4
:1043A00088ED94E090930701809306018091690065
:1043B0008C6080936900E99AF8948FEA87BD8091B8
:1043C0006E00826080936E001092900010929100B7
:1043D000109295001092940088EC90E090939900D0
:1043E00080939800809191008860809391008091E3
:1043F0009100836080939100109271007894809175
:10440000220190912301DC01ED91FC910190F0815A
:10441000E02D09958091410181111AC321EB33E010
:1044200030937C0720937B079CE890937F0784E47C
:1044300080938007309371072093700790937407DF
:104440008093750789E896E09093F6058093F505CB
:104450008BEA95E090939B0680939A06909358067A
:10446000809357068AE395E090936C0680936B06E1
:1044700080910E0190910F01DC01ED91FC9106807D
:10448000F781E02D099580910E0190910F01DC01DB
:10449000ED91FC910280F381E02D09951092DA03F1
:1044A0001092D9031092D80343E050E060EE7FE70A
:1044B0008CE591E0DFD7892B09F0D5C2A8E79A2EC9
:1044C00088248394B4E63B2E18EEA12E13E0B12E7F
:1044D0008091FE0A9091FF0A8737974709F0A895C7
:1044E0000E94C70C6B017C018091CD03882389F168
:1044F0008091CE039091CF03A091D003B091D103CE
:10450000A7019601281B390B4A0B5B0BDA01C90185
:10451000C297A105B105E8F0C092CE03D092CF03B7
:10452000E092D003F092D10390912101809120017B
:10453000891708F0A1C2809121018C3428F0809164
:104540002101845080932101809121018150809329
:1045500021018091BA039091BB03A091BC03B0915B
:10456000BD03A7019601281B390B4A0B5B0BDA012F
:10457000C901843F9140A105B10548F1C092BA0339
:10458000D092BB03E092BC03F092BD038091DE03A6
:10459000899DC001112490933101809330011092C4
:1045A000DE038091DF03899DC001112490933301C4
:1045B000809332011092DF038091E003899DC00156
:1045C000112490933501809334011092E00380917F
:1045D000B6039091B703A091B803B091B903A701B6
:1045E0009601281B390B4A0B5B0BDA01C901843F8A
:1045F0009140A105B10508F4DCC0C092B603D09289
:10460000B703E092B803F092B9038091AB0388231B
:1046100009F43CC20E94AF0465E272E0959587956B
:10462000959587950E941104BC01990F880B990BF1
:104630000E94212C20E030E040E251E40E94862BD1
:10464000609318017093190180931A0190931B01D4
:104650002091410121110BC026E636E646EE5FE3CC
:104660000E94D52C20E030E040E052E4E7D7609390
:1046700028017093290180932A0190932B01609166
:10468000AB0368256093AB038AE00E94F207609158
:10469000CC03662309F48DC070E090E080E00E94B6
:1046A000212C9B01AC0160912C0170912D01809116
:1046B0002E0190912F01C1D76B017C012091AC0399
:1046C0003091AD034091AE035091AF03B7D72B01AA
:1046D0003C0120E030E44CE156E40E94D12C181655
:1046E0000CF482C220E030E44CE156ECC301B2018C
:1046F0000E94822B87FD78C24092AC035092AD039A
:104700006092AE037092AF032FE632E143E85AE3C2
:104710006091AC037091AD038091AE039091AF03B3
:104720000E94D52C2B013C0120E030E040E251E416
:10473000C701B6010E94D52C9B01AC01C301B20197
:104740007DD72B013C0120E030E048EC52E40E9490
:10475000D12C18160CF455C220E030E040EF51E4A3
:10476000C301B201CFD787FD53C26091D40370E07B
:1047700090E080E00E94212CA3019201C3D7811117
:104780000EC06091D50370E090E080E00E94212C83
:104790009B01AC01C301B201B5D7882351F0C3011D
:1047A000B2010E94F32B6093D4036093D5030E945F
:1047B000100C8091D8039091D30389130E9419089B
:1047C0000E947A089091020810E0891731F012E0F7
:1047D000811101C011E0809302080E94730890913A
:1047E0000108891731F0882309F419C214608093F5
:1047F000010881E00E9444089091B50381112DC207
:1048000091110FC28092B5030E94C70C6093B1034F
:104810007093B2038093B3039093B4038091D60353
:1048200084300CF428C28091D60384508093D60340
:10483000106480913C018823B1F0812F807F99F032
:104840000AE061E089E00E94A7078BE891E0019708
:10485000F1F760E089E00E94A7078BE891E00197FB
:10486000F1F7015071F7E0902201F0902301D70198
:1048700055968C9184FF02C013FD04C0867029F008
:1048800010FF03C0C7010E94C808F7018589867020
:1048900049F011FF07C00E947308811103C0C701CE
:1048A0000E94D30ED701ED91FC910280F381E02D9F
:1048B000C7010995009711F00E94E20880910E014E
:1048C00090910F01DC01ED91FC910480F581E02DC8
:1048D000099580910E0190910F01DC01ED91FC9101
:1048E0000284F385E02D612F09958C01B7E0883EA5
:1048F0009B07A9F08D5E974091F080910E019091F9
:104900000F010817190759F0E0912201F0912301D6
:10491000258925FFBCC12685222309F4B8C18091D1
:10492000C803882309F4D4CD80910E0190910F0122
:10493000DC01ED91FC910084F185E02D09958091D9
:10494000C80381508093C803E82FF0E0EE0FFF1FEB
:10495000E254FC4FE080F180F0920F01E0920E01F2
:10496000B7E0083E1B0711F48111DECF0E94B409A5
:10497000D701ED91FC910280F381E02DC7010995EB
:10498000A7CD46E050E06FE971E0CE01019688D5F1
:10499000892B09F0D2CC109140014CE050E066E345
:1049A00071E086E893E00E949D1780914101882381
:1049B00019F010934001C1CC60913F0170E090E08C
:1049C00080E03DD726E636E646EE5FE3EED720E010
:1049D00030E040E052E432D66B017C0120E030E070
:1049E000A901DFD720E030E040E05FE387FD28C089
:1049F000C701B60123D6F2D660933F01612F70E064
:104A000090E080E01CD726E636E646EE5FE3CDD7A1
:104A100020E030E040E052E411D66B017C0120E060
:104A200030E0A901BED720E030E040E05FE387FD41
:104A30000BC0C701B60102D6D1D6609340017DCC30
:104A4000C701B601FAD5D7CFC701B601F6D5F4CF65
:104A500029EC34E030937C0720937B079CE3909310
:104A60007F0784E1E5CC0E94B40941E060E085EA7B
:104A700091E00E94CA09FFCF1092CD034AE05AE0AC
:104A800065E070E080E10E949A0863CD0E94AF0467
:104A900061EE71E095958795959587950E94110433
:104AA000BC01990F880B990BCCD620E030E040E296
:104AB00051E42CD66B017C01C0921C01D0921D01E7
:104AC000E0921E01F0921F0180914101811133C0DB
:104AD00026E636E646EE5FE3C701B60166D720E07C
:104AE00030E040E052E4AAD560932C0170932D0190
:104AF00080932E0190932F011091D4038091D203C3
:104B0000882309F45DC060913F0170E090E080E08F
:104B100098D6A701960191D56B017C0120E030E089
:104B2000A9013FD7181654F01092DA031092D90356
:104B30001092D80327C0C701B601D6CF20E030E0DD
:104B400040E050E4C701B601DDD587FF17C020E083
:104B500030E045E754E4C701B60127D76B017C017B
:104B600020E030E0A9011DD787FF16C020E030E02B
:104B700040E05FE3C701B60160D515C0B092DA032B
:104B8000A092D903143609F47ACD3092D40364E6A6
:104B900080E00E94DC0B73CD20E030E040E05FE37A
:104BA000C701B6014BD51AD67093DA036093D903C7
:104BB000693E43E0740710F7672B09F4B9CFE2CFE1
:104BC00020E030E04CE052E4C701B601EAD6181606
:104BD0000CF055CD612F183208F468E2183208F055
:104BE0004ECD6093D403D4CF80E090E4ACE1B6E442
:104BF0008093AC039093AD03A093AE03B093AF0347
:104C000083CD412C512C58EC652E52E4752EADCD40
:104C1000412C512C40EF642E41E4742EA6CD186037
:104C2000E6CD8091B0038111F9CD0E94C70C20918F
:104C3000B1033091B2034091B3035091B403621BAE
:104C4000730B840B950B693E73408105910508F445
:104C5000E5CD8092B0031062E1CD992309F4DECD59
:104C60008091B003882329F01092B0031092B5030D
:104C7000D5CD1061FBCF8091D6038D3F0CF0D9CDFF
:104C80008091D6038C5F8093D6031068D2CD011536
:104C9000110509F41DCCE091C803E53008F018CCEB
:104CA00021E02E0F2093C803F0E0EE0FFF1FE25427
:104CB000FC4F9183808310930F0100930E010E949B
:104CC000B409D801ED91FC910680F781E02DC8016F
:104CD000099580910E0190910F01DC01ED91FC91FD
:104CE0000280F381E02D4BCE1F920F920FB60F92F0
:104CF00011248F939F938091E1009091E100937F25
:104D00009093E10083FF0FC01092E90091E090932F
:104D1000EB001092EC0092E39093ED001092E2030E
:104D200098E09093F00082FF22C093E09093E90016
:104D30009091F200992319F09AE39093E8009091F2
:104D4000CA03992341F09091CA0391509093CA03EA
:104D5000911101C05D9A9091E103992341F09091E6
:104D6000E10391509093E103911101C0289A84FFCF
:104D700018C08091E2008E7E81608093E200809175
:104D8000E1008F7E8093E1008091CB038E7E806175
:104D90008093CB039F918F910F900FBE0F901F9028
:104DA000189580FFF7CF8091E2008E7E806180931E
:104DB000E2008091E1008E7E8093E1008091CB0340
:104DC0008E7E8160E5CF1F920F920FB60F92112455
:104DD000CF92DF92EF92FF920F931F932F933F9307
:104DE0004F935F936F937F938F939F93AF93BF93F3
:104DF000EF93FF93CF93DF93CDB7DEB76C97DEBF12
:104E0000CDBF1092E9008091E80083FF25C068E0E3
:104E1000CE0145960E94210782EF8093E8008D899C
:104E200087FF39C09091E80090FFFCCF982F9076D3
:104E300009F034C19E894F89588D2F89F88C9111C2
:104E400031C0803861F58091AA038093F1001092FF
:104E5000F1008EEF8093E8006C960FB6F894DEBFF9
:104E60000FBECDBFDF91CF91FF91EF91BF91AF9179
:104E70009F918F917F916F915F914F913F912F9172
:104E80001F910F91FF90EF90DF90CF900F900FBE8A
:104E90000F901F9018959EEF9093E800C7CF109247
:104EA000F100D5CF913059F48111D3CF4130510564
:104EB00081F68091AA038D7F8093AA03CACF933095
:104EC00049F48111C6CF4130510519F68091AA03EA
:104ED0008260F2CF953041F48091E80080FFFCCFF2
:104EE00020682093E300B5CF963009F0A9C00B8D60
:104EF0001C8D22E01092E90010929C0310929B03FB
:104F0000F2122EC010929A03109299030E94F50695
:104F10001F8299E09983FA8291E09E8390EA9887B4
:104F20009AEF998720919B0330919C03275F3F4F15
:104F30003C832B838D831092E90010929C03109286
:104F40009B0310939A030093990349E050E0BE013C
:104F50006F5F7F4F80E00E94D4060E94F50679CFF4
:104F600010939A03009399030E946806DC0112963D
:104F70000D911C910115110509F43BC1D801ED916A
:104F8000FC910480F581E02DBE016B5E7F4FC8016E
:104F90000995009709F028C1F80100851185EACF2D
:104FA000F3E0FF120EC08F89882309F440C08230DD
:104FB00061F440E863E18BE891E00E94AA06811168
:104FC00048CF81E28093EB0047CF813029F440E85D
:104FD0006AE180E791E0F1CF833099F70E9468069B
:104FE000DC011296ED90FC908E010F5F1F4F68015F
:104FF000E114F10479F0D701ED91FC910680F7817D
:10500000E02DB801C7010995080F111DF701E084D3
:10501000F184EECFD8011C92F60101900020E9F74F
:105020003197BF016C197D0940E0C601C6CF6AE522
:1050300071E0FB01449150E080E80E94D40609CF62
:10504000973009F4BECF983021F481E08093F100CD
:1050500000CF993009F0FDCE837009F0B2CFE6E5BC
:10506000F1E081E031E096E32191222371F0809319
:10507000E9003093EB00DF0111972C912093EC00B5
:105080009093ED008F5F873079F78EE78093EA0089
:105090001092EA008F898093E203DBCE8B8D9C8D8A
:1050A0001092E90010929C0310929B0390939A0334
:1050B00080939903898D81117DC08E899D89913A54
:1050C00049F4813209F07DCF47E050E060E171E0C2
:1050D00080E0B3CF913209F074CF833269F48F89C5
:1050E000988DB0E0A0E08093000190930101A0931F
:1050F0000201B0930301ADCE803209F080C08091EF
:10510000E80082FFFCCF67E080E191E00E94210788
:105110008BEF8093E8008091A903E0E0F8E088231A
:1051200011F0EEEFFAE08091100190911101A09141
:105130001201B0911301803B9440A105B105B9F46F
:105140008091170180FD13C0EE3F8AE0F80721F53A
:1051500087E797E79183808388E19BE00FB6F89417
:10516000A895809360000FBE9093600072CE0FB63A
:10517000F894A895809160008861809360001092F7
:1051800060000FBEA895EE3FAAE0FA0761F4109206
:10519000FF0A1092FE0A5DCE808191819093FF0AF2
:1051A0008093FE0AD5CF8091FE0A9091FF0A9183E9
:1051B00080834FCE0E946806FC0102811381011595
:1051C000110509F4FECED801ED91FC910190F0811A
:1051D000E02DBE016B5E7F4FC8010995811139CE6C
:1051E000F80100851185EBCF181619060CF431CEA5
:1051F000E8CEF1E0FF12D4CE6EE571E01ACF823234
:1052000009F027CE8F898093170185CF1F920F92C7
:105210000FB60F9211242F933F934F935F936F9389
:105220007F938F939F93AF93BF93EF93FF93E091FF
:105230000C01F0910D010995FF91EF91BF91AF9194
:105240009F918F917F916F915F914F913F912F919E
:105250000F900FBE0F901F9018951F920F920FB6D0
:105260000F9211242F933F934F935F936F937F93EC
:105270008F939F93AF93BF93EF93FF93E0910A01B6
:10528000F0910B010995FF91EF91BF91AF919F9123
:105290008F917F916F915F914F913F912F910F90DF
:1052A0000FBE0F901F9018951F920F920FB60F927E
:1052B00011242F933F934F935F936F937F938F931B
:1052C0009F93AF93BF93EF93FF93E0910801F09109
:1052D00009010995FF91EF91BF91AF919F918F9136
:1052E0007F916F915F914F913F912F910F900FBEE2
:1052F0000F901F9018951F920F920FB60F921124C6
:105300002F933F934F935F936F937F938F939F93CD
:10531000AF93BF93EF93FF93E0910601F0910701E4
:105320000995FF91EF91BF91AF919F918F917F91DF
:105330006F915F914F913F912F910F900FBE0F9002
:105340001F9018951F920F920FB60F9211242F9352
:105350003F934F935F936F937F938F939F93AF93FD
:10536000BF93EF93FF93E0910401F091050109953C
:10537000FF91EF91BF91AF919F918F917F916F912D
:105380005F914F913F912F910F900FBE0F901F9003
:1053900018951F920F920FB60F9211242F933F93DF
:1053A0008F939F93AF93BF938091910390919203BA
:1053B000A0919303B09194033091900323E0230FC5
:1053C0002D3758F50196A11DB11D209390038093B0
:1053D000910390939203A0939303B09394038091CD
:1053E000950390919603A0919703B091980301962D
:1053F000A11DB11D8093950390939603A0939703ED
:10540000B0939803BF91AF919F918F913F912F914E
:105410000F900FBE0F901F90189526E8230F02964D
:10542000A11DB11DD2CF97FB072E16F4009406D014
:1054300077FD08D00BD007FC05D03EF49095819500
:105440009F4F0895709561957F4F0895AA1BBB1BD0
:1054500051E107C0AA1FBB1FA617B70710F0A61B74
:10546000B70B881F991F5A95A9F780959095BC0195
:10547000CD010895FB01DC0104C08D9105908019D8
:1054800021F441505040C8F7881B990B0895FC0146
:1054900005900020E9F7809590958E0F9F1F089545
:1054A000FB01DC014150504030F08D910590801996
:1054B00019F40020B9F7881B990B0895FB01DC0152
:1054C0004150504048F005900D920020C9F701C0AE
:1054D0001D9241505040E0F70895F999FECF92BDDA
:1054E00081BDF89A992780B50895262FF999FECFA6
:1054F0001FBA92BD81BD20BD0FB6F894FA9AF99AF1
:105500000FBE01960895052E97FB16F400940FD058
:1055100057FD05D024D007FC02D046F408C05095B2
:105520004095309521953F4F4F4F5F4F089590958F
:105530008095709561957F4F8F4F9F4F089531D023
:10554000A59F900DB49F900DA49F800D911D1124D7
:105550000895B7FFF4CFF3DF821B930B0895A1E208
:105560001A2EAA1BBB1BFD010DC0AA1FBB1FEE1FDD
:10557000FF1FA217B307E407F50720F0A21BB30B28
:10558000E40BF50B661F771F881F991F1A9469F7A4
:1055900060957095809590959B01AC01BD01CF0100
:1055A0000895A29FB001B39FC001A39F700D811DFC
:1055B0001124911DB29F700D811D1124911D08951C
:1055C000EE0FFF1F0590F491E02D09942F923F926A
:1055D0004F925F926F927F928F929F92AF92BF9203
:1055E000CF92DF92EF92FF920F931F93CF93DF93AF
:1055F000CDB7DEB7CA1BDB0B0FB6F894DEBF0FBE0C
:10560000CDBF09942A88398848885F846E847D8458
:105610008C849B84AA84B984C884DF80EE80FD805A
:105620000C811B81AA81B981CE0FD11D0FB6F894D0
:10563000DEBF0FBECDBFED0108955058BB27AA278E
:105640000ED075C166D130F06BD120F031F49F3FA0
:1056500011F41EF45BC10EF4E095E7FB51C1E92F94
:1056600077D180F3BA17620773078407950718F09C
:1056700071F49EF58FC10EF4E0950B2EBA2FA02D7C
:105680000B01B90190010C01CA01A0011124FF27EF
:10569000591B99F0593F50F4503E68F11A16F040EA
:1056A000A22F232F342F4427585FF3CF46953795E9
:1056B0002795A795F0405395C9F77EF41F16BA0BAE
:1056C000620B730B840BBAF09150A1F0FF0FBB1F5C
:1056D000661F771F881FC2F70EC0BA0F621F731FA5
:1056E000841F48F4879577956795B795F7959E3F02
:1056F00008F0B3CF9395880F08F09927EE0F979590
:1057000087950895D9D008F481E008950CD00FC191
:1057100007D140F0FED030F021F45F3F19F0F0C027
:10572000511139C1F3C014D198F39923C9F355230A
:10573000B1F3951B550BBB27AA2762177307840784
:1057400038F09F5F5F4F220F331F441FAA1FA9F33A
:1057500033D00E2E3AF0E0E830D091505040E6952C
:10576000001CCAF729D0FE2F27D0660F771F881F8D
:10577000BB1F261737074807AB07B0E809F0BB0B7C
:10578000802DBF01FF2793585F4F2AF09E3F5105A0
:1057900068F0B6C000C15F3FECF3983EDCF386953D
:1057A00077956795B795F7959F5FC9F7880F911D16
:1057B0009695879597F90895E1E0660F771F881F02
:1057C000BB1F621773078407BA0720F0621B730BB5
:1057D000840BBA0BEE1F88F7E095089504D0689407
:1057E000B111D9C00895BCD088F09F5790F0B92F5F
:1057F0009927B751A0F0D1F0660F771F881F991F26
:105800001AF0BA95C9F712C0B13081F0C3D0B1E037
:105810000895C0C0672F782F8827B85F39F0B93F47
:10582000CCF3869577956795B395D9F73EF4909527
:105830008095709561957F4F8F4F9F4F0895E894A5
:1058400009C097FB3EF490958095709561957F4FC8
:105850008F4F9F4F9923A9F0F92F96E9BB27939576
:10586000F695879577956795B795F111F8CFFAF486
:10587000BB0F11F460FF1BC06F5F7F4F8F4F9F4FB7
:1058800016C0882311F096E911C0772321F09EE815
:10589000872F762F05C0662371F096E8862F70E07B
:1058A00060E02AF09A95660F771F881FDAF7880F55
:1058B0009695879597F90895990F0008550FAA0BAB
:1058C000E0E8FEEF16161706E807F907C0F0121613
:1058D0001306E407F50798F0621B730B840B950B16
:1058E00039F40A2661F0232B242B252B21F408956B
:1058F0000A2609F4A140A6958FEF811D811D089508
:1059000097F99F6780E870E060E008959FEF80EC72
:10591000089500240A941616170618060906089515
:1059200000240A9412161306140605060895092E7B
:105930000394000C11F4882352F0BB0F40F4BF2BEA
:1059400011F460FF04C06F5F7F4F8F4F9F4F08952A
:1059500057FD9058440F551F59F05F3F71F0479520
:10596000880F97FB991F61F09F3F79F08795089505
:10597000121613061406551FF2CF4695F1DF08C024
:10598000161617061806991FF1CF86957105610541
:1059900008940895E894BB2766277727CB0197F9E9
:1059A00008958ADF08F48FEF08950BD0C0CFB1DFE0
:1059B00028F0B6DF18F0952309F0A2CFA7CF112465
:1059C000EACFC6DFA0F3959FD1F3950F50E0551FA6
:1059D000629FF001729FBB27F00DB11D639FAA2744
:1059E000F00DB11DAA1F649F6627B00DA11D661F93
:1059F000829F2227B00DA11D621F739FB00DA11DB4
:105A0000621F839FA00D611D221F749F3327A00D6D
:105A1000611D231F849F600D211D822F762F6A2F09
:105A200011249F5750408AF0E1F088234AF0EE0F8E
:105A3000FF1FBB1F661F771F881F91505040A9F79B
:105A40009E3F510570F05CCFA6CF5F3FECF3983ED0
:105A5000DCF3869577956795B795F795E7959F5F02
:105A6000C1F7FE2B880F911D9695879597F908959C
:105A7000DC0101C06D9341505040E0F70895F89467
:025A8000FFCF56
:105A8200FFFFFFFF530C530C530C530C530CEE054A
:105A920000E1000000000000000020C2000020C25F
:105AA200C8C824050A64640F000020C2000020C296
:105AB2000100010001000A010403010301000023A7
:105AC2001E010A64001E00461E460046640A121F9A
:105AD200130040145400C1808100000030325F0086
