:020000023000CC
:10E000000D9472F00D949BF00D949BF00D949BF089
:10E010000D949BF00D949BF00D949BF00D949BF050
:10E020000D949BF00D949BF00D949BF00D949BF040
:10E030000D949BF00D949BF00D949BF00D949BF030
:10E040000D949BF00D949BF00D949BF00D949BF020
:10E050000D949BF00D949BF00D949BF00D949BF010
:10E060000D949BF00D949BF00D949BF00D949BF000
:10E070000D949BF00D949BF00D949BF00D949BF0F0
:10E080000D949BF00D949BF00D949BF00D949BF0E0
:10E090000D949BF00D949BF00D949BF00D949BF0D0
:10E0A0000D949BF00D949BF00D949BF00D949BF0C0
:10E0B0000D949BF00D949BF00D949BF00D949BF0B0
:10E0C0000D949BF00D949BF00D949BF00D949BF0A0
:10E0D0000D949BF00D949BF00D949BF00D949BF090
:10E0E0000D949BF011241FBECFEFD1E2DEBFCDBF58
:10E0F00001E00CBF12E0A0E0B2E0E0E0F0EF03E0EE
:10E100000BBF02C007900D92AA36B107D9F722E0E3
:10E11000AAE6B2E001C01D92AA37B207E1F70F9458
:10E120000EF20D94FEF701E20EBF0FEE0DBF1124AB
:10E130001FBE0D940EF20D9400F0209178023091E4
:10E1400079022115310561F48093C6008091C000E9
:10E1500086FFFCCF8091C00080648093C00008954A
:10E160002230310559F48093D6008091D00086FF8B
:10E17000FCCF8091D00080648093D000089520E08F
:10E1800030E02817390749F0EFECF7E03197F1F765
:10E1900000C000002F5F3F4FF4CF0895E0ECF0E0A7
:10E1A00080818260808320E12093C40098E1909375
:10E1B000C100E0EDF0E08081826080832093D40094
:10E1C0009093D1000895019719F480E885B90895D6
:10E1D00015B8089581B1806F81B982B1806F82B91D
:10E1E0006D9A75989D9AA598E1E0F1E0808188622A
:10E1F0008083E2E0F1E080818862808308958F98D7
:10E2000008958F9A0895CF93DF93C82FD62F662352
:10E2100011F05D9A01C05D98C7FF02C0A39A01C0CA
:10E22000A39880910201C6FF02C0806801C08F7769
:10E2300080930201C5FF02C0A49A01C0A498C4FF44
:10E2400002C08D9A01C08D9800C00F9401F182E048
:10E250008A95F1F700C00F94FFF0C3FF02C0A39AA4
:10E2600001C0A39880910201C2FF02C0806801C072
:10E270008F7780930201C1FF02C0A49A01C0A498C5
:10E28000C0FF02C08D9A01C08D9800C00F9401F1AB
:10E2900092E09A95F1F700C00F94FFF0A39A809155
:10E2A0000201806880930201A49A8D9AD11108C05E
:10E2B000C43030F48FE999E10197F1F700C003C051
:10E2C00095ED9A95F1F70000DF91CF91089560E008
:10E2D0000D9403F180580D9467F181E00D9467F17E
:10E2E00082E00D9467F161E00D9403F1CF93DF9329
:10E2F000EC018991882319F00F9473F1FACFDF9123
:10E30000CF910895CF93DF93FC018491EF01219683
:10E31000882321F00F9473F1FE01F7CFDF91CF91A5
:10E320000895879A559A9B9AE1E0F1E08081806890
:10E3300080839C9A859A0F94FFF05D98A39AE2E0FF
:10E34000F1E0808180688083A49A8D9A8FE59AEEAF
:10E350000197F1F700C00000A39880818F77808338
:10E3600000C00F9401F192E09A95F1F700C00F946C
:10E37000FFF08FE090E40197F1F700C000000F94E8
:10E3800001F192E09A95F1F700C00F94FFF08FE849
:10E3900091E00197F1F700C000000F9401F192E0C5
:10E3A0009A95F1F700C00F94FFF085ED8A95F1F78B
:10E3B00000008D9800C00F9401F192E09A95F1F75A
:10E3C00000C00F94FFF085ED8A95F1F700008D985D
:10E3D00000C00F9401F192E09A95F1F700C00F94FC
:10E3E000FFF082E08A95F1F700C0A39A00C00F9475
:10E3F00001F192E09A95F1F700C00F94FFF085EDDE
:10E400008A95F1F7000088E00F9467F10F946DF1A1
:10E4100086E00F9467F18CE00D9467F1CF93DF9362
:10E42000CDB7DEB7CC52D1400FB6F894DEBF0FBEE9
:10E43000CDBF94B7F894A89514BE80916000886110
:10E440008093600010926000789493FFA6C0809142
:10E45000FC1F9091FD1FA091FE1FB091FF1F8A3AF3
:10E460009545AA4AB54509F031C58091F41F9091B0
:10E47000F51FA091F61FB091F71F6C017D0163E0BD
:10E48000362E51E015E001E12091F81F3091F91F7F
:10E490002115310509F41AC54091FB1F40FF09C041
:10E4A000F601E0925B0030925700E89507B600FC59
:10E4B000FDCF460157016FEF961AA60AB60A41FF33
:10E4C00058C044702091F81F3091F91F2115310573
:10E4D00009F442C088159905AA05BB0508F03CC09F
:10E4E0004090F01F5090F11F6090F21F7090F31F4A
:10E4F000442329F06BBEF2016791769106C0E0914A
:10E50000F01FF091F11F608171810B01FC01A0935C
:10E510005B0050935700E89511240296A11DB11D90
:10E5200072E0470E511C611C711C4092F01F50920A
:10E53000F11F6092F21F7092F31F2330310538F003
:10E54000225031093093F91F2093F81FBBCF10924E
:10E55000F91F1092F81FB6CFF601E0925B001093FE
:10E560005700E89507B600FCFDCF00935700E895EB
:10E5700011C09F5FAF4FBF4F2130E1E03E0730F049
:10E580003A953093F91F2093F81F04C01092F91F99
:10E590001092F81F7501640177CF109279021092E2
:10E5A0007802279A2F9A8091C00082608093C000E1
:10E5B00080E18093C40088E18093C10000000F9443
:10E5C000EAF080E885B90F94CEF00F9491F10F94A2
:10E5D0006DF180E00F946AF181E40F946AF183E0B9
:10E5E00092E00F9476F187E10F946AF185E192E071
:10E5F0000F9476F185E60F946AF184E292E00F942D
:10E6000076F115B800E010E0C12CD12C760157EC62
:10E61000852E5BE1952EA12CB12C8091C00087FD49
:10E620002AC08091D00087FD26C00115110519F57B
:10E63000F5E0FA95F1F700000FEFC01AD00AE00AF2
:10E64000F00A91E080E011E2C1161EE4D106E10477
:10E65000F10408F490E0092F182FC701B601A501B5
:10E6600094010F9499F7672B682B692BB1F685B14C
:10E67000805885B9D2CF8091D00087FF06C082E054
:10E6800090E09093790280937802012B09F018C4EE
:10E69000A0E0B0E0212C312CC95DDE4F1982188238
:10E6A000C752D14041E050E0CE5DDE4F1882C252E9
:10E6B000D140D12CCD5DDE4F19821882C352D1409A
:10E6C000812C912C5401412C512C32016091660215
:10E6D000709167028091680290916902C75DDE4F78
:10E6E000688379838A839B83C952D14020917802C1
:10E6F0003091790280E090E060E04130510509F40A
:10E70000F3C3EE24E39412E1F12E0AE710E02115A1
:10E71000310529F44091C00047FF08C0E5C322300D
:10E72000310521F44091D00047FD11C041E0E41AC9
:10E73000F1080109110959F70BBFF701E790F690AD
:10E74000EF20E094F1F2EE27FF270994DACF7091E1
:10E75000D600633009F120F4613079F040F015C043
:10E76000653051F1E8F0663009F447C049C07B31AB
:10E7700009F4BDC340E050E0C0CFD726CE5DDE4FE8
:10E780007883C252D14062E0F5CF872F90E0982F76
:10E790008827D72663E0EECF872BD72664E0EACF21
:10E7A0007E3009F0A8C3D726CD5DDE4F19821882CE
:10E7B000C352D14065E0DECFCD5DDE4F4881598147
:10E7C000C352D1404F5F5F4FE1E0F0E0EC0FFD1F1F
:10E7D000CD5DDE4F08811981C352D140E00FF11F9A
:10E7E0007083D7268417950709F487C3CD5DDE4F64
:10E7F00059834883C352D140BDCF7D117CC303C030
:10E80000673009F0B7CFAB2B81F40F946DF184E141
:10E810000F946AF188E292E00F9476F18DE20F9402
:10E820006AF18CE392E00F9476F1809174029091FA
:10E830007502A0917602B0917702892B8A2B8B2BDF
:10E84000A9F5C95DDE4F08811981C752D1400F5F1C
:10E850001F4FC95DDE4F19830883C752D1400B306B
:10E86000110520F11FEF211A310A26E0221631048A
:10E8700010F0212C312C8BE50F946AF180E592E0A9
:10E880000F9476F134E02316310418F48CE5820DF0
:10E8900002C082E682190F946AF18AE20F9473F142
:10E8A000C95DDE4F19821882C752D140809174022F
:10E8B00090917502A0917602B0917702892B8A2BF4
:10E8C0008B2B09F463C080916A0290916B020097D0
:10E8D00009F45CC0019739F488E50F946AF187E583
:10E8E00092E00F9476F180916A0290916B02029708
:10E8F00039F487E50F946AF18EE592E00F9476F192
:10E900002091700230917102409172025091730215
:10E91000A4E6B0E00F94C2F7209174023091750222
:10E9200040917602509177020F9499F7C901C75D23
:10E93000DE4F488159816A817B81C952D140C25ED4
:10E94000DE4F488359836A837B83CE51D140FE01D9
:10E95000E25EFE4F8F010350110930E218161906CE
:10E9600044F46AE070E00F9485F7805D8283CB0108
:10E9700001C032833197E017F10781F7CE01825E43
:10E980009E4F0F9476F185E20F9473F18981843163
:10E9900009F4B9C190F5863009F4D8C000F5823089
:10E9A00009F44EC0833009F478C0813009F034C2D4
:10E9B0001A8288E08B8381E48C8386E58D8382E5EF
:10E9C0008E8389E48F8383E5888780E589878FE557
:10E9D0008A8782E38B87C12C0BE010E022C2813151
:10E9E00009F468C018F4803159F116C2823109F473
:10E9F000A4C0833109F4B7C00FC2893109F48BC0B8
:10EA000048F4863109F47FC108F4ADC0883109F4B7
:10EA10006DC002C28B3109F451C008F45AC08D3167
:10EA200089F0813709F0F8C18A81809374028B8163
:10EA3000809375028C81809376021092770261C177
:10EA4000C12C3AC09D81903339F48F818823B1F075
:10EA50008130B1F488E917C0892F807599F090351D
:10EA600021F489E0E0E0F0E005C0983559F4E3E0F6
:10EA7000F0E089E080935700849105C08EE103C0E7
:10EA800081E001C080E01A821B829C831D828E83FC
:10EA90001F82C12C07E010E0C4C1EA81E059E330D5
:10EAA00028F4F0E0E050FE4F808101C080E01A823F
:10EAB0008B833FC0CC24C3941A82B1C18D8188233B
:10EAC00021F0813021F488E924C08EE122C081E068
:10EAD00020C01A82E1E0F0E089E080935700849141
:10EAE0008B831C82C12C04E010E09BC18B8180359C
:10EAF00051F48C81883019F4E2E0F0E006C089E03E
:10EB0000E0E0F0E003C0E3E0F0E089E0809357004C
:10EB100084911A82E5CF8D81836C99E0E1E0F0E089
:10EB2000082E90935700E89507B600FCFDCF1A8297
:10EB30001B82C12C03E010E074C180EC8A83C12CDD
:10EB400002E010E0812C912C54016BC16A817B8121
:10EB50008C819D810F94BBF72B013C01440C551C0B
:10EB6000661C771CCEC0EA80FB80FE24EF24FE24C6
:10EB7000833109F092C08091740290917502A09146
:10EB80007602B0917702892B8A2B8B2B09F440C037
:10EB9000411451046104710491F4C701A0E0B0E094
:10EBA0008093700290937102A0937202B0937302EB
:10EBB00081E090E090936B0280936A0221C0809183
:10EBC0006C0290916D02A0916E02B0916F02481696
:10EBD00059066A067B06A1F080917002909171023D
:10EBE000A0917202B09173028E0D9F1DA11DB11DE7
:10EBF0008093700290937102A0937202B09373029B
:10EC000040926C0250926D0260926E0270926F029E
:10EC10008114F0EE9F06F3E0AF06B10470F483E0D8
:10EC2000F401A0925B0080935700E89507B600FCC2
:10EC3000FDCF0FEF901AA00AB00A411410EE510652
:10EC400013E06106710408F05CC0B301A201DE01AB
:10EC50001B9621E08D919D910C01FA0160935B0060
:10EC600020935700E89511244E5F5F4F6F4F7F4F01
:10EC700032E0E31AF10871F785E0F20160925B007F
:10EC800080935700E89507B600FCFDCF81E18093A3
:10EC90005700E8952A013B0134C0D301C201B69563
:10ECA000A795979587956C018E01055F1F4FCB5DEA
:10ECB000DE4F19830883C552D14000E010E00E15E5
:10ECC0001F05A9F0CB5DDE4FE881F981C552D14027
:10ECD0006191CB5DDE4FF983E883C552D140C80115
:10ECE0008C0D9D1D0F94F0F70F5F1F4FE8CF20E0B4
:10ECF00030E0000F111F221F331F400E511E621EF5
:10ED0000731E1A828BC02A813B8132272327322728
:10ED100089010D5F1F4F1A82843109F050C0809124
:10ED2000740290917502A0917602B0917702892BBE
:10ED30008A2B8B2B51F1C901A0E0B0E041145104A2
:10ED40006104710471F440916A0250916B02413088
:10ED5000510539F442E050E050936B0240936A024F
:10ED60000CC04091700250917102609172027091DA
:10ED70007302840F951FA61FB71F80937002909394
:10ED80007102A0937202B0937302DE0111966BBE02
:10ED9000F2018791969112968C931297FD01349609
:10EDA00013969C93139742E0440E511C611C711CF6
:10EDB0002250310912962115310549F72AC0D30195
:10EDC000C201B695A79597958795FE013196AF013B
:10EDD000420F531F81BD92BD0196F89A60B56283C0
:10EDE0003196E417F507B1F7C9010197A0E0B0E04B
:10EDF000880F991FAA1FBB1F0296A11DB11D480EA7
:10EE0000591E6A1E7B1EE3E0F0E0EC0FFD1FE20FCF
:10EE1000F31F1082C12C05C080EC8A83C12C02E054
:10EE200010E08BE10F949DF0CE5DDE4F8881C252E1
:10EE3000D1400F949DF0812F0F949DF0802F0F945F
:10EE40009DF085E1CE5DDE4FD880C252D140D826FC
:10EE5000D0268EE00F949DF0D126BE016F5F7F4FCC
:10EE60007B01060F171F0E151F0591F0F701219169
:10EE70007F01CB5DDE4F2883C552D140822F0F9496
:10EE80009DF0CB5DDE4F3881C552D140D326EBCF0C
:10EE90008D2D0F949DF0CE5DDE4F0881C252D14082
:10EEA0000F5FCE5DDE4F0883C252D14085B18058DE
:10EEB00085B9A1E0B0E0C11003C040E050E016CC3D
:10EEC00027982F9884E690E00F94BFF0000080917F
:10EED000C0008D7F8093C00081E180935700E8954A
:10EEE000EE27FF270994FFCF7091C60032CC4BE18B
:10EEF000D42E61E03FCC60E03DCCCD5DDE4F998308
:10EF00008883C352D14066E035CC97FB072E16F4B8
:10EF1000009407D077FD09D00F94CDF707FC05D0FA
:10EF20003EF4909581959F4F0895709561957F4F20
:10EF30000895A1E21A2EAA1BBB1BFD010DC0AA1F3A
:10EF4000BB1FEE1FFF1FA217B307E407F50720F052
:10EF5000A21BB30BE40BF50B661F771F881F991FCD
:10EF60001A9469F760957095809590959B01AC0116
:10EF7000BD01CF010895692796276927782787273C
:10EF8000782708950F94E1F7A59F900DB49F900DF9
:10EF9000A49F800D911D11240895AA1BBB1B51E154
:10EFA00007C0AA1FBB1FA617B70710F0A61BB70BF9
:10EFB000881F991F5A95A9F780959095BC01CD019E
:10EFC0000895A29FB001B39FC001A39F700D811D42
:10EFD0001124911DB29F700D811D1124911D089562
:10EFE000262FF999FECF1FBA92BD81BD20BD0FB665
:10EFF000F894FA9AF99A0FBE01960895F894FFCF03
:10F000000F020A4F726967696E616C2050727573E6
:10F0100061206933005072757361205265736561B8
:10F02000726368002E2E2E0020446F206E6F7420B5
:10F03000646973636F6E6E65637421002055706739
:10F04000726164696E67206669726D7761726500CE
:10F050007C202020207C0077726974652000766512
:0AF06000726966792000202020006C
:040000033000E000E9
:00000001FF
